:020000040800F2
:10000000102F002045A00008090A00084BE6000850
:100010000B0A00080F0A0008130A0008000000007D
:10002000000000000000000000000000170A0008A7
:10003000190A000800000000D3E500088309000841
:100040005FA000085FA000085FA000085FA0000894
:100050005FA000085FA00008E9260008FB26000852
:100060000D2700081F270008312700085FA000089F
:100070005FA00008851A00085FA00008E3190008C7
:10008000071A00085FA000085FA000081D0A00080A
:100090001B0A00085FA000085FA0000843270008B3
:1000A0005FA000085FA000085FA000085FA0000834
:1000B0005FA000085FA000085FA000085FA0000824
:1000C0005FA000085FA000085FA000085FA0000814
:1000D00003220008D1190008F5190008191A0008B0
:1000E000992700085FA000085FA000085FA0000833
:1000F0005FA000085FA000085FA000085FA00008E4
:100100005FA000085FA000085FA000085FA00008D3
:100110005FA00008971A00085FA000085FA0000811
:100120005FA000085FA000085FA000085FA00008B3
:1001300000F002F800F06DF80AA090E8000C82448C
:100140008344AAF10107DA4501D100F062F8AFF269
:10015000090EBAE80F0013F0010F18BFFB1A43F0A5
:100160000103184778DA010098DA01000A444FF0D9
:10017000000C10F8013B13F0070408BF10F8014B06
:100180001D1108BF10F8015B641E05D010F8016B4B
:10019000641E01F8016BF9D113F0080F1EBF10F8AF
:1001A000014BAD1C0C1B09D16D1E58BF01F801CBD2
:1001B000FAD505E014F8016B01F8016B6D1EF9D555
:1001C0009142D6D37047000000230024002500266A
:1001D000103A28BF78C1FBD8520728BF30C148BFAA
:1001E0000B60704766291BF08987002070471FB598
:1001F0001BF022F80400002000211BF097FD401C9A
:100200006060002000211BF07BFDE0601FBD10B589
:1002100010BD1BF05DF91146FFF7E9FF00F099F8FA
:100220001BF089F903B4FFF7F2FF03BC1BF08AF956
:10023000002804D090FAA0F0B0FA80F0401C70477B
:1002400038B5044609F066FF02F057FD002003466A
:1002500018A219A1009019A00FF00DFA18B918A052
:100260000CF0C3F802E01DA00CF0BFF838BD1CB5BF
:1002700000F01CFC00F0FAFD01F0B3F801F0A6F963
:1002800005F0DCF9142008210B020022CDE9001052
:10029000AFF253011AA00DF0A0FA044614B12046A3
:1002A0000DF045FA01F0C8FF01F094FE01F092FD57
:1002B00000201CBD656C6D002F00000073643000D1
:1002C00046696C652053797374656D20696E697435
:1002D00069616C697A6564210A00000046696C6591
:1002E0002053797374656D20696E697469616C7AE5
:1002F0006174696F6E206661696C6564210A000033
:10030000696E69740000000004460D4614A00CF0EC
:100310006CF821461CA00CF068F829461FA00CF0D0
:1003200064F800BFFEE710B500F033FB0CF08DF869
:100330001F4920480CF016FA0CF09CFF0DF0FEFD52
:100340000DF008FEFFF793FF0AF0E8F80CF0AEFF9F
:1003500010BD10B50EF026F9FFF7E5FF002010BD27
:100360000A0D2057726F6E6720706172616D65743F
:1003700065722076616C756520646574656374656B
:1003800064206F6E0D0A00002020202020202066AF
:10039000696C65202025730D0A00000020202020B4
:1003A0002020206C696E65202025640D0A00000065
:1003B00000000120102F00202DE9F84F01200090AF
:1003C000ACE0D148006848B1D0A00CF00EF8002095
:1003D000D8490860CC490860BDE8F88F002240F297
:1003E0004121D5A00FF05CFB0646002E09DAD5A00E
:1003F0000BF0FBFF0120C44908600020CD490860D4
:10040000EAE7002402E0D8490C55641C782CFADB9A
:1004100009F039FE8046002415E07822D2493046A2
:100420000FF0B7FB0746782F0CD0D0A00BF0DDFF04
:1004300030460FF064FB0020BE4908600120B2493D
:100440000860C9E7641C0A2CE7DB09F01CFE814642
:10045000A9EB0800CC49B1FBF0FB30460FF04FFB95
:1004600000221146B4A00FF01BFB0646002E09DA4D
:10047000C6A00BF0BAFF0120A34908600020AD49D7
:100480000860A9E709F0FFFD804600242DE07822EE
:10049000C74930460FF055FB0746782F0CD0C5A052
:1004A0000BF0A3FF30460FF02AFB012096490860AD
:1004B0000020A04908608FE7002513E0BC48405D9C
:1004C000A949495D88420CD0C1A00BF08EFF30468F
:1004D0000FF015FB01208C49086000209549086049
:1004E0007AE76D1C782DE9D3641C0A2CCFDB09F068
:1004F000CAFD8146A9EB0800A349B1FBF0FA0098B8
:10050000421C0146B7A000920BF06FFF5A465146BD
:10051000BAA00BF06AFF30460FF0F1FA51E72DE96F
:10052000F84F01200090ACE07748006848B1BAA0CD
:100530000BF05BFF0020C249086073490860BDE80A
:10054000F88F002240F24121BEA00FF0A9FA064622
:10055000002E09DABEA00BF048FF01206A490860AE
:100560000020B7490860EAE7002402E0C1490C55C1
:10057000641CB42CFADB09F086FD8046002415E0EB
:10058000B422BC4930460FF004FB0746B42F0CD010
:10059000B9A00BF02AFF30460FF0B1FA01205A49FA
:1005A00008600020A6490860C9E7641C0A2CE7DB44
:1005B00009F069FD8146A9EB0800B649B1FBF0FBE3
:1005C00030460FF09CFA002211469EA00FF068FA08
:1005D0000646002E09DAB0A00BF007FF01204A49B9
:1005E0000860002096490860A9E709F04CFD8046A4
:1005F00000242DE0B422B14930460FF0A2FA07469C
:10060000B42F0CD0AEA00BF0F0FE30460FF077FA0E
:1006100001203D4908600020894908608FE70025D6
:1006200013E0A648405D9349495D88420CD0ABA0D9
:100630000BF0DBFE30460FF062FA01203249086011
:1006400000207F4908607AE76D1CB42DE9D3641C53
:100650000A2CCFDB09F017FD8146A9EB08008D4974
:10066000B1FBF0FA0098421C0146A1A000920BF0E9
:10067000BCFE5A46514661A00BF0B7FE30460FF063
:100680003EFA51E71CB5044621469FA00BF0ADFE93
:1006900014F0010F19D02748006818B19FA00BF083
:1006A000A4FE12E001201E21C3020022CDE90010A9
:1006B000A249A3A00DF091F81E4908600846006801
:1006C00018B1084600680DF032F814F0020F19D086
:1006D0005B48006818B19CA00BF087FE12E0012077
:1006E0001E21C3020022CDE900109F499FA00DF0FA
:1006F00074F8534908600846006818B10846006855
:100700000DF015F81CBD0000000000207468726533
:100710006164206673727732206572726F722C7416
:1007200068726561642066737277312071756974CF
:10073000210D0A00040000202F74657374312E64AB
:10074000617400006673727731206F70656E206689
:10075000696C6520666F72207772697465206661C6
:10076000696C65640A0000005803002066737277A4
:1007700031207772697465206461746120666169F3
:100780006C65640A00000000C0D4010066737277D3
:1007900031206F70656E2066696C6520666F72200F
:1007A00072656164206661696C65640A000000001E
:1007B000D003002066737277312072656164206611
:1007C000696C65206661696C65640D0A0000000053
:1007D00066737277312064617461206572726F7222
:1007E000210D0A0074687265616420667372773146
:1007F00020726F756E6420256420000072643A25B3
:1008000064627974652F732C77723A256462797407
:10081000652F730D0A0000007468726561642066BC
:1008200073727731206572726F722C7468726561B1
:10083000642066737277322071756974210D0A0025
:10084000080000202F74657374322E6461740000F8
:100850006673727732206F70656E2066696C6520F2
:10086000666F72207772697465206661696C656471
:100870000A00000048040020667372773220777205
:100880006974652064617461206661696C65640ADD
:100890000000000020BF02006673727732206F7084
:1008A000656E2066696C6520666F72207265616492
:1008B000206661696C65640A00000000FC04002089
:1008C000667372773220726561642066696C652098
:1008D0006661696C65640D0A0000000066737277DA
:1008E000322064617461206572726F72210D0A009A
:1008F00074687265616420667372773220726F75F6
:100900006E64202564200000617267206973203ABC
:10091000203078253032582000000000667372774E
:10092000315F74687265616420616C7265616479BD
:1009300020657869737473210D0A0000B9030008FB
:10094000667372773100000066737277325F746885
:100950007265616420616C72656164792065786993
:10096000737473210D0A00001F0500086673727707
:100970003200000010B500214FF0006009F0D9FAF4
:1009800010BD10B50BF03EF909F08BFB0BF051F9DF
:1009900010BD70B5FFF7EEFF164800686422B0FB8B
:1009A000F2F1481EB0F1807F00D319E0481E4FF0ED
:1009B000E022506150170F22002806DA13010E4C76
:1009C00000F00F052D1F635502E013010B4C23545B
:1009D00000BF00204FF0E02290610720106100BFAF
:1009E00001F04FFE01F0EAF805A00BF073FD09F0ED
:1009F00087FB70BD7001002018ED00E000E400E00E
:100A00007561727431000000704700BFFEE700BFDF
:100A1000FEE700BFFEE77047704770477047000071
:100A200008B50121082005F0B8FA10208DF8030060
:100A300003208DF802004FF48070ADF80000694685
:100A40003E4807F0EBF94FF480713C4807F0C3FBD8
:100A500008BD10B504462CB94FF48071374807F033
:100A6000E5FB00E000BF00BF10BD10B504462CB987
:100A70004FF48071314807F0AEFB00E000BF00BFCB
:100A800010BD3D240021204612F014FD0DE0002190
:100A9000204612F022FD32200CF0F2FF0121204608
:100AA00012F01BFD32200CF0EBFFF0E71FB5022027
:100AB00014210202224BCDE90032CDE902100023BD
:100AC000204A21A121480CF0D8FD04462CB91F482A
:100AD0000CF02DFE002004B010BD1DA00BF085FC15
:100AE0004FF0FF30F7E770B505460C461F48007819
:100AF00020B9FFF795FF01201C4908706DB914B1AA
:100B0000012C08D103E00020FFF7AFFF04E0002034
:100B1000FFF79FFF00E000BF00BF012D0DD114B112
:100B2000012C08D103E00120FFF79FFF04E0012022
:100B3000FFF78FFF00E000BF00BF70BD000C014059
:100B4000B0050020830A00086C656400B00700202F
:100B50006C6564207468726561642073746172747A
:100B60007570206661696C65642100000C000020CE
:100B7000704770B504464021CB4807F057FB0A2068
:100B8000FFF7F6FF002519E04021C74807F04EFBAC
:100B900014F0010F04D08021C34807F01CFB03E0D0
:100BA0008021C14807F042FB0A20FFF7E1FF402106
:100BB000BD4807F010FB6410681CC5B2082DE3DBCC
:100BC00070BD70B505460C462021B74807F02EFBD6
:100BD0004021B54807F02AFB0A20FFF7C9FF202172
:100BE000B14807F0F8FA0A20FFF7C2FF2846FFF7DE
:100BF000C0FF2046FFF7BDFF2021AB4807F016FBE2
:100C00004021A94807F012FB0A20FFF7B1FF70BD91
:100C100008B50121082005F0C0F96020ADF80000FA
:100C200003208DF8020010208DF8030069469E48CD
:100C300007F0F4F88020ADF8000014208DF80300D0
:100C40006946994807F0EAF880218E20FFF7B9FF3E
:100C500008BD70B5064600242021934807F0E6FA47
:100C60004021914807F0E2FA0A20FFF781FF202196
:100C70008D4807F0B0FA0A20FFF77AFF3046FFF7F9
:100C800078FF002511E04021874807F0A4FA64109E
:100C90004021854807F0CAFA8021834807F083F98C
:100CA00008B144F08004681CC5B2082DEBDB0A20B3
:100CB000FFF75EFF20217C4807F0B8FA204670BDA0
:100CC0007CB5064679A103C9CDE9000100218E203B
:100CD000FFF777FF002411E07648005D0A2190FBC2
:100CE000F1F201FB1200C5B27248005D90FBF1F019
:100CF00005EB00106F490855601CC4B2082CEBDBF3
:100D0000002407E06B4A115D1DF80400FFF759FF4E
:100D1000601CC4B2072CF5DB80218E20FFF751FF49
:100D20007CBD2DE9FF5F05460E4617469846DDE976
:100D30000EAB5EA103C9CDE900018DF808B08DF8B6
:100D400009A08DF80A808DF80B708DF80C60109852
:100D50008DF80D008DF80E5000218E20FFF731FF29
:100D6000002412E002A8005D0A2190FBF1F201FBD1
:100D7000120000F0FF0902A8005D90FBF1F009EB02
:100D8000001002A90855601CC4B2082CEADB00243C
:100D900007E002AA115D1DF80400FFF712FF601CB6
:100DA000C4B2072CF5DB80218E20FFF70AFFBDE8D7
:100DB000FF9F1FB5404840793F4909783E4A527825
:100DC0003D4B9B78CDE90032CDE902103A48C3781B
:100DD0000279817939A00BF008FB1FBD7CB5812019
:100DE000FFF737FF8DF800008320FFF732FF8DF803
:100DF00001008520FFF72DFF8DF802008720FFF707
:100E000028FF8DF803008920FFF723FF8DF80400E9
:100E10008B20FFF71EFF8DF805008D20FFF719FFCF
:100E20008DF80600002415E01DF80400C11700EB42
:100E300011710D111DF80400C11700EB117109119A
:100E4000A0EB011105EB850201EB42011A4A115595
:100E5000601CC4B2072CE7DB7CBDFFF7D9FE04E0C1
:100E600064200CF00DFEFFF7B9FFF9E71FB5052070
:100E700012214FF40072184BCDE90032CDE9021077
:100E80000023164A16A118480CF0F7FB04462CB9AB
:100E900015480CF04CFC002004B010BD13A00BF062
:100EA000A4FA4FF0FF30F7E7000C014080828486FF
:100EB000888A8C000D0000201500002025642D2557
:100EC000642D25642025643A25643A256477656598
:100ED0006B25640D0A000000300800205B0E00083E
:100EE0006473313330320000300A002064733133D0
:100EF0003032207468726561642073746172747535
:100F000070206661696C6564210000004FF0E0228A
:100F1000526942F21073B2FBF3F250434FF0E022F9
:100F2000916900BF4FF0E02292698A1A8242F9D398
:100F3000704708B50121082005F02FF80220ADF810
:100F4000000010208DF8030003208DF80200694690
:100F5000FC4806F063FF0221FA4807F03CF908BD9F
:100F600008B50220ADF8000048208DF8030069465E
:100F7000F44806F053FF08BD08B50220ADF80000A4
:100F800010208DF8030003208DF802006946ED481B
:100F900006F044FF08BD10B5FFF7EEFF0221E94857
:100FA00007F044F940F2EE20FFF7B0FF0221E548D8
:100FB00007F011F90F20FFF7A9FF10BD10B50024AD
:100FC000FFF7CEFF04E0601CC4B20120FFF79EFFD4
:100FD0000221DC4806F0E7FF08B1C82CF3DBC82C7F
:100FE00001DB012010BD002404E0601CC4B201201C
:100FF000FFF78CFF0221D34806F0D5FF08B9F02C8B
:10100000F3DBF02C01DB0120ECE70020EAE710B570
:10101000FFF7B2FF0221CB4807F008F90220FFF7E3
:1010200075FF0221C74807F0D6F8FFF799FF0C209B
:10103000FFF76CFF0221C34806F0B5FF08B1012499
:1010400000E000243220FFF761FF204610BD70B59C
:10105000002400251FE06006040EFFF78DFF02212B
:10106000B84807F0E3F80220FFF750FF0221B54827
:1010700007F0B1F8FFF774FF0C20FFF747FF0221DC
:10108000B04806F090FF08B144F001043220FFF7A9
:101090003DFF681CC5B2022DDDDB204670BD70B57A
:1010A0000026002408E0FFF7B2FF054605FA04F029
:1010B0003043C6B2601CC4B2082CF4DB304670BDAD
:1010C00010B50446FFF758FF74B102219D4807F0A0
:1010D000ADF80220FFF71AFF02219A4807F07BF8CB
:1010E0003C20FFF713FF0DE00221964807F09EF821
:1010F0003C20FFF70BFF0221924807F06CF802201A
:10110000FFF704FF10BD70B50446FFF735FF00255B
:1011100022E004F00106641076B10221894807F04C
:1011200085F80220FFF7F2FE0221864807F053F807
:101130003C20FFF7EBFE0DE00221824807F076F835
:101140003C20FFF7E3FE02217E4807F044F802202E
:10115000FFF7DCFE681CC5B2082DDADB70BD10B5E8
:10116000FFF7E7FEFFF717FFFFF728FF10BD2DE998
:10117000F84FFFF710FFFFF721FFCC20FFF7C3FF69
:101180004420FFF7C0FFFFF706FFFFF717FFCC2053
:10119000FFF7B9FFBE20FFF7B6FFFFF780FF8146DC
:1011A000FFF77DFF0446072C15DD09EB04200FFA3D
:1011B00080FA6FEA0A001AF02BFF834658461AF0AD
:1011C000FBFE07460022604B1AF0F8FD05461AF0B8
:1011D000C3FD83460FE009EB04201AF019FF0090CD
:1011E0001AF0EAFE05460022584B1AF0E7FD0746C2
:1011F0001AF0B2FD83465846BDE8F88F2DE9F04F4E
:1012000093B00027BA46002600BFFFF7C4FE4FF494
:10121000F070FFF77BFEF020FFF775FF00246DE014
:10122000002600255FE0FFF712FF814609F0030961
:101230007610B9F1010F08D10020FFF741FF00201F
:1012400005EBC40101AA50544BE0B9F1020F0AD1D9
:1012500046F080060120FFF733FF012005EBC401B3
:1012600001AA50543DE0B9F1000F3AD105EBC4009A
:10127000401C00F0FF0811A8C05D40450EDA0020B8
:10128000FFF71EFF002005EBC40101AA5054781C93
:10129000C0B2074611A901F8008022E011A8C05D84
:1012A00040450EDD05EBC40001A9085C00F001001B
:1012B00046EAC01605EBC40101AA505CFFF700FF27
:1012C0000FE011A8C05D40450BD146F0800601201B
:1012D000FFF7F6FE012005EBC40101AA5054781E69
:1012E000C7B2681CC5B2082D9DDBB3465E461848E0
:1012F00000EBCA0000F804B0601CC4B2082C8FDBFD
:101300000AF1010000F0FF0A9DF8450018B1BAF19A
:10131000080FFFF67AAF0F4880F800A013B0BDE8C1
:10132000F08F1CB5002404E00BA00BF05EF8601CED
:10133000C4B2FFF714FF08B1052CF5DB052C1ADA4F
:1013400016E00000000C01400000B0BF0000B03FFC
:10135000B00A0020240000204453313842323020AB
:10136000636865636B206661696C64210D0A000027
:101370002BA00BF03AF833E00020FFF7F8FE074609
:1013800038461AF019FE05462A460B462AA1684639
:1013900019F086F902212A4806F005FE58B12948BD
:1013A000006840B928A00BF020F801F0E3FB012011
:1013B0002449086010E00221214806F0F4FD58B9E4
:1013C00020480068012807D123A00BF00EF801F097
:1013D000E1FB00201B4908604FF496700CF050FBB5
:1013E000CAE71FB50F2011214FF400721E4BCDE943
:1013F0000032CDE9021000231C4A1DA11E480CF04A
:101400003CF904462CB91C480CF091F9002004B0BA
:1014100010BD1AA00AF0E9FF4FF0FF30F7E7000017
:101420004453313842323020636865636B20726503
:10143000616479210D0A0000252E3266000000004B
:101440000008014020000020736420646574656317
:1014500074206F6E200D0A007364206465746563E8
:1014600074206F66660D0A00F00A0020231300083E
:101470006473313862323000F00C0020647331380C
:1014800062323020746872656164207374617274B2
:101490007570206661696C656421000000B587B0D5
:1014A00001214FF4047004F078FD4FF4004004F083
:1014B00040FC0420ADF8040000208DF8070001A9CD
:1014C000514806F0ABFC514804F0FEFF00200290AA
:1014D0008DF80C008DF80D004FF460200490002072
:1014E000059001208DF8180002A9484805F021F860
:1014F0000121464805F0E8F8444805F062F900BFCC
:10150000424805F074F90028FAD1404805F08AF9FC
:1015100000BF3E4805F09CF90028FAD107B000BD95
:1015200010B50446072301222146384805F069FA20
:101530000121364805F0A7F900BF0221334805F024
:101540007DFE0028F9D0314805F051FB10BD2DE992
:10155000F04107460C460025002608E03846FFF714
:10156000DFFF054400200CF08BFA701CC6B2A642C7
:10157000F4DBB5FBF4F080B2BDE8F0811CB50024CB
:10158000FFF78CFF21E005210C20FFF7E0FF8246EA
:101590001AF056FD81461AF00FFD07464FF06632ED
:1015A0001B4B1AF00BFC05461AF0D6FB04462046EE
:1015B0001AF002FD05462A460B4616A1684619F0A8
:1015C0006FF84FF4FA700CF05BFADCE71FB50F20F0
:1015D00010214A01114BCDE90032CDE90210002360
:1015E0000F4A10A110480CF048F804462CB90E48D8
:1015F0000CF09DF8002004B010BD0CA00AF0F5FE20
:101600004FF0FF30F7E700000010014000240140D8
:10161000663E953F252E326600000000700D0020CA
:101620007D15000861646300700F00206164632011
:101630007468726561642073746172747570206679
:1016400061696C65642100007FB505460C4625B9CB
:101650005222F649F6A00AF0A8FF24B95322F34912
:10166000F8A00AF0A2FFEE6B20680090207900F04D
:101670000F00082803D10020ADF8040008E020790D
:1016800000F00F00092803D14FF48050ADF804009A
:101690002079C0F3011018B90020ADF8060007E06A
:1016A0002079C0F30110012802D14003ADF80600F3
:1016B0002079C0F3811018B90020ADF8080011E0BE
:1016C0002079C0F38110012804D14FF4C060ADF837
:1016D000080007E02079C0F38110022802D14002FF
:1016E000ADF808000020ADF80C000C20ADF80A00A1
:1016F0006946306807F0A5F80121306807F0E5F980
:10170000002004B070BD70B58CB00546EC6BEE6C7B
:10171000A86CC0F38F216161012240F2244120684E
:1017200007F000FA0121084604F00CFC0121022018
:1017300004F008FCA06807F00BFF2068001D019072
:101740003068029000200390A86CC0F38F200490B2
:10175000002005908020069000200790089020200F
:10176000099000020A9000200B9001A9A06807F0E0
:10177000C6FFE06808F06EFA01220221A06808F0B6
:10178000FBF801224021206807F075FA0121A068CA
:1017900008F084F8207C8DF8000000208DF801000E
:1017A0008DF8020001208DF80300684608F071FBF7
:1017B0000CB070BD2DE9F04105460E461746B846FF
:1017C00025B97C22A3499AA00AF0EFFEEC6B032E08
:1017D0002AD0102E13D0112E2DD194F9040000F030
:1017E0001F02012191409C4A430942F8231000BF87
:1017F000002240F22551206807F094F91BE094F98B
:10180000040000F01F020121914042094FF0E02343
:1018100003EB8202C2F8001100BF012240F2255101
:10182000206807F07FF906E0B8F5007F02D128466E
:10183000FFF769FF00BF00BF0020BDE8F08170B571
:1018400005460E4625B99D22844979A00AF0ADFED1
:10185000EC6B288B10F4806F16D02068008810F095
:10186000800F08D1012240F22661206807F05AF962
:101870004FF0FF3070BD20688680012240F2266163
:10188000206807F04FF907E02068868000BF2068D5
:10189000008810F0400FFAD00120EBE770B5044645
:1018A00024B9B8226E4962A00AF07FFEE56B4FF0C2
:1018B000FF362868008810F0200F02D02868808842
:1018C000C6B2304670BD2DE9F0410546EC6B0CF018
:1018D00069FE8046A06808F0E0F861690E1AA06908
:1018E000371AA66140460CF061FE2FB1032040EA92
:1018F0000721284612F0A3FA206807F0FEFAE068F4
:1019000008F0A8F9BDE8F0812DE9F0410546EC6B3F
:101910000CF048FE0746D4E905100E1A0021A1611B
:1019200038460CF043FE2EB1032040EA062128463B
:1019300012F085FAE06808F08DF9BDE8F08170B525
:101940000546EC6B24B9FE22464947A00AF02DFE5D
:1019500040F22551206807F018FD68B10121206888
:1019600007F084FC18B90121284612F068FA40F209
:101970002551206807F093FD40F22441206807F0CC
:1019800004FD10B12846FFF79EFF40F22661206853
:1019900007F0FBFC90B1288B10F4806F03D002217C
:1019A000284612F04CFA002240F22661206807F027
:1019B000B9F840F22661206807F071FD082120681F
:1019C00007F054FC012802D12846FFF767FF70BDDD
:1019D00010B50AF017F92848FFF7B1FF0AF029F906
:1019E00010BD10B50AF00EF92348FFF78DFF0AF07D
:1019F00020F910BD10B50AF005F92048FFF79FFF48
:101A00000AF017F910BD10B50AF0FCF81B48FFF7F3
:101A10007BFF0AF00EF910BD10B50AF0F3F8184874
:101A2000FFF78DFF0AF005F910BD000014C1010891
:101A300073657269616C20213D2052545F4E554C94
:101A40004C00000063666720213D2052545F4E55D4
:101A50004C4C000024C1010880E100E032C10108C3
:101A60003DC1010848C101087561727420213D2003
:101A700052545F4E554C4C00F00F00204410002093
:101A80009810002010B50AF0BDF87D48FFF73CFF24
:101A90000AF0CFF810BD10B50AF0B4F87948FFF796
:101AA0004EFF0AF0C6F810BD10B50121052004F064
:101AB00074FA0121880304F070FA0121052004F072
:101AC0006CFA0121480404F091FA0121092004F084
:101AD00064FA0121880404F089FA0121312004F01C
:101AE0005CFA0121080504F081FA10BD08B5022056
:101AF0008DF8020004208DF803000002ADF800000C
:101B00006946614806F08AF918208DF803004FF401
:101B10000070ADF8000069465B4806F07FF90420CC
:101B20008DF803000820ADF800006946564806F01D
:101B300075F918208DF803000420ADF800006946FF
:101B4000514806F06BF904208DF803004002ADF80F
:101B5000000069464D4806F061F918208DF8030031
:101B60004FF48060ADF800006946484806F056F929
:101B700004208DF80300ADF800006946444806F0E3
:101B80004DF918208DF803004FF48050ADF8000097
:101B90006946404806F042F908BD38B50446207948
:101BA0008DF8000000208DF8010001208DF8020062
:101BB0008DF80300684608F06CF938BD1CB536494D
:101BC00003C9CDE90001FFF76FFFFFF78FFF334C2B
:101BD0004FF4E13000903248324908640846DDE9AC
:101BE0000012C0E911122046FFF7D7FF234640F24A
:101BF00003722DA12B4812F0F9F82D4C4FF4E1306F
:101C0000009027482B4908640846DDE90012C0E926
:101C100011122046FFF7C1FF234640F2037226A1AE
:101C2000244812F0E3F8264C4FF4E13000901C48B1
:101C3000134908640846DDE90012C0E91112204684
:101C4000FFF7ABFF234640F203721EA10C4812F0CF
:101C5000CDF81E4C4FF4E13000901148094908645A
:101C60000846DDE90012C0E911122046FFF795FF92
:101C7000234640F2035216A1024812F0B7F81CBDE9
:101C800098100020EC10002000080140000C0140DA
:101C9000001401400010014054C101082800002038
:101CA00000C10108F00F002075617274310000005E
:101CB000440000204410002075617274320000005E
:101CC0006000002075617274330000007C00002009
:101CD000756172743500000038B504460D46002069
:101CE000009001236A46411E204608F0FEFA0128B2
:101CF00002D04FF0FF3038BD9DF80000242804D1F9
:101D00000120474981F8200028E0454890F820004C
:101D1000012823D19DF800000D2807D1002040495B
:101D200081F82000084608F098FD17E09DF80010A3
:101D30003B4890F8212022308154223890F821002D
:101D4000401C374981F82100084690F821000C28F2
:101D500004DB002081F8200081F821000020CAE780
:101D600070B505462FA008F0E5F904461CB92FA070
:101D70000AF03BFB70BD40F20311204608F049FA1F
:101D800018B134A00AF031FBF4E7AFF2B3012046FA
:101D900008F00DFB1DE04FF0FF31214808F0D1FCA9
:101DA00000221F4890F82100401E1D4922310A548C
:101DB00031A00AF01AFB1A4890F82100431E184A75
:101DC00022320021204608F0B6FA0020144981F89A
:101DD0002100E0E77CB52C220021114809F07BFFAF
:101DE00000231A4626A10E4808F030FC05461DB116
:101DF00027A00AF0FAFA7CBD072019214FF480636E
:101E00000022CDE90010AFF2A70129A00BF0E5FCFC
:101E1000044614B120460BF08AFC00BFEBE700003B
:101E20004011002075617274330000005541525416
:101E30005F444154413A2063616E206E6F742066A6
:101E4000696E64206465766963653A2075617274B1
:101E5000350A000075617274353A2063616E206E38
:101E60006F74206F70656E206465766963653A20D3
:101E700075617274330A000025730D0A00000000BA
:101E8000776C5F3433335F72785F73656D00000089
:101E9000696E6974206D657373616765207175651E
:101EA0007565206661696C65642E0D0A000000008E
:101EB000554152545F4441544100000010B5024660
:101EC0000020002305E014780444E0B2521C5C1C9E
:101ED000E3B28B42F7DB10BD38B504460D46002057
:101EE000009001236A46411E204608F0FEF90128B1
:101EF00002D04FF0FF3038BD9DF80000242804D1F7
:101F00000120474981F8200028E0454890F820004A
:101F1000012823D19DF800000D2807D10020404959
:101F200081F82000084608F098FC17E09DF80010A2
:101F30003B4890F8212022308154223890F821002B
:101F4000401C374981F82100084690F821000C28F0
:101F500004DB002081F8200081F821000020CAE77E
:101F600070B505462FA008F0E5F804461CB92FA06F
:101F70000AF03BFA70BD40F20311204608F049F91F
:101F800018B134A00AF031FAF4E7AFF2B3012046F9
:101F900008F00DFA1DE04FF0FF31214808F0D1FBA9
:101FA00000221F4890F82100401E1D4922310A548A
:101FB00031A00AF01AFA1A4890F82100431E184A74
:101FC00022320021204608F0B6F90020144981F899
:101FD0002100E0E77CB52C220021114809F07BFEAE
:101FE00000231A4626A10E4808F030FB05461DB115
:101FF00027A00AF0FAF97CBD072019214FF480636D
:102000000022CDE90010AFF2A70129A00BF0E5FBFB
:10201000044614B120460BF08AFB00BFEBE700003A
:102020006C1100207561727435000000574C5F34EC
:1020300033334D3A2063616E206E6F742066696E93
:1020400064206465766963653A2075617274350A47
:102050000000000075617274353A2063616E206E75
:102060006F74206F70656E206465766963653A20D1
:1020700075617274350A000025730D0A00000000B6
:10208000776C5F3433335F72785F73656D00000087
:10209000696E6974206D657373616765207175651C
:1020A0007565206661696C65642E0D0A000000008C
:1020B000574C5F3433334D0030B587B06D4D242419
:1020C0000121880303F092FF0121092003F065FF3D
:1020D000A800ADF8180018208DF81B0003208DF81B
:1020E0001A0006A9644805F099FEA900624806F0A6
:1020F00072F80020ADF804004FF48270ADF80600CD
:102100000020ADF808000220ADF80A000120ADF86B
:102110000C004002ADF80E003820ADF81000002091
:10212000ADF812000720ADF8140001A9284605F00B
:1021300069F901226021284605F06AFB8DF800400C
:1021400001208DF801008DF802008DF8030068462B
:1021500007F09FFE0121284605F0E7FA07B030BDE1
:1021600070B50446434D6CB1082C0BD0102C09D02F
:10217000182C07D0202C05D0282C03D0302C01D0CF
:10218000382C00D103E05B213CA0FEF7BDF8288885
:102190004FF6C771084028802888204328800121F5
:1021A000284605F0C2FA70BD70B504460025314ED0
:1021B00004E0681CC5B2642D00DD70BD022130460C
:1021C00005F0E9FC0028F4D02146304605F092FBEA
:1021D000002500BFF1E770B50024264D05E0601C26
:1021E000C4B2642C01DD002070BD0121284605F039
:1021F000D2FC0028F3D00024284605F090FBC0B2A2
:10220000F2E770B51B4D0121284605F0C4FC0128FA
:1022100007D1284605F083FBC4B221461CA00AF072
:10222000E4F870BDFFF748FF1020FFF799FF02E0C8
:1022300064200BF025FCFBE71FB5052014214FF4AB
:102240000072154BCDE90032CDE902100023134A8C
:1022500013A116480BF011FA04462CB913480BF0E1
:1022600066FA002004B010BD11A00AF0BEF84FF0CD
:10227000FF30F7E700380040000C014064726976D7
:102280006572735C7370695F646174612E630000D2
:1022900025640D0A00000000981100202522000886
:1022A0007370695F6461746100000000981300201E
:1022B0007370695F64617461207468726561642021
:1022C00073746172747570206661696C6564210055
:1022D0000146412907D2FE4A02EB01100268521C56
:1022E00002D1002000E0002070472DE9F0410746B0
:1022F0000D461646E8B2FFF7EBFF04460CB9BDE801
:10230000F0812EB9A28991B2A06805F08FFF04E098
:10231000A28991B2A06805F05EFF00BFEFE72DE94A
:10232000F04107460D460026E8B2FFF7D1FF04460C
:1023300014B93046BDE8F081A28991B2A06805F0D9
:1023400032FE08B9002600E001263046F2E7F8B573
:1023500007460E461446F0B2FFF7BAFF054605B928
:10236000F8BD0121686803F018FEA88980B2ADF8B5
:10237000000010208DF8030003208DF802001CB926
:1023800010208DF803000EE0012C03D104208DF8FD
:10239000030008E0022C03D148208DF8030002E07E
:1023A00028208DF803006946A86805F037FD00BFB6
:1023B000D6E70246002106E001208840904201D184
:1023C00008467047491C2029F6DB4FF0FF30F8E73C
:1023D0002DE9F05F83460D4616461F46DDF828803E
:1023E0004FF0FF34E8B2FFF773FF8146B9F1000FF9
:1023F00002D1601FBDE8F09FD9F80C00FFF7D9FFAC
:102400000446002C01DB102C02D36FF00500F1E72D
:102410000CF0C8F8824604EB4400AE4931F92000C4
:10242000A84219D104EB440001EB80004068B84297
:1024300012D104EB440001EB80004088B0420BD184
:1024400004EB440001EB80008068404504D1504615
:102450000CF0ACF80020CDE704EB44009D4931F9C5
:102460002000401C05D050460CF0A0F86FF006008C
:10247000C0E728B204EB4401964A22F8210004EB9D
:102480004400114601EB8000476004EB440102EB7D
:1024900081014E8004EB4400114601EB8000C0F83E
:1024A000088050460CF082F80020A3E72DE9F041A7
:1024B00080460D464FF0FF34E8B2FFF709FF0646AD
:1024C00016B9601FBDE8F081F068FFF772FF04469F
:1024D000002C01DB102C02D36FF00500F2E70CF0AA
:1024E00061F8074604EB44007A4931F92000401CAA
:1024F00004D138460CF05AF80020E3E74FF0FF30E3
:1025000004EB4401734A22F82100002004EB44014B
:1025100002EB8101486004EB440102EB8101488039
:1025200004EB440102EB8101886038460CF03EF870
:102530000020C7E72DE9FF5F894617464FF0FF36B9
:1025400009F0FF00FFF7C4FE04461CB9701F04B079
:10255000BDE8F09F012F67D1E068FFF72AFF06462C
:10256000002E01DB102E02D36FF00500EFE70CF018
:1025700019F8834606EB4600564931F92000401C05
:1025800005D158460CF012F86FF00500DFE706EBB6
:102590004600514901EB80050121606803F0FDFC14
:1025A000A08980B2ADF80C0048208DF80F00032000
:1025B0008DF80E0003A9A06805F030FC287A8DF88C
:1025C000080002208DF809008DF80A0001208DF81E
:1025D0000B0002A807F05DFC6868009000208DF8F1
:1025E000040006EB46003B4901EB8000408820B127
:1025F000012806D002280CD107E008208DF805003C
:1026000007E00C208DF8050003E010208DF8050090
:1026100000BF00BF01208DF80600684603F0F0FD02
:1026200058460BF0C3FF2AE037BBD4F80CA0504645
:10263000FFF7BFFE8046B8F1000F02DBB8F1100FC4
:1026400001D3002004E008EB4800234901EB80009F
:10265000054615B96FF0050079E76868009000201D
:102660008DF8040008208DF8050000208DF8060084
:10267000684603F0C5FD02E06FF0050067E7002043
:1026800065E710B50022154915A010F0A9FE044613
:10269000204610BD10B5044604EB44010E4A02EB7F
:1026A000810191F9080003F0DDFE04EB44000949C3
:1026B00001EB80004068B0B104EB44020B4603EB31
:1026C0008202906804EB440203EB8202516809E045
:1026D0005CC10108980000206CC501082CC60108E7
:1026E00070696E00884710BD10B509F08BFA0020A4
:1026F000FFF7D0FF09F09DFA10BD10B509F082FA7E
:102700000120FFF7C7FF09F094FA10BD10B509F0DA
:1027100079FA0220FFF7BEFF09F08BFA10BD10B561
:1027200009F070FA0320FFF7B5FF09F082FA10BD37
:1027300010B509F067FA0420FFF7ACFF09F079FA49
:1027400010BD10B509F05EFA202003F03FFE10B175
:102750000520FFF79FFF402003F038FE10B1062050
:10276000FFF798FF802003F031FE10B10720FFF73C
:1027700091FF4FF4807003F029FE10B10820FFF79D
:1027800089FF4FF4007003F021FE10B10920FFF71C
:1027900081FF09F04EFA10BD10B509F033FA4FF47D
:1027A000806003F013FE10B10A20FFF773FF4FF4AF
:1027B000006003F00BFE10B10B20FFF76BFF4FF42E
:1027C000805003F003FE10B10C20FFF763FF4FF4BD
:1027D000005003F0FBFD10B10D20FFF75BFF4FF43D
:1027E000804003F0F3FD10B10E20FFF753FF4FF4CC
:1027F000004003F0EBFD10B10F20FFF74BFF09F095
:1028000018FA10BD70B586B006460C46356C01A8A6
:1028100004F075FF6078082803DC0020ADF808009C
:102820000AE06078102804DC4FF40060ADF808007E
:1028300002E0082006B070BD606800F0F6F8ADF860
:102840001000207810F0020F03D00220ADF80A002B
:1028500002E00020ADF80A00207810F0010F03D04C
:102860000120ADF80C0002E00020ADF80C0020784B
:1028700010F0040F03D00020ADF8120002E0802019
:10288000ADF812000020ADF804004FF48270ADF8EE
:1028900006004FF40070ADF80E00E86E04F07EFD07
:1028A00001A9E86E04F0AEFD0121E86E04F03DFFE1
:1028B0000021E86E05F0DEF80020BBE72DE9FC5FA3
:1028C00006460C46306C019006F144090198C06E32
:1028D0000090F56BD4F808A0207C10F0010F04D014
:1028E0001DB1A988286805F0A1FC99F80100082805
:1028F0002BDC2768D4F8048021E04FF0FF0B0FB1E8
:1029000017F801BB00BF0221009805F044F9002828
:10291000F9D05946009804F0EDFF00BF012100985E
:1029200005F039F90028F9D0009804F0F8FF00F01C
:10293000FF0BB8F1000F01D008F801BB00BF5FEA40
:102940000A00AAF1010AD8D12EE099F80100102856
:102950002ADC2768D4F8048020E04FF0FF0B0FB189
:1029600037F802BB00BF0221009805F014F90028D7
:10297000F9D05946009804F0BDFF00BF012100982E
:1029800005F009F90028F9D0009804F0C8FF834643
:10299000B8F1000F01D028F802BB00BF5FEA0A00BF
:1029A000AAF1010AD9D100BF207CC0F3400020B1B8
:1029B0001DB1A988286805F00EFCA068BDE8FC9F41
:1029C0002DE9F04105460C4616460027B846012180
:1029D000084603F0E2FA3248854205D1E06601215B
:1029E000801403F0DAFA14E02E48854205D1E0663F
:1029F0000121001403F0FAFA0BE02B48854205D1BF
:102A0000E0660121C01303F0F1FA02E00620BDE800
:102A1000F081264A3146204611F0CCFB0746E08A79
:102A200040EA0800E0823846F1E70146204A126891
:102A3000B1EB520F07D31E4A12681E4BB3EB520F75
:102A400001D300202AE01A4A1268B1EB920F01D399
:102A5000082023E0164A1268B1EBD20F01D31020F0
:102A60001CE0134A1268B1EB121F01D3182015E0C5
:102A70000F4A1268B1EB521F01D320200EE00C4A1E
:102A80001268B1EB921F01D3282007E0084A1268B0
:102A9000B1EBD21F01D3302000E038207047000096
:102AA0000030014000380040003C00405801002048
:102AB000700100200051250208B50121052003F016
:102AC0006CFAE020ADF8000003208DF80200182019
:102AD0008DF8030069469E4805F0A0F99DA29F4924
:102AE0009F48FFF76DFF01208DF8020010208DF840
:102AF000030097489B49086010208880012104202A
:102B000003F04BFA97488088ADF80000954A918809
:102B1000106805F060FB93490868694605F07EF986
:102B2000904B8CA290A1924811F05DFB01208DF892
:102B3000020010208DF8030085488E4908600420AB
:102B40008880012103F029FA8A488088ADF80000C6
:102B5000884A9188106805F03EFB864908686946F6
:102B600005F05CF9834B7BA283A1854811F03BFB08
:102B7000002008BD08B5E420ADF8000004208DF861
:102B800003006946724805F049F90121704805F0D3
:102B90004DFB08BD08B50120ADF800008DF802001E
:102BA00010208DF803006946694805F037F90121C6
:102BB000674805F010FBFFF77FFF08BD70B50022E6
:102BC000422170A00CF06CFF0646002E03DA72A0C2
:102BD00009F00BFC70BD002404E004F11B007649F1
:102BE0000855641C782CF8D37822734930460CF0D1
:102BF000D0FF0546782D06D070A009F0F6FB3046D0
:102C00000CF07DFFE6E730460CF079FF002240F241
:102C100041415CA00CF044FF0646002E03DA6CA094
:102C200009F0E3FBD6E77822634930460CF0B1FFA8
:102C30000546782D06D06FA009F0D7FB30460CF082
:102C40005EFFC7E730460CF05AFF002211464DA048
:102C50000CF026FF0646002E03DA6DA009F0C5FB36
:102C6000B8E77822734930460CF06BFF0546782DA3
:102C700006D071A009F0B9FB30460CF040FFA9E77F
:102C800000240EE04C48005D6A49095D884207D087
:102C9000214670A009F0A9FB30460CF030FF99E7FF
:102CA000641C782CEED37822624930460CF049FF40
:102CB0000546782D06D060A009F097FB30460CF051
:102CC0001EFF87E700240EE03B48005D5949095D7F
:102CD000884207D021465FA009F087FB30460CF000
:102CE0000EFF77E7641C782CEED330460CF007FF1C
:102CF00061A009F07AFB00BF6CE708B50121042050
:102D000003F04BF90120ADF800008DF8020010200F
:102D10008DF8030069460E4805F080F801210C4843
:102D200005F059FA0220ADF8000028208DF80300C4
:102D30006946074805F072F80BA154A011F071FF25
:102D400002200AF09DFE0CA152A002F0D6FB08BDA5
:102D50000008014073706931000000001814002061
:102D600000300140600100207370693130000000C4
:102D70008814002068010020737069313100000060
:102D8000D41400202F5359535445524D2F474B43D1
:102D90005F312E54585400004F70656E2066696C88
:102DA0006520666F72207772697465206661696C50
:102DB00065640D0A00000000201500207772697418
:102DC000652064617461206661696C65640D0A0048
:102DD0006F70656E2066696C6520666F7220617029
:102DE00070656E64207772697465206661696C65D0
:102DF000640D0A00617070656E6420777269746595
:102E00002064617461206661696C65640D0A00006C
:102E1000636865636B3A206F70656E2066696C65E8
:102E200020666F722072656164206661696C6564FA
:102E30000D0A000098150020636865636B3A2072E4
:102E40006561642066696C65206661696C65640D06
:102E50000A000000636865636B203A20636865635D
:102E60006B2064617461206661696C6564206174C3
:102E70002025640D0A000000726561642F77726975
:102E8000746520646F6E652E0D0A0000773235710F
:102E9000363400007364300070B50446216C01F1D3
:102EA00044004FF0FF3107F0A8FD054675B9206CCE
:102EB000806EA0420AD0206C006C04F144010268CC
:102EC0002046904705460DB9206C8466284670BDA3
:102ED00010B586B00446002001900290039005983A
:102EE00020F00100401C0590059820F0020005909C
:102EF000206C006C01A942682046904706B010BDC6
:102F000010B586B004460020019002900390059809
:102F100020F001000590059820F00200801C05902B
:102F2000206C006C01A942682046904706B010BD95
:102F30002DE9F04104460F46E51907F0A4F80646CE
:102F40004FF00008A54207D3AE4202D34FF001086C
:102F50000BE04FF0000808E0A64204D2AE4202D3D4
:102F60004FF0010801E04FF000084046BDE8F08155
:102F7000F0B502460B460020002124E0555C0024F9
:102F80001BE0C0F38016C5F3C01796EA070C08D003
:102F900080F004004FEA406C4FEA1C6040F00100F2
:102FA00003E04FEA406C4FEA1C6004F1010C0CF0A6
:102FB000FF044FEA456C4FEA1C65082CE1DB01F188
:102FC000010C0CF0FF019942D8DBF0BD70B588B060
:102FD000044607F058F80546FF20029002A8039027
:102FE00001A8049001200590079820F00200C0F38A
:102FF000400161F30000079022E0206C006C03A9FF
:103000004268204690479DF80400FF2802D1002026
:1030100008B070BD4FF47A7007F058F80646314694
:103020002846FFF785FF58B107F02DF806463146D0
:10303000FAA009F0DAF9FCA009F0D7F90220E7E7D5
:10304000DBE72DE9F04F8BB004468A4615461F4654
:10305000DDE91468FF208DF810004AF040008DF87B
:103060001100280E8DF81200280C8DF81300280A84
:103070008DF81400E8B28DF815004FB905210DF157
:103080001100FFF775FF0746012000EB4700C7B2AC
:103090008DF81670FF208DF8170004A8069002A87E
:1030A0000790082008900A9820F00200C0F3400121
:1030B00061F300000A902046FFF788FF206C006C47
:1030C00006A94268204690474FF001091DE0FF2005
:1030D000019001A80690CDF81C80012008900A9864
:1030E00020F00200C0F3400161F300000A90206C60
:1030F000006C06A942682046904798F8000010F03E
:10310000800F00D104E009F10109B9F10A0FDED303
:1031100000BFB9F10A0F03D101200BB0BDE8F08F59
:10312000012E01D10020F8E7022E2AD106F0ABFFD4
:10313000834625E00020069001A807900120089012
:103140000A9820F00200C0F3400161F300000A90E9
:10315000206C006C06A94268204690479DF8040048
:10316000FF2801D10020D8E74FF4FA6006F0AEFF47
:10317000014600905846FFF7DBFE08B10220CCE77D
:10318000D8E7032E15D10020069008F10100079022
:10319000012008900A9820F00200C0F3400161F37A
:1031A00000000A90206C006C06A9426820469047F7
:1031B0001BE0042E01D0072E15D10020069008F147
:1031C00001000790042008900A9820F00200C0F344
:1031D000400161F300000A90206C006C06A942686F
:1031E0002046904701E0012097E7002095E7F0B5E1
:1031F00087B004460D4606F046FF0646FF200190C4
:1032000001A80290CDF80CD001200490069820F07F
:103210000200C0F3400161F30000069022E0206C40
:10322000006C02A94268204690479DF80000A84221
:1032300002D1002007B0F0BD4FF4487006F046FF01
:10324000074639463046FFF773FE58B106F01BFFBC
:103250000746394671A009F0C8F87AA009F0C5F808
:103260000220E7E7DBE7F0B587B004460D461646D7
:10327000FE212046FFF7BBFF074617B1384607B0CF
:10328000F0BD0020029003950496069820F00200FD
:10329000C0F3400161F300000690206C006C02A9AD
:1032A0004268204690470020029001A80390022027
:1032B0000490069820F00200C0F3400161F3000082
:1032C0000690206C006C02A94268204690470020BE
:1032D000D5E72DE9F0438BB004460D4616461F4650
:1032E0001022FF2102A808F0F6FC8DF8177002A842
:1032F000069000200790102008900A9820F0020005
:10330000C0F3400161F300000A90206C006C06A934
:1033100042682046904706950020079008960A9834
:1033200020F00200C0F3400161F300000A90206C1D
:10333000006C06A942682046904702A8069001A8A2
:103340000790032008900A9820F00200C0F3400183
:1033500061F300000A90206C006C06A942682046C8
:1033600090479DF8060000F01F08B8F1050F0ED039
:1033700006F089FE8146494628A009F036F8414604
:103380003AA009F032F801200BB0BDE8F0832046E6
:10339000FFF71CFEF8E72DE9F04F8DB08046894617
:1033A00092461E464446E06CFFF776FD054655B151
:1033B00006F069FE0746394618A009F016F838A04D
:1033C00009F013F841E108208DF8250004208DF85C
:1033D0002400606D0A9009A9E06C10F029FF012E0D
:1033E0006CD1E06CFFF774FD0BA80121CDE9001052
:1033F000616C01FB09F200231821E06CFFF721FE4C
:10340000054615B99DF82C0038B106F03CFE07467C
:10341000394602A008F0E9FF51E055E05B4D534406
:103420005D202564200000005B6572725D2077617D
:1034300069742072656164792074696D656F757453
:10344000210D0A005B6572725D20776169742064EA
:1034500061746120737461727420746F6B656E2087
:1034600074696D656F7574210D0A00005B65727279
:103470005D20777269746520626C6F636B20666192
:10348000696C21206461746120726573706F6E7362
:1034900065203A203078253032580D0A00000000AF
:1034A0005B6572725D2067657420535049206F77A9
:1034B0006E6572206661696C210D0A001BE0FDA03B
:1034C00008F093FF0026C0E0FE235146626CE06CDA
:1034D000FFF7FFFE0546002D0CD006F0D4FD074691
:1034E0003946AFF2C80008F080FF4946F9A008F05D
:1034F0007CFF0026A8E0012EFCD9E06CFFF7E8FC79
:1035000094F85000012837D00BA80121CDE9001014
:1035100000231A463721E06CFFF793FD054615B9E5
:103520009DF82C0060B106F0AEFD83465946AFF21F
:10353000141008F05AFFF1A008F057FF002684E0AD
:103540000BA80121CDE90010002332461721E06CC1
:10355000FFF777FD054615B99DF82C0060B106F020
:1035600092FD83465946AFF24C1008F03EFFEAA0A8
:1035700008F03BFF002668E00BA80121CDE9001010
:10358000616C01FB09F200231921E06CFFF759FD82
:10359000054615B99DF82C0060B106F074FD834610
:1035A0005946AFF2881008F020FFE5A008F01DFF93
:1035B00000264AE0002717E0626C02FB07A1FC230B
:1035C000E06CFFF786FE05466DB106F05CFD8346B4
:1035D0005946AFF2B81008F008FF4946BDA008F000
:1035E00004FF3E4602E07F1CB742E5D300BF122233
:1035F000FF2101A808F06FFBFD208DF8150001A840
:10360000069000200790122008900A9820F00200EF
:10361000C0F3400161F300000A90E06C016C096C9A
:103620004A6806A99047E06CFFF7D0FC054655B103
:1036300006F029FD83465946AFF2202008F0D5FE5A
:10364000C9A008F0D2FE00BF00BFE06CFFF758FC35
:10365000E16C096C01F1440007F0DAFA30460DB074
:10366000BDE8F08F2DE9FF5F8046894692461E46F1
:1036700044460025E06CFFF70FFC054605B19EE0CF
:1036800008208DF8010004208DF80000606D019085
:103690006946E06C10F0CCFD012E37D1E06CFFF7ED
:1036A00017FC02A80121CDE90010616C01FB09F2B1
:1036B00000231121E06CFFF7C4FC054615B99DF805
:1036C000080068B106F0DFFC07463946AFF2B420C7
:1036D00008F08BFE4946B4A008F087FE00266EE095
:1036E0005146626CE06CFFF7BEFD0546002D65D0CB
:1036F00006F0C9FC07463946AFF2E02008F075FE37
:103700004946A9A008F071FE002657E0012E55D9C0
:10371000E06CFFF7DDFB02A80121CDE90010616C30
:1037200001FB09F200231221E06CFFF78AFC054639
:1037300015B99DF8080068B106F0A5FC8346594606
:10374000AFF2283008F051FE4946A0A008F04DFE27
:10375000002634E0002716E0626C02FB07A1E06C53
:10376000FFF781FD05466DB106F08DFC8346594695
:10377000AFF2583008F039FE494694A008F035FE03
:103780003E4602E07F1CB742E6D300BF02A80221FA
:10379000CDE9001000231A460C21E06CFFF751FC24
:1037A000054655B106F06FFC83465946AFF294309A
:1037B00008F01BFE90A008F018FE00BF00BFE06CF0
:1037C000FFF79EFBE16C096C01F1440007F020FA61
:1037D000304604B0BDE8F09F2DE9F04F8DB0804633
:1037E0008A4691461E464446E06CFFF755FB054667
:1037F00005B1ABE108208DF8250004208DF82400E8
:10380000606D0A9009A9E06C10F012FD012E35D10F
:10381000E06CFFF75DFB0BA80121CDE90010002350
:1038200052461821E06CFFF70CFC054615B99DF8CF
:103830002C0060B106F027FC07463946AFF2244061
:1038400008F0D3FD1BA008F0D0FD00267EE1FE238A
:103850004946626CE06CFFF73CFD0546002D0CD03C
:1038600006F011FC07463946AFF2504008F0BDFDA6
:10387000514618A008F0B9FD002666E1012EFCD9DA
:10388000E06CFFF725FB0BA80121CDE90010002318
:103890001A463721E06CFFF7D4FB054615B99DF8B1
:1038A0002C0030B106F0EFFB83465946AFF294404E
:1038B000BEE0C5E05B6572725D20434D4420575207
:1038C0004954455F424C4F434B206661696C210D62
:1038D0000A0000005B6572725D2077726974652072
:1038E00053494E474C455F424C4F434B2023256480
:1038F000206661696C210D0A000000005B65727230
:103900005D20434D443535204150505F434D4420A8
:103910006661696C210D0A005B6572725D2041432E
:103920004D443233205345545F424C4F434B5F4329
:103930004F554E54206661696C210D0A000000004D
:103940005B6572725D20434D442057524954455F78
:103950004D554C5449504C455F424C4F434B2066AB
:1039600061696C210D0A00005B7761726E696E6798
:103970005D20776169742057524954455F4D554C1D
:103980005449504C455F424C4F434B2073746F7009
:1039900020746F6B656E2072656164792074696D47
:1039A000656F7574210D0A005B6572725D2072652A
:1039B00061642053494E474C455F424C4F434B2076
:1039C000232564206661696C210D0A005B657272B3
:1039D0005D207265616420524541445F4D554C54F1
:1039E00049504C455F424C4F434B20232564206691
:1039F00061696C210D0A00005B6572725D20726561
:103A0000616420524541445F4D554C5449504C45EA
:103A10005F424C4F434B2C2073656E642073746F70
:103A20007020746F6B656E206661696C210D0A00F1
:103A300008F0DBFCAFF23C1008F0D7FC002685E074
:103A40000BA80121CDE90010002332461721E06CBC
:103A5000FFF7F7FA054615B99DF82C0068B106F096
:103A600012FB83465946AFF24C6008F0BEFCAFF241
:103A7000581008F0BAFC002668E00BA80121CDE937
:103A80000010002352461921E06CFFF7DAFA0546D0
:103A900015B99DF82C0068B106F0F5FA8346594631
:103AA000AFF2886008F0A1FCAFF26C1008F09DFC4A
:103AB00000264BE0002717E0626C02FB0791FC2315
:103AC000E06CFFF706FC05466DB106F0DCFA8346B4
:103AD0005946AFF2B86008F088FC5146F8A008F0EB
:103AE00084FC3E4602E07F1CB742E5D300BF1222B1
:103AF000FF2101A808F0EFF8FD208DF8150001A8BE
:103B0000069000200790122008900A9820F00200EA
:103B1000C0F3400161F300000A90E06C016C096C95
:103B20004A6806A99047E06CFFF750FA05465DB178
:103B300006F0A9FA83465946AFF2207008F055FC0A
:103B4000AFF2DC1008F051FC00BF00BFE06CFFF7E3
:103B5000D7F9E16C096C01F1440007F059F83046DF
:103B60000DB0BDE8F08F2DE9FF5F80468A46914693
:103B70001E4644460025E06CFFF78EF9054605B168
:103B80009FE008208DF8010004208DF80000606D92
:103B900001906946E06C10F04BFB012E37D1E06CD0
:103BA000FFF796F902A80121CDE900100023524643
:103BB0001121E06CFFF745FA054615B99DF808009C
:103BC00070B106F060FA07463946AFF2B07008F0FF
:103BD0000CFC5146AFF2302008F007FC002670E0E4
:103BE0004946626CE06CFFF73EFB0546002D67D04E
:103BF00006F049FA07463946AFF2E07008F0F5FBE7
:103C00005146AFF25C2008F0F0FB002658E0012E90
:103C100056D9E06CFFF75CF902A80121CDE900104C
:103C2000002352461221E06CFFF70BFA054615B946
:103C30009DF8080070B106F026FA83465946AFF6A3
:103C4000240008F0D2FB5146AFF2802008F0CDFBF3
:103C5000002636E0002717E0626C02FB0791E06C5B
:103C6000FFF701FB054675B106F00DFA834659468C
:103C7000AFF6580008F0B9FB5146AFF2B02008F09B
:103C8000B4FB3E4602E07F1CB742E5D300BF02A86A
:103C90000221CDE9001000231A460C21E06CFFF749
:103CA000D0F905465DB106F0EEF983465946AFF608
:103CB000940008F09AFBAFF2C02008F096FB00BF1A
:103CC00000BFE06CFFF71CF9E16C096C01F14400E6
:103CD00006F09EFF304604B0BDE8F09F01B5AAB0E3
:103CE0002A982990002026902998C06C68B906F07F
:103CF000CAF901462390AFF6DC0008F076FB7AA003
:103D000008F073FB08202BB000BD08208DF8890057
:103D100004208DF888007E4823902998C06C22A941
:103D2000219010F085FA2998C06C1E90FFF7B4F826
:103D30002690269808B101F0ADBB2998C06C1E9062
:103D4000FFF7DEF8FF22642106A816F069FE06A838
:103D50001F900020209064202190239820F00200E2
:103D6000C0F3400161F3000023902998C06C0590D6
:103D70002998C06C006C006C40681FA90490DDE9B4
:103D80000420904706F07FF9259035E02998C06C13
:103D90001E90FFF79DF827A80121CDE90010299872
:103DA000C06C9523002211461E90FFF74AF9269019
:103DB0002998C06C1E90FFF7A3F8269820B99DF8AB
:103DC0009C00012800D118E040F6B83006F07EF9DA
:103DD00001461E902598FFF7ABF868B106F053F93D
:103DE00001461E90AFF6CC1008F0FFFA49A008F08B
:103DF000FCFA022026909EE7C8E700BF06F043F9D0
:103E000001461E90AFF6EC1008F0EFFA4BA008F058
:103E1000ECFA06F038F9259000BF2998C06C1E9086
:103E2000FFF756F827A80721CDE900102998C06CA4
:103E300087234FF4D57208211E90FFF702F92690D0
:103E40002998C06C1E90FFF75BF82698002835D1A2
:103E500006F019F901461E90AFF6402008F0C5FAA9
:103E60009DF8A0009DF89F10CDE900109DF89E00E0
:103E70001E909DF89D001D909DF89C001C90014691
:103E800037A0DDE91D2308F0B0FA9DF89C0010F082
:103E9000040F14D006F0F7F801461E90AFF6842008
:103EA00008F0A3FA3DA008F0A0FA06F0ECF80146ED
:103EB0001E90AFF6982008F098FA81E0ACE087E019
:103EC0005B6572725D207772697465204D554C5444
:103ED00049504C455F424C4F434B2023256420669C
:103EE00061696C210D0A00005B6572725D20746867
:103EF00065205350492053442064657669636520EA
:103F0000686173206E6F20535049210D0A00000034
:103F1000801A06005B6572725D20534420636172F3
:103F20006420676F746F2049444C45206D6F646551
:103F30002074696D656F7574210D0A005B696E668A
:103F40006F5D205344206361726420676F746F203B
:103F500049444C45206D6F6465204F4B210D0A008C
:103F60005B696E666F5D20434D44382072657370E7
:103F70006F6E7365203A20307825303258203078C3
:103F8000253032582030782530325820307825308E
:103F90003258203078253032580D0A005B696E6641
:103FA0006F5D20434D443820697320696C6C6567F0
:103FB000616C20636F6D6D616E642E0D0A000000F0
:103FC000F6A008F012FA0221299880F850103FE07C
:103FD00006F059F801461E90AFF6C03008F005FA19
:103FE000FBA008F002FA0321299880F850109DF8F0
:103FF000A000AA2827D19DF89F0020BB06F043F817
:1040000001461E90AFF6EC3008F0EFF9FE4808F0DC
:10401000ECF9012026908EE6C82006F057F80146FC
:104020001E902598FEF784FF68B106F02CF8014633
:104030001E90AFF6184008F0D8F9F4A008F0D5F9B2
:104040000220269077E69DF8A000AA287FF4E5AE2E
:1040500000BF299890F85000022870D100201E90CF
:1040600008E12998C06C1C90FEF732FF27A80421B4
:10407000CDE900102998C06C00231A463A211C9003
:10408000FEF7DFFF2690269880B12998C06C1C901F
:10409000FEF736FF05F0F7FF01461C90AFF68440AF
:1040A00008F0A3F9E2A008F0A0F944E69DF89C000E
:1040B00010F0FE0F10D02998C06C1C90FEF720FF66
:1040C00005F0E1FF01461C90AFF6B04008F08DF915
:1040D000E7A008F08AF9CEE02998C06C1C90FEF7A2
:1040E0000FFF9DF89D0024909DF89E10249801EBF1
:1040F000002024909DF89F10249801EB002024902C
:104100009DF8A010249801EB0020249005F0BBFF3F
:1041100001461C90AFF6FC4008F067F9E4A0249932
:1041200008F063F9249810F4004F0FD105F0ABFFAD
:1041300001461C90AFF61C5008F057F900E06EE203
:10414000E1A008F052F901202690F4E505F09BFF6C
:104150001D908CE04FF4487005F0B8FF01461C90AC
:104160001D98FEF7E5FE80B12998C06C1C90FEF703
:10417000C7FE05F088FF01461C90AFF6605008F0BE
:1041800034F9DDA008F031F972E02998C06C1C9078
:10419000FEF79EFE27A80121CDE900102998C06CEA
:1041A00000231A4637211C90FEF74BFF26902698D5
:1041B00028B12998C06C1C90FEF7A2FE57E09DF82C
:1041C0009C0010F0FE0F10D02998C06C1C90FEF7D8
:1041D00097FE05F058FF01461C90AFF6C05008F05E
:1041E00004F9D3A008F001F942E027A80121CDE9A4
:1041F00000102998C06C00231A4629211C90FEF754
:1042000020FF2690269828B12998C06C1C90FEF7B4
:1042100077FE2CE09DF89C0010F0FE0F10D029983E
:10422000C06C1C90FEF76CFE05F02DFF01461C9043
:10423000AFF6186008F0D9F8C6A008F0D6F817E075
:104240009DF89C0090B92998C06C1C90FEF758FE10
:1042500001201E9005F017FF01461C90AFF6446048
:1042600008F0C3F8C4A008F0C0F801E000BF71E78F
:1042700000BF00E0F5E600BF1E98012873D005F0EE
:1042800002FF01461B90AFF66C6008F0AEF8C4A0C8
:1042900008F0ABF82998C06C1B90FEF731FEFF22A6
:1042A000642103A816F0BCFB03A81F9000202090F7
:1042B00064202190239820F00200C0F3400161F3B4
:1042C0000000239000201C900FE02998C06C029001
:1042D0002998C06C006C006C40681FA90190DDE952
:1042E000012090471C98401C1C901C980A28ECD375
:1042F00005F0C9FE1D9037E02998C06C1B90FEF7B1
:10430000E7FD27A80121CDE900102998C06C95236D
:10431000002211461B90FEF794FE26902998C06C4F
:104320001B90FEF7EDFD269820B99DF89C00012812
:1043300000D11AE040F6B83005F0C8FE01461B90E7
:104340001D98FEF7F5FD78B105F09DFE01461B9026
:10435000AFF6387008F049F8AFF2484008F045F879
:1043600002202690E7E459E1C6E700BF05F08BFE86
:104370001D9050E12998C06C1B90FEF7A9FD27A85D
:104380000121CDE900102998C06C00231A461B902A
:10439000FEF757FE26902998C06C0DE15B696E66AA
:1043A0006F5D206D6179626520566572312E5820EF
:1043B0005344204D656D6F72792043617264206FA4
:1043C00072204D4D432063617264210D0A0000008C
:1043D0005B696E666F5D20566572322E3030206FDD
:1043E00072206C61746572206F72205344484320C0
:1043F0006F722053445843206D656D6F727920634E
:10440000617264210D0A000054C601085B65727276
:104410005D20434D44382053454E445F49465F4339
:104420004F4E442074696D656F7574210D0A00004C
:104430005B696E666F5D204974206D6179626520ED
:104440005344312E78206F72204D4D4320427574B5
:10445000206974206973204E6F7420726573706FC9
:104460006E736520746F20434D443538210D0A006A
:104470005B696E666F5D204974206C6F6F6B2043C3
:104480004D44353820617320696C6C6567616C2020
:10449000636F6D6D616E6420736F20697420697342
:1044A000206E6F742053442063617264210D0A00F2
:1044B0005B696E666F5D204F4352206973203078D0
:1044C000253038580D0A00005B6572725D20534438
:1044D00020312E7820427574206E6F7420737572AF
:1044E00070706F72742063757272656E7420766F6F
:1044F0006C746167650D0A005B696E666F5D2074A0
:10450000727920434D443535202B2041434D4434AE
:10451000312074696D656F757421206D61626579F4
:10452000204D4D432063617264210D0A000000009C
:104530005B696E666F5D204E6F742053442063612B
:10454000726432202C206D6179206265204D4D43CC
:104550000D0A00005B696E666F5D204E6F7420531C
:1045600044206361726434202C206D61792062657F
:10457000204D4D430D0A00005B696E666F5D20495A
:104580007420697320566572312E58205344204D93
:10459000656D6F727920436172642121210D0A00DB
:1045A0005B696E666F5D20747279204D4D432063A8
:1045B000617264210D0A00001B90FEF7A1FC269891
:1045C00088B99DF89C0070B905F05DFD01461B900F
:1045D000FD4807F00AFFFDA007F007FF0121299819
:1045E00080F8501018E040F6B83005F06FFD014635
:1045F0001B901D98FEF79CFC68B105F044FD014638
:104600001B90F14807F0F1FEAFF2F86007F0EDFE05
:1046100002202690FFE4ADE600BF00BF98E1299894
:1046200090F85000032872D12998C06C1E90FEF7B4
:104630004FFC27A80421CDE900102998C06C002365
:104640001A463A211E90FEF7FCFC2690269878B177
:104650002998C06C1E90FEF753FC05F014FD01462E
:104660001E90D94807F0C1FEDFA007F0BEFED2E4DD
:104670009DF89C0010F0FE0F11D02998C06C1E9080
:10468000FEF73EFC05F0FFFC01461E90CE4807F009
:10469000ACFEE3A007F0A9FE01202690BBE4299818
:1046A000C06C1E90FEF72CFC9DF89D0024909DF898
:1046B0009E10249801EB002024909DF89F102498D0
:1046C00001EB002024909DF8A010249801EB00201D
:1046D000249005F0D8FC01461E90BB4807F085FEEB
:1046E000AFF23420249907F080FE249810F4004F94
:1046F0000ED105F0C8FC01461E90B34807F075FEC8
:10470000AFF23C2007F071FE0120269083E412E115
:1047100005F0B9FC259000BF2998C06C1E90FEF7EB
:10472000D7FB4FF4487005F0D1FC01461E90259848
:10473000FEF7FEFB88B12998C06C1E90FEF7E0FBE7
:1047400005F0A1FC01461E909F4807F04EFEC4A054
:1047500007F04BFE012026905DE427A80121CDE95A
:1047600000102998C06C6523002237211E90FEF7A7
:1047700068FC2690269828B12998C06C1E90FEF7F8
:10478000BFFB50E09DF89C0010F0FE0F11D029985F
:10479000C06C1E90FEF7B4FB05F075FC01461E9040
:1047A000894807F022FEBCA007F01FFE01202690DA
:1047B00031E427A80121CDE900102998C06C7723A6
:1047C0008A0729211E90FEF73CFC2690269888B186
:1047D0002998C06C1E90FEF793FB05F054FC01462F
:1047E0001E90794807F001FEB1A007F0FEFD012000
:1047F000269010E49DF89C0010F0FE0F12D029982E
:10480000C06C1E90FEF77CFB05F03DFC01461E903F
:104810006D4807F0EAFD9DF89C0001461E90AAA095
:1048200007F0E3FD00BF9DF89C0000287FF474AF03
:104830002998C06C1E90FEF763FB2998C06C1E90EF
:10484000FEF746FB27A80421CDE900102998C06C8B
:1048500000231A463A211E90FEF7F3FB2690269875
:1048600078B12998C06C1E90FEF74AFB05F00BFC4E
:1048700001461E90544807F0B8FD9EA007F0B5FD14
:1048800013E49DF89C0010F0FE0F11D02998C06C25
:104890001E90FEF735FB05F0F6FB01461E904A48D8
:1048A00007F0A3FDA24807F0A0FD012026904CE4EC
:1048B0002998C06C1E90FEF723FB9DF89D00249064
:1048C0009DF89E10249801EB002024909DF89F10E5
:1048D000249801EB002024909DF8A010249801EB6F
:1048E0000020249005F0CFFB01461E90364807F0CB
:1048F0007CFD90A0249907F078FD249810F0804F5B
:104900000ED005F0C0FB01461E902F4807F06DFD4C
:1049100090A007F06AFD0421299880F8501017E054
:1049200005F0B1FB01461E90274807F05EFD92A0FE
:1049300007F05BFD0CE005F0A6FB01461E90224847
:1049400007F053FD98A007F050FD0120269009E5DF
:10495000299890F85000042806D19B492A980163B1
:104960009A492A98416305E099492A98016399492F
:104970002A9841632998C06C2390FEF7C1FA2998C0
:10498000C06C2390FEF7A4FA27A80121CDE90010FE
:104990002998C06C912300223B212390FEF751FB04
:1049A00026902998C06C2390FEF7AAFA269810B991
:1049B0009DF89C0038B105F066FB01462390024843
:1049C00007F013FD08E111E11C3400085B696E6615
:1049D0006F5D204974206973204D4D4320636172DF
:1049E000642121210D0A00005B6572725D2049740B
:1049F000206D61796265205344322E3020427574F7
:104A0000206974206973204E6F7420726573706F13
:104A10006E736520746F20434D443538210D0A00B4
:104A20005B6572725D204974206C6F6F6B20434D23
:104A300044353820617320696C6C6567616C206354
:104A40006F6D6D616E6420736F20697420697320CF
:104A50006E6F742053442063617264210D0A00005C
:104A60005B6572725D20534420566572322E782049
:104A70006F72206C617465722074727920434D44AA
:104A80003535202B2041434D4434312074696D6508
:104A90006F7574210D0A00005B6572725D204E6FA8
:104AA00074205344207265616479210D0A0000006E
:104AB0005B6572725D2041434D443431206661690B
:104AC0006C210D0A000000005B696E666F5D204E70
:104AD0006F74205344206361726434202C2072650B
:104AE00073706F6E7365203A203078253032580D20
:104AF0000A0000005B6572725D204974206D617967
:104B00006265205344322E3020427574206974202F
:104B10006973204E6F7420726573706F6E736520B9
:104B2000746F20326E6420434D443538210D0A00E5
:104B300098C601085B696E666F5D204F4352203254
:104B40006E64207265616420697320307825303886
:104B5000580D0A005B696E666F5D204974206973A9
:104B6000205344322E302053444843204361726422
:104B70002121210D0A0000005B696E666F5D2049EE
:104B800074206973205344322E30207374616E6434
:104B9000617264206361706163697479204361723A
:104BA000642121210D0A00005B6572725D2053446F
:104BB0002063617264207479706520756E6B6F6E0E
:104BC00077210D0A00000000673B0008D937000874
:104BD00065360008973300089DF89C000146239035
:104BE000FDA007F002FC0120269013E52998C06C77
:104BF0002390FEF785F92998C06C2390FEF768F999
:104C000027A80121CDE900102998C06C00234A0291
:104C100010212390FEF715FA26902998C06C239056
:104C2000FEF76EF9269810B99DF89C0080B105F04A
:104C30002AFA01462390F54807F0D7FB9DF89C001F
:104C400001462390F2A007F0D0FB01202690E1E47A
:104C50004FF4007129988164299841642998C06CA7
:104C60001F90FEF735F927A80121CDE900102998FA
:104C7000C06C00231A4609211F90FEF7E2F9269026
:104C8000269878B12998C06C1F90FEF739F905F085
:104C9000FAF901461F90DD4807F0A7FBE9A007F0ED
:104CA000A4FBF7E3269810B99DF89C00A8B12998B9
:104CB000C06C1F90FEF724F905F0E5F901461F903E
:104CC000D24807F092FB9DF89C0001461F90E5A09A
:104CD00007F08BFB01202690DCE32998C06C1022A2
:104CE00020A91F90FEF7BFFA26902998C06C1F904C
:104CF000FEF706F9269850B105F0C5F901461F9058
:104D0000C24807F072FBE3A007F06FFBC2E39DF817
:104D1000800000F0C0001C901C9880111F90299802
:104D200090F8500001286BD11F9802280DDD05F086
:104D3000AAF901461790B54807F057FBDBA01F9969
:104D400007F053FB01202690A4E31F9850B905F00B
:104D50009AF901461790AD4807F047FBDBA007F032
:104D600044FB1AE01F9801280AD105F08CF901468E
:104D70001790A64807F039FBDCA007F036FB0CE0E3
:104D80001F98022809D105F07EF9014617909F4827
:104D900007F02BFBDDA007F028FB9DF883001C909B
:104DA0001C9800F003001C901C9818B9DF49299842
:104DB000416513E01C98012803D1DD49299841651C
:104DC0000CE01C98022803D1DA492998416505E0D6
:104DD0001C98032802D1D849299841651C98A8B984
:104DE00005F051F901461790884807F0FEFA299816
:104DF000406D4FF47A71B0FBF1F00246179000E07D
:104E0000A0E0CEA01C9907F0F0FA16E005F03BF9FF
:104E1000014617907D4807F0E8FA2998416D4FF454
:104E20007A70B1FBF0F04FF47A71B0FBF1F002460A
:104E30001790CCA01C9907F0D8FA9DF8850000F0D7
:104E40000F001C901C98189005F01DF90146179052
:104E50006E4807F0CAFA0121189801FA00F00246DC
:104E60001790CAA0189907F0C0FA9DF8860000F0C4
:104E700003001B904FF6FF711B9801EA00201B9066
:104E80009DF887101B9808441B904FF6FF711B98E4
:104E900001EA80001B909DF8880000F0C0001C9083
:104EA0001C9880111C90DDE91B0108441B901B9885
:104EB0001E9005F0E8F801461790544807F095FA5F
:104EC000BCA01E9907F091FA9DF8890000F003003C
:104ED0001C901C9840001C909DF88A101C9800EBB8
:104EE000D1101C901C98199005F0CDF80146179030
:104EF000464807F07AFAB6A0199907F076FA012128
:104F0000189881401998801C012282401E98401CEC
:104F1000424301FB02F01D902998416C1D98B0FBA3
:104F2000F1F12998016405F0AEF801461790374871
:104F300007F05BFA1D98000D01461790ACA007F032
:104F400054FA97E21F98002845D105F09CF80146D5
:104F500017902E4807F049FAAEA007F046FA9DF8E0
:104F600083001C901C98322803D17249299841650E
:104F700009E01C985A2803D1AD492998416502E0FF
:104F80006B492998416505F07EF8014617901F4846
:104F900007F02BFA2998406D4FF47A71B0FBF1F1CC
:104FA0004FF47A70B1FBF0F0024617906DA01C9997
:104FB00007F01BFA9DF8850000F00F001C901C986C
:104FC000189005F060F801461790104807F00DFAA8
:104FD000012118982EE1A6E15B6572725D20434DB8
:104FE000443539204352435F4F4E5F4F464620665B
:104FF00061696C2120726573706F6E7365203A2051
:105000003078253032580D0A000000001C340008AA
:105010005B6572725D20434D443136205345545FC9
:10502000424C4F434B4C454E206661696C212072C7
:105030006573706F6E7365203A2030782530325872
:105040000D0A00005B6572725D20434D44392053A8
:10505000454E445F4353442074696D656F757421F8
:105060000D0A00005B6572725D20434D4439205388
:10507000454E445F435344206661696C212072654C
:1050800073706F6E7365203A203078253032580D7A
:105090000A0000005B6572725D20726561642043E6
:1050A0005344206661696C210D0A00005B657272D1
:1050B0005D20626164204353442056657273696FBA
:1050C0006E203A2025640D0A000000005B696E66C0
:1050D0006F5D204353442076657273696F6E204E76
:1050E0006F2E20312E300D0A000000005B696E66C5
:1050F0006F5D204353442076657273696F6E204E56
:105100006F2E20312E310D0A000000005B696E66A3
:105110006F5D204353442076657273696F6E204E35
:105120006F2E20312E320D0A00000000A0860100F3
:1051300040420F008096980000E1F5055B696E66BD
:105140006F5D205452414E5F53504545443A2030E4
:1051500078253032582C2025646B6269742F732EA9
:105160000D0A00005B696E666F5D205452414E5F10
:1051700053504545443A203078253032582C20256C
:10518000644D6269742F732E0D0A00005B696E66B0
:105190006F5D20435344203A20524541445F424CC6
:1051A0005F4C454E203A2025642025646279746561
:1051B0000D0A00005B696E666F5D20435344203A20
:1051C00020435F53495A45203A2025640D0A0000C8
:1051D0005B696E666F5D20435344203A20435F5302
:1051E000495A455F4D554C54203A2025640D0A001C
:1051F0005B696E666F5D20636172642063617061DC
:1052000063697479203A202564204D627974650DB4
:105210000A0000005B696E666F5D204353442056B0
:10522000657273696F6E20312E300D0A0000000028
:1052300080F0FA0201FA00F002461790AFF2B400D3
:10524000189907F0D2F89DF8860000F003001B9033
:105250004FF6FF711B9801EA00201B909DF8871004
:105260001B9808441B904FF6FF711B9801EA8000C1
:105270001B909DF8880000F0C0001C901C988011C5
:105280001C90DDE91B0108441B901B981E9004F044
:10529000FAFE01461790BA4807F0A7F8AFF2EC0003
:1052A0001E9907F0A2F89DF8890000F003001C90F9
:1052B0001C9840001C909DF88A101C9800EBD1109F
:1052C0001C901C98199004F0DEFE01461790AC4823
:1052D00007F08BF8AFF20810199907F086F8012152
:1052E000189881401998801C012282401E98401C09
:1052F000424301FB02F01D902998416C1D98B0FBC0
:10530000F1F12998016404F0BEFE014617909C4813
:1053100007F06BF81D98000D01461790AFF23010A2
:1053200007F063F8A6E01F9801287DD104F0ABFEDA
:1053300001461990924807F058F892A007F055F8E6
:105340009DF883001C901C98322803D19449299819
:10535000416517E01C985A2803D192492998416564
:1053600010E01C980B2803D18F492998416509E06A
:105370001C982B2803D18D492998416502E08C495E
:105380002998416504F07FFE014619907C4807F09A
:105390002CF82998406D4FF47A71B0FBF1F0B0FB16
:1053A000F1F002461990AFF244201C9907F01DF865
:1053B0009DF8870000F03F001A901A9800021A909A
:1053C0009DF888101A9808441A901A9800021A90AA
:1053D0009DF889101A9808441A901A981E9004F0A3
:1053E00052FE01461990664806F0FFFFAFF23C20DE
:1053F0001E9906F0FAFF1E98401C40081D901E984A
:10540000401C81022998016404F03DFE0146199078
:105410005B4806F0EAFF1D98C0F309006421484389
:10542000800A19901D9800E015E0800A1890014646
:1054300060A0199A06F0D9FF04F025FE01461990E4
:105440004F4806F0D2FF2998006C0146199063A0DE
:1054500006F0CBFF0EE004F016FE01461990484816
:1054600006F0C3FFAFF2BC301F9906F0BEFF01206B
:1054700026900FE008208DF8890004208DF8880020
:105480002998406D23902998C06C22A921900EF094
:10549000CFFE00BF2998C06C2390FDF731FD2998FD
:1054A000C06C006C4430239005F0B2FB2698FEF7E8
:1054B0002ABC0246002070470146002070472DE9B3
:1054C000F04105460F4616462C462DB940F267625C
:1054D00049494AA007F069F8102F0CD1314619B993
:1054E0004FF0FF30BDE8F081606C4860A06C8860D0
:1054F000206C086000BF0020F4E72DE9F04104466D
:105500000D460027284604F015FE06466EB904F045
:10551000BAFD804641461A4806F067FF29463BA07F
:1055200006F063FFB81FBDE8F081582200213E4815
:1055300006F0D1FB3C48C66401203B4908750021B8
:1055400039484164002038490864002136488164A4
:10555000364835494862364888623648C862002075
:1055600008634863344888630020C863C8610862E0
:105570000F2221462C4804F003FE07463846D2E7A6
:105580001C3400085B696E666F5D204353442056EF
:10559000657273696F6E20322E300D0A00000000B4
:1055A0008096980080F0FA0200E1F50500C2EB0B4E
:1055B00040420F005B696E666F5D2063617264201C
:1055C0006361706163697479203A2025642E2564D3
:1055D0002047627974650D0A000000005B696E6601
:1055E0006F5D20736563746F725F636F756E742097
:1055F0003A2025640D0A000044C60108646576203F
:10560000213D2052545F4E554C4C00007370692070
:10561000646576696365202573206E6F7420666FFC
:10562000756E64210D0A000010160020DD3C000894
:10563000B3540008B9540008BF54000808B501214C
:10564000102000F0AAFC10208DF8030001208DF836
:1056500002000002ADF800006946584802F0DEFB87
:105660004021564802F0B7FD8020ADF800006946A1
:10567000524802F0D3FB4021504802F0ACFD4020DC
:10568000ADF8000069464D4802F0C8FB40214B4888
:1056900002F0A1FD4FF40070ADF8000069464748E4
:1056A00002F0BCFB4021454802F095FD08BD10B555
:1056B0000446092C6ED2DFE804F06D05121F2C3968
:1056C0004653600040213D4802F085FD40213B48A3
:1056D00002F081FD4021394802F07DFD5BE0402170
:1056E000364802F0A3FD4021344802F074FD402109
:1056F000324802F070FD4EE04021304802F06BFD70
:1057000040212E4802F092FD40212C4802F063FD1A
:1057100041E04021294802F089FD4021274802F05C
:1057200085FD4021254802F056FD34E04021234804
:1057300002F051FD4021214802F04DFD40211F485B
:1057400002F074FD27E040211C4802F06FFD40216B
:105750001A4802F040FD4021184802F067FD1AE0A7
:105760004021164802F037FD4021144802F05EFD4A
:105770004021124802F05AFD0DE040210F4802F08E
:1057800055FD40210D4802F051FD40210B4802F02B
:105790004DFD00E000BF00BF012008F071F940217D
:1057A000064802F043FD10BD10B54021034802F049
:1057B00012FD642008F064F910BD000000100140E3
:1057C0000CB50020019000906B48006840F48030D8
:1057D0006949086000BF6848006800F40030009024
:1057E0000198401C0190009818B90198B0F5A06F7D
:1057F000F1D16148006810F4003F02D00120009010
:1058000001E0002000900098012842D15B48006828
:1058100040F01000594908600846006820F0030075
:1058200008600846006840F002000860524840687E
:10583000514948600846406848600846406840F45E
:10584000806048600846406820F47C104860084644
:10585000406840F4E81048600846006840F08070F6
:10586000086000BF4448006810F0007FFAD042484A
:10587000406820F00300404948600846406840F016
:105880000200486000BF3C48406800F00C00082857
:10589000F9D10CBD10B5FFF793FF10BD10B5364818
:1058A000006840F001003449086008464068344907
:1058B00008403149486008460068324908402E498E
:1058C00008600846006820F48020086008464068A8
:1058D00020F4FE0048604FF41F008860FFF7DAFFF5
:1058E0004FF000602849086010BD10B5002100206D
:1058F0000022214B5B6803F00C0121B1042906D082
:10590000082928D107E0214B214C236027E01F4BB9
:105910001F4C236023E0184B5B6803F47010164B98
:105920005B6803F48032022303EB904022B9194BE9
:105930004343174C23600DE00F4B5B6813F4003FAB
:1059400004D0144B4343124C236003E00F4B4343FA
:105950000F4C236003E00D4B0D4C236000BF00BFD4
:10596000054B5B68C3F303130B4CE15C084B1B68EE
:10597000CB40074C236010BD0010024000200240C5
:105980000000FFF8FFFFF6FE08ED00E000127A00CD
:105990007001002000093D0074010020FE480068ED
:1059A00040F00100FC49086008464068FB49084097
:1059B000F949486008460068F9490840F649086016
:1059C0000846006820F4802008600846406820F4FB
:1059D000FE0048604FF41F008860704710B5044611
:1059E0002CB1B4F5803F02D0B4F5802F00D104E093
:1059F00040F21111EBA0FAF787FCE748006820F4A9
:105A00008030E54908600846006820F4802008607E
:105A1000B4F5803F03D0B4F5802F0ED106E0DE4808
:105A2000006840F48030DC49086007E0DA4800682C
:105A300040F4A020D849086000E000BF00BF10BDBE
:105A40002DE9F0410446002500260027212C13D023
:105A5000312C11D0392C0FD0412C0DD0612C0BD012
:105A60007A2C09D07B2C07D07C2C05D07D2C03D040
:105A70007E2C01D07F2C00D104E040F23451C9A02B
:105A8000FAF742FC6511012D02D1C348066806E011
:105A9000022D02D1C048066A01E0BF48466A04F000
:105AA0001F050120A840304201D0012700E0002757
:105AB0003846BDE8F08138B500200090002400256C
:105AC00000BF3120FFF7BCFF05460098401C009046
:105AD0000098B0F5A06F01D0002DF2D03120FFF773
