:020000040800F2
:10000000203100208194000845040008C3D6000870
:10001000470400084B0400084F04000800000000DB
:100020000000000000000000000000005304000871
:1000300055040008000000004BD60008BF0300086C
:100040009B9400089B9400089B9400089B940008D4
:100050009B9400089B940008011A0008131A0008DA
:10006000251A0008371A0008491A00089B9400084E
:100070009B940008951300089B940008F312000855
:10008000171300089B9400089B940008590400086B
:10009000570400089B9400089B9400085B1A000812
:1000A0009B9400089B9400089B9400089B94000874
:1000B0009B9400089B9400089B9400089B94000864
:1000C0009B9400089B9400089B9400089B94000854
:1000D0009B940008E112000805130008291300088A
:1000E000B11A00089B9400089B9400089B94000898
:1000F0009B9400089B9400089B9400089B94000824
:100100009B9400089B9400089B9400089B94000813
:100110009B940008A71300089B9400089B94000878
:100120009B9400089B9400089B9400089B940008F3
:1001300000F002F800F06DF80AA090E8000C82448C
:100140008344AAF10107DA4501D100F062F8AFF269
:10015000090EBAE80F0013F0010F18BFFB1A43F0A5
:10016000010318477CC101009CC101000A444FF003
:10017000000C10F8013B13F0070408BF10F8014B06
:100180001D1108BF10F8015B641E05D010F8016B4B
:10019000641E01F8016BF9D113F0080F1EBF10F8AF
:1001A000014BAD1C0C1B09D16D1E58BF01F801CBD2
:1001B000FAD505E014F8016B01F8016B6D1EF9D555
:1001C0009142D6D37047000000230024002500266A
:1001D000103A28BF78C1FBD8520728BF30C148BFAA
:1001E0000B60704766291AF0B984002070471FB56C
:1001F00019F052FD0400002000211AF0C7FA401C3B
:100200006060002000211AF0ABFAE0601FBD10B55D
:1002100010BD19F08DFE1146FFF7E9FF00F095F8CB
:1002200019F0B9FE03B4FFF7F2FF03BC19F0BAFEF0
:10023000002804D090FAA0F0B0FA80F0401C70477B
:1002400038B5044609F084F901F0E3FE00200346C6
:1002500016A217A1009017A00DF091FF18B916A0D3
:100260000BF0E1FA02E01BA00BF0DDFA38BD1CB583
:1002700000F03AF900F08FFA00F03BFD00F02EFE9E
:1002800004F068FB142008210B020022CDE90010C5
:10029000AFF2530118A00CF088FC044614B12046BC
:1002A0000CF02DFC04F05CFC00201CBD656C6D00A6
:1002B0002F0000007364300046696C652053797329
:1002C00074656D20696E697469616C697A65642111
:1002D0000A00000046696C652053797374656D20CF
:1002E000696E697469616C7A6174696F6E206661A8
:1002F000696C6564210A0000696E69740000000081
:1003000004460D4614A00BF08EFA21461CA00BF0FB
:100310008AFA29461FA00BF086FA00BFFEE710B547
:1003200000F055F80BF0AFFA1F4920480BF038FCED
:100330000CF088F90CF0EAFF0CF0F4FFFFF797FFE0
:1003400009F00AFB0CF09AF910BD10B50DF066F932
:10035000FFF7E5FF002010BD0A0D2057726F6E6792
:1003600020706172616D657465722076616C75656F
:10037000206465746563746564206F6E0D0A000007
:100380002020202020202066696C65202025730D08
:100390000A000000202020202020206C696E6520AB
:1003A0002025640D0A0000000000012020310020FB
:1003B00010B500214FF0006008F0D9FF10BD10B556
:1003C0000AF03EFE09F08BF80AF051FE10BD70B540
:1003D000FFF7EEFF164800686422B0FBF2F1481EFA
:1003E000B0F1807F00D319E0481E4FF0E022506149
:1003F00050170F22002806DA13010E4C00F00F05EB
:100400002D1F635502E013010B4C235400BF002045
:100410004FF0E02290610720106100BF01F0BDFAAB
:1004200001F054F805A00BF073FA09F087F870BDDD
:100430006001002018ED00E000E400E075617274D6
:1004400031000000704700BFFEE700BFFEE700BFBD
:10045000FEE77047704770477047000008B50121FC
:10046000082004F0B8FF10208DF8030003208DF859
:1004700002004FF48070ADF800006946294806F08C
:10048000EBFE4FF48071274807F0C3F808BD10B5A4
:1004900004462CB94FF48071224807F0E5F800E0DB
:1004A00000BF00BF10BD10B504462CB94FF48071D9
:1004B0001C4807F0AEF800E000BF00BF10BD3D24AF
:1004C0000021204611F030FD0DE00021204611F002
:1004D0003EFD32200CF0BCFC0121204611F037FD1E
:1004E00032200CF0B5FCF0E71FB502201421020207
:1004F0000D4BCDE90032CDE9021000230B4A0CA1CF
:100500000C480CF0A2FA04462CB90A480CF0F7FA91
:10051000002004B010BD08A00BF085F94FF0FF30AB
:10052000F7E70000000C014048030020BF0400086A
:100530006C656400480500206C6564207468726511
:1005400061642073746172747570206661696C6592
:1005500064210000704770B5044640219D4807F0B3
:1005600083F80A20FFF7F6FF002519E0402199489B
:1005700007F07AF814F0010F04D08021954807F0B5
:1005800048F803E08021934807F06EF80A20FFF74F
:10059000E1FF40218F4807F03CF86410681CC5B2A9
:1005A000082DE3DB70BD70B505460C462021894857
:1005B00007F05AF84021874807F056F80A20FFF75D
:1005C000C9FF2021834807F024F80A20FFF7C2FF63
:1005D0002846FFF7C0FF2046FFF7BDFF20217D48DA
:1005E00007F042F840217B4807F03EF80A20FFF769
:1005F000B1FF70BD08B50121082004F0ECFE6020B9
:10060000ADF8000003208DF8020010208DF80300E3
:100610006946704806F020FE8020ADF800001420E6
:100620008DF8030069466B4806F016FE80218E2087
:10063000FFF7B9FF08BD70B50646002420216548C4
:1006400007F012F84021634807F00EF80A20FFF780
:1006500081FF20215F4806F0DCFF0A20FFF77AFFC8
:100660003046FFF778FF002511E04021594806F099
:10067000D0FF64104021574806F0F6FF802155480E
:1006800006F0AFFE08B144F08004681CC5B2082D26
:10069000EBDB0A20FFF75EFF20214E4806F0E4FF67
:1006A000204670BD7CB506464BA103C9CDE90001CB
:1006B00000218E20FFF777FF002411E04848005DFD
:1006C0000A2190FBF1F201FB1200C5B24448005D23
:1006D00090FBF1F005EB001041490855601CC4B2D5
:1006E000082CEBDB002407E03D4A115D1DF80400F7
:1006F000FFF759FF601CC4B2072CF5DB80218E2068
:10070000FFF751FF7CBD7CB58120FFF794FF8DF88A
:1007100000008320FFF78FFF8DF801008520FFF791
:100720008AFF8DF802008720FFF785FF8DF8030010
:100730008920FFF780FF8DF804008B20FFF77BFFF7
:100740008DF805008D20FFF776FF8DF80600002458
:1007500015E01DF80400C11700EB11710D111DF813
:100760000400C11700EB11710911A0EB011105EB99
:10077000850201EB42011B4A1155601CC4B2072CD3
:10078000E7DB7CBDFFF736FF04E064200CF060FB84
:10079000FFF7B9FFF9E71FB5052012214FF40072EA
:1007A000114BCDE90032CDE9021000230F4A10A110
:1007B00011480CF04AF904462CB90F480CF09FF987
:1007C000002004B010BD0DA00BF02DF84FF0FF304D
:1007D000F7E70000000C014080828486888A8C0044
:1007E0000000002008000020C80500208507000840
:1007F0006473313330320000C80700206473313332
:10080000303220746872656164207374617274752B
:1008100070206661696C6564210000004FF0E02281
:10082000526942F21073B2FBF3F250434FF0E022F0
:10083000916900BF4FF0E02292698A1A8242F9D38F
:10084000704708B50121082004F0C5FD0220ADF86D
:10085000000010208DF8030003208DF80200694687
:10086000FC4806F0F9FC0221FA4806F0D2FE08BD69
:1008700008B50220ADF8000048208DF80300694655
:10088000F44806F0E9FC08BD08B50220ADF8000008
:1008900010208DF8030003208DF802006946ED4812
:1008A00006F0DAFC08BD10B5FFF7EEFF0221E948BB
:1008B00006F0DAFE40F2EE20FFF7B0FF0221E54835
:1008C00006F0A7FE0F20FFF7A9FF10BD10B500240A
:1008D000FFF7CEFF04E0601CC4B20120FFF79EFFCB
:1008E0000221DC4806F07DFD08B1C82CF3DBC82CE2
:1008F00001DB012010BD002404E0601CC4B2012013
:10090000FFF78CFF0221D34806F06BFD08B9F02CED
:10091000F3DBF02C01DB0120ECE70020EAE710B567
:10092000FFF7B2FF0221CB4806F09EFE0220FFF740
:1009300075FF0221C74806F06CFEFFF799FF0C20F7
:10094000FFF76CFF0221C34806F04BFD08B10124FC
:1009500000E000243220FFF761FF204610BD70B593
:10096000002400251FE06006040EFFF78DFF022122
:10097000B84806F079FE0220FFF750FF0221B54883
:1009800006F047FEFFF774FF0C20FFF747FF022138
:10099000B04806F026FD08B144F001043220FFF70C
:1009A0003DFF681CC5B2022DDDDB204670BD70B571
:1009B0000026002408E0FFF7B2FF054605FA04F020
:1009C0003043C6B2601CC4B2082CF4DB304670BDA4
:1009D00010B50446FFF758FF74B102219D4806F098
:1009E00043FE0220FFF71AFF02219A4806F011FE8B
:1009F0003C20FFF713FF0DE00221964806F034FE7D
:100A00003C20FFF70BFF0221924806F002FE022075
:100A1000FFF704FF10BD70B50446FFF735FF002552
:100A200022E004F00106641076B10221894806F044
:100A30001BFE0220FFF7F2FE0221864806F0E9FDC8
:100A40003C20FFF7EBFE0DE00221824806F00CFE91
:100A50003C20FFF7E3FE02217E4806F0DAFD02208B
:100A6000FFF7DCFE681CC5B2082DDADB70BD10B5DF
:100A7000FFF7E7FEFFF717FFFFF728FF10BD2DE98F
:100A8000F84FFFF710FFFFF721FFCC20FFF7C3FF60
:100A90004420FFF7C0FFFFF706FFFFF717FFCC204A
:100AA000FFF7B9FFBE20FFF7B6FFFFF780FF8146D3
:100AB000FFF77DFF0446072C15DD09EB04200FFA34
:100AC00080FA6FEA0A0019F0D3FF8346584619F0FE
:100AD000A3FF07460022604B19F0A0FE054619F05F
:100AE0006BFE83460FE009EB042019F0C1FF009074
:100AF00019F092FF05460022584B19F08FFE074669
:100B000019F05AFE83465846BDE8F88F2DE9F04F9C
:100B100093B00027BA46002600BFFFF7C4FE4FF48B
:100B2000F070FFF77BFEF020FFF775FF00246DE00B
:100B3000002600255FE0FFF712FF814609F0030958
:100B40007610B9F1010F08D10020FFF741FF002016
:100B500005EBC40101AA50544BE0B9F1020F0AD1D0
:100B600046F080060120FFF733FF012005EBC401AA
:100B700001AA50543DE0B9F1000F3AD105EBC40091
:100B8000401C00F0FF0811A8C05D40450EDA0020AF
:100B9000FFF71EFF002005EBC40101AA5054781C8A
:100BA000C0B2074611A901F8008022E011A8C05D7B
:100BB00040450EDD05EBC40001A9085C00F0010012
:100BC00046EAC01605EBC40101AA505CFFF700FF1E
:100BD0000FE011A8C05D40450BD146F08006012012
:100BE000FFF7F6FE012005EBC40101AA5054781E60
:100BF000C7B2681CC5B2082D9DDBB3465E461848D7
:100C000000EBCA0000F804B0601CC4B2082C8FDBF3
:100C10000AF1010000F0FF0A9DF8450018B1BAF191
:100C2000080FFFF67AAF0F4880F800A013B0BDE8B8
:100C3000F08F1CB5002404E00BA00AF0F4FD601C4A
:100C4000C4B2FFF714FF08B1052CF5DB052C1ADA46
:100C500016E00000000C01400000B0BF0000B03FF3
:100C6000480800201400002044533138423230201C
:100C7000636865636B206661696C64210D0A00001E
:100C80002BA00AF0D0FD33E00020FFF7F8FE074666
:100C9000384619F0C1FE05462A460B462AA1684689
:100CA00018F038FA02212A4806F09BFB58B129486F
:100CB000006840B928A00AF0B6FD01F0E7F801206D
:100CC0002449086010E00221214806F08AFB58B947
:100CD00020480068012807D123A00AF0A4FD01F0F4
:100CE000E5F800201B4908604FF496700CF0B0F84E
:100CF000CAE71FB50F2011214FF400721E4BCDE93A
:100D00000032CDE9021000231C4A1DA11E480BF041
:100D10009CFE04462CB91C480BF0F1FE002004B0E8
:100D200010BD1AA00AF07FFD4FF0FF30F7E700007A
:100D30004453313842323020636865636B207265FA
:100D4000616479210D0A0000252E32660000000042
:100D5000000801401000002073642064657465631E
:100D600074206F6E200D0A007364206465746563DF
:100D700074206F66660D0A0088080020330C000896
:100D80006473313862323000880A0020647331386D
:100D900062323020746872656164207374617274A9
:100DA0007570206661696C656421000000B587B0CC
:100DB00001214FF4047004F00EFB4FF4004004F0E6
:100DC000D6F90420ADF8040000208DF8070001A931
:100DD000514806F041FA514804F094FD0020029079
:100DE0008DF80C008DF80D004FF460200490002069
:100DF000059001208DF8180002A9484804F0B7FDBD
:100E00000121464804F07EFE444804F0F8FE00BF8D
:100E1000424804F00AFF0028FAD1404804F020FFBD
:100E200000BF3E4804F032FF0028FAD107B000BDF1
:100E300010B50446072301222146384804F0FFFF7D
:100E40000121364804F03DFF00BF0221334805F080
:100E500013FC0028F9D0314805F0E7F810BD2DE962
:100E6000F04107460C460025002608E03846FFF70B
:100E7000DFFF054400200BF0EBFF701CC6B2A6425A
:100E8000F4DBB5FBF4F080B2BDE8F0811CB50024C2
:100E9000FFF78CFF21E005210C20FFF7E0FF8246E1
:100EA00019F0FEFD814619F0B7FD07464FF0663296
:100EB0001B4B19F0B3FC054619F07EFC0446204696
:100EC00019F0AAFD05462A460B4616A1684618F0F9
:100ED00021F94FF4FA700BF0BBFFDCE71FB50F20D0
:100EE00010214A01114BCDE90032CDE90210002357
:100EF0000F4A10A110480BF0A8FD04462CB90E486B
:100F00000BF0FDFD002004B010BD0CA00AF08BFC1E
:100F10004FF0FF30F7E700000010014000240140CF
:100F2000663E953F252E326600000000080B00202B
:100F30008D0E000861646300080D00206164632069
:100F40007468726561642073746172747570206670
:100F500061696C65642100007FB505460C4625B9C2
:100F60005222F649F6A00AF03EFD24B95322F34975
:100F7000F8A00AF038FDEE6B20680090207900F0B0
:100F80000F00082803D10020ADF8040008E0207904
:100F900000F00F00092803D14FF48050ADF8040091
:100FA0002079C0F3011018B90020ADF8060007E061
:100FB0002079C0F30110012802D14003ADF80600EA
:100FC0002079C0F3811018B90020ADF8080011E0B5
:100FD0002079C0F38110012804D14FF4C060ADF82E
:100FE000080007E02079C0F38110022802D14002F6
:100FF000ADF808000020ADF80C000C20ADF80A0098
:101000006946306806F03BFE0121306806F07BFF40
:10101000002004B070BD70B58CB00546EC6BEE6C72
:10102000A86CC0F38F216161012240F22441206845
:1010300006F096FF0121084604F0A2F901210220E2
:1010400004F09EF9A06807F0A1FC2068001D019043
:101050003068029000200390A86CC0F38F200490A9
:101060000020059080200690002007900890202006
:10107000099000020A9000200B9001A9A06807F0D7
:101080005CFDE06808F004F801220221A06807F086
:1010900091FE01224021206807F00BF80121A06891
:1010A00007F01AFE207C8DF8000000208DF801006A
:1010B0008DF8020001208DF80300684608F007F95A
:1010C0000CB070BD2DE9F04105460E461746B846F6
:1010D00025B97C22A3499AA00AF085FCEC6B032E6B
:1010E0002AD0102E13D0112E2DD194F9040000F027
:1010F0001F02012191409C4A430942F8231000BF7E
:10110000002240F22551206806F02AFF1BE094F9E6
:10111000040000F01F020121914042094FF0E0233A
:1011200003EB8202C2F8001100BF012240F22551F8
:10113000206806F015FF06E0B8F5007F02D12846CA
:10114000FFF769FF00BF00BF0020BDE8F08170B568
:1011500005460E4625B99D22844979A00AF043FC34
:10116000EC6B288B10F4806F16D02068008810F08C
:10117000800F08D1012240F22661206806F0F0FEBF
:101180004FF0FF3070BD20688680012240F226615A
:10119000206806F0E5FE07E02068868000BF206832
:1011A000008810F0400FFAD00120EBE770B504463C
:1011B00024B9B8226E4962A00AF015FCE56B4FF025
:1011C000FF362868008810F0200F02D02868808839
:1011D000C6B2304670BD2DE9F0410546EC6B0CF00F
:1011E0001DFA8046A06807F076FE61690E1AA069B4
:1011F000371AA66140460CF015FA2FB1032040EAD9
:101200000721284611F055FB206807F094F8E068A4
:1012100007F03EFFBDE8F0812DE9F0410546EC6B9B
:101220000CF0FCF90746D4E905100E1A0021A16163
:1012300038460CF0F7F92EB1032040EA0621284683
:1012400011F037FBE06807F023FFBDE8F08170B5CF
:101250000546EC6B24B9FE22464947A00AF0C3FBC1
:1012600040F22551206807F0AEFA68B101212068EC
:1012700007F01AFA18B90121284611F01AFB40F2BA
:101280002551206807F029FB40F22441206807F02F
:101290009AFA10B12846FFF79EFF40F226612068B7
:1012A00007F091FA90B1288B10F4806F03D00221DF
:1012B000284611F0FEFA002240F22661206806F06E
:1012C0004FFE40F22661206807F007FB08212068E6
:1012D00007F0EAF9012802D12846FFF767FF70BD41
:1012E00010B509F0ADFE2848FFF7B1FF09F0BFFEC9
:1012F00010BD10B509F0A4FE2348FFF78DFF09F0DB
:10130000B6FE10BD10B509F09BFE2048FFF79FFF09
:1013100009F0ADFE10BD10B509F092FE1B48FFF7B5
:101320007BFF09F0A4FE10BD10B509F089FE184836
:10133000FFF78DFF09F09BFE10BD000074AB0108A4
:1013400073657269616C20213D2052545F4E554C8B
:101350004C00000063666720213D2052545F4E55CB
:101360004C4C000084AB010880E100E092AB010826
:101370009DAB0108A8AB01087561727420213D2066
:1013800052545F4E554C4C00880D0020DC0D00205F
:10139000300E002010B509F053FE7D48FFF73CFFEA
:1013A00009F065FE10BD10B509F04AFE7948FFF757
:1013B0004EFF09F05CFE10BD10B50121052004F0C0
:1013C0000AF80121880304F006F80121052004F041
:1013D00002F80121480404F027F80121092003F054
:1013E000FAFF0121880404F01FF80121312003F0E5
:1013F000F2FF0121080504F017F810BD08B502201E
:101400008DF8020004208DF803000002ADF8000002
:101410006946614805F020FF18208DF803004FF45D
:101420000070ADF8000069465B4805F015FF042028
:101430008DF803000820ADF800006946564805F015
:101440000BFF18208DF803000420ADF8000069465A
:10145000514805F001FF04208DF803004002ADF86B
:10146000000069464D4805F0F7FE18208DF803008E
:101470004FF48060ADF800006946484805F0ECFE86
:1014800004208DF80300ADF800006946444805F0DB
:10149000E3FE18208DF803004FF48050ADF80000F3
:1014A0006946404805F0D8FE08BD38B504462079A5
:1014B0008DF8000000208DF8010001208DF8020059
:1014C0008DF80300684607F002FF38BD1CB53649A9
:1014D00003C9CDE90001FFF76FFFFFF78FFF334C22
:1014E0004FF4E13000903248324908640846DDE9A3
:1014F0000012C0E911122046FFF7D7FF234640F241
:1015000003722DA12B4811F0ABF92D4C4FF4E130B3
:10151000009027482B4908640846DDE90012C0E91D
:1015200011122046FFF7C1FF234640F2037226A1A5
:10153000244811F095F9264C4FF4E13000901C48F6
:10154000134908640846DDE90012C0E9111220467B
:10155000FFF7ABFF234640F203721EA10C4811F0C7
:101560007FF91E4C4FF4E13000901148094908649E
:101570000846DDE90012C0E911122046FFF795FF89
:10158000234640F2037216A1024811F069F91CBD0E
:10159000300E0020840E002000080140000C0140A5
:1015A0000014014000100140B4AB010818000020F5
:1015B00060AB0108880D0020756172743100000075
:1015C00034000020DC0D00207561727432000000D0
:1015D0005000002075617274330000006C00002020
:1015E00075617274350000000146412907D2FE4A38
:1015F00002EB01100268521C02D1002000E0002022
:1016000070472DE9F04107460D461646E8B2FFF750
:10161000EBFF04460CB9BDE8F0812EB9A28991B266
:10162000A06806F021F804E0A28991B2A06805F054
:10163000F0FF00BFEFE72DE9F04107460D46002619
:10164000E8B2FFF7D1FF044614B93046BDE8F08197
:10165000A28991B2A06805F0C4FE08B9002600E096
:1016600001263046F2E7F8B507460E461446F0B2BA
:10167000FFF7BAFF054605B9F8BD0121686803F018
:10168000AAFEA88980B2ADF8000010208DF80300F2
:1016900003208DF802001CB910208DF803000EE025
:1016A000012C03D104208DF8030008E0022C03D1A3
:1016B00048208DF8030002E028208DF803006946D9
:1016C000A86805F0C9FD00BFD6E70246002106E084
:1016D00001208840904201D108467047491C2029CA
:1016E000F6DB4FF0FF30F8E72DE9F05F83460D465B
:1016F00016461F46DDF828804FF0FF34E8B2FFF7AA
:1017000073FF8146B9F1000F02D1601FBDE8F09F61
:10171000D9F80C00FFF7D9FF0446002C01DB102C90
:1017200002D36FF00500F1E70BF078FF824604EB7F
:101730004400AE4931F92000A84219D104EB44001D
:1017400001EB80004068B84212D104EB440001EB89
:1017500080004088B0420BD104EB440001EB8000D4
:101760008068404504D150460BF05CFF0020CDE777
:1017700004EB44009D4931F92000401C05D050463F
:101780000BF050FF6FF00600C0E728B204EB4401F5
:10179000964A22F8210004EB4400114601EB800038
:1017A000476004EB440102EB81014E8004EB4400EE
:1017B000114601EB8000C0F8088050460BF032FF64
:1017C0000020A3E72DE9F04180460D464FF0FF349D
:1017D000E8B2FFF709FF064616B9601FBDE8F081C1
:1017E000F068FFF772FF0446002C01DB102C02D3D7
:1017F0006FF00500F2E70BF011FF074604EB440021
:101800007A4931F92000401C04D138460BF00AFF18
:101810000020E3E74FF0FF3004EB4401734A22F865
:101820002100002004EB440102EB8101486004EB3D
:10183000440102EB8101488004EB440102EB810189
:10184000886038460BF0EEFE0020C7E72DE9FF5F09
:10185000894617464FF0FF3609F0FF00FFF7C4FE38
:1018600004461CB9701F04B0BDE8F09F012F67D17A
:10187000E068FFF72AFF0646002E01DB102E02D398
:101880006FF00500EFE70BF0C9FE834606EB46005C
:10189000564931F92000401C05D158460BF0C2FED4
:1018A0006FF00500DFE706EB4600514901EB8005CC
:1018B0000121606803F08FFDA08980B2ADF80C00B3
:1018C00048208DF80F0003208DF80E0003A9A068B2
:1018D00005F0C2FC287A8DF8080002208DF8090076
:1018E0008DF80A0001208DF80B0002A807F0EFFC2C
:1018F0006868009000208DF8040006EB46003B4924
:1019000001EB8000408820B1012806D002280CD1CC
:1019100007E008208DF8050007E00C208DF8050091
:1019200003E010208DF8050000BF00BF01208DF8F6
:101930000600684603F082FE58460BF073FE2AE06C
:1019400037BBD4F80CA05046FFF7BFFE8046B8F175
:10195000000F02DBB8F1100F01D3002004E008EB08
:101960004800234901EB8000054615B96FF00500DA
:1019700079E76868009000208DF8040008208DF851
:10198000050000208DF80600684603F057FE02E0CF
:101990006FF0050067E7002065E710B500221549E4
:1019A00015A010F057FA0446204610BD10B50446A5
:1019B00004EB44010E4A02EB810191F9080003F0A7
:1019C0006FFF04EB4400094901EB80004068B0B1AF
:1019D00004EB44020B4603EB8202906804EB4402E2
:1019E00003EB8202516809E0BCAB010888000020CB
:1019F000CCAF01088CB0010870696E00884710BD3B
:101A000010B509F01DFB0020FFF7D0FF09F02FFBF8
:101A100010BD10B509F014FB0120FFF7C7FF09F056
:101A200026FB10BD10B509F00BFB0220FFF7BEFF2F
:101A300009F01DFB10BD10B509F002FB0320FFF7F4
:101A4000B5FF09F014FB10BD10B509F0F9FA042038
:101A5000FFF7ACFF09F00BFB10BD10B509F0F0FA71
:101A6000202003F0D1FE10B10520FFF79FFF40209A
:101A700003F0CAFE10B10620FFF798FF802003F0A4
:101A8000C3FE10B10720FFF791FF4FF4807003F001
:101A9000BBFE10B10820FFF789FF4FF4007003F080
:101AA000B3FE10B10920FFF781FF09F0E0FA10BD85
:101AB00010B509F0C5FA4FF4806003F0A5FE10B12F
:101AC0000A20FFF773FF4FF4006003F09DFE10B192
:101AD0000B20FFF76BFF4FF4805003F095FE10B121
:101AE0000C20FFF763FF4FF4005003F08DFE10B1A0
:101AF0000D20FFF75BFF4FF4804003F085FE10B12F
:101B00000E20FFF753FF4FF4004003F07DFE10B1AD
:101B10000F20FFF74BFF09F0AAFA10BD70B586B091
:101B200006460C46356C01A805F007F860780828D1
:101B300003DC0020ADF808000AE06078102804DC1F
:101B40004FF40060ADF8080002E0082006B070BD58
:101B5000606800F0F6F8ADF81000207810F0020F81
:101B600003D00220ADF80A0002E00020ADF80A0020
:101B7000207810F0010F03D00120ADF80C0002E036
:101B80000020ADF80C00207810F0040F03D00020E6
:101B9000ADF8120002E08020ADF812000020ADF890
:101BA00004004FF48270ADF806004FF40070ADF8F9
:101BB0000E00E86E04F010FE01A9E86E04F040FE8D
:101BC0000121E86E04F0CFFF0021E86E05F070F906
:101BD0000020BBE72DE9FC5F06460C46306C019007
:101BE00006F144090198C06E0090F56BD4F808A086
:101BF000207C10F0010F04D01DB1A988286805F0E1
:101C000033FD99F8010008282BDC2768D4F80480FC
:101C100021E04FF0FF0B0FB117F801BB00BF02210D
:101C2000009805F0D6F90028F9D05946009805F03B
:101C30007FF800BF0121009805F0CBF90028F9D00A
:101C4000009805F08AF800F0FF0BB8F1000F01D002
:101C500008F801BB00BF5FEA0A00AAF1010AD8D167
:101C60002EE099F8010010282ADC2768D4F80480B7
:101C700020E04FF0FF0B0FB137F802BB00BF02218D
:101C8000009805F0A6F90028F9D05946009805F00B
:101C90004FF800BF0121009805F09BF90028F9D00A
:101CA000009805F05AF88346B8F1000F01D028F8E3
:101CB00002BB00BF5FEA0A00AAF1010AD9D100BF46
:101CC000207CC0F3400020B11DB1A988286805F030
:101CD000A0FCA068BDE8FC9F2DE9F04105460C463C
:101CE00016460027B8460121084603F074FB324827
:101CF000854205D1E0660121801403F06CFB14E0FD
:101D00002E48854205D1E0660121001403F08CFBCA
:101D10000BE02B48854205D1E0660121C01303F09A
:101D200083FB02E00620BDE8F081264A31462046CA
:101D300010F07AFF0746E08A40EA0800E082384661
:101D4000F1E70146204A1268B1EB520F07D31E4A51
:101D500012681E4BB3EB520F01D300202AE01A4A3F
:101D60001268B1EB920F01D3082023E0164A1268E3
:101D7000B1EBD20F01D310201CE0134A1268B1EB73
:101D8000121F01D3182015E00F4A1268B1EB521F41
:101D900001D320200EE00C4A1268B1EB921F01D350
:101DA000282007E0084A1268B1EBD21F01D3302087
:101DB00000E038207047000000300140003800404B
:101DC000003C004048010020600100200051250235
:101DD00008B50121052003F0FEFAE020ADF800006F
:101DE00003208DF8020018208DF8030069469E48F4
:101DF00005F032FA9DA29F499F48FFF76DFF012031
:101E00008DF8020010208DF8030097489B49086068
:101E1000102088800121042003F0DDFA9748808893
:101E2000ADF80000954A9188106805F0F2FB9349DF
:101E30000868694605F010FA904B8CA290A1924870
:101E400010F00BFF01208DF8020010208DF8030028
:101E500085488E49086004208880012103F0BBFA80
:101E60008A488088ADF80000884A9188106805F09B
:101E7000D0FB86490868694605F0EEF9834B7BA2E2
:101E800083A1854810F0E9FE002008BD08B5E420D4
:101E9000ADF8000004208DF803006946724805F093
:101EA000DBF90121704805F0DFFB08BD08B5012012
:101EB000ADF800008DF8020010208DF8030069468F
:101EC000694805F0C9F90121674805F0A2FBFFF751
:101ED0007FFF08BD70B50022422170A00CF01AFBF4
:101EE0000646002E03DA72A009F09DFC70BD0024A6
:101EF00004E004F11B0076490855641C782CF8D3E3
:101F00007822734930460CF07EFB0546782D06D0CA
:101F100070A009F088FC30460CF02BFBE6E7304659
:101F20000CF027FB002240F241415CA00CF0F2FAD9
:101F30000646002E03DA6CA009F075FCD6E778227D
:101F4000634930460CF05FFB0546782D06D06FA044
:101F500009F069FC30460CF00CFBC7E730460CF08A
:101F600008FB002211464DA00CF0D4FA0646002EC4
:101F700003DA6DA009F057FCB8E7782273493046C0
:101F80000CF019FB0546782D06D071A009F04BFC2A
:101F900030460CF0EEFAA9E700240EE04C48005D54
:101FA0006A49095D884207D0214670A009F03BFCD0
:101FB00030460CF0DEFA99E7641C782CEED37822D8
:101FC000624930460CF0F7FA0546782D06D060A03D
:101FD00009F029FC30460CF0CCFA87E700240EE02B
:101FE0003B48005D5949095D884207D021465FA002
:101FF00009F019FC30460CF0BCFA77E7641C782C29
:10200000EED330460CF0B5FA61A009F00CFC00BF2D
:102010006CE708B50121042003F0DDF90120ADF8DB
:1020200000008DF8020010208DF8030069460E486C
:1020300005F012F901210C4805F0EBFA0220ADF889
:10204000000028208DF803006946074805F004F9D0
:102050000BA154A011F01FFB02200AF0F9FE0CA105
:1020600052A002F0D6FB08BD000801407370693130
:1020700000000000D80E0020003001405001002078
:102080007370693130000000480F002058010020B3
:102090007370693131000000940F00202F535953A1
:1020A0005445524D2F474B435F312E545854000036
:1020B0004F70656E2066696C6520666F722077725E
:1020C000697465206661696C65640D0A0000000032
:1020D000E00F002077726974652064617461206686
:1020E00061696C65640D0A006F70656E2066696CCD
:1020F0006520666F7220617070656E64207772690A
:102100007465206661696C65640D0A0061707065B4
:102110006E64207772697465206461746120666101
:10212000696C65640D0A0000636865636B3A206F33
:1021300070656E2066696C6520666F7220726561DD
:1021400064206661696C65640D0A00005810002007
:10215000636865636B3A20726561642066696C65CB
:10216000206661696C65640D0A0000006368656340
:102170006B203A20636865636B206461746120663C
:1021800061696C65642061742025640D0A0000009B
:10219000726561642F777269746520646F6E652E55
:1021A0000D0A000077323571363400007364300058
:1021B00070B50446216C01F144004FF0FF3107F087
:1021C0003AFE054675B9206C806EA0420AD0206C9C
:1021D000006C04F1440102682046904705460DB9A1
:1021E000206C8466284670BD10B586B00446002079
:1021F000019002900390059820F00100401C05908A
:10220000059820F002000590206C006C01A942683E
:102210002046904706B010BD10B586B00446002099
:10222000019002900390059820F001000590059818
:1022300020F00200801C0590206C006C01A942680F
:102240002046904706B010BD2DE9F04104460F46E8
:10225000E51907F036F906464FF00008A54207D306
:10226000AE4202D34FF001080BE04FF0000808E047
:10227000A64204D2AE4202D34FF0010801E04FF073
:1022800000084046BDE8F081F0B502460B4600204C
:10229000002124E0555C00241BE0C0F38016C5F348
:1022A000C01796EA070C08D080F004004FEA406C93
:1022B0004FEA1C6040F0010003E04FEA406C4FEA37
:1022C0001C6004F1010C0CF0FF044FEA456C4FEA6E
:1022D0001C65082CE1DB01F1010C0CF0FF019942B7
:1022E000D8DBF0BD70B588B0044607F0EAF80546C3
:1022F000FF20029002A8039001A8049001200590FD
:10230000079820F00200C0F3400161F3000007903D
:1023100022E0206C006C03A94268204690479DF89B
:102320000400FF2802D1002008B070BD4FF47A707D
:1023300007F0EAF8064631462846FFF785FF58B110
:1023400007F0BFF806463146FAA009F06CFAFCA087
:1023500009F069FA0220E7E7DBE72DE9F04F8BB0DF
:1023600004468A4615461F46DDE91468FF208DF8AD
:1023700010004AF040008DF81100280E8DF8120070
:10238000280C8DF81300280A8DF81400E8B28DF897
:1023900015004FB905210DF11100FFF775FF074634
:1023A000012000EB4700C7B28DF81670FF208DF8B2
:1023B000170004A8069002A80790082008900A9821
:1023C00020F00200C0F3400161F300000A902046B3
:1023D000FFF788FF206C006C06A9426820469047F2
:1023E0004FF001091DE0FF20019001A80690CDF8F3
:1023F0001C80012008900A9820F00200C0F34001E0
:1024000061F300000A90206C006C06A94268204627
:10241000904798F8000010F0800F00D104E009F117
:102420000109B9F10A0FDED300BFB9F10A0F03D1D8
:1024300001200BB0BDE8F08F012E01D10020F8E79C
:10244000022E2AD107F03DF8834625E000200690B1
:1024500001A80790012008900A9820F00200C0F31C
:10246000400161F300000A90206C006C06A94268EC
:10247000204690479DF80400FF2801D10020D8E7AE
:102480004FF4FA6007F040F8014600905846FFF715
:10249000DBFE08B10220CCE7D8E7032E15D10020DF
:1024A000069008F101000790012008900A9820F09A
:1024B0000200C0F3400161F300000A90206C006C40
:1024C00006A94268204690471BE0042E01D0072E43
:1024D00015D10020069008F1010007900420089013
:1024E0000A9820F00200C0F3400161F300000A9056
:1024F000206C006C06A942682046904701E001204C
:1025000097E7002095E7F0B587B004460D4606F042
:10251000D8FF0646FF20019001A80290CDF80CD00C
:1025200001200490069820F00200C0F3400161F3FE
:102530000000069022E0206C006C02A94268204650
:1025400090479DF80000A84202D1002007B0F0BDDE
:102550004FF4487006F0D8FF074639463046FFF77B
:1025600073FE58B106F0ADFF0746394671A009F079
:102570005AF97AA009F057F90220E7E7DBE7F0B54E
:1025800087B004460D461646FE212046FFF7BBFFE6
:10259000074617B1384607B0F0BD002002900395FA
:1025A0000496069820F00200C0F3400161F3000099
:1025B0000690206C006C02A94268204690470020DB
:1025C000029001A8039002200490069820F00200D7
:1025D000C0F3400161F300000690206C006C02A97A
:1025E0004268204690470020D5E72DE9F0438BB0A4
:1025F00004460D4616461F461022FF2102A808F089
:1026000088FD8DF8177002A8069000200790102012
:1026100008900A9820F00200C0F3400161F3000026
:102620000A90206C006C06A94268204690470695E7
:102630000020079008960A9820F00200C0F340019D
:1026400061F300000A90206C006C06A942682046E5
:10265000904702A8069001A80790032008900A98C6
:1026600020F00200C0F3400161F300000A90206CEA
:10267000006C06A94268204690479DF8060000F0CD
:102680001F08B8F1050F0ED006F01BFF8146494622
:1026900028A009F0C8F841463AA009F0C4F8012082
:1026A0000BB0BDE8F0832046FFF71CFEF8E72DE9EC
:1026B000F04F8DB08046894692461E464446E06CF7
:1026C000FFF776FD054655B106F0FBFE0746394695
:1026D00018A009F0A8F838A009F0A5F841E10820F1
:1026E0008DF8250004208DF82400606D0A9009A95A
:1026F000E06C10F0D7FA012E6CD1E06CFFF774FD9E
:102700000BA80121CDE90010616C01FB09F2002347
:102710001821E06CFFF721FE054615B99DF82C0045
:1027200038B106F0CEFE0746394602A009F07BF824
:1027300051E055E05B4D53445D20256420000000CE
:102740005B6572725D20776169742072656164797E
:102750002074696D656F7574210D0A005B65727276
:102760005D207761697420646174612073746172A3
:102770007420746F6B656E2074696D656F7574215C
:102780000D0A00005B6572725D20777269746520C6
:10279000626C6F636B206661696C21206461746197
:1027A00020726573706F6E7365203A203078253023
:1027B00032580D0A000000005B6572725D2067658B
:1027C0007420535049206F776E6572206661696C82
:1027D000210D0A001BE0FDA009F025F80026C0E04D
:1027E000FE235146626CE06CFFF7FFFE0546002DAC
:1027F0000CD006F066FE07463946AFF2C80009F075
:1028000012F84946F9A009F00EF80026A8E0012EBA
:10281000FCD9E06CFFF7E8FC94F85000012837D0B1
:102820000BA80121CDE9001000231A463721E06CE6
:10283000FFF793FD054615B99DF82C0060B106F031
:1028400040FE83465946AFF2141008F0ECFFF1A0A9
:1028500008F0E9FF002684E00BA80121CDE9001073
:10286000002332461721E06CFFF777FD054615B9C6
:102870009DF82C0060B106F024FE83465946AFF265
:102880004C1008F0D0FFEAA008F0CDFF002668E069
:102890000BA80121CDE90010616C01FB09F20023B6
:1028A0001921E06CFFF759FD054615B99DF82C007C
:1028B00060B106F006FE83465946AFF2881008F074
:1028C000B2FFE5A008F0AFFF00264AE0002717E0BE
:1028D000626C02FB07A1FC23E06CFFF786FE054655
:1028E0006DB106F0EEFD83465946AFF2B81008F020
:1028F0009AFF4946BDA008F096FF3E4602E07F1CC5
:10290000B742E5D300BF1222FF2101A808F001FC65
:10291000FD208DF8150001A80690002007901220D8
:1029200008900A9820F00200C0F3400161F3000013
:102930000A90E06C016C096C4A6806A99047E06C4B
:10294000FFF7D0FC054655B106F0BBFD834659465E
:10295000AFF2202008F067FFC9A008F064FF00BFB5
:1029600000BFE06CFFF758FCE16C096C01F144001A
:1029700007F06CFB30460DB0BDE8F08F2DE9FF5F2E
:102980008046894692461E4644460025E06CFFF785
:102990000FFC054605B19EE008208DF801000420DB
:1029A0008DF80000606D01906946E06C10F07AF9D6
:1029B000012E37D1E06CFFF717FC02A80121CDE909
:1029C0000010616C01FB09F200231121E06CFFF79C
:1029D000C4FC054615B99DF8080068B106F071FD04
:1029E00007463946AFF2B42008F01DFF4946B4A0AF
:1029F00008F019FF00266EE05146626CE06CFFF7AC
:102A0000BEFD0546002D65D006F05BFD0746394644
:102A1000AFF2E02008F007FF4946A9A008F003FF45
:102A2000002657E0012E55D9E06CFFF7DDFB02A828
:102A30000121CDE90010616C01FB09F20023122194
:102A4000E06CFFF78AFC054615B99DF8080068B1EF
:102A500006F037FD83465946AFF2283008F0E3FE12
:102A60004946A0A008F0DFFE002634E0002716E06B
:102A7000626C02FB07A1E06CFFF781FD05466DB1BA
:102A800006F01FFD83465946AFF2583008F0CBFEE2
:102A9000494694A008F0C7FE3E4602E07F1CB742BC
:102AA000E6D300BF02A80221CDE9001000231A4698
:102AB0000C21E06CFFF751FC054655B106F001FD15
:102AC00083465946AFF2943008F0ADFE90A008F06E
:102AD000AAFE00BF00BFE06CFFF79EFBE16C096C33
:102AE00001F1440007F0B2FA304604B0BDE8F09FAF
:102AF0002DE9F04F8DB080468A4691461E464446E9
:102B0000E06CFFF755FB054605B1ABE108208DF8F9
:102B1000250004208DF82400606D0A9009A9E06C5E
:102B200010F0C0F8012E35D1E06CFFF75DFB0BA86B
:102B30000121CDE90010002352461821E06CFFF777
:102B40000CFC054615B99DF82C0060B106F0B9FCE7
:102B500007463946AFF2244008F065FE1BA008F096
:102B600062FE00267EE1FE234946626CE06CFFF7C0
:102B70003CFD0546002D0CD006F0A3FC0746394667
:102B8000AFF2504008F04FFE514618A008F04BFE3F
:102B9000002666E1012EFCD9E06CFFF725FB0BA8AF
:102BA0000121CDE9001000231A463721E06CFFF720
:102BB000D4FB054615B99DF82C0030B106F081FC18
:102BC00083465946AFF29440BEE0C5E05B65727241
:102BD0005D20434D442057524954455F424C4F437A
:102BE0004B206661696C210D0A0000005B65727202
:102BF0005D2077726974652053494E474C455F42AA
:102C00004C4F434B20232564206661696C210D0ADB
:102C1000000000005B6572725D20434D4435352035
:102C20004150505F434D44206661696C210D0A009C
:102C30005B6572725D2041434D44323320534554ED
:102C40005F424C4F434B5F434F554E542066616982
:102C50006C210D0A000000005B6572725D20434D1F
:102C6000442057524954455F4D554C5449504C45AA
:102C70005F424C4F434B206661696C210D0A000096
:102C80005B7761726E696E675D207761697420574A
:102C9000524954455F4D554C5449504C455F424C48
:102CA0004F434B2073746F7020746F6B656E20728E
:102CB000656164792074696D656F7574210D0A0012
:102CC0005B6572725D20726561642053494E474CAA
:102CD000455F424C4F434B20232564206661696C5D
:102CE000210D0A005B6572725D207265616420527D
:102CF0004541445F4D554C5449504C455F424C4F03
:102D0000434B20232564206661696C210D0A000075
:102D10005B6572725D207265616420524541445F5B
:102D20004D554C5449504C455F424C4F434B2C2021
:102D300073656E642073746F7020746F6B656E20A2
:102D40006661696C210D0A0008F06DFDAFF23C1060
:102D500008F069FD002685E00BA80121CDE90010EF
:102D6000002332461721E06CFFF7F7FA054615B944
:102D70009DF82C0068B106F0A4FB83465946AFF2DB
:102D80004C6008F050FDAFF2581008F04CFD0026E2
:102D900068E00BA80121CDE900100023524619215B
:102DA000E06CFFF7DAFA054615B99DF82C0068B11A
:102DB00006F087FB83465946AFF2886008F033FD82
:102DC000AFF26C1008F02FFD00264BE0002717E053
:102DD000626C02FB0791FC23E06CFFF706FC0546E2
:102DE0006DB106F06EFB83465946AFF2B86008F04D
:102DF0001AFD5146F8A008F016FD3E4602E07F1C81
:102E0000B742E5D300BF1222FF2101A808F081F9E3
:102E1000FD208DF8150001A80690002007901220D3
:102E200008900A9820F00200C0F3400161F300000E
:102E30000A90E06C016C096C4A6806A99047E06C46
:102E4000FFF750FA05465DB106F03BFB8346594655
:102E5000AFF2207008F0E7FCAFF2DC1008F0E3FC02
:102E600000BF00BFE06CFFF7D7F9E16C096C01F11E
:102E7000440007F0EBF830460DB0BDE8F08F2DE9C7
:102E8000FF5F80468A4691461E4644460025E06C18
:102E9000FFF78EF9054605B19FE008208DF8010087
:102EA00004208DF80000606D01906946E06C0FF021
:102EB000F9FE012E37D1E06CFFF796F902A8012147
:102EC000CDE90010002352461121E06CFFF745FACE
:102ED000054615B99DF8080070B106F0F2FA0746EC
:102EE0003946AFF2B07008F09EFC5146AFF2302088
:102EF00008F099FC002670E04946626CE06CFFF730
:102F00003EFB0546002D67D006F0DBFA0746394642
:102F1000AFF2E07008F087FC5146AFF25C2008F099
:102F200082FC002658E0012E56D9E06CFFF75CF9D0
:102F300002A80121CDE90010002352461221E06CC5
:102F4000FFF70BFA054615B99DF8080070B106F0B9
:102F5000B8FA83465946AFF6240008F064FC51469F
:102F6000AFF2802008F05FFC002636E0002717E073
:102F7000626C02FB0791E06CFFF701FB054675B13F
:102F800006F09FFA83465946AFF6580008F04BFC0E
:102F90005146AFF2B02008F046FC3E4602E07F1CEE
:102FA000B742E5D300BF02A80221CDE900100023FB
:102FB0001A460C21E06CFFF7D0F905465DB106F02A
:102FC00080FA83465946AFF6940008F02CFCAFF225
:102FD000C02008F028FC00BF00BFE06CFFF71CF920
:102FE000E16C096C01F1440007F030F8304604B0A0
:102FF000BDE8F09F01B5AAB02A982990002026903C
:103000002998C06C68B906F05CFA01462390AFF6C7
:10301000DC0008F008FC7AA008F005FC08202BB0C2
:1030200000BD08208DF8890004208DF888007E48B6
:1030300023902998C06C22A921900FF033FE299883
:10304000C06C1E90FFF7B4F82690269808B101F0E6
:10305000ADBB2998C06C1E90FFF7DEF8FF226421FB
:1030600006A816F00CFA06A81F90002020906420F5
:103070002190239820F00200C0F3400161F300008A
:1030800023902998C06C05902998C06C006C006C46
:1030900040681FA90490DDE90420904706F011FA6A
:1030A000259035E02998C06C1E90FFF79DF827A861
:1030B0000121CDE900102998C06C9523002211460A
:1030C0001E90FFF74AF926902998C06C1E90FFF7D2
:1030D000A3F8269820B99DF89C00012800D118E09B
:1030E00040F6B83006F010FA01461E902598FFF71A
:1030F000ABF868B106F0E5F901461E90AFF6CC10CA
:1031000008F091FB49A008F08EFB022026909EE774
:10311000C8E700BF06F0D5F901461E90AFF6EC10E7
:1031200008F081FB4BA008F07EFB06F0CAF9259061
:1031300000BF2998C06C1E90FFF756F827A80721FA
:10314000CDE900102998C06C87234FF4D57208216F
:103150001E90FFF702F926902998C06C1E90FFF789
:103160005BF82698002835D106F0ABF901461E9091
:10317000AFF6402008F057FB9DF8A0009DF89F1087
:10318000CDE900109DF89E001E909DF89D001D90B9
:103190009DF89C001C90014637A0DDE91D2308F036
:1031A00042FB9DF89C0010F0040F14D006F089F942
:1031B00001461E90AFF6842008F035FB3DA008F0D4
:1031C00032FB06F07EF901461E90AFF6982008F01B
:1031D0002AFB81E0ACE087E05B6572725D2077726C
:1031E000697465204D554C5449504C455F424C4FD5
:1031F000434B20232564206661696C210D0A000081
:103200005B6572725D207468652053504920534499
:103210002064657669636520686173206E6F205352
:103220005049210D0A000000801A06005B65727289
:103230005D205344206361726420676F746F20497E
:10324000444C45206D6F64652074696D656F7574BD
:10325000210D0A005B696E666F5D20534420636137
:10326000726420676F746F2049444C45206D6F6411
:1032700065204F4B210D0A005B696E666F5D204330
:103280004D443820726573706F6E7365203A20303C
:103290007825303258203078253032582030782543
:1032A000303258203078253032582030782530326E
:1032B000580D0A005B696E666F5D20434D443820EF
:1032C000697320696C6C6567616C20636F6D6D61FB
:1032D0006E642E0D0A000000F6A008F0A4FA022188
:1032E000299880F850103FE006F0EBF801461E9058
:1032F000AFF6C03008F097FAFBA008F094FA03216B
:10330000299880F850109DF8A000AA2827D19DF890
:103310009F0020BB06F0D5F801461E90AFF6EC30BA
:1033200008F081FAFE4808F07EFA012026908EE629
:10333000C82006F0E9F801461E902598FEF784FFA4
:1033400068B106F0BEF801461E90AFF6184008F0CE
:103350006AFAF4A008F067FA0220269077E69DF852
:10336000A000AA287FF4E5AE00BF299890F850008D
:10337000022870D100201E9008E12998C06C1C9092
:10338000FEF732FF27A80421CDE900102998C06C70
:1033900000231A463A211C90FEF7DFFF269026985C
:1033A00080B12998C06C1C90FEF736FF06F089F8B2
:1033B00001461C90AFF6844008F035FAE2A008F010
:1033C00032FA44E69DF89C0010F0FE0F10D02998C8
:1033D000C06C1C90FEF720FF06F073F801461C90AD
:1033E000AFF6B04008F01FFAE7A008F01CFACEE0F4
:1033F0002998C06C1C90FEF70FFF9DF89D0024904B
:103400009DF89E10249801EB002024909DF89F10B9
:10341000249801EB002024909DF8A010249801EB43
:103420000020249006F04DF801461C90AFF6FC40B9
:1034300008F0F9F9E4A0249908F0F5F9249810F4BB
:10344000004F0FD106F03DF801461C90AFF61C501E
:1034500008F0E9F900E06EE2E1A008F0E4F90120EB
:103460002690F4E506F02DF81D908CE04FF448709E
:1034700006F04AF801461C901D98FEF7E5FE80B163
:103480002998C06C1C90FEF7C7FE06F01AF801469A
:103490001C90AFF6605008F0C6F9DDA008F0C3F943
:1034A00072E02998C06C1C90FEF79EFE27A80121AF
:1034B000CDE900102998C06C00231A4637211C90D2
:1034C000FEF74BFF2690269828B12998C06C1C90D7
:1034D000FEF7A2FE57E09DF89C0010F0FE0F10D002
:1034E0002998C06C1C90FEF797FE05F0EAFF014694
:1034F0001C90AFF6C05008F096F9D3A008F093F9ED
:1035000042E027A80121CDE900102998C06C0023D2
:103510001A4629211C90FEF720FF2690269828B1F4
:103520002998C06C1C90FEF777FE2CE09DF89C005B
:1035300010F0FE0F10D02998C06C1C90FEF76CFEA6
:1035400005F0BFFF01461C90AFF6186008F06BF95C
:10355000C6A008F068F917E09DF89C0090B929987A
:10356000C06C1C90FEF758FE01201E9005F0A9FFCC
:1035700001461C90AFF6446008F055F9C4A008F06D
:1035800052F901E000BF71E700BF00E0F5E600BFBF
:103590001E98012873D005F094FF01461B90AFF6EA
:1035A0006C6008F040F9C4A008F03DF92998C06C9F
:1035B0001B90FEF731FEFF22642103A815F05FFF88
:1035C00003A81F900020209064202190239820F0D1
:1035D0000200C0F3400161F30000239000201C9022
:1035E0000FE02998C06C02902998C06C006C006CA8
:1035F00040681FA90190DDE9012090471C98401CFC
:103600001C901C980A28ECD305F05BFF1D9037E056
:103610002998C06C1B90FEF7E7FD27A80121CDE992
:1036200000102998C06C9523002211461B90FEF7CC
:1036300094FE26902998C06C1B90FEF7EDFD26980D
:1036400020B99DF89C00012800D11AE040F6B8305E
:1036500005F05AFF01461B901D98FEF7F5FD78B165
:1036600005F02FFF01461B90AFF6387008F0DBF82D
:10367000AFF2484008F0D7F802202690E7E459E17D
:10368000C6E700BF05F01DFF1D9050E12998C06CF2
:103690001B90FEF7A9FD27A80121CDE9001029986C
:1036A000C06C00231A461B90FEF757FE26902998FF
:1036B000C06C0DE15B696E666F5D206D617962655E
:1036C00020566572312E58205344204D656D6F721F
:1036D000792043617264206F72204D4D43206361F5
:1036E0007264210D0A0000005B696E666F5D2056F2
:1036F0006572322E3030206F72206C6174657220DA
:103700006F722053444843206F7220534458432023
:103710006D656D6F72792063617264210D0A00001E
:10372000B4B001085B6572725D20434D443820538C
:10373000454E445F49465F434F4E442074696D6572
:103740006F7574210D0A00005B696E666F5D20491C
:1037500074206D61796265205344312E78206F7238
:10376000204D4D4320427574206974206973204EAA
:103770006F7420726573706F6E736520746F204371
:103780004D443538210D0A005B696E666F5D204936
:1037900074206C6F6F6B20434D443538206173206B
:1037A000696C6C6567616C20636F6D6D616E642020
:1037B000736F206974206973206E6F7420534420E6
:1037C00063617264210D0A005B696E666F5D204F54
:1037D0004352206973203078253038580D0A000094
:1037E0005B6572725D20534420312E7820427574DF
:1037F000206E6F742073757270706F7274206375B1
:103800007272656E7420766F6C746167650D0A0064
:103810005B696E666F5D2074727920434D44353567
:10382000202B2041434D4434312074696D656F7500
:103830007421206D61626579204D4D432063617272
:1038400064210D0A000000005B696E666F5D204E0A
:103850006F74205344206361726432202C206D61A8
:1038600079206265204D4D430D0A00005B696E664C
:103870006F5D204E6F742053442063617264342066
:103880002C206D6179206265204D4D430D0A0000AA
:103890005B696E666F5D204974206973205665729E
:1038A000312E58205344204D656D6F72792043614D
:1038B00072642121210D0A005B696E666F5D2074C0
:1038C0007279204D4D432063617264210D0A00001E
:1038D0001B90FEF7A1FC269888B99DF89C0070B952
:1038E00005F0EFFD01461B90FD4807F09CFFFDA091
:1038F00007F099FF0121299880F8501018E040F650
:10390000B83005F001FE01461B901D98FEF79CFCA7
:1039100068B105F0D6FD01461B90F14807F083FF22
:10392000AFF2F86007F07FFF02202690FFE4ADE6DB
:1039300000BF00BF98E1299890F85000032872D189
:103940002998C06C1E90FEF74FFC27A80421CDE9F2
:1039500000102998C06C00231A463A211E90FEF7E9
:10396000FCFC2690269878B12998C06C1E90FEF732
:1039700053FC05F0A6FD01461E90D94807F053FF01
:10398000DFA007F050FFD2E49DF89C0010F0FE0F7E
:1039900011D02998C06C1E90FEF73EFC05F091FDF9
:1039A00001461E90CE4807F03EFFE3A007F03BFF24
:1039B00001202690BBE42998C06C1E90FEF72CFCD9
:1039C0009DF89D0024909DF89E10249801EB002006
:1039D00024909DF89F10249801EB002024909DF8DE
:1039E000A010249801EB0020249005F06AFD014608
:1039F0001E90BB4807F017FFAFF23420249907F060
:103A000012FF249810F4004F0ED105F05AFD014624
:103A10001E90B34807F007FFAFF23C2007F003FF0A
:103A20000120269083E412E105F04BFD259000BFB4
:103A30002998C06C1E90FEF7D7FB4FF4487005F034
:103A400063FD01461E902598FEF7FEFB88B129987C
:103A5000C06C1E90FEF7E0FB05F033FD01461E90A2
:103A60009F4807F0E0FEC4A007F0DDFE012026908D
:103A70005DE427A80121CDE900102998C06C6523D9
:103A8000002237211E90FEF768FC2690269828B168
:103A90002998C06C1E90FEF7BFFB50E09DF89C007B
:103AA00010F0FE0F11D02998C06C1E90FEF7B4FBE9
:103AB00005F007FD01461E90894807F0B4FEBCA042
:103AC00007F0B1FE0120269031E427A80121CDE9BD
:103AD00000102998C06C77238A0729211E90FEF7D1
:103AE0003CFC2690269888B12998C06C1E90FEF761
:103AF00093FB05F0E6FC01461E90794807F093FE23
:103B0000B1A007F090FE0120269010E49DF89C00E3
:103B100010F0FE0F12D02998C06C1E90FEF77CFBAF
:103B200005F0CFFC01461E906D4807F07CFE9DF825
:103B30009C0001461E90AAA007F075FE00BF9DF8EC
:103B40009C0000287FF474AF2998C06C1E90FEF78B
:103B500063FB2998C06C1E90FEF746FB27A8042142
:103B6000CDE900102998C06C00231A463A211E9016
:103B7000FEF7F3FB2690269878B12998C06C1E902A
:103B8000FEF74AFB05F09DFC01461E90544807F0E5
:103B90004AFE9EA007F047FE13E49DF89C0010F03B
:103BA000FE0F11D02998C06C1E90FEF735FB05F072
:103BB00088FC01461E904A4807F035FEA24807F0EF
:103BC00032FE012026904CE42998C06C1E90FEF72E
:103BD00023FB9DF89D0024909DF89E10249801EBF6
:103BE000002024909DF89F10249801EB0020249041
:103BF0009DF8A010249801EB0020249005F061FCB2
:103C000001461E90364807F00EFE90A0249907F05A
:103C10000AFE249810F0804F0ED005F052FC0146A9
:103C20001E902F4807F0FFFD90A007F0FCFD042137
:103C3000299880F8501017E005F043FC01461E90CB
:103C4000274807F0F0FD92A007F0EDFD0CE005F02D
:103C500038FC01461E90224807F0E5FD98A007F0C9
:103C6000E2FD0120269009E5299890F850000428EB
:103C700006D19B492A9801639A492A98416305E035
:103C800099492A98016399492A9841632998C06CF7
:103C90002390FEF7C1FA2998C06C2390FEF7A4FA8E
:103CA00027A80121CDE900102998C06C912300229A
:103CB0003B212390FEF751FB26902998C06C23905E
:103CC000FEF7AAFA269810B99DF89C0038B105F0C5
:103CD000F8FB01462390024807F0A5FD08E111E139
:103CE000342700085B696E666F5D20497420697334
:103CF000204D4D4320636172642121210D0A000093
:103D00005B6572725D204974206D61796265205334
:103D100044322E3020427574206974206973204E1D
:103D20006F7420726573706F6E736520746F2043BB
:103D30004D443538210D0A005B6572725D2049746F
:103D4000206C6F6F6B20434D4435382061732069C0
:103D50006C6C6567616C20636F6D6D616E64207360
:103D60006F206974206973206E6F74205344206340
:103D7000617264210D0A00005B6572725D2053441C
:103D800020566572322E78206F72206C61746572D5
:103D90002074727920434D443535202B2041434D0A
:103DA0004434312074696D656F7574210D0A00000B
:103DB0005B6572725D204E6F7420534420726561A2
:103DC0006479210D0A0000005B6572725D20414339
:103DD0004D443431206661696C210D0A00000000F9
:103DE0005B696E666F5D204E6F7420534420636183
:103DF000726434202C20726573706F6E7365203A84
:103E0000203078253032580D0A0000005B65727250
:103E10005D204974206D61796265205344322E30F3
:103E200020427574206974206973204E6F7420726B
:103E30006573706F6E736520746F20326E642043FB
:103E40004D443538210D0A00F8B001085B696E66F3
:103E50006F5D204F435220326E6420726561642092
:103E60006973203078253038580D0A005B696E661A
:103E70006F5D204974206973205344322E302053E3
:103E800044484320436172642121210D0A0000004F
:103E90005B696E666F5D20497420697320534432FC
:103EA0002E30207374616E6461726420636170618E
:103EB0006369747920436172642121210D0A000035
:103EC0005B6572725D205344206361726420747973
:103ED000706520756E6B6F6E77210D0A0000000013
:103EE0007F2E0008F12A00087D290008AF2600086F
:103EF0009DF89C0001462390FDA007F094FC012052
:103F0000269013E52998C06C2390FEF785F929982F
:103F1000C06C2390FEF768F927A80121CDE90010B5
:103F20002998C06C00234A0210212390FEF715FA4D
:103F300026902998C06C2390FEF76EF9269810B948
:103F40009DF89C0080B105F0BCFA01462390F5482D
:103F500007F069FC9DF89C0001462390F2A007F051
:103F600062FC01202690E1E44FF4007129988164FD
:103F7000299841642998C06C1F90FEF735F927A84D
:103F80000121CDE900102998C06C00231A460921AF
:103F90001F90FEF7E2F92690269878B12998C06C18
:103FA0001F90FEF739F905F08CFA01461F90DD48A5
:103FB00007F039FCE9A007F036FCF7E3269810B9C2
:103FC0009DF89C00A8B12998C06C1F90FEF724F9B9
:103FD00005F077FA01461F90D24807F024FC9DF8BF
:103FE0009C0001461F90E5A007F01DFC01202690D3
:103FF000DCE32998C06C102220A91F90FEF7BFFABD
:1040000026902998C06C1F90FEF706F9269850B1AB
:1040100005F057FA01461F90C24807F004FCE3A0E0
:1040200007F001FCC2E39DF8800000F0C0001C9086
:104030001C9880111F90299890F8500001286BD18E
:104040001F9802280DDD05F03CFA01461790B5488F
:1040500007F0E9FBDBA01F9907F0E5FB01202690A4
:10406000A4E31F9850B905F02CFA01461790AD480B
:1040700007F0D9FBDBA007F0D6FB1AE01F98012858
:104080000AD105F01EFA01461790A64807F0CBFBAF
:10409000DCA007F0C8FB0CE01F98022809D105F04E
:1040A00010FA014617909F4807F0BDFBDDA007F00E
:1040B000BAFB9DF883001C901C9800F003001C9034
:1040C0001C9818B9DF492998416513E01C9801280C
:1040D00003D1DD49299841650CE01C98022803D1E1
:1040E000DA492998416505E01C98032802D1D8498E
:1040F000299841651C98A8B905F0E3F90146179085
:10410000884807F090FB2998406D4FF47A71B0FB16
:10411000F1F00246179000E0A0E0CEA01C9907F055
:1041200082FB16E005F0CDF9014617907D4807F0B7
:104130007AFB2998416D4FF47A70B1FBF0F04FF49F
:104140007A71B0FBF1F002461790CCA01C9907F0F1
:104150006AFB9DF8850000F00F001C901C981890D9
:1041600005F0AFF9014617906E4807F05CFB01219E
:10417000189801FA00F002461790CAA0189907F0A3
:1041800052FB9DF8860000F003001B904FF6FF7174
:104190001B9801EA00201B909DF887101B9808448B
:1041A0001B904FF6FF711B9801EA80001B909DF851
:1041B000880000F0C0001C901C9880111C90DDE964
:1041C0001B0108441B901B981E9005F07AF90146CC
:1041D0001790544807F027FBBCA01E9907F023FB5B
:1041E0009DF8890000F003001C901C9840001C9072
:1041F0009DF88A101C9800EBD1101C901C98199007
:1042000005F05FF901461790464807F00CFBB6A091
:10421000199907F008FB0121189881401998801C12
:10422000012282401E98401C424301FB02F01D9077
:104230002998416C1D98B0FBF1F12998016405F0B3
:1042400040F901461790374807F0EDFA1D98000D28
:1042500001461790ACA007F0E6FA97E21F980028F5
:1042600045D105F02EF9014617902E4807F0DBFAEC
:10427000AEA007F0D8FA9DF883001C901C98322855
:1042800003D172492998416509E01C985A2803D145
:10429000AD492998416502E06B492998416505F0CF
:1042A00010F9014617901F4807F0BDFA2998406D94
:1042B0004FF47A71B0FBF1F14FF47A70B1FBF0F08A
:1042C000024617906DA01C9907F0ADFA9DF8850085
:1042D00000F00F001C901C98189005F0F2F80146B1
:1042E0001790104807F09FFA012118982EE1A6E1D7
:1042F0005B6572725D20434D443539204352435F04
:104300004F4E5F4F4646206661696C21207265738F
:10431000706F6E7365203A203078253032580D0A60
:1043200000000000342700085B6572725D20434D79
:10433000443136205345545F424C4F434B4C454E1D
:10434000206661696C2120726573706F6E736520E1
:104350003A203078253032580D0A00005B657272C1
:104360005D20434D44392053454E445F4353442020
:1043700074696D656F7574210D0A00005B6572725A
:104380005D20434D44392053454E445F4353442000
:104390006661696C2120726573706F6E7365203A77
:1043A000203078253032580D0A0000005B657272AB
:1043B0005D207265616420435344206661696C210D
:1043C0000D0A00005B6572725D20626164204353D8
:1043D000442056657273696F6E203A2025640D0A79
:1043E000000000005B696E666F5D204353442076D9
:1043F000657273696F6E204E6F2E20312E300D0A5C
:10440000000000005B696E666F5D204353442076B8
:10441000657273696F6E204E6F2E20312E310D0A3A
:10442000000000005B696E666F5D20435344207698
:10443000657273696F6E204E6F2E20312E320D0A19
:1044400000000000A086010040420F008096980006
:1044500000E1F5055B696E666F5D205452414E5F69
:1044600053504545443A203078253032582C202589
:10447000646B6269742F732E0D0A00005B696E66AF
:104480006F5D205452414E5F53504545443A2030B1
:1044900078253032582C2025644D6269742F732E94
:1044A0000D0A00005B696E666F5D20435344203A3D
:1044B00020524541445F424C5F4C454E203A2025F6
:1044C00064202564627974650D0A00005B696E667C
:1044D0006F5D20435344203A20435F53495A45209F
:1044E0003A2025640D0A00005B696E666F5D20430B
:1044F0005344203A20435F53495A455F4D554C542D
:10450000203A2025640D0A005B696E666F5D2063AA
:10451000617264206361706163697479203A202557
:1045200064204D627974650D0A0000005B696E6657
:104530006F5D204353442056657273696F6E20315E
:104540002E300D0A0000000080F0FA0201FA00F09F
:1045500002461790AFF2B400189907F064F99DF87D
:10456000860000F003001B904FF6FF711B9801EAD4
:1045700000201B909DF887101B9808441B904FF655
:10458000FF711B9801EA80001B909DF8880000F0E5
:10459000C0001C901C9880111C90DDE91B01084490
:1045A0001B901B981E9004F08CFF01461790BA4890
:1045B00007F039F9AFF2EC001E9907F034F99DF8D5
:1045C000890000F003001C901C9840001C909DF88E
:1045D0008A101C9800EBD1101C901C98199004F0C4
:1045E00070FF01461790AC4807F01DF9AFF20810B4
:1045F000199907F018F90121189881401998801C21
:10460000012282401E98401C424301FB02F01D9093
:104610002998416C1D98B0FBF1F12998016404F0D0
:1046200050FF014617909C4807F0FDF81D98000DBB
:1046300001461790AFF2301007F0F5F8A6E01F988A
:1046400001287DD104F03DFF01461990924807F002
:10465000EAF892A007F0E7F89DF883001C901C98F8
:10466000322803D194492998416517E01C985A28AB
:1046700003D192492998416510E01C980B2803D179
:104680008F492998416509E01C982B2803D18D4951
:104690002998416502E08C492998416504F011FF91
:1046A000014619907C4807F0BEF82998406D4FF4F8
:1046B0007A71B0FBF1F0B0FBF1F002461990AFF265
:1046C00044201C9907F0AFF89DF8870000F03F00E8
:1046D0001A901A9800021A909DF888101A980844A7
:1046E0001A901A9800021A909DF889101A98084496
:1046F0001A901A981E9004F0E4FE0146199066483C
:1047000007F091F8AFF23C201E9907F08CF81E9844
:10471000401C40081D901E98401C8102299801648D
:1047200004F0CFFE014619905B4807F07CF81D9815
:10473000C0F3090064214843800A19901D9800E0E5
:1047400015E0800A1890014660A0199A07F06BF8EE
:1047500004F0B7FE014619904F4807F064F8299815
:10476000006C0146199063A007F05DF80EE004F0BC
:10477000A8FE01461990484807F055F8AFF2BC3042
:104780001F9907F050F8012026900FE008208DF8BF
:10479000890004208DF888002998406D239029987D
:1047A000C06C22A921900EF07DFA00BF2998C06C40
:1047B0002390FDF731FD2998C06C006C44302390A4
:1047C00005F044FC2698FEF72ABC024600207047FC
:1047D0000146002070472DE9F04105460F46164678
:1047E0002C462DB940F2676249494AA007F0FBF810
:1047F000102F0CD1314619B94FF0FF30BDE8F081D0
:10480000606C4860A06C8860206C086000BF00206D
:10481000F4E72DE9F04104460D460027284604F050
:10482000A7FE06466EB904F04CFE804641461A4883
:1048300006F0F9FF29463BA006F0F5FFB81FBDE8DA
:10484000F081582200213E4806F063FC3C48C664D3
:1048500001203B490875002139484164002038494E
:104860000864002136488164364835494862364834
:1048700088623648C8620020086348633448886309
:104880000020C863C86108620F2221462C4804F04A
:1048900095FE07463846D2E7342700085B696E6606
:1048A0006F5D204353442056657273696F6E2032EA
:1048B0002E300D0A000000008096980080F0FA0269
:1048C00000E1F50500C2EB0B40420F005B696E662C
:1048D0006F5D2063617264206361706163697479E4
:1048E000203A2025642E25642047627974650D0ADC
:1048F000000000005B696E666F5D20736563746F16
:10490000725F636F756E74203A2025640D0A000093
:10491000A4B0010864657620213D2052545F4E55B5
:104920004C4C0000737069206465766963652025CE
:1049300073206E6F7420666F756E64210D0A00001F
:10494000D0100020F52F0008CB470008D147000801
:10495000D747000808B50121102000F03CFD1020C9
:104960008DF8030001208DF802000002ADF8000070
:104970006946584802F070FC4021564802F049FE52
:104980008020ADF800006946524802F065FC4021E5
:10499000504802F03EFE4020ADF8000069464D4808
:1049A00002F05AFC40214B4802F033FE4FF40070F5
:1049B000ADF800006946474802F04EFC40214548EA
:1049C00002F027FE08BD10B50446092C6ED2DFE8C0
:1049D00004F06D05121F2C394653600040213D48FC
:1049E00002F017FE40213B4802F013FE40213948F7
:1049F00002F00FFE5BE04021364802F035FE402118
:104A0000344802F006FE4021324802F002FE4EE039
:104A10004021304802F0FDFD40212E4802F024FEE6
:104A200040212C4802F0F5FD41E04021294802F0E8
:104A30001BFE4021274802F017FE4021254802F0C6
:104A4000E8FD34E04021234802F0E3FD4021214805
:104A500002F0DFFD40211F4802F006FE27E0402162
:104A60001C4802F001FE40211A4802F0D2FD40210C
:104A7000184802F0F9FD1AE04021164802F0C9FD7D
:104A80004021144802F0F0FD4021124802F0ECFDF4
:104A90000DE040210F4802F0E7FD40210D4802F0F3
:104AA000E3FD40210B4802F0DFFD00E000BF00BF46
:104AB000012008F0CDF94021064802F0D5FD10BDD7
:104AC00010B54021034802F0A4FD642008F0C0F9AD
:104AD00010BD0000001001407CB505460C46009555
:104AE000019408226946314806F079F830A006F0B2
:104AF0009AFE00207CBD1CB500262FA004F038FDD6
:104B0000044644B1AFF22F01204604F06EFE0321AB
:104B1000204604F09CFD2AA006F085FE1FE032230B
:104B200008226946214806F04EF90646BEB90198AA
:104B30003F2801D2019800E03F2005462B46224A3B
:104B40000021009804F0EFFD054600201E4948555D
:104B50002B460A460021204604F00BFE00BFDEE78C
:104B60007CB500204FF400617C23184ACDE9001089
:104B700017A10E4805F063FF05461DB115A006F00C
:104B800052FE7CBD072019214FF480630022CDE93D
:104B90000010AFF29D0117A008F007F8044614B109
:104BA000204607F0ACFF00BFEBE700002811002013
:104BB00031310D0A0000000075617274310000008F
:104BC00032320D0A000000005C1100209C11002010
:104BD0006D717400696E6974206D657373616765CA
:104BE000207175657565206661696C65642E0D0AB6
:104BF0000000000064657674000000000CB5002021
:104C0000019000906B48006840F48030694908606A
:104C100000BF6848006800F4003000900198401C14
:104C20000190009818B90198B0F5A06FF1D16148D2
:104C3000006810F4003F02D00120009001E0002045
:104C400000900098012842D15B48006840F01000B5
:104C5000594908600846006820F0030008600846CB
:104C6000006840F0020008605248406851494860BE
:104C70000846406848600846406840F480604860E4
:104C80000846406820F47C1048600846406840F4BC
:104C9000E81048600846006840F08070086000BF77
:104CA0004448006810F0007FFAD04248406820F085
:104CB0000300404948600846406840F002004860F0
:104CC00000BF3C48406800F00C000828F9D10CBD3A
:104CD00010B5FFF793FF10BD10B53648006840F0DF
:104CE00001003449086008464068344908403149A9
:104CF000486008460068324908402E490860084666
:104D0000006820F4802008600846406820F4FE0017
:104D100048604FF41F008860FFF7DAFF4FF0006033
:104D20002849086010BD10B5002100200022214B49
:104D30005B6803F00C0121B1042906D0082928D1B1
:104D400007E0214B214C236027E01F4B1F4C2360C1
:104D500023E0184B5B6803F47010164B5B6803F498
:104D60008032022303EB904022B9194B4343174C86
:104D700023600DE00F4B5B6813F4003F04D0144B2D
:104D80004343124C236003E00F4B43430F4C23601B
:104D900003E00D4B0D4C236000BF00BF054B5B686B
:104DA000C3F303130B4CE15C084B1B68CB40074C6F
:104DB000236010BD00100240002002400000FFF8F8
:104DC000FFFFF6FE08ED00E000127A00600100200F
:104DD00000093D0064010020FE48006840F0010029
:104DE000FC49086008464068FB490840F9494860AA
:104DF00008460068F9490840F64908600846006816
:104E000020F4802008600846406820F4FE004860D6
:104E10004FF41F008860704710B504462CB1B4F5FC
:104E2000803F02D0B4F5802F00D104E040F2111190
:104E3000EBA0FBF765FAE748006820F48030E5490D
:104E400008600846006820F480200860B4F5803FC0
:104E500003D0B4F5802F0ED106E0DE48006840F4A0
:104E60008030DC49086007E0DA48006840F4A020A0
:104E7000D849086000E000BF00BF10BD2DE9F04137
:104E80000446002500260027212C13D0312C11D0F8
:104E9000392C0FD0412C0DD0612C0BD07A2C09D09D
:104EA0007B2C07D07C2C05D07D2C03D07E2C01D010
:104EB0007F2C00D104E040F23451C9A0FBF720FA66
:104EC0006511012D02D1C348066806E0022D02D10A
:104ED000C048066A01E0BF48466A04F01F05012089
:104EE000A840304201D0012700E000273846BDE845
:104EF000F08138B5002000900024002500BF31204B
:104F0000FFF7BCFF05460098401C00900098B0F5E4
:104F1000A06F01D0002DF2D03120FFF7AFFF08B114
:104F2000012400E00024204638BD70B50446002569
:104F30001F2C00DC04E04FF4A971A9A0FBF7E0F9F5
:104F4000A448056825F0F80545EAC405056070BD6C
:104F500010B504460CB1012C00D104E040F26511FB
:104F60009FA0FBF7CDF9AD48046010BD70B50546B4
:104F70000C4600262DB1B5F5803F02D0B5F5403F77
:104F800000D104E040F27F1195A0FBF7B9F94CB3D2
:104F9000B4F5802F26D0B4F5002F23D0B4F5402FE0
:104FA00020D0B4F5801F1DD0B4F5A01F1AD0B4F5E1
:104FB000C01F17D0B4F5E01F14D0B4F5001F11D0F6
:104FC000B4F5101F0ED0B4F5201F0BD0B4F5301F70
:104FD00008D0B4F5401F05D0B4F5501F02D0B4F589
:104FE000601F00D104E04FF4C0717DA0FBF788F989
:104FF0007848466826F47C1645EA0400064375485E
:10500000466070BD10B504460CB1012C00D104E01F
:105010004FF4CA7172A0FBF773F98048046610BDA3
:1050200070B5044600251CB1012C01D0022C00D122
:1050300004E04FF40E716AA0FBF762F96548456819
:1050400025F003052543456070BD6248406800F0C7
:105050000C00704770B5044600257CB1802C0DD043
:10506000902C0BD0A02C09D0B02C07D0C02C05D090
:10507000D02C03D0E02C01D0F02C00D104E04FF470
:10508000197157A0FBF73CF95248456825F0F00527
:105090002543456070BD70B5044600255CB1B4F58C
:1050A000806F08D0B4F5A06F05D0B4F5C06F02D002
:1050B000B4F5E06F00D104E040F27E2148A0FBF798
:1050C0001FF94448456825F4E0652543456070BDF7
:1050D00070B5044600255CB1B4F5806F08D0B4F516
:1050E000A06F05D0B4F5C06F02D0B4F5E06F00D169
:1050F00004E04FF426713AA0FBF702F93548456801
:1051000025F4605545EAC405456070BD70B5044698
:105110000D4614F0E00F01D104B104E040F2BF21CC
:105120002FA0FBF7EDF80DB1012D00D104E04FF4F5
:1051300030712BA0FBF7E4F82DB12648407A2043CC
:105140002449487204E02348407AA0432149487228
:1051500070BD10B504460CB1012C00D104E040F242
:10516000DB211FA0FBF7CCF82D48046010BD70B503
:105170000446002544B1B4F5804F05D0B4F5004F86
:1051800002D0B4F5404F00D104E040F2023114A047
:10519000FBF7B6F80F48456825F4404525434560C0
:1051A00070BD10B504461CB1012C01D0042C00D1F7
:1051B00004E04FF450710AA0FBF7A2F8002019494F
:1051C0000870044981F82000012C2DD0042C33D123
:1051D0002EE00000001002400000FFF8FFFFF6FE86
:1051E0004C69627261726965735C53544D33324627
:1051F0003130785F5374645065726970685F4472CF
:10520000697665725C7372635C73746D3332663198
:1052100030785F7263632E6300000000000042423A
:10522000D8004242201002400120F449087004E0F6
:105230000520F249087000E000BF00BF10BD10B5A6
:1052400004460CB1012C00D105E040F26131AFF20F
:105250007000FBF755F8EA48046010BD10B504462D
:10526000B4F5807F05D0B4F5007F02D0B4F5407F5F
:1052700000D105E040F27231AFF29C00FBF740F83C
:10528000DE482038006A2043DC492039086210BD1E
:1052900010B504460CB1012C00D105E04FF460714B
:1052A000AFF2C400FBF72CF8D5484438046010BDB9
:1052B00030B50021002200240023D04D203D6D6830
:1052C00005F00C0121B1042905D0082926D105E0FB
:1052D000CC4D056025E0CB4D056022E0C74D203D5B
:1052E0006D6805F47012C54D203D6D6805F480347D
:1052F000022505EB92421CB9C34D554305600CE0F5
:10530000BE4D203D6D6815F4003F03D0BE4D5543A2
:10531000056002E0BB4D5543056002E0B94D0560F4
:1053200000BF00BFB54D203D6D6805F0F0010909D3
:10533000B64D6B5C0568DD404560B04D203D6D6845
:1053400005F4E061090AB14D6B5C4568DD4085609C
:10535000AA4D203D6D6805F46051C90AAB4D6B5CE8
:105360004568DD40C560A54D203D6D6805F44041B0
:10537000890BA74D6B5CC568B5FBF3F5056130BDC6
:1053800070B504460D4640F2575034EA000001D192
:1053900004B105E040F22B41AFF2BC10FAF7B0FFC8
:1053A0000DB1012D00D105E040F22C41AFF2D0103B
:1053B000FAF7A6FF3DB191482038406920438F4954
:1053C0002039486106E08D4820384069A0438B4968
:1053D0002039486170BD70B504460D468D480442C1
:1053E00001D104B105E040F24A41AFF20C20FAF7D6
:1053F00087FF0DB1012D00D105E040F24B41AFF226
:105400002020FAF77DFF3DB17C4820388069204399
:105410007A492039886106E0784820388069A043BD
:1054200076492039886170BD70B504460D467A48CA
:10543000044201D104B105E040F26941AFF26020BD
:10544000FAF75EFF0DB1012D00D105E040F26A418F
:10545000AFF27420FAF754FF3DB168482038C069B4
:10546000204366492039C86106E064482038C06995
:10547000A04362492039C86170BD70B504460D462D
:105480006448044201D104B105E040F2A441AFF206
:10549000B020FAF735FF0DB1012D00D105E040F243
:1054A000A541AFF2C420FAF72BFF3DB15348203895
:1054B000C068204351492039C86006E04F48203871
:1054C000C068A0434D492039C86070BD70B504461E
:1054D0000D465148044201D104B105E040F2C341F8
:1054E000AFF20430FAF70CFF0DB1012D00D105E049
:1054F00040F2C441AFF21830FAF702FF3DB13F4825
:105500002038006920433D492039086106E03B48C6
:1055100020380069A04339492039086170BD10B5B1
:1055200004460CB1012C00D105E04FF49B61AFF2B1
:105530005030FAF7E5FE32484038046010BD10B52F
:1055400004460CB1012C00D105E040F2E541AFF278
:105550007030FAF7D5FE3148C46410BD10B504466A
:105560003CB1052C05D0042C03D0062C01D0072C0F
:1055700000D105E040F20551AFF29C30FAF7C0FED1
:105580001E482038C47110BD1C482038406A40F0C5
:1055900080701A4920394862704770B5044600256A
:1055A000012C09D0022C07D0042C05D0082C03D0E4
:1055B000102C01D0802C00D105E040F27E51AFF2DA
:1055C000E030FAF79DFE0D4820388068204201D077
:1055D000012500E00025284670BD10B5044614F0F2
:1055E000600F01D104B105E040F2AB51AFF21040C1
:1055F000FAF786FE01482038847210BD2010024060
:105600008004424200127A0000093D00740100202B
:10561000840100200200C0FF0036018100004242E8
:105620000020A7490860091D0860091D0860091DC0
:105630000860A448A24914310860704770B5044658
:105640000025207910B12079042800D103E06A21D7
:105650009DA0FAF755FE6079082805D060790C28DE
:1056600002D06079102800D103E06B2196A0FAF7F0
:1056700047FE2068000D000502D1206800B103E05C
:105680006C2191A0FAF73CFEA07910B1A079012815
:1056900000D103E06D218CA0FAF732FE884DA0798D
:1056A00090B3284600682168884329460860081D91
:1056B000006821688843291D08602079054428680E
:1056C0002168084328607E480830006821688843C4
:1056D0007B4908310860081D0068216888437849C3
:1056E0000C310860607910280FD1081F006821680C
:1056F0000843734908310860081D006821680843A1
:105700006F490C3108600EE007E06D4D607905448B
:10571000286821680843286005E020790544286846
:1057200021688843286070BD0021016001710C214F
:10573000417100218171704710B50446200D0005AC
:1057400001D104B103E0AE215FA0FAF7D9FD5C48B6
:105750001030006820435A491031086010BD70B500
:1057600004460025012C31D0022C2FD0042C2DD042
:10577000082C2BD0102C29D0202C27D0402C25D021
:10578000802C23D0B4F5807F20D0B4F5007F1DD0CD
:10579000B4F5806F1AD0B4F5006F17D0B4F5805F00
:1057A00014D0B4F5005F11D0B4F5804F0ED0B4F52D
:1057B000004F0BD0B4F5803F08D0B4F5003F05D0C2
:1057C000B4F5802F02D0B4F5002F00D103E0BE2144
:1057D0003DA0FAF795FD3A4814300068204201D008
:1057E000012500E00025284670BD10B50446200DB7
:1057F000000501D104B103E0D42133A0FAF780FD04
:105800002F481430046010BD70B5044600250026F2
:10581000012C31D0022C2FD0042C2DD0082C2BD0D1
:10582000102C29D0202C27D0402C25D0802C23D000
:10583000B4F5807F20D0B4F5007F1DD0B4F5806F23
:105840001AD0B4F5006F17D0B4F5805F14D0B4F55A
:10585000005F11D0B4F5804F0ED0B4F5004F0BD0DF
:10586000B4F5803F08D0B4F5003F05D0B4F5802FE3
:1058700002D0B4F5002F00D103E0E52112A0FAF721
:105880003FFD0F48006800EA04060D481430006828
:10589000204202D00EB1012500E00025284670BD4F
:1058A00010B50446200D000501D104B103E0FC2130
:1058B00005A0FAF725FD02481430046010BD000071
:1058C00000040140FFFF0F004C696272617269655C
:1058D000735C53544D3332463130785F53746450A7
:1058E00065726970685F4472697665725C73726331
:1058F0005C73746D3332663130785F657874692E0D
:105900006300000010B50446F948844205D0F94808
:10591000844202D0F848844200D103E0B621F7A0C7
:10592000FAF7EEFCF248844208D101214015FFF756
:10593000A4FD00216015FFF7A0FD17E0ED488442AB
:1059400008D101210015FFF798FD00212015FFF770
:1059500094FD0BE0E848844208D10121C803FFF719
:105960008CFD00214FF40040FFF787FD10BD2DE9AD
:10597000F04105460C4600260027DD48854205D04B
:10598000DC48854202D0DC48854200D103E0DF21BB
:10599000DAA0FAF7B5FC206818B32068B0F5803FAC
:1059A0001FD02068B0F5003F1BD02068B0F5403F05
:1059B00017D02068B0F5802F13D02068B0F5A02F45
:1059C0000FD02068B0F5C02F0BD02068B0F5E02FC5
:1059D00007D02068B0F5002F03D02068B0F5102F55
:1059E00000D103E0E021C5A0FAF78AFC207910B1CC
:1059F0002079012800D103E0E121C0A0FAF780FC62
:105A0000607910B16079012800D103E0E221BBA0E8
:105A1000FAF776FCA06888B3A068B0F5003F2DD0F7
:105A2000A068B0F5802F29D0A068B0F5C02F25D090
:105A3000A068B0F5002F21D0A068B0F5202F1DD0B0
:105A4000A068B0F5402F19D0A068B0F5602F15D030
:105A5000A06898B1A068B0F5003F0FD0A068B0F57D
:105A6000C02F0BD0A068B0F5002F07D0A068B0F50C
:105A7000202F03D0A068B0F5402F00D103E0E32130
:105A80009EA0FAF73DFCE06818B1E068B0F5006F41
:105A900000D103E0E42199A0FAF732FC207C012830
:105AA00003DB207C102800DC03E0E52193A0FAF75B
:105AB00027FC6E68A04806402179206840EA012052
:105AC00006436E60AE689D480640D4E90210084364
:105AD000617940EA41000643AE60EE6A26F4700642
