:020000040800F2
:10000000F0240020CD590008E5030008D39F000824
:10001000E7030008EB030008EF03000800000000FE
:10002000000000000000000000000000F3030008D2
:10003000F5030008000000005B9F0008470300086C
:10004000E7590008E7590008E7590008E759000890
:10005000E7590008E7590008B9190008CB1900084A
:10006000DD190008EF190008011A0008E759000817
:10007000E7590008D9130008E759000837130008AA
:100080005B130008E7590008E7590008F903000866
:10009000F7030008E7590008E7590008131A000899
:1000A000E7590008E7590008E7590008E759000830
:1000B000E7590008E7590008E7590008E759000820
:1000C000E7590008E7590008E7590008E759000810
:1000D000E759000825130008491300086D130008AC
:1000E000691A0008E7590008E7590008E7590008AD
:1000F000E7590008E7590008E7590008E7590008E0
:10010000E7590008E7590008E7590008E7590008CF
:10011000E7590008E7590008E7590008E7590008BF
:10012000E7590008E7590008E7590008E7590008AF
:1001300000F002F800F06DF80AA090E8000C82448C
:100140008344AAF10107DA4501D100F062F8AFF269
:10015000090EBAE80F0013F0010F18BFFB1A43F0A5
:1001600001031847A4400100C44001000A444FF0B5
:10017000000C10F8013B13F0070408BF10F8014B06
:100180001D1108BF10F8015B641E05D010F8016B4B
:10019000641E01F8016BF9D113F0080F1EBF10F8AF
:1001A000014BAD1C0C1B09D16D1E58BF01F801CBD2
:1001B000FAD505E014F8016B01F8016B6D1EF9D555
:1001C0009142D6D37047000000230024002500266A
:1001D000103A28BF78C1FBD8520728BF30C148BFAA
:1001E0000B607047662912F0ED84002070471FB540
:1001F00011F086FD04000020002112F0FBFA401CE3
:1002000060600020002112F0DFFAE0601FBD10B531
:1002100010BD11F0C1FE1146FFF7E9FF00F059F8DB
:1002200011F0EDFE03B4FFF7F2FF03BC11F0EEFE98
:10023000002804D090FAA0F0B0FA80F0401C70477B
:1002400010B5044605F02AFC10BD1CB500F01CF9E1
:1002500000F0B0FA00F05FFD00F05CFE1420082111
:100260000B020022CDE90010AFF22B0104A008F030
:1002700078FF044614B1204608F01DFF00201CBD85
:10028000696E69740000000004460D4614A007F072
:1002900070FD21461CA007F06CFD29461FA007F049
:1002A00068FD00BFFEE710B500F055F807F091FDBE
:1002B0001F49204807F01AFF08F0A0FC09F002FBD4
:1002C00009F00CFBFFF7C1FF05F0ECFD08F0B2FCF4
:1002D00010BD10B509F02AFEFFF7E5FF002010BDA4
:1002E0000A0D2057726F6E6720706172616D6574C0
:1002F00065722076616C75652064657465637465EC
:1003000064206F6E0D0A000020202020202020662F
:10031000696C65202025730D0A0000002020202034
:100320002020206C696E65202025640D0A000000E5
:1003300000000120F024002010B500214FF00060E3
:1003400005F0BBFA10BD10B507F020F905F06DFB04
:1003500007F033F910BD70B5FFF7EEFF18480068DD
:100360006422B0FBF2F1481EB0F1807F00D319E0A7
:10037000481E4FF0E022506150170F22002806DA85
:100380001301104C00F00F052D1F635502E01301FF
:100390000D4C235400BF00204FF0E0229061072055
:1003A000106100BF01F0D5FA01F08DF807A007F049
:1003B00055FD08A109A00BF0A8FA05F065FB70BD7A
:1003C0002801002018ED00E000E400E0756172747F
:1003D0003100000053504931000000007732357180
:1003E00036340000704700BFFEE700BFFEE700BFE5
:1003F000FEE77047704770477047000008B501215D
:10040000082001F054FF10208DF8030003208DF820
:1004100002004FF48070ADF8000069463E4803F0DA
:10042000C1F94FF480713C4803F099FB08BD10B549
:1004300004462CB94FF48071374803F0BBFB00E051
:1004400000BF00BF10BD10B504462CB94FF4807139
:10045000314803F084FB00E000BF00BF10BD3D2425
:100460000021204609F09AFE0DE00021204609F007
:10047000A8FE322008F0C8FF0121204609F0A1FEA5
:10048000322008F0C1FFF0E71FB50220142102025C
:10049000224BCDE90032CDE902100023204A21A1F0
:1004A000214808F0AEFD04462CB91F4808F003FEB1
:1004B000002004B010BD1DA007F05BFC4FF0FF3022
:1004C000F7E770B505460C461F48007820B9FFF7DE
:1004D00095FF01201C4908706DB914B1012C08D199
:1004E00003E00020FFF7AFFF04E00020FFF79FFFCD
:1004F00000E000BF00BF012D0DD114B1012C08D1C7
:1005000003E00120FFF79FFF04E00120FFF78FFFCA
:1005100000E000BF00BF70BD000C0140F4020020ED
:100520005F0400086C656400F40400206C656420BE
:10053000746872656164207374617274757020668A
:1005400061696C656421000000000020704770B58F
:1005500004464021A64803F02DFB0A20FFF7F6FFD2
:10056000002519E04021A24803F024FB14F0010FFC
:1005700004D080219E4803F0F2FA03E080219C48D9
:1005800003F018FB0A20FFF7E1FF4021984803F031
:10059000E6FA6410681CC5B2082DE3DB70BD70B5C7
:1005A00005460C462021924803F004FB4021904868
:1005B00003F000FB0A20FFF7C9FF20218C4803F05D
:1005C000CEFA0A20FFF7C2FF2846FFF7C0FF2046F9
:1005D000FFF7BDFF2021864803F0ECFA4021844854
:1005E00003F0E8FA0A20FFF7B1FF70BD08B501215A
:1005F000082001F05CFE6020ADF8000003208DF8BB
:10060000020010208DF803006946794803F0CAF80B
:100610008020ADF8000014208DF80300694674486E
:1006200003F0C0F880218E20FFF7B9FF08BD70B538
:100630000646002420216E4803F0BCFA40216C4895
:1006400003F0B8FA0A20FFF781FF2021684803F081
:1006500086FA0A20FFF77AFF3046FFF778FF002579
:1006600011E04021624803F07AFA641040216048AA
:1006700003F0A0FA80215E4803F059F908B144F074
:100680008004681CC5B2082DEBDB0A20FFF75EFF73
:100690002021574803F08EFA204670BD7CB50646EF
:1006A00054A103C9CDE9000100218E20FFF777FF97
:1006B000002411E05148005D0A2190FBF1F201FB9A
:1006C0001200C5B24D48005D90FBF1F005EB001043
:1006D0004A490855601CC4B2082CEBDB002407E033
:1006E000464A115D1DF80400FFF759FF601CC4B2B3
:1006F000072CF5DB80218E20FFF751FF7CBD7FB5F5
:100700008120FFF794FF3E4908708320FFF78FFF99
:100710003B4948708520FFF78AFF39498870872058
:10072000FFF785FF3649C8708920FFF780FF3449FD
:1007300008718B20FFF77BFF314948718D20FFF74F
:1007400076FF2F498871002415E02D49085DC117F7
:1007500000EB11710D112A49085DC11700EB1171F1
:100760000911A0EB011105EB850201EB4201244ABE
:100770001155601CC4B2072CE7DB214840792049A1
:1007800009781F4A52781E4B9B78CDE90032CDE99B
:1007900002101B48C378027981791AA007F0E9FAA0
:1007A0007FBDFFF723FF04E0642008F02DFEFFF774
:1007B000A6FFF9E71FB5052012214FF40072184B70
:1007C000CDE90032CDE902100023164A16A11848DF
:1007D00008F017FC04462CB9154808F06CFC002002
:1007E00004B010BD13A007F0C4FA4FF0FF30F7E7D4
:1007F000000C014080828486888A8C0001000020E1
:100800000900002025642D25642D25642025643AE7
:1008100025643A25647765656B25640D0A00000040
:1008200074050020A30700086473313330320000E0
:10083000740700206473313330322074687265614C
:10084000642073746172747570206661696C65648C
:10085000210000004FF0E022526942F21073B2FB17
:10086000F3F250434FF0E022916900BF4FF0E022D5
:1008700092698A1A8242F9D3704708B5012108208B
:1008800001F015FD0220ADF8000010208DF80300E6
:1008900003208DF802006946FC4802F083FF022124
:1008A000FA4803F05CF908BD08B50220ADF8000075
:1008B00048208DF803006946F44802F073FF08BD34
:1008C00008B50220ADF8000010208DF803000320C9
:1008D0008DF802006946ED4802F064FF08BD10B5CE
:1008E000FFF7EEFF0221E94803F064F940F2EE2041
:1008F000FFF7B0FF0221E54803F031F90F20FFF7C1
:10090000A9FF10BD10B50024FFF7CEFF04E0601C66
:10091000C4B20120FFF79EFF0221DC4803F007F874
:1009200008B1C82CF3DBC82C01DB012010BD00246A
:1009300004E0601CC4B20120FFF78CFF0221D34801
:1009400002F0F5FF08B9F02CF3DBF02C01DB0120FD
:10095000ECE70020EAE710B5FFF7B2FF0221CB4831
:1009600003F028F90220FFF775FF0221C74803F0C2
:10097000F6F8FFF799FF0C20FFF76CFF0221C34840
:1009800002F0D5FF08B1012400E000243220FFF777
:1009900061FF204610BD70B5002400251FE06006F1
:1009A000040EFFF78DFF0221B84803F003F902207F
:1009B000FFF750FF0221B54803F0D1F8FFF774FFAD
:1009C0000C20FFF747FF0221B04802F0B0FF08B14A
:1009D00044F001043220FFF73DFF681CC5B2022D30
:1009E000DDDB204670BD70B50026002408E0FFF76F
:1009F000B2FF054605FA04F03043C6B2601CC4B22B
:100A0000082CF4DB304670BD10B50446FFF758FFE4
:100A100074B102219D4803F0CDF80220FFF71AFFC0
:100A200002219A4803F09BF83C20FFF713FF0DE0EA
:100A30000221964803F0BEF83C20FFF70BFF02218D
:100A4000924803F08CF80220FFF704FF10BD70B548
:100A50000446FFF735FF002522E004F0010664108C
:100A600076B10221894803F0A5F80220FFF7F2FED3
:100A70000221864803F073F83C20FFF7EBFE0DE0FF
:100A80000221824803F096F83C20FFF7E3FE0221A2
:100A90007E4803F064F80220FFF7DCFE681CC5B254
:100AA000082DDADB70BD10B5FFF7E7FEFFF717FF83
:100AB000FFF728FF10BD2DE9F84FFFF710FFFFF7F4
:100AC00021FFCC20FFF7C3FF4420FFF7C0FFFFF753
:100AD00006FFFFF717FFCC20FFF7B9FFBE20FFF797
:100AE000B6FFFFF780FF8146FFF77DFF0446072C26
:100AF00015DD09EB04200FFA80FA6FEA0A0011F005
:100B0000EBFF8346584611F0BBFF07460022604BBF
:100B100011F0B8FE054611F083FE83460FE009EBA5
:100B2000042011F0D9FF009011F0AAFF0546002221
:100B3000584B11F0A7FE074611F072FE8346584647
:100B4000BDE8F88F2DE9F04F93B00027BA46002694
:100B500000BFFFF7C4FE4FF4F070FFF77BFEF020FC
:100B6000FFF775FF00246DE0002600255FE0FFF72A
:100B700012FF814609F003097610B9F1010F08D17F
:100B80000020FFF741FF002005EBC40101AA5054EB
:100B90004BE0B9F1020F0AD146F080060120FFF7C1
:100BA00033FF012005EBC40101AA50543DE0B9F127
:100BB000000F3AD105EBC400401C00F0FF0811A85B
:100BC000C05D40450EDA0020FFF71EFF002005EB58
:100BD000C40101AA5054781CC0B2074611A901F8FB
:100BE000008022E011A8C05D40450EDD05EBC40089
:100BF00001A9085C00F0010046EAC01605EBC4013B
:100C000001AA505CFFF700FF0FE011A8C05D40454E
:100C10000BD146F080060120FFF7F6FE012005EB20
:100C2000C40101AA5054781EC7B2681CC5B2082D71
:100C30009DDBB3465E46184800EBCA0000F804B0DE
:100C4000601CC4B2082C8FDB0AF1010000F0FF0A1F
:100C50009DF8450018B1BAF1080FFFF67AAF0F48BA
:100C600080F800A013B0BDE8F08F88B0002404E045
:100C70000BA007F07EF8601CC4B2FFF714FF08B1A8
:100C8000052CF5DB052C1ADA16E00000000C0140FB
:100C90000000B0BF0000B03FF407002011000020AA
:100CA0004453313842323020636865636B2066619B
:100CB000696C64210D0A000026A007F05AF829E0AB
:100CC0000020FFF7F8FE0746384611F0D9FE05462A
:100CD0002A460B4625A106A810F02EFB06AB254898
:100CE000C07924498979234A5279CDE90403CDE9B1
:100CF0000221204800791F49C978CDE900101D481C
:100D00008378427801781CA007F033F84FF496708E
:100D100008F07AFBD4E71FB50F2011214FF40072C1
:100D2000214BCDE90032CDE9021000231F4A20A15A
:100D3000214808F066F904462CB91F4808F0BBF9B1
:100D4000002004B010BD1DA007F013F84FF0FF30D5
:100D5000F7E700004453313842323020636865635E
:100D60006B207265616479210D0A0000252E3266C0
:100D700000000000F407002049443A25303278256D
:100D80003032782530327825303278253032782567
:100D900030327825303278253032782074656D70A5
:100DA0003A25730D0A000000340800206B0C00087F
:100DB0006473313862323000340A00206473313891
:100DC0006232302074687265616420737461727479
:100DD0007570206661696C656421000000B587B09C
:100DE00001214FF4047001F062FA4FF4004001F069
:100DF0002AF90420ADF8040000208DF8070001A9AD
:100E0000534802F0CFFC534801F0E8FC0020029068
:100E10008DF80C008DF80D004FF460200490002038
:100E2000059001208DF8180002A94A4801F00BFD39
:100E30000121484801F0D2FD464801F04CFE00BFB8
:100E4000444801F05EFE0028FAD1424801F074FEE9
:100E500000BF404801F086FE0028FAD107B000BD6F
:100E600010B504460723012221463A4801F053FFFA
:100E70000121384801F091FE00BF0221354802F0FF
:100E800067FB0028F9D0334802F03BF810BD2DE98C
:100E9000F04107460C460025002608E03846FFF7DB
:100EA000DFFF0544002008F0AFFA701CC6B2A6426E
:100EB000F4DBB5FBF4F080B2BDE8F0811CB5002492
:100EC000FFF78CFF25E005210C20FFF7E0FF8246AD
:100ED00011F01AFE814611F0D3FD07464FF066323D
:100EE0001D4B11F0CFFC054611F09AFC044620463C
:100EF00011F0C6FD05462A460B4618A1684610F0BB
:100F00001BFA694617A006F034FF4FF4FA7008F098
:100F10007BFAD8E71FB50F2010214A01144BCDE909
:100F20000032CDE902100023124A13A1134808F041
:100F300068F804462CB9114808F0BDF8002004B048
:100F400010BD0FA006F015FF4FF0FF30F7E70000CF
:100F50000010014000240140663E953F252E326678
:100F600000000000566261743A25730D0A0000000B
:100F7000B40A0020BD0E000861646300B40C0020B8
:100F80006164632074687265616420737461727453
:100F90007570206661696C65642100007FB5054647
:100FA0000C4625B94A22F649F6A006F0C2FF24B93C
:100FB0004B22F349F8A006F0BCFFEE6B20680090CE
:100FC000207900F00F00082803D10020ADF80400BC
:100FD00008E0207900F00F00092803D14FF4805079
:100FE000ADF804002079C0F3011018B90020ADF865
:100FF000060007E02079C0F30110012802D1400368
:10100000ADF806002079C0F3811018B90020ADF8C2
:10101000080011E02079C0F38110012804D14FF4B9
:10102000C060ADF8080007E02079C0F38110022805
:1010300002D14002ADF808000020ADF80C000C20F1
:10104000ADF80A006946306803F0BFF80121306846
:1010500003F0FFF9002004B070BD70B58CB00546F8
:10106000EC6BEE6CA86CC0F38F216161012240F241
:101070002441206803F01AFA0121084601F0ECF837
:101080000121022001F0E8F8A06803F025FF2068A4
:10109000001D01903068029000200390A86CC0F3FE
:1010A0008F2004900020059080200690002007905B
:1010B00008902020099000020A9000200B9001A9BE
:1010C000A06803F0E0FFE06804F088FA0122022142
:1010D000A06804F015F901224021206803F08FFA7E
:1010E0000121A06804F09EF8207C8DF8000000200B
:1010F0008DF801008DF8020001208DF8030068468C
:1011000004F08BFB0CB070BD2DE9F04105460E4696
:101110001746B84625B97422A3499AA006F009FFDC
:10112000EC6B032E2AD0102E13D0112E2DD194F952
:10113000040000F01F02012191409C4A430942F83B
:10114000231000BF002240F22551206803F0AEF9C1
:101150001BE094F9040000F01F02012191404209B4
:101160004FF0E02303EB8202C2F8001100BF01221E
:1011700040F22551206803F099F906E0B8F5007FA8
:1011800002D12846FFF769FF00BF00BF0020BDE87D
:10119000F08170B505460E4625B99522844979A09F
:1011A00006F0C7FEEC6B288B10F4806F16D0206819
:1011B000008810F0800F08D1012240F226612068DB
:1011C00003F074F94FF0FF3070BD20688680012273
:1011D00040F22661206803F069F907E02068868004
:1011E00000BF2068008810F0400FFAD00120EBE724
:1011F00070B5044624B9B0226E4962A006F099FE8B
:10120000E56B4FF0FF362868008810F0200F02D001
:1012100028688088C6B2304670BD2DE9F041054689
:10122000EC6B08F083FE8046A06804F0FAF8616970
:101230000E1AA069371AA661404608F07BFE2FB14E
:10124000032040EA0721284609F06DFC206803F0DE
:1012500018FBE06804F0C2F9BDE8F0812DE9F04127
:101260000546EC6B08F062FE0746D4E905100E1A3D
:101270000021A161384608F05DFE2EB1032040EA4E
:101280000621284609F04FFCE06804F0A7F9BDE804
:10129000F08170B50546EC6B24B9F622464947A0AB
:1012A00006F047FE40F22551206803F032FD68B198
:1012B0000121206803F09EFC18B90121284609F09D
:1012C00032FC40F22551206803F0ADFD40F224418C
:1012D000206803F01EFD10B12846FFF79EFF40F284
:1012E0002661206803F015FD90B1288B10F4806F03
:1012F00003D00221284609F016FC002240F22661A4
:10130000206803F0D3F840F22661206803F08BFDDB
:101310000821206803F06EFC012802D12846FFF75F
:1013200067FF70BD10B506F031F92848FFF7B1FF2F
:1013300006F043F910BD10B506F028F92348FFF771
:101340008DFF06F03AF910BD10B506F01FF92048E0
:10135000FFF79FFF06F031F910BD10B506F016F942
:101360001B48FFF77BFF06F028F910BD10B506F00B
:101370000DF91848FFF78DFF06F01FF910BD0000AA
:10138000DC2B010873657269616C20213D20525489
:101390005F4E554C4C00000063666720213D205293
:1013A000545F4E554C4C0000EC2B010880E100E0EE
:1013B000FA2B0108052C0108102C010875617274C4
:1013C00020213D2052545F4E554C4C00340D0020DE
:1013D000880D0020DC0D002010B506F0D7F860481D
:1013E000FFF73CFF06F0E9F810BD10B5012105201C
:1013F00000F05DFF0121880300F059FF0121052065
:1014000000F055FF0121480400F07AFF0121092076
:1014100000F04DFF0121880400F072FF10BD08B5F7
:1014200002208DF8020004208DF803000002ADF8C0
:10143000000069464B4802F0B5F918208DF803000A
:101440004FF40070ADF800006946464802F0AAF972
:1014500004208DF803000820ADF8000069464148DB
:1014600002F0A0F918208DF803000420ADF8000068
:1014700069463C4802F096F904208DF803004002CA
:10148000ADF800006946384802F08CF918208DF854
:1014900003004FF48060ADF800006946324802F066
:1014A00081F908BD38B5044620798DF80000002088
:1014B0008DF8010001208DF802008DF803006846C8
:1014C00004F0ABF938BD1CB5284903C9CDE90001CA
:1014D000FFF78BFFFFF7A3FF254C4FF4E13000909F
:1014E0002448254908640846DDE90012C0E91112C4
:1014F0002046FFF7D7FF234640F203721FA11E4884
:1015000009F0E8FA1F4C4FF4E130009019481E49E9
:1015100008640846DDE90012C0E911122046FFF711
:10152000C1FF234640F2037218A1174809F0D2FA0E
:10153000184C4FF4E13000900E4809490864084601
:10154000DDE90012C0E911122046FFF7ABFF234688
:1015500040F2037210A1024809F0BCFA1CBD000061
:10156000DC0D002000080140000C01401C2C01088B
:1015700014000020C82B0108340D0020756172741E
:101580003100000030000020880D00207561727469
:10159000320000004C0000207561727433000000BE
:1015A0000146412907D2FE4A02EB01100268521C93
:1015B00002D1002000E0002070472DE9F0410746ED
:1015C0000D461646E8B2FFF7EBFF04460CB9BDE83E
:1015D000F0812EB9A28991B2A06802F0EBFA04E082
:1015E000A28991B2A06802F0BAFA00BFEFE72DE934
:1015F000F04107460D460026E8B2FFF7D1FF04464A
:1016000014B93046BDE8F081A28991B2A06802F019
:101610008EF908B9002600E001263046F2E7F8B559
:1016200007460E461446F0B2FFF7BAFF054605B965
:10163000F8BD0121686800F03AFEA88980B2ADF8D3
:10164000000010208DF8030003208DF802001CB963
:1016500010208DF803000EE0012C03D104208DF83A
:10166000030008E0022C03D148208DF8030002E0BB
:1016700028208DF803006946A86802F093F800BF9F
:10168000D6E70246002106E001208840904201D1C1
:1016900008467047491C2029F6DB4FF0FF30F8E779
:1016A0002DE9F05F83460D4616461F46DDF828807B
:1016B0004FF0FF34E8B2FFF773FF8146B9F1000F36
:1016C00002D1601FBDE8F09FD9F80C00FFF7D9FFE9
:1016D0000446002C01DB102C02D36FF00500F1E76B
:1016E00008F024FC824604EB4400AE4931F92000A6
:1016F000A84219D104EB440001EB80004068B842D5
:1017000012D104EB440001EB80004088B0420BD1C1
:1017100004EB440001EB80008068404504D1504652
:1017200008F008FC0020CDE704EB44009D4931F9A6
:101730002000401C05D0504608F0FCFB6FF006006E
:10174000C0E728B204EB4401964A22F8210004EBDA
:101750004400114601EB8000476004EB440102EBBA
:1017600081014E8004EB4400114601EB8000C0F87B
:101770000880504608F0DEFB0020A3E72DE9F04189
:1017800080460D464FF0FF34E8B2FFF709FF0646EA
:1017900016B9601FBDE8F081F068FFF772FF0446DC
:1017A000002C01DB102C02D36FF00500F2E708F0EB
:1017B000BDFB074604EB44007A4931F92000401C88
:1017C00004D1384608F0B6FB0020E3E74FF0FF30C5
:1017D00004EB4401734A22F82100002004EB440189
:1017E00002EB8101486004EB440102EB8101488077
:1017F00004EB440102EB81018860384608F09AFB53
:101800000020C7E72DE9FF5F894617464FF0FF36F6
:1018100009F0FF00FFF7C4FE04461CB9701F04B0B6
:10182000BDE8F09F012F67D1E068FFF72AFF064669
:10183000002E01DB102E02D36FF00500EFE708F059
:1018400075FB834606EB4600564931F92000401CE3
:1018500005D1584608F06EFB6FF00500DFE706EB98
:101860004600514901EB80050121606800F01FFD31
:10187000A08980B2ADF80C0048208DF80F0003203D
:101880008DF80E0003A9A06801F08CFF287A8DF86E
:10189000080002208DF809008DF80A0001208DF85B
:1018A0000B0002A803F0B9FF6868009000208DF8D3
:1018B000040006EB46003B4901EB8000408820B164
:1018C000012806D002280CD107E008208DF8050079
:1018D00007E00C208DF8050003E010208DF80500CE
:1018E00000BF00BF01208DF80600684600F012FE20
:1018F000584608F01FFB2AE037BBD4F80CA050462E
:10190000FFF7BFFE8046B8F1000F02DBB8F1100F01
:1019100001D3002004E008EB4800234901EB8000DC
:10192000054615B96FF0050079E76868009000205A
:101930008DF8040008208DF8050000208DF80600C1
:10194000684600F0E7FD02E06FF0050067E7002061
:1019500065E710B50022154915A008F0B5FB04464F
:10196000204610BD10B5044604EB44010E4A02EBBC
:10197000810191F9080000F0FFFE04EB44000949E1
:1019800001EB80004068B0B104EB44020B4603EB6E
:101990008202906804EB440203EB8202516809E082
:1019A000242C01086800002034300108F4300108BC
:1019B00070696E00884710BD10B505F0E7FD002086
:1019C000FFF7D0FF05F0F9FD10BD10B505F0DEFD05
:1019D0000120FFF7C7FF05F0F0FD10BD10B505F0C1
:1019E000D5FD0220FFF7BEFF05F0E7FD10BD10B5E5
:1019F00005F0CCFD0320FFF7B5FF05F0DEFD10BDBF
:101A000010B505F0C3FD0420FFF7ACFF05F0D5FDD0
:101A100010BD10B505F0BAFD202000F061FE10B138
:101A20000520FFF79FFF402000F05AFE10B106206E
:101A3000FFF798FF802000F053FE10B10720FFF75A
:101A400091FF4FF4807000F04BFE10B10820FFF7BB
:101A500089FF4FF4007000F043FE10B10920FFF73A
:101A600081FF05F0AAFD10BD10B505F08FFD4FF404
:101A7000806000F035FE10B10A20FFF773FF4FF4CD
:101A8000006000F02DFE10B10B20FFF76BFF4FF44C
:101A9000805000F025FE10B10C20FFF763FF4FF4DB
:101AA000005000F01DFE10B10D20FFF75BFF4FF45A
:101AB000804000F015FE10B10E20FFF753FF4FF4E9
:101AC000004000F00DFE10B10F20FFF74BFF05F0B6
:101AD00074FD10BD0CB50020019000906B480068AB
:101AE00040F480306949086000BF6848006800F42D
:101AF000003000900198401C0190009818B901989E
:101B0000B0F5A06FF1D16148006810F4003F02D039
:101B10000120009001E0002000900098012842D1AF
:101B20005B48006840F010005949086008460068AA
:101B300020F0030008600846006840F002000860DA
:101B40005248406851494860084640684860084625
:101B5000406840F4806048600846406820F47C108B
:101B600048600846406840F4E8104860084600684D
:101B700040F08070086000BF4448006810F0007FAB
:101B8000FAD04248406820F00300404948600846C7
:101B9000406840F00200486000BF3C48406800F0E8
:101BA0000C000828F9D10CBD10B5FFF793FF10BD4C
:101BB00010B53648006840F0010034490860084616
:101BC0004068344908403149486008460068324955
:101BD00008402E4908600846006820F4802008600C
:101BE0000846406820F4FE0048604FF41F008860FB
:101BF000FFF7DAFF4FF000602849086010BD10B50C
:101C0000002100200022214B5B6803F00C0121B170
:101C1000042906D0082928D107E0214B214C236054
:101C200027E01F4B1F4C236023E0184B5B6803F435
:101C30007010164B5B6803F48032022303EB904074
:101C400022B9194B4343174C23600DE00F4B5B68DF
:101C500013F4003F04D0144B4343124C236003E0C1
:101C60000F4B43430F4C236003E00D4B0D4C23609F
:101C700000BF00BF054B5B68C3F303130B4CE15C73
:101C8000084B1B68CB40074C236010BD001002407E
:101C9000002002400000FFF8FFFFF6FE08ED00E024
:101CA00000127A002801002000093D002C010020CC
:101CB000FE48006840F00100FC49086008464068A2
:101CC000FB490840F949486008460068F94908405E
:101CD000F64908600846006820F48020086008463D
:101CE000406820F4FE0048604FF41F008860704791
:101CF00010B504462CB1B4F5803F02D0B4F5802F66
:101D000000D104E040F21111EBA0FEF7BDFAE74864
:101D1000006820F48030E54908600846006820F437
:101D200080200860B4F5803F03D0B4F5802F0ED139
:101D300006E0DE48006840F48030DC49086007E0D7
:101D4000DA48006840F4A020D849086000E000BFED
:101D500000BF10BD2DE9F0410446002500260027F4
:101D6000212C13D0312C11D0392C0FD0412C0DD077
:101D7000612C0BD07A2C09D07B2C07D07C2C05D081
:101D80007D2C03D07E2C01D07F2C00D104E040F2CA
:101D90003451C9A0FEF778FA6511012D02D1C3486C
:101DA000066806E0022D02D1C048066A01E0BF487D
:101DB000466A04F01F050120A840304201D00127E7
:101DC00000E000273846BDE8F08138B500200090DB
:101DD0000024002500BF3120FFF7BCFF0546009816
:101DE000401C00900098B0F5A06F01D0002DF2D0FB
:101DF0003120FFF7AFFF08B1012400E000242046A6
:101E000038BD70B5044600251F2C00DC04E04FF4FB
:101E1000A971A9A0FEF738FAA448056825F0F805CD
:101E200045EAC405056070BD10B504460CB1012C2F
:101E300000D104E040F265119FA0FEF725FAAD48FD
:101E4000046010BD70B505460C4600262DB1B5F5F1
:101E5000803F02D0B5F5403F00D104E040F27F1151
:101E600095A0FEF711FA4CB3B4F5802F26D0B4F547
:101E7000002F23D0B4F5402F20D0B4F5801F1DD003
:101E8000B4F5A01F1AD0B4F5C01F17D0B4F5E01FE9
:101E900014D0B4F5001F11D0B4F5101F0ED0B4F556
:101EA000201F0BD0B4F5301F08D0B4F5401F05D06B
:101EB000B4F5501F02D0B4F5601F00D104E04FF418
:101EC000C0717DA0FEF7E0F97848466826F47C16DC
:101ED00045EA040006437548466070BD10B50446E7
:101EE0000CB1012C00D104E04FF4CA7172A0FEF7CE
:101EF000CBF98048046610BD70B5044600251CB1BE
:101F0000012C01D0022C00D104E04FF40E716AA024
:101F1000FEF7BAF96548456825F003052543456095
:101F200070BD6248406800F00C00704770B5044610
:101F300000257CB1802C0DD0902C0BD0A02C09D08A
:101F4000B02C07D0C02C05D0D02C03D0E02C01D071
:101F5000F02C00D104E04FF4197157A0FEF794F96A
:101F60005248456825F0F0052543456070BD70B5C1
:101F7000044600255CB1B4F5806F08D0B4F5A06FBD
:101F800005D0B4F5C06F02D0B4F5E06F00D104E025
:101F900040F27E2148A0FEF777F94448456825F4D1
:101FA000E0652543456070BD70B5044600255CB111
:101FB000B4F5806F08D0B4F5A06F05D0B4F5C06F4C
:101FC00002D0B4F5E06F00D104E04FF426713AA0DE
:101FD000FEF75AF93548456825F4605545EAC405C9
:101FE000456070BD70B504460D4614F0E00F01D198
:101FF00004B104E040F2BF212FA0FEF745F90DB176
:10200000012D00D104E04FF430712BA0FEF73CF914
:102010002DB12648407A20432449487204E02348E1
:10202000407AA0432149487270BD10B504460CB1F6
:10203000012C00D104E040F2DB211FA0FEF724F9BF
:102040002D48046010BD70B50446002544B1B4F5B8
:10205000804F05D0B4F5004F02D0B4F5404F00D109
:1020600004E040F2023114A0FEF70EF90F48456873
:1020700025F440452543456070BD10B504461CB1AC
:10208000012C01D0042C00D104E04FF450710AA0BF
:10209000FEF7FAF8002019490870044981F8200079
:1020A000012C2DD0042C33D12EE000000010024072
:1020B0000000FFF8FFFFF6FE4C696272617269650D
:1020C000735C53544D3332463130785F53746450EF
:1020D00065726970685F4472697665725C73726379
:1020E0005C73746D3332663130785F7263632E6374
:1020F0000000000000004242D8004242201002408E
:102100000120F449087004E00520F249087000E05D
:1021100000BF00BF10BD10B504460CB1012C00D1AA
:1021200005E040F26131AFF27000FEF7ADF8EA4829
:10213000046010BD10B50446B4F5807F05D0B4F539
:10214000007F02D0B4F5407F00D105E040F272314B
:10215000AFF29C00FEF798F8DE482038006A204372
:10216000DC492039086210BD10B504460CB1012CC1
:1021700000D105E04FF46071AFF2C400FEF784F8BF
:10218000D5484438046010BD30B500210022002439
:102190000023D04D203D6D6805F00C0121B10429CC
:1021A00005D0082926D105E0CC4D056025E0CB4DB2
:1021B000056022E0C74D203D6D6805F47012C54DE5
:1021C000203D6D6805F48034022505EB92421CB970
:1021D000C34D554305600CE0BE4D203D6D6815F4C0
:1021E000003F03D0BE4D5543056002E0BB4D554353
:1021F000056002E0B94D056000BF00BFB54D203D50
:102200006D6805F0F0010909B64D6B5C0568DD40AD
:102210004560B04D203D6D6805F4E061090AB14D9F
:102220006B5C4568DD408560AA4D203D6D6805F416
:102230006051C90AAB4D6B5C4568DD40C560A54D7A
:10224000203D6D6805F44041890BA74D6B5CC56866
:10225000B5FBF3F5056130BD70B504460D4640F29F
:10226000575034EA000001D104B105E040F22B419F
:10227000AFF2BC10FEF708F80DB1012D00D105E05A
:1022800040F22C41AFF2D010FDF7FEFF3DB1914876
:102290002038406920438F492039486106E08D4845
:1022A00020384069A0438B492039486170BD70B522
:1022B00004460D468D48044201D104B105E040F2C8
:1022C0004A41AFF20C20FDF7DFFF0DB1012D00D127
:1022D00005E040F24B41AFF22020FDF7D5FF3DB1C4
:1022E0007C482038806920437A492039886106E09B
:1022F000784820388069A04376492039886170BDCC
:1023000070B504460D467A48044201D104B105E097
:1023100040F26941AFF26020FDF7B6FF0DB1012D2B
:1023200000D105E040F26A41AFF27420FDF7ACFF46
:102330003DB168482038C069204366492039C861EA
:1023400006E064482038C069A04362492039C8616A
:1023500070BD70B504460D466448044201D104B115
:1023600005E040F2A441AFF2B020FDF78DFF0DB1C2
:10237000012D00D105E040F2A541AFF2C420FDF7E8
:1023800083FF3DB153482038C0682043514920396C
:10239000C86006E04F482038C068A0434D49203946
:1023A000C86070BD70B504460D465148044201D165
:1023B00004B105E040F2C341AFF20430FDF764FF21
:1023C0000DB1012D00D105E040F2C441AFF218304B
:1023D000FDF75AFF3DB13F482038006920433D4991
:1023E0002039086106E03B4820380069A04339499C
:1023F0002039086170BD10B504460CB1012C00D124
:1024000005E04FF49B61AFF25030FDF73DFF3248DD
:102410004038046010BD10B504460CB1012C00D149
:1024200005E040F2E541AFF27030FDF72DFF314895
:10243000C46410BD10B504463CB1052C05D0042C75
:1024400003D0062C01D0072C00D105E040F2055145
:10245000AFF29C30FDF718FF1E482038C47110BD44
:102460001C482038406A40F080701A492039486280
:10247000704770B504460025012C09D0022C07D006
:10248000042C05D0082C03D0102C01D0802C00D1B6
:1024900005E040F27E51AFF2E030FDF7F5FE0D4869
:1024A00020388068204201D0012500E00025284620
:1024B00070BD10B5044614F0600F01D104B105E001
:1024C00040F2AB51AFF21040FDF7DEFE014820387C
:1024D000847210BD201002408004424200127A0033
:1024E00000093D003C0100204C0100200200C0FF1B
:1024F00000360181000042420020A7490860091D02
:102500000860091D0860091D0860A448A24914312B
:102510000860704770B504460025207910B1207915
:10252000042800D103E06A219DA0FDF7ADFE60798B
:10253000082805D060790C2802D06079102800D1D5
:1025400003E06B2196A0FDF79FFE2068000D0005BB
:1025500002D1206800B103E06C2191A0FDF794FE48
:10256000A07910B1A079012800D103E06D218CA0E1
:10257000FDF78AFE884DA07990B32846006821684F
:10258000884329460860081D006821688843291D82
:1025900008602079054428682168084328607E483F
:1025A00008300068216888437B4908310860081DAD
:1025B00000682168884378490C31086060791028E8
:1025C0000FD1081F0068216808437349083108606B
:1025D000081D0068216808436F490C3108600EE04F
:1025E00007E06D4D6079054428682168084328603C
:1025F00005E020790544286821688843286070BD7B
:102600000021016001710C2141710021817170472D
:1026100010B50446200D000501D104B103E0AE2140
:102620005FA0FDF731FE5C481030006820435A4936
:102630001031086010BD70B504460025012C31D062
:10264000022C2FD0042C2DD0082C2BD0102C29D0CC
:10265000202C27D0402C25D0802C23D0B4F5807F8F
:1026600020D0B4F5007F1DD0B4F5806F1AD0B4F53A
:10267000006F17D0B4F5805F14D0B4F5005F11D0AF
:10268000B4F5804F0ED0B4F5004F0BD0B4F5803FB9
:1026900008D0B4F5003F05D0B4F5802F02D0B4F5D2
:1026A000002F00D103E0BE213DA0FDF7EDFD3A482B
:1026B00014300068204201D0012500E000252846A2
:1026C00070BD10B50446200D000501D104B103E032
:1026D000D42133A0FDF7D8FD2F481430046010BD7D
:1026E00070B5044600250026012C31D0022C2FD0D5
:1026F000042C2DD0082C2BD0102C29D0202C27D006
:10270000402C25D0802C23D0B4F5807F20D0B4F588
:10271000007F1DD0B4F5806F1AD0B4F5006F17D0CC
:10272000B4F5805F14D0B4F5005F11D0B4F5804FDC
:102730000ED0B4F5004F0BD0B4F5803F08D0B4F5FF
:10274000003F05D0B4F5802F02D0B4F5002F00D1A2
:1027500003E0E52112A0FDF797FD0F48006800EAAD
:1027600004060D4814300068204202D00EB1012545
:1027700000E00025284670BD10B50446200D000578
:1027800001D104B103E0FC2105A0FDF77DFD024865
:102790001430046010BD000000040140FFFF0F0072
:1027A0004C69627261726965735C53544D33324691
:1027B0003130785F5374645065726970685F447239
:1027C000697665725C7372635C73746D3332663103
:1027D00030785F657874692E6300000010B5044698
:1027E000F948844205D0F948844202D0F84884422E
:1027F00000D103E0B621F7A0FDF746FDF248844280
:1028000008D101214015FFF7A4FD00216015FFF755
:10281000A0FD17E0ED48844208D101210015FFF723
:1028200098FD00212015FFF794FD0BE0E848844255
:1028300008D10121C803FFF78CFD00214FF40040AF
:10284000FFF787FD10BD2DE9F04105460C46002637
:102850000027DD48854205D0DC48854202D0DC48AF
:10286000854200D103E0DF21DAA0FDF70DFD2068ED
:1028700018B32068B0F5803F1FD02068B0F5003F46
:102880001BD02068B0F5403F17D02068B0F5802FEE
:1028900013D02068B0F5A02F0FD02068B0F5C02F5E
:1028A0000BD02068B0F5E02F07D02068B0F5002FDE
:1028B00003D02068B0F5102F00D103E0E021C5A0BF
:1028C000FDF7E2FC207910B12079012800D103E066
:1028D000E121C0A0FDF7D8FC607910B16079012832
:1028E00000D103E0E221BBA0FDF7CEFCA06888B3D5
:1028F000A068B0F5003F2DD0A068B0F5802F29D09A
:10290000A068B0F5C02F25D0A068B0F5002F21D069
:10291000A068B0F5202F1DD0A068B0F5402F19D0C9
:10292000A068B0F5602F15D0A06898B1A068B0F588
:10293000003F0FD0A068B0F5C02F0BD0A068B0F555
:10294000002F07D0A068B0F5202F03D0A068B0F505
:10295000402F00D103E0E3219EA0FDF795FCE06845
:1029600018B1E068B0F5006F00D103E0E42199A050
:10297000FDF78AFC207C012803DB207C102800DC8A
:1029800003E0E52193A0FDF77FFC6E68A0480640B8
:102990002179206840EA012006436E60AE689D48B8
:1029A0000640D4E902100843617940EA4100064339
:1029B000AE60EE6A26F47006207C401EC0B207436B
:1029C00046EA0756EE62BDE8F08100210160017120
:1029D00041718160C16001210174704770B5044686
:1029E0000D467948844205D07848844202D0784820
:1029F000844200D104E04FF4977176A0FDF744FCC7
:102A00000DB1012D00D104E040F22F1171A0FDF7AE
:102A10003BFC25B1A06840F00100A06003E0A06885
:102A200020F00100A06070BD70B504460D466648F8
:102A3000844202D06648844200D104E040F247114B
:102A400064A0FDF721FC0DB1012D00D104E04FF48D
:102A5000A47160A0FDF718FC25B1A06840F4807057
:102A6000A06003E0A06820F48070A06070BD2DE934
:102A7000F04104460D46164600275348844205D0CF
:102A80005248844202D05248844200D104E040F2CD
:102A9000651150A0FDF7F8FB0EB1012E00D104E046
:102AA0004FF4B3714BA0FDF7EFFB4FF61F0005424B
:102AB00001D105B104E040F2671146A0FDF7E4FB47
:102AC000EFB21EB160683843606002E06068B843EE
:102AD0006060BDE8F08110B504463B48844205D0F3
:102AE0003A48844202D03A48844200D104E04FF48C
:102AF000BF7138A0FDF7C8FBA06840F00800A060D7
:102B000010BD70B5044600252F48844205D02F48DB
:102B1000844202D02E48844200D104E04FF4C671B2
:102B20002CA0FDF7B1FBA06810F0080F01D0012523
:102B300000E00025284670BD10B5044622488442B6
:102B400005D02248844202D02148844200D104E0CA
:102B50004FF4D2711FA0FDF797FBA06840F004006E
:102B6000A06010BD70B5044600251748844205D00A
:102B70001648844202D01648844200D104E04FF443
:102B8000D97114A0FDF780FBA06810F0040F01D0EC
:102B9000012500E00025284670BD70B504460D46AD
:102BA0000948844205D00948844202D0084884423A
:102BB00000D104E04FF4E67106A0FDF765FB0DB10E
:102BC000012D29D12EE00000002401400028014001
:102BD000003C01404C69627261726965735C5354D8
:102BE0004D3332463130785F53746450657269708A
:102BF000685F4472697665725C7372635C73746D4E
:102C00003332663130785F6164632E630000000008
:102C1000FFFEF0FFFDF7F1FF40F2CD11AFF24C00E7
:102C2000FDF732FB25B1A06840F4A000A06003E0EE
:102C3000A06820F4A000A06070BD70B50446002517
:102C4000FE48844205D0FE48844202D0FD488442BA
:102C500000D105E040F2E511AFF28800FDF714FB6A
:102C6000A06810F4800F01D0012500E0002528465F
:102C700070BD2DE9F04104460D4600260027EF48BF
:102C8000844205D0EE48844202D0EE48844200D10E
:102C900005E040F20221AFF2C400FDF7F5FA012D84
:102CA00002DB082D00DC05E040F20321AFF2DC007E
:102CB000FDF7EAFA666826F460466F1E46EA473674
:102CC0006660BDE8F08170B504460D46DB4884427D
:102CD00005D0DB48844202D0DA48844200D105E0C6
:102CE00040F21B21AFF21410FDF7CEFA0DB1012D09
:102CF00000D105E04FF40771AFF22810FDF7C4FAD8
:102D000025B1606840F40060606003E0606820F412
:102D10000060606070BD2DE9F04706460C4617461E
:102D200098460025A946C548864205D0C448864233
:102D300002D0C448864200D105E040F25221AFF2F1
:102D40006C10FDF7A1FA0CB3012C1FD0022C1DD082
:102D5000032C1BD0042C19D0052C17D0062C15D011
:102D6000072C13D0082C11D0092C0FD00A2C0DD011
:102D70000B2C0BD00C2C09D00D2C07D00E2C05D011
:102D80000F2C03D0102C01D0112C00D105E040F203
:102D90005321AFF2C010FDF777FA012F02DB102F9D
:102DA00000DC05E04FF41571AFF2D810FDF76CFAB6
:102DB000B8F1000F14D0B8F1010F11D0B8F1020F23
:102DC0000ED0B8F1030F0BD0B8F1040F08D0B8F152
:102DD000050F05D0B8F1060F02D0B8F1070F00D1EA
:102DE00005E040F25521AFF21420FDF74DFA092C11
:102DF00013DDF568A4F10A0000EB4001072000FA9A
:102E000001F925EA0905A4F10A0000EB400008FADF
:102E100000F945EA0905F5600EE0356904EB440167
:102E2000072000FA01F925EA090504EB440008FA35
:102E300000F945EA09053561072F11DA756B781E2F
:102E400000EB80011F2000FA01F925EA0905781E30
:102E500000EB800004FA00F945EA0905756326E0F5
:102E60000D2F11DA356BF81F00EB80011F2000FADF
:102E700001F925EA0905F81F00EB800004FA00F9C2
:102E800045EA0905356312E0F56AA7F10D0000EB8C
:102E900080011F2000FA01F925EA0905A7F10D00BC
:102EA00000EB800004FA00F945EA0905F562BDE887
:102EB000F08770B504460D466048844205D06048EE
:102EC000844202D05F48844200D105E040F2B12143
:102ED000AFF20030FDF7D8F90DB1012D00D105E0BA
:102EE00040F2B221AFF21430FDF7CEF925B1A0685F
:102EF00040F48010A06003E0A06820F48010A0607F
:102F000070BD10B504464D48844205D04C488442FB
:102F100002D04C48844200D105E040F2C721AFF214
:102F20004C30FDF7B1F9E06C80B210BD43484C3035
:102F30000068704770B504460D464048844205D08D
:102F40003F48844202D03F48844200D105E040F22D
:102F5000E121AFF28030FDF797F90DB1012D00D1DD
:102F600005E040F2E221AFF29430FDF78DF925B192
:102F7000606840F48060606003E0606820F4806016
:102F8000606070BD70B504460D462C48844205D083
:102F90002B48844202D02B48844200D105E040F205
:102FA000FB21AFF2D030FDF76FF90DB1012D00D14B
:102FB00005E04FF43F71AFF2E430FDF765F925B15C
:102FC000606840F48050606003E0606820F48050E6
:102FD000606070BD70B505460C46002617488542F6
:102FE00005D01748854202D01648854200D105E039
:102FF00040F22331AFF22440FDF746F954B3B4F563
:10300000805F27D0B4F5005F24D0B4F5405F21D0B5
:10301000B4F5804F1ED0B4F5A04F1BD0B4F5C04F0F
:1030200018D0B4F5E04F15D0B4F5005F12D0B4F568
:10303000405F0FD0B4F5804F0CD005E00024014074
:1030400000280140003C0140B4F5A04F02D0B4F587
:10305000C04F00D105E04FF44971AFF28840FDF751
:1030600013F9AE6826F4E0462643AE6070BD70B535
:1030700004460D46FA48844205D0FA48844202D0FC
:10308000F948844200D105E040F23B31AFF2BC4048
:10309000FDF7FAF80DB1012D00D105E04FF44F71A5
:1030A000AFF2D040FDF7F0F825B1A06840F4004041
:1030B000A06003E0A06820F40040A06070BD70B57F
:1030C00004460D46E648844205D0E648844202D0D4
:1030D000E548844200D105E04FF45571AFF20C5041
:1030E000FDF7D2F80DB1012D00D105E040F25531C8
:1030F000AFF22050FDF7C8F825B1A06840F40210E7
:10310000A06003E0A06820F40210A06070BD70B55C
:1031100004460025D248844205D0D248844202D0D9
:10312000D148844200D105E040F26D31AFF25C50ED
:10313000FDF7AAF8A06810F4001F01D0012500E0F7
:103140000025284670BD2DE9F04706460C469146FD
:103150001D460027B846BA46C148864205D0C14838
:10316000864202D0C048864200D105E040F2A63136
:10317000AFF2A050FDF788F80CB3012C1FD0022C41
:103180001DD0032C1BD0042C19D0052C17D0062CD5
:1031900015D0072C13D0082C11D0092C0FD00A2CD5
:1031A0000DD00B2C0BD00C2C09D00D2C07D00E2CD5
:1031B00005D00F2C03D0102C01D0112C00D105E02C
:1031C00040F2A731AFF2F450FDF75EF8B9F1010F0C
:1031D00003DBB9F1040F00DC05E04FF46A71AFF2D4
:1031E0000C60FDF751F86DB1012D0BD0022D09D007
:1031F000032D07D0042D05D0052D03D0062D01D0B9
:10320000072D00D105E040F2A931AFF23860FDF79B
:103210003BF8092C13DDF768A4F10A0000EB40012C
:10322000072000FA01F827EA0807A4F10A0000EBDA
:10323000400005FA00F847EA0807F7600EE0376932
:1032400004EB4401072000FA01F827EA080704EB21
:10325000440005FA00F847EA08073761B76BC7F37F
:10326000015A09F103000AF10101401A00EB800143
:103270001F2000FA01F827EA080709F103000AF104
:103280000101401A00EB800004FA00F847EA080741
:10329000B763BDE8F0872DE9F04104460D460026EE
:1032A00000276F48844205D06E48844202D06E48A1
:1032B000844200D105E040F2E631AFF2E860FCF76D
:1032C000E3FF012D02DB042D00DC05E040F2E731D5
:1032D000AFF20070FCF7D8FFA66B26F440166F1E05
:1032E00046EA0756A663BDE8F081F8B505460C46E8
:1032F0001646002000905A48854205D0594885421C
:1033000002D05948854200D105E040F20641AFF2B3
:103310003C70FCF7B9FF142C05D0182C03D01C2CE2
:1033200001D0202C00D105E040F20741AFF25C70E3
:10333000FCF7AAFFB6F5805F00DA05E04FF4816183
:10334000AFF27070FCF7A0FF009500982044009049
:1033500000980660F8BD38B505460C460020009080
:103360003F48854205D03F48854202D03E488542CD
:1033700000D105E040F22141AFF2A870FCF784FFD4
:10338000142C05D0182C03D01C2C01D0202C00D1DB
:1033900005E040F22241AFF2C470FCF775FF0095E2
:1033A00004F128000099084400900098006880B259
:1033B00038BD70B505460C4600262948854205D023
:1033C0002848854202D02848854200D105E040F2D5
:1033D0003E41AFF60000FCF757FF244884420FD06F
:1033E000234884420CD02348844209D0B4F5000F0E
:1033F00006D0B4F5800F03D0B4F5400F00D004B967
:1034000005E040F23F41AFF63400FCF73DFF6E6847
:103410001848C043064026436E6070BD70B5044630
:103420000E4615460E48844205D00E48844202D00E
:103430000D48844200D105E040F25741AFF66C00E0
:10344000FCF722FFB6F5805F00DA05E04FF48B61F0
:10345000AFF68000FCF718FFB5F5805F0CDA11E0DD
:103460000024014000280140003C0140000280008F
:10347000000240000002C00040F25941AFF6AC002B
:10348000FCF702FF6662A56270BD70B505460C468A
:1034900000268448854205D08348854202D083486F
:1034A000854200D105E040F27D41AFF6D800FCF73F
:1034B000EBFE0CB3012C1FD0022C1DD0032C1BD013
:1034C000042C19D0052C17D0062C15D0072C13D09E
:1034D000082C11D0092C0FD00A2C0DD00B2C0BD09E
:1034E0000C2C09D00D2C07D00E2C05D00F2C03D09E
:1034F000102C01D0112C00D105E040F27E41AFF636
:103500002C10FCF7C1FE6E6826F01F0626436E6085
:1035100070BD10B504460CB1012C00D105E040F29D
:103520009241AFF65010FCF7AFFE44B15D48083051
:10353000006840F400005B490831086007E0594822
:103540000830006820F4000056490831086010BDBA
:1035500070B505460C4600265248854205D05248B3
:10356000854202D05148854200D105E040F2AF418A
:10357000AFF6A010FCF788FE012C07D0022C05D076
:10358000042C03D0082C01D0102C00D105E04FF4FE
:103590009661AFF6C010FCF777FE2868204201D094
:1035A000012600E00026304670BD70B504460D4689
:1035B0003C48844205D03C48844202D03B48844287
:1035C00000D105E040F2CF41AFF6F810FCF75CFE09
:1035D00015F0E00F01D105B105E04FF49A61AFF6A7
:1035E0000C20FCF751FEE843206070BD2DE9F0414E
:1035F00004460D4600260027B0462A48844205D0DE
:103600002948844202D02948844200D105E040F292
:10361000E441AFF64020FCF737FEB5F5087F05D052
:10362000B5F5A07F02D0B5F5906F00D105E040F26E
:10363000E541AFF66020FCF727FE2F126068E9B283
:1036400000EA01082068384204D0B8F1000F01D028
:10365000012600E000263046BDE8F08170B5044642
:103660000D4600260F48844205D00F48844202D000
:103670000E48844200D105E040F20751AFF6AC207D
:10368000FCF702FE4FF61F00054201D105B105E02F
:103690004FF4A161AFF6C420FCF7F6FD2E12F04303
:1036A000206070BD0024014000280140003C014022
:1036B00010B50446FC48844211D0FC4884420ED028
:1036C000FB4884420BD0FB48844208D0FA4884422D
:1036D00005D0FA48844202D0F948844200D103E080
:1036E0006F21F8A0FCF7D0FDEF48844208D10121FA
:1036F0000420FEF72EFE00210420FEF72AFE46E0FD
:10370000EA48844208D101210820FEF722FE002168
:103710000820FEF71EFE3AE0E548844208D1012168
:103720001020FEF716FE00211020FEF712FE2EE0FC
:10373000E048844208D101212020FEF70AFE002142
:103740002020FEF706FE22E0DB48844208D101215A
:103750004020FEF7FEFD00214020FEF7FAFD16E0B6
:10376000D648844208D101218020FEF7F2FD0021D5
:103770008020FEF7EEFD0AE0D148844207D1012106
:103780008015FEF7E6FD0021A015FEF7E2FD10BD55
:1037900010B501210846FEF7DCFD00210120FEF7EF
:1037A000D8FD10BD2DE9F05F05460C464FF000092D
:1037B000CA4600260027B046B346BB48854211D012
:1037C000BA4885420ED0BA4885420BD0B9488542E6
:1037D00008D0B948854205D0B848854202D0B848DB
:1037E000854200D103E0B221B6A0FCF74DFDE078A0
:1037F000A0B1E078042811D0E07828280ED0E07835
:1038000048280BD0E078142808D0E078102805D09C
:10381000E0781C2802D0E078182800D103E0B3211A
:10382000A8A0FCF731FD002010B9208800B103E00A
:10383000B421A4A0FCF728FDE07800F00F09E0789F
:1038400010F0100F10D0A078012805D0A078022821
:1038500002D0A078032800D103E0BB2199A0FCF797
:1038600013FDA07840EA0909207838B3D5F8008024
:1038700000261FE0012000FA06F7208800EA070A68
:10388000BA4516D1B7000F2000FA07FB28EA0B084B
:1038900009FA07F040EA0808E078282803D1012057
:1038A000B040686105E0E078482802D10120B040CE
:1038B0002861761C082EDDD3C5F800802088FF28FB
:1038C0002BDDD5F80480002623E006F10800012155
:1038D00001FA00F7208800EA070ABA4518D1B700B4
:1038E0000F2000FA07FB28EA0B0809FA07F040EA64
:1038F0000808E078282803D106F1080081406961B2
:10390000E078482804D106F10800012181402961AE
:10391000761C082ED9D3C5F80480BDE8F09F4FF679
:10392000FF710180022181700421C170704770B560
:1039300005460C4600265C48854211D05B4885420E
:103940000ED05B4885420BD05A48854208D05A4871
:10395000854205D05948854202D05948854200D158
:1039600004E04FF48F7157A0FCF78EFC012C25D09A
:10397000022C23D0042C21D0082C1FD0102C1DD0B9
:10398000202C1BD0402C19D0802C17D0B4F5807F70
:1039900014D0B4F5007F11D0B4F5806F0ED0B4F51B
:1039A000006F0BD0B4F5805F08D0B4F5005F05D090
:1039B000B4F5804F02D0B4F5004F00D104E040F2DE
:1039C0001F1140A0FCF760FCA868204201D001262E
:1039D00000E00026304670BD10B5044632488442EF
:1039E00011D0324884420ED0314884420BD0314845
:1039F000844208D03048844205D03048844202D006
:103A00002F48844200D104E04FF49A712DA0FCF7B6
:103A10003BFCA06880B210BD70B505460C46002680
:103A20002148854211D0214885420ED02048854248
:103A30000BD02048854208D01F48854205D01F483A
:103A4000854202D01E48854200D104E04FF4A271A5
:103A50001CA0FCF719FC012C25D0022C23D0042C2F
:103A600021D0082C1FD0102C1DD0202C1BD0402C76
:103A700019D0802C17D0B4F5807F14D0B4F5007F16
:103A800011D0B4F5806F0ED0B4F5006F0BD0B4F543
:103A9000805F08D0B4F5005F05D0B4F5804F02D048
:103AA000B4F5004F2CD131E000080140000C01407A
:103AB000001001400014014000180140001C0140AA
:103AC000002001404C69627261726965735C5354F5
:103AD0004D3332463130785F53746450657269708B
:103AE000685F4472697665725C7372635C73746D4F
:103AF0003332663130785F6770696F2E6300000083
:103B000040F24511AFF24400FCF7BEFBE8682042EA
:103B100001D0012600E00026304670BD10B50446F5
:103B2000FE48844211D0FE4884420ED0FD488442B3
:103B30000BD0FD48844208D0FC48844205D0FC48A4
:103B4000844202D0FB48844200D105E04FF4AD71BD
:103B5000AFF29000FCF798FBE06880B210BD70B542
:103B600004460D46ED48844211D0ED4884420ED003
:103B7000EC4884420BD0EC48844208D0EB488442A5
:103B800005D0EB48844202D0EA48844200D105E0E7
:103B900040F26911AFF2D400FCF776FB002008B9BF
:103BA00005B105E04FF4B571AFF2E800FCF76CFB2E
:103BB000256170BD70B504460D46D848844211D0C9
:103BC000D74884420ED0D74884420BD0D64884428E
:103BD00008D0D648844205D0D548844202D0D54882
:103BE000844200D105E040F27911AFF22810FCF7D1
:103BF0004BFB002008B905B105E04FF4BD71AFF2F1
:103C00003C10FCF741FB656170BD70B505460C4684
:103C10001646C248854211D0C14885420ED0C148DF
:103C200085420BD0C048854208D0C048854205D0A7
:103C3000BF48854202D0BF48854200D105E040F22E
:103C40008D11AFF28010FCF71FFB012C25D0022C48
:103C500023D0042C21D0082C1FD0102C1DD0202CB8
:103C60001BD0402C19D0802C17D0B4F5807F14D0F5
:103C7000B4F5007F11D0B4F5806F0ED0B4F5006FAD
:103C80000BD0B4F5805F08D0B4F5005F05D0B4F573
:103C9000804F02D0B4F5004F00D105E04FF4C7715A
:103CA000AFF2E010FCF7F0FA0EB1012E00D105E002
:103CB00040F28F11AFF2F410FCF7E6FA0EB12C616E
:103CC00000E06C6170BD70B504460D4693488442B7
:103CD00011D0934884420ED0924884420BD092482F
:103CE000844208D09148844205D09148844202D051
:103CF0009048844200D105E04FF4D271AFF23C20ED
:103D0000FCF7C2FAE56070BD70B504460D464FF48D
:103D100080368248844211D0814884420ED0814846
:103D200084420BD08048844208D08048844205D029
:103D30007F48844202D07F48844200D105E040F2AF
:103D4000B511AFF28020FCF79FFA002008B905B149
:103D500005E04FF4DB71AFF29420FCF795FA2E43A7
:103D6000A661A561A661A669A66970BD70B5054684
:103D70000C4600263DB1012D05D0022D03D0032DA8
:103D800001D0042D00D105E04FF4E971AFF2CC2051
:103D9000FCF77AFAECB1012C1BD0022C19D0032CC1
:103DA00017D0042C15D0052C13D0062C11D0072CBD
:103DB0000FD0082C0DD0092C0BD00A2C09D00B2CBD
:103DC00007D00C2C05D00D2C03D00E2C01D00F2CBD
:103DD00000D105E040F2D311AFF21830FCF754FAED
:103DE000554806684FF68070064046EA0516264399
:103DF0005148066070BD10B504460CB1012C00D1CD
:103E000005E04FF4F371AFF24430FCF73DFA4B4854
:103E1000C46110BD2DE9F04704460E460027B846A0
:103E20000025A946012C77D0022C75D0042C73D024
:103E3000082C71D0A4F5A01010386DD020386BD0AC
:103E4000A4F5B010403867D0803865D03C48844233
:103E500062D03C4884425FD03B4884425CD03B48BF
:103E6000844259D03A48844256D0B4F5805F53D04A
:103E7000B4F5EA1F50D0B4F5EB1F4DD0B4F5004FA8
:103E80004AD03448844247D0A4F50010801E7CD02C
:103E9000801E7AD0001F78D0083876D0B4F1201F69
:103EA00073D0303871D02C4884426ED02B48844275
:103EB0006BD02B48844268D02A48844265D02A4877
:103EC000844262D0B4F5011F5FD0284884425CD0A0
:103ED000401C844259D0801C844256D0001D84422C
:103EE00053D022480F3084424FD020481F308442A4
:103EF0004BD01E483F30844247D01C487F3084421C
:103F000043D01A48FF3084423FD0194884423CD005
:103F10001848844239D02FE037E000000008014003
:103F2000000C014000100140001401400018014045
:103F3000001C014000200140000001400000204220
:103F400000011800000218000003180000081A0001
:103F5000000C1A00010020000001300000023000B7
:103F6000000430000011200000202000010000802B
:103F700000020080000400806348844205D063484A
:103F8000844202D06248844200D105E040F22A21F6
:103F9000AFF2D040FCF778F90EB1012E00D105E068
:103FA00040F22B21AFF2E440FCF76EF904F0004040
:103FB000B0F1004F02D15748C56901E05548456846
:103FC000C4F30349A7B204F44010B0F5401F08D170
:103FD00025F070654F48406820F070604D4948609A
:103FE00013E004F48010B0F5801F07D1032000FA1D
:103FF00009F825EA080545F0706506E0600D000146
:1040000007FA00F0854345F0706526B1600D0101A7
:1040100007FA01F0054304F00040B0F1004F02D16F
:104020003C48C56101E03B484560BDE8F08770B59C
:1040300005460C4600265DB1012D09D0022D07D0A2
:10404000032D05D0042D03D0052D01D0062D00D160
:1040500005E040F26521AFF29450FCF715F9ECB1A0
:10406000012C1BD0022C19D0032C17D0042C15D0F6
:10407000052C13D0062C11D0072C0FD0082C0DD0F6
:10408000092C0BD00A2C09D00B2C07D00C2C05D0F6
:104090000D2C03D00E2C01D00F2C00D105E040F2E6
:1040A0006621AFF2E050FCF7EFF8A007010F0F20F8
:1040B00000FA01F617480830A11050F82100B0436B
:1040C00014490831A21041F822000846A11050F806
:1040D0002100A107090F05FA01F108430D49083134
:1040E000A21041F8220070BD10B504460CB1012C9D
:1040F00000D105E04FF41E71AFF23860FCF7C4F850
:104100000548046010BD0000000800800010008019
:104110000020008000000140DC00204210B5044671
:10412000FE4884420BD0FE48844208D0FD488442B9
:1041300005D0FD48844202D0FC48844200D103E00F
:104140008521FBA0FCF7A0F8F448844209D10121A5
:104150008803FEF7FEF800214FF48040FEF7F9F8DF
:1041600032E0EF48844209D101214804FEF71AF9F0
:1041700000214FF40030FEF715F925E0E9488442AC
:1041800009D101218804FEF70DF900214FF48020A8
:10419000FEF708F918E0E448844209D10121C80477
:1041A000FEF700F900214FF40020FEF7FBF80BE0CA
:1041B000DE48844208D101210805FEF7F3F800210A
:1041C0004FF48010FEF7EEF810BD2DE9F04786B0F1
:1041D00005460C460026B24600BFB1460027CF4830
:1041E00085420BD0CE48854208D0CE48854205D0C6
:1041F000CD48854202D0CD48854200D103E0B821A8
:10420000CBA0FCF741F8206820B1D849206888424B
:1042100000D203E0B921C6A0FCF736F8A08818B197
:10422000A088B0F5805F00D103E0BA21C0A0FCF700
:104230002BF8E08858B1E088B0F5805F07D0E088BF
:10424000B0F5005F03D0E088B0F5405F00D103E037
:10425000BB21B7A0FCF718F8208938B12089B0F548
:10426000806F03D02089B0F5C06F00D103E0BC217E
:10427000AFA0FCF709F860894FF6F371084202D14C
:10428000608900B103E0BD21A9A0FBF7FDFFA08973
:1042900058B1A089B0F5807F07D0A089B0F5007F24
:1042A00003D0A089B0F5407F00D103E0BE21A0A0DB
:1042B000FBF7EAFFA08968B19848854205D0984885
:1042C000854202D09748854200D103E0C22198A0E0
:1042D000FBF7DAFF2F462E8A4CF6FF700640E08887
:1042E00006432E82AE894EF6F3100640A08821893F
:1042F0000843618908430643AE81AE8A4FF6FF400A
:104300000640A0890643AE8201A8FDF73DFF834821
:10431000874202D1DDF810A001E0DDF80CA0A889E9
:1043200010F4004F08D00AEBCA0000EB0A10216815
:104330004900B0FBF1F807E00AEBCA0000EB0A10F5
:1043400021688900B0FBF1F86420B8FBF0F00601A9
:104350003009642101FB1089A88910F4004F08D0AE
:10436000322000EBC900B0FBF1F000F0070006437B
:1043700008E0322000EB09106421B0FBF1F000F0FE
:104380000F0006432E8106B0BDE8F0874FF41651AA
:10439000016000218180C18001810C2141810021C7
:1043A0008181704770B505460C4600265B48854202
:1043B00005D05B48854202D05A48854200D104E0CE
:1043C0004FF499715AA0FBF75FFF208818B120883D
:1043D000B0F5006F00D104E040F2331154A0FBF7B8
:1043E00053FF608818B16088B0F5806F00D104E099
:1043F0004FF49A714EA0FBF747FFA08818B1A08830
:10440000B0F5007F00D104E040F2351148A0FBF781
:104410003BFFE08818B1E088B0F5807F00D104E070
:104420004FF49B7142A0FBF72FFF2E8A4FF2FF0043
:104430000640208861880843A1880843E188084332
:1044400006432E8270BD0021018041808180C180A1
:10445000704770B504460D46304884420BD0304852
:10446000844208D02F48844205D02F48844202D08D
:104470002E48844200D104E04FF4B1712CA0FBF728
:1044800003FF0DB1012D00D104E040F2631128A01B
:10449000FBF7FAFE25B1A08940F40050A08104E0AA
:1044A000A0894DF6FF710840A08170BD2DE9F0474D
:1044B00005460C4617464FF00008C246C146002686
:1044C000164885420BD01648854208D015488542CB
:1044D00005D01548854202D01448854200D104E039
:1044E00040F2891112A0FBF7CFFE282C43D0A4F58F
:1044F000E06027383FD0A4F5C06026383BD0A4F553
:10450000A060253837D0A4F58060243833D0A4F5D6
:10451000006046382FD0B0F5927029E00038014095
:104520000044004000480040004C00400050004063
:104530004C69627261726965735C53544D333246E3
:104540003130785F5374645065726970685F44728B
:10455000697665725C7372635C73746D3332663155
:1045600030785F75736172742E63000021AA440075
:1045700001D0602C00D105E04FF4C571AFF25000BE
:10458000FBF782FE0FB1012F00D105E040F28B1145
:10459000AFF26400FBF778FEA4F510606A380FD123
:1045A000F948854205D0F948854202D0F84885424D
:1045B00000D105E040F28F11AFF28C00FBF764FEF2
:1045C0002E46C4F3421804F01F0A012000FA0AF92B
:1045D000B8F1010F01D10C3605E0B8F1020F01D19D
:1045E000103600E0143627B1306840EA0900306028
:1045F00003E0306820EA09003060BDE8F08770B55C
:1046000004460D461646E04884420BD0DF488442FB
:1046100008D0DF48844205D0DE48844202D0DE481C
:10462000844200D105E040F2C311AFF2FC00FBF779
:104630002BFE4FF63F70054201D105B105E04FF466
:10464000E271AFF21410FBF71FFE0EB1012E00D184
:1046500005E040F2C511AFF22810FBF715FE1EB1C0
:10466000A08A2843A08202E0A08AA843A08270BD4D
:1046700070B504460D46C44884420BD0C3488442FA
:1046800008D0C348844205D0C248844202D0C24800
:10469000844200D105E040F2DF11AFF26C10FBF76D
:1046A000F3FD0F2D00DC05E04FF4F071AFF2801048
:1046B000FBF7EAFD208A4FF6F07108402082208A3D
:1046C0002843208270BD70B504460D46AE48844232
:1046D0000BD0AE48844208D0AD48844205D0AD48E6
:1046E000844202D0AC48844200D105E04FF4FB7113
:1046F000AFF2C410FBF7C8FD15B1B5F5006F00D1DE
:1047000005E040F2F711AFF2D810FBF7BDFDA0892C
:104710004FF2FF710840A081A0892843A08170BD9D
:1047200070B504460D46984884420BD097488442A1
:1047300008D09748844205D09648844202D09648D3
:10474000844200D105E040F20921AFF21C20FBF7C2
:104750009BFD0DB1012D00D105E040F20A21AFF221
:104760003020FBF791FD25B1A08940F00200A08127
:1047700004E0A0894FF6FD710840A08170BD70B5BE
:1047800004460D46804884420BD08048844208D0BD
:104790007F48844205D07F48844202D07E488442CC
:1047A00000D105E040F22621AFF27C20FBF76CFD42
:1047B0000DB1202D00D105E040F22721AFF290206D
:1047C000FBF762FD208A4FF6DF7108402082208AC5
:1047D0002843208270BD70B504460D466A48844265
:1047E0000BD06A48844208D06948844205D06948A1
:1047F000844202D06848844200D105E040F2392169
:10480000AFF2D420FBF740FD0DB1012D00D105E042
:1048100040F23A21AFF2E820FBF736FD25B1208ABD
:1048200040F48040208204E0208A4BF6FF7108406B
:10483000208270BD70B504460D46534884420BD0AB
:104840005248844208D05248844205D0514884429C
:1048500002D05148844200D105E040F25321AFF22A
:104860003030FBF711FDB5F5007F00DA05E04FF4BD
:104870001571AFF24430FBF707FDC5F30800A080C7
:1048800070BD10B50446404884420BD03F48844276
:1048900008D03F48844205D03E48844202D03E487A
:1048A000844200D105E04FF41971AFF27C30FBF780
:1048B000EBFCA088C0F3080010BD10B504463248D8
:1048C00084420BD03148844208D03148844205D01C
:1048D0003048844202D03048844200D105E04FF491
:1048E0001D71AFF2B430FBF7CFFCA08940F001009E
:1048F000A08110BD70B504460D462348844205D002
:104900002248844202D02248844200D105E04FF47C
:104910002171AFF2E430FBF7B7FC208BC0B22083EB
:10492000208B40EA0520208370BD70B504460D46FB
:10493000154884420BD01548844208D0144884425C
:1049400005D01448844202D01348844200D105E0C7
:104950004FF42671AFF22840FBF796FC208B00F451
:104960007F402083208B2843208370BD70B5044690
:104970000D460548844205D00448844202D00448CC
:1049800084420BD110E00000003801400044004098
:1049900000480040004C00400050004040F2AB2175
:1049A000AFF27440FBF770FC0DB1012D00D105E0B2
:1049B0004FF42B71AFF28840FBF766FC25B1A08A5B
:1049C00040F02000A08204E0A08A4FF6DF7108408A
:1049D000A08270BD70B504460D46F848844205D0EB
:1049E000F748844202D0F748844200D105E04FF4F2
:1049F0003171AFF2C440FBF747FC0DB1012D00D17E
:104A000005E040F2C521AFF2D840FBF73DFC25B1EF
:104A1000A08A40F01000A08204E0A08A4FF6EF7157
:104A20000840A08270BD70B504460D46E34884423C
:104A30000BD0E348844208D0E248844205D0E248E3
:104A4000844202D0E148844200D105E040F2DE21F8
:104A5000AFF22450FBF718FC0DB1012D00D105E099
:104A600040F2DF21AFF23850FBF70EFC25B1A08AEF
:104A700040F00800A08204E0A08A4FF6F7710840D9
:104A8000A08270BD70B504460D46CC4884420BD060
:104A9000CB48844208D0CB48844205D0CA488442DF
:104AA00002D0CA48844200D105E040F2FD21AFF2B5
:104AB0008050FBF7E9FB0DB1012D00D105E040F27C
:104AC000FE21AFF29450FBF7DFFB25B1A08940F443
:104AD0000040A08103E0A089C0F30E00A08170BD5A
:104AE00070B504460D46B54884420BD0B4488442A4
:104AF00008D0B448844205D0B348844202D0B348B9
:104B0000844200D105E04FF44671AFF2DC50FBF770
:104B1000BBFB0DB1012D00D105E040F21931AFF220
:104B2000F050FBF7B1FB25B1A08A40F40060A082F1
:104B300004E0A08A4FF2FF710840A08270BD70B5FA
:104B400004460D469D4884420BD09D48844208D0BF
:104B50009C48844205D09C48844202D09B488442B1
:104B600000D105E040F23531AFF23C60FBF78CFB41
:104B7000042D00D005B905E040F23631AFF25060A7
:104B8000FBF782FBA08A4FF6FB710840A082A08A47
:104B90002843A08270BD70B504460D468748844204
:104BA0000BD08748844208D08648844205D0864886
:104BB000844202D08548844200D105E04FF452710E
:104BC000AFF29460FBF760FB0DB1012D00D105E061
:104BD00040F24931AFF2A860FBF756FB25B1A08A3D
:104BE00040F00200A08204E0A08A4FF6FD71084068
:104BF000A08270BD70B505460C4600266F48854200
:104C00000BD06F48854208D06E48854205D06E486B
:104C1000854202D06D48854200D105E040F26E31F8
:104C2000AFF2F460FBF730FB012C13D0802C11D0D5
:104C3000402C0FD0202C0DD0102C0BD0B4F5807F41
:104C400008D0B4F5007F05D0082C03D0042C01D087
:104C5000022C00D105E040F26F31AFF22C70FBF76F
:104C600013FBB4F5007F0FD15448854205D054485A
:104C7000854202D05348854200D105E040F27331AD
:104C8000AFF25470FBF700FB2888204201D00126C8
:104C900000E00026304670BD70B504460D4647481A
:104CA00084420BD04648844208D04648844205D00E
:104CB0004548844202D04548844200D105E040F294
:104CC0009E31AFF29470FBF7DFFA4FF69F4005423A
:104CD00001D105B105E040F29F31AFF2AC70FBF7B6
:104CE000D3FA05F40070B0F5007F0FD13348844249
:104CF00005D03348844202D03248844200D105E0D6
:104D000040F2A331AFF2D870FBF7BEFAE84320803F
:104D100070BD2DE9F04705460C4600270026B04639
:104D2000B146264885420BD02548854208D0254803
:104D3000854205D02448854202D02448854200D1CE
:104D400005E040F2C131AFF61800FBF79DFA282CC0
:104D50001FD0A4F5E06027381BD0A4F5C06026382A
:104D600017D0A4F5A060253813D0A4F580602438AE
:104D70000FD0A4F5006046380BD0B0F5927008D083
:104D8000B4F5587F05D0B4F5187F02D0B4F5B07FE4
:104D900000D105E040F2C231AFF66C00FBF774FAC7
:104DA000A4F510606A3819D10448854205D004483A
:104DB000854202D0034885420AD10FE00038014005
:104DC0000044004000480040004C004000500040BB
:104DD00040F2C631AFF6A800FBF756FAC4F342180A
:104DE00004F01F06012000FA06F6B8F1010F02D107
:104DF000A889064007E0B8F1020F02D1288A0640D0
:104E000001E0A88A06402712012000FA07F7288847
:104E100007401EB117B14FF0010901E04FF0000942
:104E20004846BDE8F0872DE9F04104460D460026CE
:104E30000027244884420BD02348844208D02348CA
:104E4000844205D02248844202D02248844200D1C4
:104E500005E040F20A41AFF62810FBF715FAA5F578
:104E6000C06026380AD0A5F5A060253806D0A5F583
:104E70000060463802D0B0F5927000D105E040F2F3
:104E80000B41AFF65410FBF7FFF9A5F510606A3837
:104E90000FD10C48844205D00B48844202D00B4805
:104EA000844200D105E040F20F41AFF67C10FBF7E1
:104EB000EBF92E120120B04087B2F8432080BDE804
:104EC000F0810000003801400044004000480040EC
:104ED000004C00400050004010B50446F7488442A2
:104EE0002AD0F6481430844226D0F4482830844230
:104EF00022D0F2483C3084421ED0F04850308442E8
:104F00001AD0EE486430844216D0EC48783084429F
:104F100012D0EB4884420FD0E948143084420BD0C1
:104F2000E7482830844207D0E5483C30844203D02B
:104F3000E3485030844200D103E06F21E1A0FBF749
:104F4000A3F920684FF6FE71084020600020206021
:104F50006060A060E060D948844208D1D748083832
:104F6000406840F00F00D549083948608AE0D348CE
:104F70001430844208D1D1480838406840F0F0002D
:104F8000CE49083948607DE0CC482830844208D1B9
:104F9000CA480838406840F47060C8490839486019
:104FA00070E0C6483C30844208D1C44808384068A4
:104FB00040F47040C1490839486063E0BF48503050
:104FC000844208D1BD480838406840F47020BB498D
:104FD0000839486056E0B9486430844208D1B7487F
:104FE0000838406840F47000B4490839486049E026
:104FF000B2487830844208D1B0480838406840F060
:105000007060AE49083948603CE0AD48844206D142
:10501000001F006840F00F00211F086032E0A84820
:105020001430844208D1A648001F006840F0F00008
:10503000A349091F086025E0A1482830844208D10F
:105040009F48001F006840F470609D49091F086078
:1050500018E09B483C30844208D19948001F006802
:1050600040F470409649091F08600BE094485030A6
:10507000844207D19248001F006840F47020904994
:10508000091F086010BD70B505460C4600268B4808
:1050900085422AD089481430854226D08748283056
:1050A000854222D085483C3085421ED0834850300E
:1050B00085421AD081486430854216D07F487830C6
:1050C000854212D07E4885420FD07D4814308542FB
:1050D0000BD07B482830854207D079483C30854248
:1050E00003D077485030854200D103E0CF2175A02E
:1050F000FBF7CAF8A068102801D0A06800B903E047
:10510000D02170A0FBF7C0F8E06820B1E068B0F5EE
:10511000803F00D203E0D1216AA0FBF7B5F82069F7
:10512000402801D0206900B903E0D22165A0FBF737
:10513000ABF86069802801D0606900B903E0D32131
:1051400060A0FBF7A1F8A06938B1A069B0F5807F35
:1051500003D0A069B0F5007F00D103E0D42159A0AD
:10516000FBF792F8E06938B1E069B0F5806F03D0E1
:10517000E069B0F5006F00D103E0D52151A0FBF745
:1051800083F8206A202801D0206A00B903E0D621E4
:105190004CA0FBF779F8606AB0F5405F09D0606A0F
:1051A000B0F5005F05D0606AB0F5805F01D0606A3D
:1051B00000B903E0D72143A0FBF766F8A06AB0F579
:1051C000804F01D0A06A00B903E0D8213DA0FBF7D1
:1051D0005BF82E6847F6F0708643216AA0680843A2
:1051E0002169084361690843A1690843E1690843EB
:1051F000616A0843A16A084306432E60E06868605C
:105200002068A8606068E86070BD002101604160AE
:105210008160C160016141618161C161016241627E
:105220008162704770B504460D46244884422AD0F6
:1052300022481430844226D020482830844222D08C
:105240001E483C3084421ED01C48503084421AD044
:105250001A486430844216D018487830844212D0FC
:10526000174884420FD01648143084420BD014489B
:105270002830844207D012483C30844203D0104882
:105280005030844200D104E040F229110DA0FAF719
:10529000FBFF0DB1012D00D104E04FF4957109A081
:1052A000FAF7F2FF25B1206840F00100206004E029
:1052B00020684FF6FE710840206070BD0800024073
:1052C000080402404C69627261726965735C5354F0
:1052D0004D3332463130785F537464506572697073
:1052E000685F4472697665725C7372635C73746D37
:1052F0003332663130785F646D612E6300000000E8
:1053000070B504460D461646FE4884422AD0FD4834
:105310001430844226D0FB482830844222D0F948F9
:105320003C3084421ED0F748503084421AD0F548B1
:105330006430844216D0F3487830844212D0F24868
:1053400084420FD0F048143084420BD0EE4828300D
:10535000844207D0EC483C30844203D0EA485030C5
:10536000844200D105E040F24911AFF2A800FAF7FB
:105370008BFF35F00E0001D105B105E04FF4A571AA
:10538000AFF2C000FAF780FF0EB1012E00D105E0A8
:1053900040F24B11AFF2D400FAF776FF1EB120684D
:1053A0002843206002E02068A843206070BD70B5EB
:1053B00004460D46D34884422AD0D2481430844251
:1053C00026D0D0482830844222D0CE483C30844277
:1053D0001ED0CC48503084421AD0CA48643084422F
:1053E00016D0C8487830844212D0C74884420FD0C3
:1053F000C548143084420BD0C3482830844207D0BB
:10540000C1483C30844203D0BF485030844200D170
:1054100005E04FF4B271AFF25410FAF735FF656052
:1054200070BD10B50446B74884422AD0B548143040
:10543000844226D0B3482830844222D0B1483C3040
:1054400084421ED0AF48503084421AD0AD486430F8
:10545000844216D0AB487830844212D0AA488442A5
:105460000FD0A948143084420BD0A748283084427A
:1054700007D0A5483C30844203D0A3485030844232
:1054800000D105E04FF4BB71AFF2C810FAF7FCFE93
:10549000606880B210BD70B5044600250026012C5E
:1054A0007ED0022C7CD0042C7AD0082C7ED0102CFC
:1054B0007CD0202C7AD0402C78D0802C76D0B4F5BB
:1054C000807F73D0B4F5007F70D0B4F5806F6DD05D
:1054D000B4F5006F6AD0B4F5805F67D0B4F5005FB3
:1054E00064D0B4F5804F61D0B4F5004F5ED0B4F510
:1054F000803F5BD0B4F5003F58D0B4F5802F55D035
:10550000B4F5002F52D0B4F5801F4FD0B4F5001F72
:105510004CD0B4F5800F49D0B4F5000F46D0B4F1AB
:10552000807F43D0B4F1007F40D0B4F1806F3DD094
:10553000B4F1006F3AD07548844237D0A4F180505E
:10554000801E33D0801E31D0001F2FD008382DD0C0
:1055500010382BD0203829D0403827D06B48FF3066
:10556000844223D06A48844220D06A4884421DD0B5
:10557000694884421AD0B4F1102F17D04FEAF030A6
:10558000844213D06548844210D0654884420DD0CF
:10559000644884420AD06448844207D0634800E0EB
:1055A00004E0844202D06248844200D105E040F227
:1055B000B711AFF2F020FAF767FE14F0805F03D066
:1055C00051480838066802E04E4808380668264206
:1055D00001D0012500E00025284670BD10B5044625
:1055E00014F0704F02D05348044201D104B105E0D9
:1055F00040F20E21AFF23430FAF746FE14F0805F2D
:1056000003D04148001F046002E03E48083844606F
:1056100010BD70B5044600250026012C70D0022C68
:105620006ED0042C6CD0082C6AD0102C68D0202CA2
:1056300066D0402C64D0802C62D0B4F5807F5FD0DF
:10564000B4F5007F5CD0B4F5806F59D0B4F5006F2D
:1056500056D0B4F5805F53D0B4F5005F7FD0B4F579
:10566000804F7CD0B4F5004F79D0B4F5803F76D030
:10567000B4F5003F73D0B4F5802F70D0B4F5002F8F
:105680006DD0B4F5801F6AD0B4F5001F67D0B4F5B3
:10569000800F64D0B4F5000F61D0B4F1807F5ED08C
:1056A000B4F1007F5BD0B4F1806F58D0B4F1006FDB
:1056B00055D01648844252D0A4F18050801E4ED05E
:1056C000801E4CD0001F4AD0083848D0103846D031
:1056D000203844D0403842D00C48FF3084423ED07D
:1056E0000B4884423BD00B48844238D00A4884425D
:1056F00035D0B4F1102F32D04FEAF03084421BE0A5
:105700002DE00000080002400804024001000010E3
:1057100000020010000400100008001000400010FB
:1057200000800010000001100000021000000410B2
:10573000000008100000F0EF11D0214884420ED084
:10574000204884420BD02048844208D01F4884421D
:1057500005D01F48844202D01E48844200D105E093
:1057600040F25921AFF2A440FAF78EFD14F0805FA9
:1057700002D01948066801E018480668264201D0A0
:10578000012500E00025284670BD10B5044614F040
:10579000704F02D01248044201D104B105E040F23A
:1057A000AF21AFF2E040FAF76FFD14F0805F03D055
:1057B0000948001D046001E00848446010BD000075
:1057C00000400010008000100000011000000210D6
:1057D0000000041000000810000402400000024015
:1057E0000000F0EF10B50446B4F5E06F0BD0B4F54F
:1057F000C06F08D0B4F5A06F05D0B4F5806F02D0AB
:10580000B4F5407F00D103E063215EA0FAF73CFDD0
:10581000684820436849086010BD2DE9F0410446FE
:10582000002500270F26E07810B1E078012800D18C
:1058300003E0752153A0FAF727FD6078102800DAFD
:1058400003E076214FA0FAF71FFDA078102800DAB8
:1058500003E077214BA0FAF717FDE07808B356482C
:10586000006800F4E060C0F5E060050AC5F10407D7
:10587000EE40607800FA07F5A078304005432D012E
:105880004E4822788554207800F01F01012088407E
:10589000217849114FF0E02202EB8101C1F80001AB
:1058A00009E0207800F01F01012088404449227857
:1058B000521141F82200BDE8F08170B504460D4652
:1058C000B4F1005F02D0B4F1006F00D103E09F217A
:1058D0002CA0FAF7D9FC3B48854200D203E0A02176
:1058E00028A0FAF7D1FC384905EA010020433249E3
:1058F000091F086070BD70B504460D46102C03D01A
:10590000042C01D0022C00D103E0B2211DA0FAF733
:10591000BBFC0DB1012D00D103E0B32119A0FAF7B2
:10592000B3FC3DB12448001D006820432249091DF5
:10593000086006E02048001D0068A0431E49091DBC
:10594000086070BD10B50446042C01D0601D00D164
:1059500003E0CA210BA0FAF797FC042C08D14FF002
:10596000E020006940F004004FF0E021086107E00A
:105970004FF0E020006920F004004FF0E0210861C2
:1059800010BD00004C69627261726965735C5354AA
:105990004D3332463130785F5374645065726970AC
:1059A000685F4472697665725C7372635C6D69737B
:1059B000632E63000000FA050CED00E000E400E057
:1059C00080E100E0FFFF0F0080FFFF1F09488047D4
:1059D00009480047FEE7FEE7FEE7FEE7FEE7FEE7D1
:1059E000FEE7FEE7FEE7FEE704480549054A064BE9
:1059F00070470000B11B000831010008F01E0020B4
:105A0000F0240020F0200020F020002070471948EA
:105A10000068704770B5044604F088FA05461548DA
:105A20000460284604F086FA70BD10B5114800687D
:105A3000401C1049086003F009FB0446A06C401E9E
:105A4000A064A06C18B9606CA06403F0D7FB03F0ED
:105A5000EAFE10BD0146002902DA4FF0FF3007E0F0
:105A600064224A4302F2E7324FF47A7392FBF3F076
:105A70007047000050010020002070470020704750
:105A8000002070470020704710B5094C02E02068E4
:105A90008047241D07488442F9D310BD10B5054C3A
:105AA00002E020688047241D03488442F9D310BDDA
:105AB0002841010830410108384101082DE9F04131
:105AC000064603F0C3FA08B103F06BF9A74D6C6802
:105AD00010E0A4F10C0708223146384601F0ABFE75
