:020000040800F2
:1000000098280020517D0008D503000857C3000838
:10001000D7030008DB030008DF030008000000002E
:10002000000000000000000000000000E3030008E2
:10003000E503000800000000DFC200084F030008CD
:100040006B7D00086B7D00086B7D00086B7D0008F0
:100050006B7D00086B7D0008351900084719000802
:10006000591900086B1900087D1900086B7D0008FC
:100070006B7D0008551300086B7D0008B312000863
:10008000D71200086B7D00086B7D0008E9030008AB
:10009000E70300086B7D00086B7D00088F190008DE
:1000A0006B7D00086B7D00086B7D00086B7D000890
:1000B0006B7D00086B7D00086B7D00086B7D000880
:1000C0006B7D00086B7D00086B7D00086B7D000870
:1000D0006B7D0008A1120008C5120008E912000893
:1000E000E51900086B7D00086B7D00086B7D00083A
:1000F0006B7D00086B7D00086B7D00086B7D000840
:100100006B7D00086B7D00086B7D00086B7D00082F
:100110006B7D00086B7D00086B7D00086B7D00081F
:100120006B7D00086B7D00086B7D00086B7D00080F
:1001300000F002F800F06DF80AA090E8000C82448C
:100140008344AAF10107DA4501D100F062F8AFF269
:10015000090EBAE80F0013F0010F18BFFB1A43F0A5
:10016000010318475CB601007CB601000A444FF059
:10017000000C10F8013B13F0070408BF10F8014B06
:100180001D1108BF10F8015B641E05D010F8016B4B
:10019000641E01F8016BF9D113F0080F1EBF10F8AF
:1001A000014BAD1C0C1B09D16D1E58BF01F801CBD2
:1001B000FAD505E014F8016B01F8016B6D1EF9D555
:1001C0009142D6D37047000000230024002500266A
:1001D000103A28BF78C1FBD8520728BF30C148BFAA
:1001E0000B607047662919F07B86002070471FB5A9
:1001F00018F016FF04000020002119F089FC401CB3
:1002000060600020002119F06DFCE0601FBD10B59A
:1002100010BD19F051F81146FFF7E9FF00F05DF845
:1002200019F07DF803B4FFF7F2FF03BC19F07EF874
:10023000002804D090FAA0F0B0FA80F0401C70477B
:1002400010B5044607F0ECFD01F0DEFD10BD1CB555
:1002500000F012F900F093FA00F02DFD00F01EFE00
:1002600003F072F8142008210B020022CDE90010DF
:10027000AFF2330104A00BF036F9044614B1204666
:100280000BF0DBF800201CBD696E697400000000F3
:1002900004460D4614A009F02EFF21461CA009F0CB
:1002A0002AFF29461FA009F026FF00BFFEE710B570
:1002B00000F055F809F04FFF1F4920480AF0D8F820
:1002C0000AF05EFE0BF0C0FC0BF0CAFCFFF7BFFFAC
:1002D00007F0AAFF0AF070FE10BD10B50BF0E8FFA2
:1002E000FFF7E5FF002010BD0A0D2057726F6E6703
:1002F00020706172616D657465722076616C7565E0
:10030000206465746563746564206F6E0D0A000077
:100310002020202020202066696C65202025730D78
:100320000A000000202020202020206C696E65201B
:100330002025640D0A0000000000012098280020FC
:1003400010B500214FF0006007F079FC10BD10B52A
:1003500009F0DEFA07F02BFD09F0F1FA10BD70B5D7
:10036000FFF7EEFF164800686422B0FBF2F1481E6A
:10037000B0F1807F00D319E0481E4FF0E0225061B9
:1003800050170F22002806DA13010E4C00F00F055B
:100390002D1F635502E013010B4C235400BF0020B6
:1003A0004FF0E02290610720106100BF01F08FFA4A
:1003B00001F047F805A009F013FF07F027FD70BD15
:1003C0004001002018ED00E000E400E07561727467
:1003D00031000000704700BFFEE700BFFEE700BF2E
:1003E000FEE77047704770477047000008B501216D
:1003F000082003F058FC10208DF8030003208DF82E
:1004000002004FF48070ADF8000069463E4805F0E8
:100410008BFB4FF480713C4805F063FD08BD10B5BF
:1004200004462CB94FF48071374805F085FD00E093
:1004300000BF00BF10BD10B504462CB94FF4807149
:10044000314805F04EFD00E000BF00BF10BD3D2467
:100450000021204610F0C2FE0DE00021204610F0E1
:10046000D0FE32200BF092F90121204610F0C9FE97
:1004700032200BF08BF9F0E71FB5022014210202A5
:10048000224BCDE90032CDE902100023204A21A100
:1004900021480AF078FF04462CB91F480AF0CDFF26
:1004A000002004B010BD1DA009F025FE4FF0FF3064
:1004B000F7E770B505460C461F48007820B9FFF7EE
:1004C00095FF01201C4908706DB914B1012C08D1A9
:1004D00003E00020FFF7AFFF04E00020FFF79FFFDD
:1004E00000E000BF00BF012D0DD114B1012C08D1D7
:1004F00003E00120FFF79FFF04E00120FFF78FFFDB
:1005000000E000BF00BF70BD000C014028030020C8
:100510004F0400086C656400280500206C656420A9
:10052000746872656164207374617274757020669A
:1005300061696C656421000000000020704770B59F
:10054000044640219D4805F0F7FC0A20FFF7F6FF1E
:10055000002519E04021994805F0EEFC14F0010F48
:1005600004D08021954805F0BCFC03E0802193482D
:1005700005F0E2FC0A20FFF7E1FF40218F4805F07B
:10058000B0FC6410681CC5B2082DE3DB70BD70B50B
:1005900005460C462021894805F0CEFC40218748BD
:1005A00005F0CAFC0A20FFF7C9FF2021834805F0A7
:1005B00098FC0A20FFF7C2FF2846FFF7C0FF20463D
:1005C000FFF7BDFF20217D4805F0B6FC40217B48A8
:1005D00005F0B2FC0A20FFF7B1FF70BD08B501219C
:1005E000082003F060FB6020ADF8000003208DF8C8
:1005F000020010208DF803006946704805F094FA57
:100600008020ADF8000014208DF8030069466B4887
:1006100005F08AFA80218E20FFF7B9FF08BD70B57A
:10062000064600242021654805F086FC40216348E9
:1006300005F082FC0A20FFF781FF20215F4805F0CA
:1006400050FC0A20FFF77AFF3046FFF778FF0025BD
:1006500011E04021594805F044FC641040215748FE
:1006600005F06AFC8021554805F023FB08B144F0F1
:100670008004681CC5B2082DEBDB0A20FFF75EFF83
:1006800020214E4805F058FC204670BD7CB506463A
:100690004BA103C9CDE9000100218E20FFF777FFB0
:1006A000002411E04848005D0A2190FBF1F201FBB3
:1006B0001200C5B24448005D90FBF1F005EB00105C
:1006C00041490855601CC4B2082CEBDB002407E04C
:1006D0003D4A115D1DF80400FFF759FF601CC4B2CC
:1006E000072CF5DB80218E20FFF751FF7CBD70B514
:1006F0008120FFF794FF354908708320FFF78FFFB3
:10070000324948708520FFF78AFF3049887087207A
:10071000FFF785FF2D49C8708920FFF780FF2B491F
:1007200008718B20FFF77BFF284948718D20FFF768
:1007300076FF26498871002415E02449085DC11719
:1007400000EB11710D112149085DC11700EB11710A
:100750000911A0EB011105EB850201EB42011B4AD7
:100760001155601CC4B2072CE7DB70BDFFF736FFE4
:1007700004E064200BF00AF8FFF7B9FFF9E71FB5B2
:10078000052012214FF40072114BCDE90032CDE962
:10079000021000230F4A10A111480AF0F4FD04468C
:1007A0002CB90F480AF049FE002004B010BD0DA07E
:1007B00009F0A1FC4FF0FF30F7E70000000C01400A
:1007C00080828486888A8C00010000200900002035
:1007D000A80500206D070008647331333032000033
:1007E000A807002064733133303220746872656169
:1007F000642073746172747570206661696C6564DD
:10080000210000004FF0E022526942F21073B2FB67
:10081000F3F250434FF0E022916900BF4FF0E02225
:1008200092698A1A8242F9D3704708B501210820DB
:1008300003F039FA0220ADF8000010208DF8030013
:1008400003208DF802006946FC4805F06DF902218D
:10085000FA4805F046FB08BD08B50220ADF80000D7
:1008600048208DF803006946F44805F05DF908BD9D
:1008700008B50220ADF8000010208DF80300032019
:100880008DF802006946ED4805F04EF908BD10B537
:10089000FFF7EEFF0221E94805F04EFB40F2EE20A3
:1008A000FFF7B0FF0221E54805F01BFB0F20FFF723
:1008B000A9FF10BD10B50024FFF7CEFF04E0601CB7
:1008C000C4B20120FFF79EFF0221DC4805F0F1F9D8
:1008D00008B1C82CF3DBC82C01DB012010BD0024BB
:1008E00004E0601CC4B20120FFF78CFF0221D34852
:1008F00005F0DFF908B9F02CF3DBF02C01DB012067
:10090000ECE70020EAE710B5FFF7B2FF0221CB4881
:1009100005F012FB0220FFF775FF0221C74805F022
:10092000E0FAFFF799FF0C20FFF76CFF0221C348A4
:1009300005F0BFF908B1012400E000243220FFF7E0
:1009400061FF204610BD70B5002400251FE0600641
:10095000040EFFF78DFF0221B84805F0EDFA0220E2
:10096000FFF750FF0221B54805F0BBFAFFF774FF0F
:100970000C20FFF747FF0221B04805F09AF908B1B3
:1009800044F001043220FFF73DFF681CC5B2022D80
:10099000DDDB204670BD70B50026002408E0FFF7BF
:1009A000B2FF054605FA04F03043C6B2601CC4B27B
:1009B000082CF4DB304670BD10B50446FFF758FF35
:1009C00074B102219D4805F0B7FA0220FFF71AFF23
:1009D00002219A4805F085FA3C20FFF713FF0DE04D
:1009E0000221964805F0A8FA3C20FFF70BFF0221F0
:1009F000924805F076FA0220FFF704FF10BD70B5AB
:100A00000446FFF735FF002522E004F001066410DC
:100A100076B10221894805F08FFA0220FFF7F2FE35
:100A20000221864805F05DFA3C20FFF7EBFE0DE061
:100A30000221824805F080FA3C20FFF7E3FE022104
:100A40007E4805F04EFA0220FFF7DCFE681CC5B2B6
:100A5000082DDADB70BD10B5FFF7E7FEFFF717FFD3
:100A6000FFF728FF10BD2DE9F84FFFF710FFFFF744
:100A700021FFCC20FFF7C3FF4420FFF7C0FFFFF7A3
:100A800006FFFFF717FFCC20FFF7B9FFBE20FFF7E7
:100A9000B6FFFFF780FF8146FFF77DFF0446072C76
:100AA00015DD09EB04200FFA80FA6FEA0A0019F04D
:100AB000A1F98346584619F071F907460022604BA8
:100AC00019F06EF8054619F039F883460FE009EB86
:100AD000042019F08FF9009019F060F90546002202
:100AE000584B19F05DF8074619F028F88346584628
:100AF000BDE8F88F2DE9F04F93B00027BA460026E5
:100B000000BFFFF7C4FE4FF4F070FFF77BFEF0204C
:100B1000FFF775FF00246DE0002600255FE0FFF77A
:100B200012FF814609F003097610B9F1010F08D1CF
:100B30000020FFF741FF002005EBC40101AA50543B
:100B40004BE0B9F1020F0AD146F080060120FFF711
:100B500033FF012005EBC40101AA50543DE0B9F177
:100B6000000F3AD105EBC400401C00F0FF0811A8AB
:100B7000C05D40450EDA0020FFF71EFF002005EBA8
:100B8000C40101AA5054781CC0B2074611A901F84B
:100B9000008022E011A8C05D40450EDD05EBC400D9
:100BA00001A9085C00F0010046EAC01605EBC4018B
:100BB00001AA505CFFF700FF0FE011A8C05D40459F
:100BC0000BD146F080060120FFF7F6FE012005EB71
:100BD000C40101AA5054781EC7B2681CC5B2082DC2
:100BE0009DDBB3465E46184800EBCA0000F804B02F
:100BF000601CC4B2082C8FDB0AF1010000F0FF0A70
:100C00009DF8450018B1BAF1080FFFF67AAF0F480A
:100C100080F800A013B0BDE8F08F1CB5002404E0FC
:100C20000BA009F068FA601CC4B2FFF714FF08B10A
:100C3000052CF5DB052C1ADA16E00000000C01404B
:100C40000000B0BF0000B03F2808002011000020C5
:100C50004453313842323020636865636B206661EB
:100C6000696C64210D0A000022A009F044FA21E019
:100C70000020FFF7F8FE0746384619F08FF80546C2
:100C80002A460B4621A1684617F0A6FB02212148FF
:100C900005F00FF828B120A009F02DFA01F090F826
:100CA00004E021A009F027FA01F09AF84FF49670B9
:100CB0000AF06CFDDCE71FB50F2011214FF4007224
:100CC0001D4BCDE90032CDE9021000231B4A1CA1C7
:100CD0001D480AF058FB04462CB91B480AF0ADFB2E
:100CE000002004B010BD19A009F005FA4FF0FF3044
:100CF000F7E70000445331384232302063686563BF
:100D00006B207265616479210D0A0000252E326620
:100D1000000000000008014073642064657465638E
:100D200074206F6E200D0A0073642064657465631F
:100D300074206F66660D0A00680800201B0C00080E
:100D40006473313862323000680A002064733138CD
:100D500062323020746872656164207374617274E9
:100D60007570206661696C656421000000B587B00C
:100D700001214FF4047002F096FF4FF4004002F09E
:100D80005EFE0420ADF8040000208DF8070001A9E4
:100D9000514804F0C9FE514803F01CFA00200290AB
:100DA0008DF80C008DF80D004FF4602004900020A9
:100DB000059001208DF8180002A9484803F03FFA79
:100DC0000121464803F006FB444803F080FB00BFC6
:100DD000424803F092FB0028FAD1404803F0A8FBF8
:100DE00000BF3E4803F0BAFB0028FAD107B000BDAF
:100DF00010B50446072301222146384803F087FC3A
:100E00000121364803F0C5FB00BF0221334804F03E
:100E10009BF80028F9D0314803F06FFD10BD2DE993
:100E2000F04107460C460025002608E03846FFF74B
:100E3000DFFF054400200AF0A9FC701CC6B2A642E0
:100E4000F4DBB5FBF4F080B2BDE8F0811CB5002402
:100E5000FFF78CFF21E005210C20FFF7E0FF824621
:100E600018F0E0FF814618F099FF07464FF0663210
:100E70001B4B18F095FE054618F060FE0446204610
:100E800018F08CFF05462A460B4616A1684617F057
:100E9000A3FA4FF4FA700AF079FCDCE71FB50F20D3
:100EA00010214A01114BCDE90032CDE90210002397
:100EB0000F4A10A110480AF066FA04462CB90E48F1
:100EC0000AF0BBFA002004B010BD0CA009F013F921
:100ED0004FF0FF30F7E70000001001400024014010
:100EE000663E953F252E326600000000E80A00208D
:100EF0004D0E000861646300E80C0020616463200B
:100F000074687265616420737461727475702066B0
:100F100061696C65642100007FB505460C4625B902
:100F20004A22F649F6A009F0C6F924B94B22F34942
:100F3000F8A009F0C0F9EE6B20680090207900F06D
:100F40000F00082803D10020ADF8040008E0207944
:100F500000F00F00092803D14FF48050ADF80400D1
:100F60002079C0F3011018B90020ADF8060007E0A1
:100F70002079C0F30110012802D14003ADF806002A
:100F80002079C0F3811018B90020ADF8080011E0F5
:100F90002079C0F38110012804D14FF4C060ADF86E
:100FA000080007E02079C0F38110022802D1400236
:100FB000ADF808000020ADF80C000C20ADF80A00D8
:100FC0006946306805F0C3FA0121306805F003FC7A
:100FD000002004B070BD70B58CB00546EC6BEE6CB3
:100FE000A86CC0F38F216161012240F22441206886
:100FF00005F01EFC0121084602F02AFE0121022014
:1010000002F026FEA06806F029F92068001D019074
:101010003068029000200390A86CC0F38F200490E9
:101020000020059080200690002007900890202046
:10103000099000020A9000200B9001A9A06806F018
:10104000E4F9E06806F08CFC01220221A06806F0B9
:1010500019FB01224021206805F093FC0121A068C2
:1010600006F0A2FA207C8DF8000000208DF8010027
:101070008DF8020001208DF80300684606F08FFD10
:101080000CB070BD2DE9F04105460E461746B84636
:1010900025B97422A3499AA009F00DF9EC6B032E2F
:1010A0002AD0102E13D0112E2DD194F9040000F067
:1010B0001F02012191409C4A430942F8231000BFBE
:1010C000002240F22551206805F0B2FB1BE094F9A4
:1010D000040000F01F020121914042094FF0E0237B
:1010E00003EB8202C2F8001100BF012240F2255139
:1010F000206805F09DFB06E0B8F5007F02D1284688
:10110000FFF769FF00BF00BF0020BDE8F08170B5A8
:1011100005460E4625B99522844979A009F0CBF8F9
:10112000EC6B288B10F4806F16D02068008810F0CC
:10113000800F08D1012240F22661206805F078FB7B
:101140004FF0FF3070BD20688680012240F226619A
:10115000206805F06DFB07E02068868000BF2068EE
:10116000008810F0400FFAD00120EBE770B504467C
:1011700024B9B0226E4962A009F09DF8E56B4FF0EA
:10118000FF362868008810F0200F02D02868808879
:10119000C6B2304670BD2DE9F0410546EC6B0BF050
:1011A00087F88046A06806F0FEFA61690E1AA06909
:1011B000371AA66140460BF07FF82FB1032040EAB2
:1011C0000721284610F0CFFC206805F01CFDE068E0
:1011D00006F0C6FBBDE8F0812DE9F0410546EC6B59
:1011E0000BF066F80746D4E905100E1A0021A1613C
:1011F00038460BF061F82EB1032040EA062128465C
:1012000010F0B1FCE06806F0ABFBBDE8F08170B512
:101210000546EC6B24B9F622464947A009F04BF885
:1012200040F22551206805F036FF68B101212068A1
:1012300005F0A2FE18B90121284610F094FC40F2F6
:101240002551206805F0B1FF40F22441206805F0E7
:1012500022FF10B12846FFF79EFF40F2266120686A
:1012600005F019FF90B1288B10F4806F03D0022194
:10127000284610F078FC002240F22661206805F034
:10128000D7FA40F22661206805F08FFF0821206818
:1012900005F072FE012802D12846FFF767FF70BDF6
:1012A00010B508F035FB2848FFF7B1FF08F047FB01
:1012B00010BD10B508F02CFB2348FFF78DFF08F098
:1012C0003EFB10BD10B508F023FB2048FFF79FFF41
:1012D00008F035FB10BD10B508F01AFB1B48FFF7EE
:1012E0007BFF08F02CFB10BD10B508F011FB18486F
:1012F000FFF78DFF08F023FB10BD0000F89E0108EA
:1013000073657269616C20213D2052545F4E554CCB
:101310004C00000063666720213D2052545F4E550B
:101320004C4C0000089F010880E100E0169F010876
:10133000219F01082C9F01087561727420213D20B6
:1013400052545F4E554C4C00680D0020BC0D0020DF
:10135000100E002010B508F0DBFA6048FFF73CFFE4
:1013600008F0EDFA10BD10B50121052002F09BFC3C
:101370000121880302F097FC0121052002F093FC73
:101380000121480402F0B8FC0121092002F08BFC85
:101390000121880402F0B0FC10BD08B502208DF8D0
:1013A000020004208DF803000002ADF80000694639
:1013B0004B4804F0B9FB18208DF803004FF400707F
:1013C000ADF800006946464804F0AEFB04208DF8F5
:1013D00003000820ADF800006946414804F0A4FB72
:1013E00018208DF803000420ADF8000069463C4841
:1013F00004F09AFB04208DF803004002ADF80000D1
:101400006946384804F090FB18208DF803004FF42B
:101410008060ADF800006946324804F085FB08BDE5
:1014200038B5044620798DF8000000208DF80100C1
:1014300001208DF802008DF80300684606F0AFFB2E
:1014400038BD1CB5284903C9CDE90001FFF78BFF62
:10145000FFF7A3FF254C4FF4E130009024482549C5
:1014600008640846DDE90012C0E911122046FFF7C2
:10147000D7FF234640F203721FA11E4810F04AFB1B
:101480001F4C4FF4E130009019481E49086408468B
:10149000DDE90012C0E911122046FFF7C1FF234623
:1014A00040F2037218A1174810F034FB184C4FF4A7
:1014B000E13000900E48094908640846DDE9001251
:1014C000C0E911122046FFF7ABFF234640F203723A
:1014D00010A1024810F01EFB1CBD0000100E0020E1
:1014E00000080140000C0140389F01081400002052
:1014F000E49E0108680D00207561727431000000DF
:1015000030000020BC0D00207561727432000000B4
:101510004C000020756172743300000001464129BF
:1015200007D2FE4A02EB01100268521C02D10020D1
:1015300000E0002070472DE9F04107460D461646B1
:10154000E8B2FFF7EBFF04460CB9BDE8F0812EB915
:10155000A28991B2A06804F0EFFC04E0A28991B2E4
:10156000A06804F0BEFC00BFEFE72DE9F04107469C
:101570000D460026E8B2FFF7D1FF044614B9304605
:10158000BDE8F081A28991B2A06804F092FB08B98D
:10159000002600E001263046F2E7F8B507460E4681
:1015A0001446F0B2FFF7BAFF054605B9F8BD0121B0
:1015B000686802F078FBA88980B2ADF800001020BE
:1015C0008DF8030003208DF802001CB910208DF85F
:1015D00003000EE0012C03D104208DF8030008E085
:1015E000022C03D148208DF8030002E028208DF85A
:1015F00003006946A86804F097FA00BFD6E70246E0
:10160000002106E001208840904201D10846704741
:10161000491C2029F6DB4FF0FF30F8E72DE9F05F99
:1016200083460D4616461F46DDF828804FF0FF34EE
:10163000E8B2FFF773FF8146B9F1000F02D1601FD6
:10164000BDE8F09FD9F80C00FFF7D9FF0446002C45
:1016500001DB102C02D36FF00500F1E70AF028FE41
:10166000824604EB4400AE4931F92000A84219D16A
:1016700004EB440001EB80004068B84212D104EB57
:10168000440001EB80004088B0420BD104EB4400E1
:1016900001EB80008068404504D150460AF00CFE02
:1016A0000020CDE704EB44009D4931F92000401CA7
:1016B00005D050460AF000FE6FF00600C0E728B2E1
:1016C00004EB4401964A22F8210004EB4400114641
:1016D00001EB8000476004EB440102EB81014E8086
:1016E00004EB4400114601EB8000C0F8088050462E
:1016F0000AF0E2FD0020A3E72DE9F04180460D4607
:101700004FF0FF34E8B2FFF709FF064616B9601F35
:10171000BDE8F081F068FFF772FF0446002C01DBA2
:10172000102C02D36FF00500F2E70AF0C1FD074666
:1017300004EB44007A4931F92000401C04D13846BA
:101740000AF0BAFD0020E3E74FF0FF3004EB44015C
:10175000734A22F82100002004EB440102EB8101CE
:10176000486004EB440102EB8101488004EB440132
:1017700002EB8101886038460AF09EFD0020C7E731
:101780002DE9FF5F894617464FF0FF3609F0FF004D
:10179000FFF7C4FE04461CB9701F04B0BDE8F09FFB
:1017A000012F67D1E068FFF72AFF0646002E01DB14
:1017B000102E02D36FF00500EFE70AF079FD8346A3
:1017C00006EB4600564931F92000401C05D1584629
:1017D0000AF072FD6FF00500DFE706EB46005149A5
:1017E00001EB80050121606802F05DFAA08980B2FA
:1017F000ADF80C0048208DF80F0003208DF80E0086
:1018000003A9A06804F090F9287A8DF80800022056
:101810008DF809008DF80A0001208DF80B0002A850
:1018200006F0BDF96868009000208DF8040006EB12
:1018300046003B4901EB8000408820B1012806D0DA
:1018400002280CD107E008208DF8050007E00C20E5
:101850008DF8050003E010208DF8050000BF00BFE3
:1018600001208DF80600684602F050FB58460AF049
:1018700023FD2AE037BBD4F80CA05046FFF7BFFE8B
:101880008046B8F1000F02DBB8F1100F01D3002041
:1018900004E008EB4800234901EB8000054615B938
:1018A0006FF0050079E76868009000208DF804006B
:1018B00008208DF8050000208DF80600684602F02B
:1018C00025FB02E06FF0050067E7002065E710B533
:1018D0000022154915A00FF017FC0446204610BD44
:1018E00010B5044604EB44010E4A02EB810191F964
:1018F000080002F03DFC04EB4400094901EB8000C4
:101900004068B0B104EB44020B4603EB82029068DE
:1019100004EB440203EB8202516809E0409F010896
:101920006800002050A3010810A4010870696E002F
:10193000884710BD10B507F0EBFF0020FFF7D0FF80
:1019400007F0FDFF10BD10B507F0E2FF0120FFF723
:10195000C7FF07F0F4FF10BD10B507F0D9FF022054
:10196000FFF7BEFF07F0EBFF10BD10B507F0D0FF8B
:101970000320FFF7B5FF07F0E2FF10BD10B507F039
:10198000C7FF0420FFF7ACFF07F0D9FF10BD10B56B
:1019900007F0BEFF202002F09FFB10B10520FFF7EB
:1019A0009FFF402002F098FB10B10620FFF798FF40
:1019B000802002F091FB10B10720FFF791FF4FF458
:1019C000807002F089FB10B10820FFF789FF4FF407
:1019D000007002F081FB10B10920FFF781FF07F0D2
:1019E000AEFF10BD10B507F093FF4FF4806002F01A
:1019F00073FB10B10A20FFF773FF4FF4006002F091
:101A00006BFB10B10B20FFF76BFF4FF4805002F01F
:101A100063FB10B10C20FFF763FF4FF4005002F09E
:101A20005BFB10B10D20FFF75BFF4FF4804002F02D
:101A300053FB10B10E20FFF753FF4FF4004002F0AC
:101A40004BFB10B10F20FFF74BFF07F078FF10BDE5
:101A500070B586B006460C46356C01A803F0D5FC7F
:101A60006078082803DC0020ADF808000AE0607800
:101A7000102804DC4FF40060ADF8080002E00820F4
:101A800006B070BD606800F0F6F8ADF81000207880
:101A900010F0020F03D00220ADF80A0002E000208F
:101AA000ADF80A00207810F0010F03D00120ADF846
:101AB0000C0002E00020ADF80C00207810F0040FBC
:101AC00003D00020ADF8120002E08020ADF8120033
:101AD0000020ADF804004FF48270ADF806004FF41A
:101AE0000070ADF80E00E86E03F0DEFA01A9E86EB2
:101AF00003F00EFB0121E86E03F09DFC0021E86E6F
:101B000003F03EFE0020BBE72DE9FC5F06460C46D5
:101B1000306C019006F144090198C06E0090F56B9D
:101B2000D4F808A0207C10F0010F04D01DB1A988C2
:101B3000286804F001FA99F8010008282BDC2768CE
:101B4000D4F8048021E04FF0FF0B0FB117F801BB70
:101B500000BF0221009803F0A4FE0028F9D05946E6
:101B6000009803F04DFD00BF0121009803F099FE9D
:101B70000028F9D0009803F058FD00F0FF0BB8F1F1
:101B8000000F01D008F801BB00BF5FEA0A00AAF10C
:101B9000010AD8D12EE099F8010010282ADC276824
:101BA000D4F8048020E04FF0FF0B0FB137F802BBF0
:101BB00000BF0221009803F074FE0028F9D05946B6
:101BC000009803F01DFD00BF0121009803F069FE9D
:101BD0000028F9D0009803F028FD8346B8F1000FE3
:101BE00001D028F802BB00BF5FEA0A00AAF1010A8F
:101BF000D9D100BF207CC0F3400020B11DB1A9881D
:101C0000286804F06EF9A068BDE8FC9F2DE9F0415A
:101C100005460C4616460027B8460121084602F044
:101C200042F83248854205D1E0660121801402F075
:101C30003AF814E02E48854205D1E06601210014EF
:101C400002F05AF80BE02B48854205D1E0660121ED
:101C5000C01302F051F802E00620BDE8F081264AE8
:101C60003146204610F03AF90746E08A40EA08007B
:101C7000E0823846F1E70146204A1268B1EB520F84
:101C800007D31E4A12681E4BB3EB520F01D300203C
:101C90002AE01A4A1268B1EB920F01D3082023E020
:101CA000164A1268B1EBD20F01D310201CE0134A80
:101CB0001268B1EB121F01D3182015E00F4A126809
:101CC000B1EB521F01D320200EE00C4A1268B1EB99
:101CD000921F01D3282007E0084A1268B1EBD21FF7
:101CE00001D3302000E03820704700000030014070
:101CF00000380040003C0040280100204001002046
:101D00000051250208B50121052001F0CCFFE0209B
:101D1000ADF8000003208DF8020018208DF80300B4
:101D200069464F4803F000FF4EA250495048FFF764
:101D30006DFF01208DF8020010208DF80300484847
:101D40004C490860102088800121042001F0ABFF7D
:101D500048488088ADF80000464A9188106804F031
:101D6000C0F844490868694603F0DEFE414B3DA2D5
:101D700041A1434810F0CBF801208DF8020010205B
:101D80008DF8030036483F4908600420888001210F
:101D900001F089FF3B488088ADF80000394A9188FE
:101DA000106804F09EF837490868694603F0BCFEE5
:101DB000344B2CA234A1364810F0A9F8002008BDFD
:101DC00008B50121264804F08CF8E420ADF80000A5
:101DD00004208DF803006946214803F0A5FE08BDE4
:101DE00008B50120ADF800008DF8020010208DF834
:101DF000030069461A4803F097FE0121184804F0D1
:101E000070F8FFF77FFF08BD08B50121042001F03D
:101E10004AFF0120ADF800008DF8020010208DF877
:101E2000030069460E4803F07FFE01210C4804F0D0
:101E300058F80220ADF8000028208DF8030069460C
:101E4000074803F071FE0CA112A010F07EFD0220E5
:101E500009F09CFC0CA111A001F029FA08BD0000BA
:101E6000000801407370693100000000640E00201A
:101E700000300140300100207370693130000000F3
:101E8000D40E002038010020737069313100000049
:101E9000200F002077323571363400007364300033
:101EA00070B50446216C01F144004FF0FF3106F09B
:101EB0002AFC054675B9206C806EA0420AD0206CC1
:101EC000006C04F1440102682046904705460DB9B4
:101ED000206C8466284670BD10B586B0044600208C
:101EE000019002900390059820F00100401C05909D
:101EF000059820F002000590206C006C01A9426852
:101F00002046904706B010BD10B586B004460020AC
:101F1000019002900390059820F00100059005982B
:101F200020F00200801C0590206C006C01A9426822
:101F30002046904706B010BD2DE9F04104460F46FB
:101F4000E51905F026FF06464FF00008A54207D325
:101F5000AE4202D34FF001080BE04FF0000808E05A
:101F6000A64204D2AE4202D34FF0010801E04FF086
:101F700000084046BDE8F081F0B502460B4600205F
:101F8000002124E0555C00241BE0C0F38016C5F35B
:101F9000C01796EA070C08D080F004004FEA406CA6
:101FA0004FEA1C6040F0010003E04FEA406C4FEA4A
:101FB0001C6004F1010C0CF0FF044FEA456C4FEA81
:101FC0001C65082CE1DB01F1010C0CF0FF019942CA
:101FD000D8DBF0BD70B588B0044605F0DAFE0546E2
:101FE000FF20029002A8039001A804900120059010
:101FF000079820F00200C0F3400161F30000079051
:1020000018E0206C006C03A94268204690479DF8B8
:102010000400FF2802D1002008B070BD4FF47A7090
:1020200005F0DAFE064631462846FFF785FF08B17F
:102030000220F1E7E5E72DE9F04F8BB004468A4630
:1020400015461F46DDE91468FF208DF810004AF0A0
:1020500040008DF81100280E8DF81200280C8DF824
:102060001300280A8DF81400E8B28DF815004FB956
:1020700005210DF11100FFF77FFF0746012000EB5E
:102080004700C7B28DF81670FF208DF8170004A81E
:10209000069002A80790082008900A9820F00200F5
:1020A000C0F3400161F300000A902046FFF792FF61
:1020B000206C006C06A94268204690474FF0010949
:1020C0001DE0FF20019001A80690CDF81C800120A2
:1020D00008900A9820F00200C0F3400161F300006C
:1020E0000A90206C006C06A942682046904798F838
:1020F000000010F0800F00D104E009F10109B9F1EE
:10210000090FDED300BFB9F1090F03D101200BB0D5
:10211000BDE8F08F012E01D10020F8E7022E2AD170
:1021200005F037FE834625E00020069001A80790C1
:10213000012008900A9820F00200C0F3400161F3EA
:1021400000000A90206C006C06A942682046904767
:102150009DF80400FF2801D10020D8E74FF4FA6071
:1021600005F03AFE014600905846FFF7E5FE08B13B
:102170000220CCE7D8E7032E15D10020069008F105
:1021800001000790012008900A9820F00200C0F397
:10219000400161F300000A90206C006C06A94268BF
:1021A000204690471BE0042E01D0072E15D10020B9
:1021B000069008F101000790042008900A9820F08A
:1021C0000200C0F3400161F300000A90206C006C33
:1021D00006A942682046904701E0012097E70020C9
:1021E00095E7F0B587B004460D4605F0D2FD0646EA
:1021F000FF20019001A80290CDF80CD0012004909E
:10220000069820F00200C0F3400161F30000069040
:1022100018E0206C006C02A94268204690479DF8A7
:102220000000A84202D1002007B0F0BD4FF4487072
:1022300005F0D2FD074639463046FFF77DFE08B16E
:102240000220F1E7E5E7F0B587B004460D461646F3
:10225000FE212046FFF7C5FF074617B1384607B0F5
:10226000F0BD0020029003950496069820F002002D
:10227000C0F3400161F300000690206C006C02A9DD
:102280004268204690470020029001A80390022057
:102290000490069820F00200C0F3400161F30000B2
:1022A0000690206C006C02A94268204690470020EE
:1022B000D5E72DE9F0418AB004460D4616461F4683
:1022C0001022FF2101A807F08CFB8DF8137001A8E4
:1022D00005900020069010200790099820F0020039
:1022E000C0F3400161F300000990206C006C05A967
:1022F0004268204690470595002006900796099869
:1023000020F00200C0F3400161F300000990206C4E
:10231000006C05A942682046904701A80590CDF8B9
:1023200018D003200790099820F00200C0F3400164
:1023300061F300000990206C006C05A942682046FA
:1023400090479DF8020000F01F08B8F1050F03D078
:1023500001200AB0BDE8F0812046FFF73BFEF8E718
:102360002DE9F0478CB08046894692461E46444689
:10237000E06CFFF795FD054605B19FE008208DF85C
:10238000210004208DF82000606D099008A9E06C00
:102390000FF0E2FD012E20D1E06CFFF79DFD0AA8B1
:1023A0000121CDE90010616C01FB09F20023182125
:1023B000E06CFFF740FE054615B99DF8280008B10E
:1023C00000267BE0FE235146626CE06CFFF771FF54
:1023D0000546002D71D000266FE0012E6DD9E06C0E
:1023E000FFF77AFD94F85000012821D00AA80121B6
:1023F000CDE9001000231A463721E06CFFF71BFEE1
:10240000054615B99DF8280008B1002656E00AA82F
:102410000121CDE90010002332461721E06CFFF7BF
:102420000AFE054615B99DF8280008B1002645E0CA
:102430000AA80121CDE90010616C01FB09F200231B
:102440001921E06CFFF7F7FD054615B99DF8280046
:1024500008B1002632E000270BE0626C02FB07A106
:10246000FC23E06CFFF725FF05460DB13E4602E078
:102470007F1CB742F1D300BF1222FF21684607F04C
:10248000B0FAFD208DF81100CDF814D00020069090
:1024900012200790099820F00200C0F3400161F378
:1024A00000000990E06C016C096C4A6805A990472E
:1024B000E06CFFF78FFD054600BF00BFE06CFFF743
:1024C00023FDE16C096C01F1440006F027FA304667
:1024D0000CB0BDE8F0872DE9FF478046894692465B
:1024E0001D4644460026E06CFFF7DAFC064606B1BE
:1024F00062E008208DF8010004208DF80000606D76
:1025000001906946E06C0FF027FD012D1FD1E06CB2
:10251000FFF7E2FC02A80121CDE90010616C01FB8C
:1025200009F200231121E06CFFF785FD064616B97C
:102530009DF8080008B100253EE05146626CE06C51
:10254000FFF781FE0646002E35D0002533E0012D31
:1025500031D9E06CFFF7C0FC02A80121CDE90010E1
:10256000616C01FB09F200231221E06CFFF763FDAF
:10257000064616B99DF8080008B100251CE00027A2
:102580000AE0626C02FB07A1E06CFFF75CFE064606
:102590000EB13D4602E07F1CAF42F2D300BF02A85D
:1025A0000221CDE9001000231A460C21E06CFFF750
:1025B00042FD064600BF00BFE06CFFF7A5FCE16CE2
:1025C000096C01F1440006F0A9F9284604B0BDE801
:1025D000F0872DE9F0478CB080468A4691461E462A
:1025E0004446E06CFFF75CFC054605B197E0082027
:1025F0008DF8210004208DF82000606D099008A955
:10260000E06C0FF0A9FC012E1ED1E06CFFF764FC1A
:102610000AA80121CDE90010002352461821E06CE0
:10262000FFF709FD054615B99DF8280008B10026F9
:1026300075E0FE234946626CE06CFFF73AFE054602
:10264000002D6BD0002669E0012E67D9E06CFFF702
:1026500043FC0AA80121CDE9001000231A463721C6
:10266000E06CFFF7E8FC054615B99DF8280008B1B5
:10267000002654E00AA80121CDE9001000233246CB
:102680001721E06CFFF7D7FC054615B99DF8280027
:1026900008B1002643E00AA80121CDE9001000237B
:1026A00052461921E06CFFF7C6FC054615B99DF8A6
:1026B000280008B1002632E000270BE0626C02FB24
:1026C0000791FC23E06CFFF7F4FD05460DB13E4693
:1026D00002E07F1CB742F1D300BF1222FF216846FF
:1026E00007F07FF9FD208DF81100CDF814D00020FF
:1026F000069012200790099820F00200C0F34001D4
:1027000061F300000990E06C016C096C4A6805A94E
:102710009047E06CFFF75EFC054600BF00BFE06C31
:10272000FFF7F2FBE16C096C01F1440006F0F6F8EA
:1027300030460CB0BDE8F0872DE9FF4780468A4659
:1027400091461D4644460026E06CFFF7A9FB06466D
:1027500006B15EE008208DF8010004208DF800002D
:10276000606D01906946E06C0FF0F6FB012D1DD104
:10277000E06CFFF7B1FB02A80121CDE900100023B6
:1027800052461121E06CFFF756FC064616B99DF83B
:10279000080008B100253CE04946626CE06CFFF798
:1027A00052FD0646002E33D0002531E0012D2FD9F1
:1027B000E06CFFF791FB02A80121CDE90010002396
:1027C00052461221E06CFFF736FC064616B99DF81A
:1027D000080008B100251CE000270AE0626C02FB3B
:1027E0000791E06CFFF72FFD06460EB13D4602E073
:1027F0007F1CAF42F2D300BF02A80221CDE9001036
:1028000000231A460C21E06CFFF715FC064600BFBA
:1028100000BFE06CFFF778FBE16C096C01F144004C
:1028200006F07CF8284604B0BDE8F08701B5AAB0F0
:102830002A982990002026902998C06C10B9082069
:102840002BB000BD08208DF8890004208DF8880089
:10285000F74823902998C06C22A921900FF07CFBA7
:102860002998C06C1E90FFF71BFB2690269800B19C
:102870000FE22998C06C1E90FFF746FBFF226421EF
:1028800006A815F069FF06A81F900020209064207C
:102890002190239820F00200C0F3400161F3000072
:1028A00023902998C06C05902998C06C006C006C2E
:1028B00040681FA90490DDE90420904705F069FAFB
:1028C00025902AE02998C06C1E90FFF705FB27A8E9
:1028D0000121CDE900102998C06C952300221146F2
:1028E0001E90FFF7A8FB26902998C06C1E90FFF75A
:1028F0000BFB269820B99DF89C00012800D10DE023
:1029000040F6B83005F068FA01461E902598FFF7AA
:1029100013FB10B102202690AAE7D3E700BF05F011
:1029200038FA259000BF2998C06C1E90FFF7D4FAA2
:1029300027A80721CDE900102998C06C87234FF400
:10294000D57208211E90FFF776FB26902998C06C5F
:102950001E90FFF7D9FA2698B8B99DF89C0010F0A0
:10296000040F04D00221299880F850101DE00321A3
:10297000299880F850109DF8A000AA2811D19DF840
:102980009F0070B90120269072E7C82005F024FA54
:1029900001461E902598FFF7CFFA10B1022026902D
:1029A00066E79DF8A000AA28BDD100BF299890F83D
:1029B0005000022876D100201E90AEE02998C06C0D
:1029C0001C90FFF789FA27A80421CDE90010299867
:1029D000C06C00231A463A211C90FFF72CFB26906E
:1029E000269828B12998C06C1C90FFF78DFA3FE714
:1029F0009DF89C0010F0FE0F05D02998C06C1C902B
:102A0000FFF782FA8AE02998C06C1C90FFF77CFAE5
:102A10009DF89D0024909DF89E10249801EB0020C5
:102A200024909DF89F10249801EB002024909DF89D
:102A3000A010249801EB00202490249810F4004F5B
:102A400002D101202690EBE305F0A3F91D9061E08F
:102A50004FF4487005F0C0F901461C901D98FFF72F
:102A60006BFA28B12998C06C1C90FFF74DFA52E020
:102A70002998C06C1C90FFF72FFA27A80121CDE9F7
:102A800000102998C06C00231A4637211C90FFF7CC
:102A9000D2FA2690269830B12998C06C1C90FFF786
:102AA00033FA37E0D7E09DF89C0010F0FE0F05D018
:102AB0002998C06C1C90FFF727FA2CE027A8012169
:102AC000CDE900102998C06C00231A4629211C90DA
:102AD000FFF7B1FA2690269828B12998C06C1C906F
:102AE000FFF712FA16E09DF89C0010F0FE0F05D0DB
:102AF0002998C06C1C90FFF707FA0CE09DF89C0029
:102B000038B92998C06C1C90FFF7FEF901201E907F
:102B100001E000BF9CE700BF00E04FE700BF1E9848
:102B200001287DD02998C06C1B90FFF7EDF9FF229A
:102B3000642103A815F010FE03A81F900020209028
:102B400064202190239820F00200C0F3400161F33B
:102B50000000239000201C900FE02998C06C029088
:102B60002998C06C006C006C40681FA90190DDE9D9
:102B7000012090471C98401C1C901C980A28ECD3FC
:102B800005F007F91D902AE02998C06C1B90FFF70B
:102B9000A3F927A90120CDE900012998C06C95234C
:102BA000002211461B90FFF746FA26902998C06C28
:102BB0001B90FFF7A9F9269820B99DF89C000128E1
:102BC00000D10DE040F6B83005F006F901461B9043
:102BD0001D98FFF7B1F910B10220269020E3D3E74A
:102BE00000BF05F0D6F81D9031E02998C06C1B900D
:102BF000FFF772F927A80121CDE900102998C06CD0
:102C000000231A461B90FFF716FA26902998C06CED
:102C10001B90FFF779F9269860B99DF89C0000E0B9
:102C200018E038B90121299880F8501010E0000010
:102C3000801A060040F6B83005F0CEF801461B9029
:102C40001D98FFF779F910B102202690E8E2CCE751
:102C500000BF00BF02E1299890F85000032877D107
:102C60002998C06C1E90FFF737F927A80421CDE9F9
:102C700000102998C06C00231A463A211E90FFF7D5
:102C8000DAF92690269828B12998C06C1E90FFF793
:102C90003BF9C5E29DF89C0010F0FE0F07D0299883
:102CA000C06C1E90FFF730F901202690B8E22998F9
:102CB000C06C1E90FFF728F99DF89D0024909DF8A8
:102CC0009E10249801EB002024909DF89F102498DA
:102CD00001EB002024909DF8A010249801EB002027
:102CE0002490249810F4004F02D10120269097E2FE
:102CF00005F04FF8259000BF2998C06C1E90FFF793
:102D0000EBF84FF4487005F067F801461E902598DF
:102D1000FFF712F938B12998C06C1E90FFF7F4F84C
:102D2000012026907CE227A80121CDE900102998F6
:102D3000C06C6523002237211E90FFF77CF9269096
:102D4000269830B12998C06C1E90FFF7DDF82FE06F
:102D500081E09DF89C0010F0FE0F07D02998C06C10
:102D60001E90FFF7D1F80120269059E227A80121F3
:102D7000CDE900102998C06C77238A0729211E907D
:102D8000FFF759F92690269838B12998C06C1E9003
:102D9000FFF7BAF80120269042E29DF89C0010F05F
:102DA000FE0F04D02998C06C1E90FFF7ADF800BF4D
:102DB0009DF89C0000289FD12998C06C1E90FFF7B9
:102DC000A3F82998C06C1E90FFF786F827A8042165
:102DD000CDE900102998C06C00231A463A211E90B4
:102DE000FFF729F92690269828B12998C06C1E90E3
:102DF000FFF78AF814E29DF89C0010F0FE0F07D050
:102E00002998C06C1E90FFF77FF80120269007E2FA
:102E10002998C06C1E90FFF777F89DF89D002490CC
:102E20009DF89E10249801EB002024909DF89F109F
:102E3000249801EB002024909DF8A010249801EB29
:102E400000202490249810F0804F07D00421299866
:102E500080F8501002E001202690E1E1299890F8D6
:102E60005000042806D1F7492A980163F6492A98A8
:102E7000416305E0F5492A980163F5492A984163C1
:102E80002998C06C2390FFF73FF82998C06C2390D5
:102E9000FFF722F827A80121CDE900102998C06C7E
:102EA000912300223B212390FFF7C5F82690299813
:102EB000C06C2390FFF728F8269810B99DF89C0065
:102EC00010B101202690ABE12998C06C2390FFF748
:102ED0001BF82998C06C2390FEF7FEFF27A801215C
:102EE000CDE900102998C06C00234A0210212390DC
:102EF000FFF7A1F826902998C06C2390FFF704F8FB
:102F0000269810B99DF89C0010B10120269087E109
:102F10004FF4007129988164299841642998C06C04
:102F20001F90FEF7D9FF27A80121CDE900102998AD
:102F3000C06C00231A4609211F90FFF77CF82690E9
:102F4000269828B12998C06C1F90FEF7DDFF67E135
:102F5000269810B99DF89C0038B12998C06C1F9034
:102F6000FEF7D2FF012026905AE12998C06C10226A
:102F700020A91F90FFF767F926902998C06C1F9031
:102F8000FEF7C2FF269800B14AE19DF8800000F0EC
:102F9000C0001C901C9880111F90299890F8500038
:102FA00001287DD11F98022802DD0120269037E1FB
:102FB0001F9818B11F98012800D000BF9DF883000A
:102FC0001C901C9800F003001C901C9818B9A14993
:102FD0002998416513E01C98012803D19E4929983E
:102FE00041650CE01C98022803D19C492998416551
:102FF00005E01C98032802D19949299841659DF85C
:10300000850000F00F001C901C9818909DF8860019
:1030100000F003001B904FF6FF711B9801EA00209F
:103020001B909DF887101B9808441B904FF6FF716A
:103030001B9801EA80001B909DF8880000F0C000FA
:103040001C901C9880111C90DDE91B0108441B900A
:103050001B981E909DF8890000F003001C901C989E
:1030600040001C909DF88A101C9800EBD1101C9019
:103070001C9819900121189881401998801C0122F0
:1030800082401E98401C424301FB02F01D9029988B
:10309000416C1D98B0FBF1F129980164B0E0FFE7A5
:1030A0001F98E8BB9DF883001C901C98322803D120
:1030B0006A492998416509E01C985A2803D1694951
:1030C0002998416502E06449299841659DF8850089
:1030D00000F00F001C901C9818909DF8860000F0DE
:1030E00003001B904FF6FF711B9801EA00201B9014
:1030F0009DF887101B9808441B904FF6FF711B9892
:1031000001EA80001B909DF8880000F0C0001C9030
:103110001C9880111C90DDE91B0108441B9000E005
:1031200026E01B981E909DF8890000F003001C907B
:103130001C9840001C909DF88A101C9800EBD11040
:103140001C901C9819900121189881401998801C96
:10315000012282401E98401C424301FB02F01D9058
:103160002998416C1D98B0FBF1F12998016447E062
:103170001F98012841D19DF883001C901C9832288B
:1031800003D136492998416517E01C985A2803D184
:1031900034492998416510E01C980B2803D1304927
:1031A0002998416509E01C982B2803D12E492998BC
:1031B000416502E02849299841659DF8870000F0A3
:1031C0003F001A901A9800021A909DF888101A98D9
:1031D00008441A901A9800021A909DF889101A98BB
:1031E00008441A901A981E901E98401C40081D9082
:1031F0001D9881022998016402E0012026900FE0C9
:1032000008208DF8890004208DF888002998406DE9
:1032100023902998C06C22A921900EF09DFE00BF3A
:103220002998C06C2390FEF76FFE2998C06C006C43
:103230004430239005F072FB2698FFF701BB02464D
:103240000020704739270008D3250008D72400083C
:1032500061230008A086010040420F00809698007C
:1032600000E1F50580F0FA0200C2EB0B01460020F8
:1032700070472DE9F04105460F4616462C462DB9FC
:1032800040F26562264927A007F015F8102F0CD1EF
:10329000314619B94FF0FF30BDE8F081606C4860ED
:1032A000A06C8860206C086000BF0020F4E72DE966
:1032B000F04104460D460027284604F0C1FD0646AD
:1032C00016B9B81FBDE8F08158220021194806F050
:1032D00088FB1848C6640120164908750021154866
:1032E0004164002013490864002112488164124897
:1032F00010494862114888621148C862002008637A
:103300004863104888630020C863C86108620F22C0
:103310002146084804F0BAFD07463846D2E70000C7
:1033200028A4010864657620213D2052545F4E5543
:103330004C4C00006C0F00202D2800083F32000884
:103340006D3200087332000808B50121102000F02A
:10335000AAFC10208DF8030001208DF80200000265
:10336000ADF800006946584802F0DEFB402156489F
:1033700002F0B7FD8020ADF800006946524802F027
:10338000D3FB4021504802F0ACFD4020ADF80000D6
:1033900069464D4802F0C8FB40214B4802F0A1FDB0
:1033A0004FF40070ADF800006946474802F0BCFBDE
:1033B0004021454802F095FD08BD10B50446092C92
:1033C0006ED2DFE804F06D05121F2C394653600001
:1033D00040213D4802F085FD40213B4802F081FD3F
:1033E0004021394802F07DFD5BE04021364802F083
:1033F000A3FD4021344802F074FD4021324802F020
:1034000070FD4EE04021304802F06BFD40212E4817
:1034100002F092FD40212C4802F063FD41E0402182
:10342000294802F089FD4021274802F085FD40210E
:10343000254802F056FD34E04021234802F051FDBA
:103440004021214802F04DFD40211F4802F074FD4B
:1034500027E040211C4802F06FFD40211A4802F08D
:1034600040FD4021184802F067FD1AE0402116484F
:1034700002F037FD4021144802F05EFD4021124861
:1034800002F05AFD0DE040210F4802F055FD4021A9
:103490000D4802F051FD40210B4802F04DFD00E0C7
:1034A00000BF00BF012008F071F94021064802F07A
:1034B00043FD10BD10B54021034802F012FD642009
:1034C00008F064F910BD0000001001400CB50020A8
:1034D000019000906B48006840F4803069490860B2
:1034E00000BF6848006800F4003000900198401C5C
:1034F0000190009818B90198B0F5A06FF1D161481A
:10350000006810F4003F02D00120009001E000208C
:1035100000900098012842D15B48006840F01000FC
:10352000594908600846006820F003000860084612
:10353000006840F002000860524840685149486005
:103540000846406848600846406840F4806048602B
:103550000846406820F47C1048600846406840F403
:10356000E81048600846006840F08070086000BFBE
:103570004448006810F0007FFAD04248406820F0CC
:103580000300404948600846406840F00200486037
:1035900000BF3C48406800F00C000828F9D10CBD81
:1035A00010B5FFF793FF10BD10B53648006840F026
:1035B00001003449086008464068344908403149F0
:1035C000486008460068324908402E4908600846AD
:1035D000006820F4802008600846406820F4FE005F
:1035E00048604FF41F008860FFF7DAFF4FF000607B
:1035F0002849086010BD10B5002100200022214B91
:103600005B6803F00C0121B1042906D0082928D1F8
:1036100007E0214B214C236027E01F4B1F4C236008
:1036200023E0184B5B6803F47010164B5B6803F4DF
:103630008032022303EB904022B9194B4343174CCD
:1036400023600DE00F4B5B6813F4003F04D0144B74
:103650004343124C236003E00F4B43430F4C236062
:1036600003E00D4B0D4C236000BF00BF054B5B68B2
:10367000C3F303130B4CE15C084B1B68CB40074CB6
:10368000236010BD00100240002002400000FFF83F
:10369000FFFFF6FE08ED00E000127A004001002076
:1036A00000093D0044010020FE48006840F0010090
:1036B000FC49086008464068FB490840F9494860F1
:1036C00008460068F9490840F6490860084600685D
:1036D00020F4802008600846406820F4FE0048601E
:1036E0004FF41F008860704710B504462CB1B4F544
:1036F000803F02D0B4F5802F00D104E040F21111D8
:10370000EBA0FCF7C5FDE748006820F48030E549F0
:1037100008600846006820F480200860B4F5803F07
:1037200003D0B4F5802F0ED106E0DE48006840F4E7
:103730008030DC49086007E0DA48006840F4A020E7
:10374000D849086000E000BF00BF10BD2DE9F0417E
:103750000446002500260027212C13D0312C11D03F
:10376000392C0FD0412C0DD0612C0BD07A2C09D0E4
:103770007B2C07D07C2C05D07D2C03D07E2C01D057
:103780007F2C00D104E040F23451C9A0FCF780FD49
:103790006511012D02D1C348066806E0022D02D151
:1037A000C048066A01E0BF48466A04F01F050120D0
:1037B000A840304201D0012700E000273846BDE88C
:1037C000F08138B5002000900024002500BF312092
:1037D000FFF7BCFF05460098401C00900098B0F52C
:1037E000A06F01D0002DF2D03120FFF7AFFF08B15C
:1037F000012400E00024204638BD70B504460025B1
:103800001F2C00DC04E04FF4A971A9A0FCF740FDD7
:10381000A448056825F0F80545EAC405056070BDB3
:1038200010B504460CB1012C00D104E040F2651142
:103830009FA0FCF72DFDAD48046010BD70B5054696
:103840000C4600262DB1B5F5803F02D0B5F5403FBE
:1038500000D104E040F27F1195A0FCF719FD4CB3B4
:10386000B4F5802F26D0B4F5002F23D0B4F5402F27
:1038700020D0B4F5801F1DD0B4F5A01F1AD0B4F528
:10388000C01F17D0B4F5E01F14D0B4F5001F11D03D
:10389000B4F5101F0ED0B4F5201F0BD0B4F5301FB7
:1038A00008D0B4F5401F05D0B4F5501F02D0B4F5D0
:1038B000601F00D104E04FF4C0717DA0FCF7E8FC6C
:1038C0007848466826F47C1645EA040006437548A5
:1038D000466070BD10B504460CB1012C00D104E067
:1038E0004FF4CA7172A0FCF7D3FC8048046610BD87
:1038F00070B5044600251CB1012C01D0022C00D16A
:1039000004E04FF40E716AA0FCF7C2FC65484568FC
:1039100025F003052543456070BD6248406800F00E
:103920000C00704770B5044600257CB1802C0DD08A
:10393000902C0BD0A02C09D0B02C07D0C02C05D0D7
:10394000D02C03D0E02C01D0F02C00D104E04FF4B7
:10395000197157A0FCF79CFC5248456825F0F0050A
:103960002543456070BD70B5044600255CB1B4F5D3
:10397000806F08D0B4F5A06F05D0B4F5C06F02D049
:10398000B4F5E06F00D104E040F27E2148A0FCF7DE
:103990007FFC4448456825F4E0652543456070BDDB
:1039A00070B5044600255CB1B4F5806F08D0B4F55D
:1039B000A06F05D0B4F5C06F02D0B4F5E06F00D1B0
:1039C00004E04FF426713AA0FCF762FC35484568E4
:1039D00025F4605545EAC405456070BD70B50446E0
:1039E0000D4614F0E00F01D104B104E040F2BF2114
:1039F0002FA0FCF74DFC0DB1012D00D104E04FF4D8
:103A000030712BA0FCF744FC2DB12648407A2043AE
:103A10002449487204E02348407AA043214948726F
:103A200070BD10B504460CB1012C00D104E040F289
:103A3000DB211FA0FCF72CFC2D48046010BD70B5E5
:103A40000446002544B1B4F5804F05D0B4F5004FCD
:103A500002D0B4F5404F00D104E040F2023114A08E
:103A6000FCF716FC0F48456825F4404525434560A2
:103A700070BD10B504461CB1012C01D0042C00D13E
:103A800004E04FF450710AA0FCF702FC0020194931
:103A90000870044981F82000012C2DD0042C33D16A
:103AA0002EE00000001002400000FFF8FFFFF6FECD
:103AB0004C69627261726965735C53544D3332466E
:103AC0003130785F5374645065726970685F447216
:103AD000697665725C7372635C73746D33326631E0
:103AE00030785F7263632E63000000000000424282
:103AF000D8004242201002400120F449087004E03E
:103B00000520F249087000E000BF00BF10BD10B5ED
:103B100004460CB1012C00D105E040F26131AFF256
:103B20007000FCF7B5FBEA48046010BD10B5044610
:103B3000B4F5807F05D0B4F5007F02D0B4F5407FA6
:103B400000D105E040F27231AFF29C00FCF7A0FB1F
:103B5000DE482038006A2043DC492039086210BD65
:103B600010B504460CB1012C00D105E04FF4607192
:103B7000AFF2C400FCF78CFBD5484438046010BD9C
:103B800030B50021002200240023D04D203D6D6877
:103B900005F00C0121B1042905D0082926D105E042
:103BA000CC4D056025E0CB4D056022E0C74D203DA2
:103BB0006D6805F47012C54D203D6D6805F48034C4
:103BC000022505EB92421CB9C34D554305600CE03C
:103BD000BE4D203D6D6815F4003F03D0BE4D5543EA
:103BE000056002E0BB4D5543056002E0B94D05603C
:103BF00000BF00BFB54D203D6D6805F0F00109091B
:103C0000B64D6B5C0568DD404560B04D203D6D688C
:103C100005F4E061090AB14D6B5C4568DD408560E3
:103C2000AA4D203D6D6805F46051C90AAB4D6B5C2F
:103C30004568DD40C560A54D203D6D6805F44041F7
:103C4000890BA74D6B5CC568B5FBF3F5056130BD0D
:103C500070B504460D4640F2575034EA000001D1D9
:103C600004B105E040F22B41AFF2BC10FCF710FBB1
:103C70000DB1012D00D105E040F22C41AFF2D01082
:103C8000FCF706FB3DB191482038406920438F493D
:103C90002039486106E08D4820384069A0438B49AF
:103CA0002039486170BD70B504460D468D48044208
:103CB00001D104B105E040F24A41AFF20C20FCF71B
:103CC000E7FA0DB1012D00D105E040F24B41AFF212
:103CD0002020FCF7DDFA3DB17C4820388069204384
:103CE0007A492039886106E0784820388069A04305
:103CF00076492039886170BD70B504460D467A4812
:103D0000044201D104B105E040F26941AFF2602004
:103D1000FCF7BEFA0DB1012D00D105E040F26A4179
:103D2000AFF27420FCF7B4FA3DB168482038C0699E
:103D3000204366492039C86106E064482038C069DC
:103D4000A04362492039C86170BD70B504460D4674
:103D50006448044201D104B105E040F2A441AFF24D
:103D6000B020FCF795FA0DB1012D00D105E040F22D
:103D7000A541AFF2C420FCF78BFA3DB1534820387F
:103D8000C068204351492039C86006E04F482038B8
:103D9000C068A0434D492039C86070BD70B5044665
:103DA0000D465148044201D104B105E040F2C3413F
:103DB000AFF20430FCF76CFA0DB1012D00D105E033
:103DC00040F2C441AFF21830FCF762FA3DB13F480F
:103DD0002038006920433D492039086106E03B480E
:103DE00020380069A04339492039086170BD10B5F9
:103DF00004460CB1012C00D105E04FF49B61AFF2F9
:103E00005030FCF745FA32484038046010BD10B518
:103E100004460CB1012C00D105E040F2E541AFF2BF
:103E20007030FCF735FA3148C46410BD10B5044653
:103E30003CB1052C05D0042C03D0062C01D0072C56
:103E400000D105E040F20551AFF29C30FCF720FABA
:103E50001E482038C47110BD1C482038406A40F00C
:103E600080701A4920394862704770B504460025B1
:103E7000012C09D0022C07D0042C05D0082C03D02B
:103E8000102C01D0802C00D105E040F27E51AFF221
:103E9000E030FCF7FDF90D4820388068204201D061
:103EA000012500E00025284670BD10B5044614F039
:103EB000600F01D104B105E040F2AB51AFF2104008
:103EC000FCF7E6F901482038847210BD201002404A
:103ED0008004424200127A0000093D005401002093
:103EE000640100200200C0FF003601810000424250
:103EF0000020A7490860091D0860091D0860091D08
:103F00000860A448A24914310860704770B504469F
:103F10000025207910B12079042800D103E06A211E
:103F20009DA0FCF7B5F96079082805D060790C28C8
:103F300002D06079102800D103E06B2196A0FCF735
:103F4000A7F92068000D000502D1206800B103E048
:103F50006C2191A0FCF79CF9A07910B1A0790128FF
:103F600000D103E06D218CA0FCF792F9884DA07977
:103F700090B3284600682168884329460860081DD8
:103F8000006821688843291D086020790544286855
:103F90002168084328607E4808300068216888430B
:103FA0007B4908310860081D00682168884378490A
:103FB0000C310860607910280FD1081F0068216853
:103FC0000843734908310860081D006821680843E8
:103FD0006F490C3108600EE007E06D4D60790544D3
:103FE000286821680843286005E02079054428688E
:103FF00021688843286070BD0021016001710C2197
:10400000417100218171704710B50446200D0005F3
:1040100001D104B103E0AE215FA0FCF739F95C489F
:104020001030006820435A491031086010BD70B547
:1040300004460025012C31D0022C2FD0042C2DD089
:10404000082C2BD0102C29D0202C27D0402C25D068
:10405000802C23D0B4F5807F20D0B4F5007F1DD014
:10406000B4F5806F1AD0B4F5006F17D0B4F5805F47
:1040700014D0B4F5005F11D0B4F5804F0ED0B4F574
:10408000004F0BD0B4F5803F08D0B4F5003F05D009
:10409000B4F5802F02D0B4F5002F00D103E0BE218B
:1040A0003DA0FCF7F5F83A4814300068204201D0F2
:1040B000012500E00025284670BD10B50446200DFE
:1040C000000501D104B103E0D42133A0FCF7E0F8EE
:1040D0002F481430046010BD70B50446002500263A
:1040E000012C31D0022C2FD0042C2DD0082C2BD019
:1040F000102C29D0202C27D0402C25D0802C23D048
:10410000B4F5807F20D0B4F5007F1DD0B4F5806F6A
:104110001AD0B4F5006F17D0B4F5805F14D0B4F5A1
:10412000005F11D0B4F5804F0ED0B4F5004F0BD026
:10413000B4F5803F08D0B4F5003F05D0B4F5802F2A
:1041400002D0B4F5002F00D103E0E52112A0FCF766
:104150009FF80F48006800EA04060D481430006814
:10416000204202D00EB1012500E00025284670BD96
:1041700010B50446200D000501D104B103E0FC2177
:1041800005A0FCF785F802481430046010BD00005B
:1041900000040140FFFF0F004C69627261726965A3
:1041A000735C53544D3332463130785F53746450EE
:1041B00065726970685F4472697665725C73726378
:1041C0005C73746D3332663130785F657874692E54
:1041D0006300000010B50446F948844205D0F94850
:1041E000844202D0F848844200D103E0B621F7A00F
:1041F000FCF74EF8F248844208D101214015FFF740
:10420000A4FD00216015FFF7A0FD17E0ED488442F2
:1042100008D101210015FFF798FD00212015FFF7B7
:1042200094FD0BE0E848844208D10121C803FFF760
:104230008CFD00214FF40040FFF787FD10BD2DE9F4
:10424000F04105460C4600260027DD48854205D092
:10425000DC48854202D0DC48854200D103E0DF2102
:10426000DAA0FCF715F8206818B32068B0F5803F95
:104270001FD02068B0F5003F1BD02068B0F5403F4C
:1042800017D02068B0F5802F13D02068B0F5A02F8C
:104290000FD02068B0F5C02F0BD02068B0F5E02F0C
:1042A00007D02068B0F5002F03D02068B0F5102F9C
:1042B00000D103E0E021C5A0FBF7EAFF207910B1AF
:1042C0002079012800D103E0E121C0A0FBF7E0FF45
:1042D000607910B16079012800D103E0E221BBA030
:1042E000FBF7D6FFA06888B3A068B0F5003F2DD0DB
:1042F000A068B0F5802F29D0A068B0F5C02F25D0D8
:10430000A068B0F5002F21D0A068B0F5202F1DD0F7
:10431000A068B0F5402F19D0A068B0F5602F15D077
:10432000A06898B1A068B0F5003F0FD0A068B0F5C4
:10433000C02F0BD0A068B0F5002F07D0A068B0F553
:10434000202F03D0A068B0F5402F00D103E0E32177
:104350009EA0FBF79DFFE06818B1E068B0F5006F24
:1043600000D103E0E42199A0FBF792FF207C012813
:1043700003DB207C102800DC03E0E52193A0FBF7A1
:1043800087FF6E68A04806402179206840EA012036
:1043900006436E60AE689D480640D4E902100843AB
:1043A000617940EA41000643AE60EE6A26F4700689
:1043B000207C401EC0B2074346EA0756EE62BDE8C5
:1043C000F08100210160017141718160C1600121B2
:1043D0000174704770B504460D467948844205D093
:1043E0007848844202D07848844200D104E04FF4F7
:1043F000977176A0FBF74CFF0DB1012D00D104E0C1
:1044000040F22F1171A0FBF743FF25B1A06840F0E7
:104410000100A06003E0A06820F00100A06070BD72
:1044200070B504460D466648844202D06648844210
:1044300000D104E040F2471164A0FBF729FF0DB161
:10444000012D00D104E04FF4A47160A0FBF720FF20
:1044500025B1A06840F48070A06003E0A06820F45B
:104460008070A06070BD2DE9F04104460D461646EF
:1044700000275348844205D05248844202D0524813
:10448000844200D104E040F2651150A0FBF700FF28
:104490000EB1012E00D104E04FF4B3714BA0FBF735
:1044A000F7FE4FF61F00054201D105B104E040F2CE
:1044B000671146A0FBF7ECFEEFB21EB1606838430F
:1044C000606002E06068B8436060BDE8F08110B5EC
:1044D00004463B48844205D03A48844202D03A48D8
:1044E000844200D104E04FF4BF7138A0FBF7D0FE46
:1044F000A06840F00800A06010BD70B5044600251B
:104500002F48844205D02F48844202D02E4884424E
:1045100000D104E04FF4C6712CA0FBF7B9FEA068EF
:1045200010F0080F01D0012500E00025284670BDDD
:1045300010B504462248844205D02248844202D065
:104540002148844200D104E04FF4D2711FA0FBF750
:104550009FFEA06840F00400A06010BD70B5044646
:1045600000251748844205D01648844202D01648D8
:10457000844200D104E04FF4D97114A0FBF788FE07
:10458000A06810F0040F01D0012500E000252846A6
:1045900070BD70B504460D460948844205D00948EF
:1045A000844202D00848844200D104E04FF4E6710E
:1045B00006A0FBF76DFE0DB1012D29D12EE0000004
:1045C0000024014000280140003C01404C69627217
:1045D00061726965735C53544D3332463130785F94
:1045E0005374645065726970685F4472697665726D
:1045F0005C7372635C73746D3332663130785F6103
:1046000064632E6300000000FFFEF0FFFDF7F1FF82
:1046100040F2CD11AFF24C00FBF73AFE25B1A06895
:1046200040F4A000A06003E0A06820F4A000A06017
:1046300070BD70B504460025FE48844205D0FE4892
:10464000844202D0FD48844200D105E040F2E511E9
:10465000AFF28800FBF71CFEA06810F4800F01D0B9
:10466000012500E00025284670BD2DE9F0410446F3
:104670000D4600260027EF48844205D0EE488442CC
:1046800002D0EE48844200D105E040F20221AFF2B0
:10469000C400FBF7FDFD012D02DB082D00DC05E069
:1046A00040F20321AFF2DC00FBF7F2FD666826F46E
:1046B00060466F1E46EA47366660BDE8F08170B519
:1046C00004460D46DB48844205D0DB48844202D0D4
:1046D000DA48844200D105E040F21B21AFF2141009
:1046E000FBF7D6FD0DB1012D00D105E04FF40771A8
:1046F000AFF22810FBF7CCFD25B1606840F40060F4
:10470000606003E0606820F40060606070BD2DE9C7
:10471000F04706460C46174698460025A946C54868
:10472000864205D0C448864202D0C448864200D1A1
:1047300005E040F25221AFF26C10FBF7A9FD0CB37B
:10474000012C1FD0022C1DD0032C1BD0042C19D0FF
:10475000052C17D0062C15D0072C13D0082C11D0FF
:10476000092C0FD00A2C0DD00B2C0BD00C2C09D0FF
:104770000D2C07D00E2C05D00F2C03D0102C01D0FF
:10478000112C00D105E040F25321AFF2C010FBF72D
:104790007FFD012F02DB102F00DC05E04FF41571C7
:1047A000AFF2D810FBF774FDB8F1000F14D0B8F1D8
:1047B000010F11D0B8F1020F0ED0B8F1030F0BD0DA
:1047C000B8F1040F08D0B8F1050F05D0B8F1060F05
:1047D00002D0B8F1070F00D105E040F25521AFF249
:1047E0001420FBF755FD092C13DDF568A4F10A0030
:1047F00000EB4001072000FA01F925EA0905A4F1C0
:104800000A0000EB400008FA00F945EA0905F560E6
:104810000EE0356904EB4401072000FA01F925EAAE
:10482000090504EB440008FA00F945EA0905356179
:10483000072F11DA756B781E00EB80011F2000FA3C
:1048400001F925EA0905781E00EB800004FA00F959
:1048500045EA0905756326E00D2F11DA356BF81F5F
:1048600000EB80011F2000FA01F925EA0905F81F75
:1048700000EB800004FA00F945EA0905356312E00F
:10488000F56AA7F10D0000EB80011F2000FA01F985
:1048900025EA0905A7F10D0000EB800004FA00F9F4
:1048A00045EA0905F562BDE8F08770B504460D4696
:1048B0006048844205D06048844202D05F48844208
:1048C00000D105E040F2B121AFF20030FBF7E0FC8F
:1048D0000DB1012D00D105E040F2B221AFF214304C
:1048E000FBF7D6FC25B1A06840F48010A06003E07F
:1048F000A06820F48010A06070BD10B504464D483B
:10490000844205D04C48844202D04C48844200D1B5
:1049100005E040F2C721AFF24C30FBF7B9FCE06C88
:1049200080B210BD43484C300068704770B50446F3
:104930000D464048844205D03F48844202D03F485B
:10494000844200D105E040F2E121AFF28030FBF774
:104950009FFC0DB1012D00D105E040F2E221AFF244
:104960009430FBF795FC25B1606840F4806060608E
:1049700003E0606820F48060606070BD70B504463C
:104980000D462C48844205D02B48844202D02B4847
:10499000844200D105E040F2FB21AFF2D030FBF7BA
:1049A00077FC0DB1012D00D105E04FF43F71AFF25E
:1049B000E430FBF76DFC25B1606840F48050606026
:1049C00003E0606820F48050606070BD70B50546FB
:1049D0000C4600261748854205D01748854202D06C
:1049E0001648854200D105E040F22331AFF2244061
:1049F000FBF74EFC54B3B4F5805F27D0B4F5005FED
:104A000024D0B4F5405F21D0B4F5804F1ED0B4F56A
:104A1000A04F1BD0B4F5C04F18D0B4F5E04F15D05F
:104A2000B4F5005F12D0B4F5405F0FD0B4F5804FFD
:104A30000CD005E00024014000280140003C01406A
:104A4000B4F5A04F02D0B4F5C04F00D105E04FF44B
:104A50004971AFF28840FBF71BFCAE6826F4E046D4
:104A60002643AE6070BD70B504460D46FA488442D8
:104A700005D0FA48844202D0F948844200D105E0CA
:104A800040F23B31AFF2BC40FBF702FC0DB1012D0F
:104A900000D105E04FF44F71AFF2D040FBF7F8FBC7
:104AA00025B1A06840F40040A06003E0A06820F4B5
:104AB0000040A06070BD70B504460D46E6488442D3
:104AC00005D0E648844202D0E548844200D105E0A2
:104AD0004FF45571AFF20C50FBF7DAFB0DB1012D1D
:104AE00000D105E040F25531AFF22050FBF7D0FB8A
:104AF00025B1A06840F40210A06003E0A06820F493
:104B00000210A06070BD70B504460025D2488442F2
:104B100005D0D248844202D0D148844200D105E079
:104B200040F26D31AFF25C50FBF7B2FBA06810F4BD
:104B3000001F01D0012500E00025284670BD2DE9A9
:104B4000F04706460C4691461D460027B846BA4631
:104B5000C148864205D0C148864202D0C04886423C
:104B600000D105E040F2A631AFF2A050FBF790FB78
:104B70000CB3012C1FD0022C1DD0032C1BD0042CF5
:104B800019D0052C17D0062C15D0072C13D0082CC3
:104B900011D0092C0FD00A2C0DD00B2C0BD00C2CC3
:104BA00009D00D2C07D00E2C05D00F2C03D0102CC3
:104BB00001D0112C00D105E040F2A731AFF2F45042
:104BC000FBF766FBB9F1010F03DBB9F1040F00DC61
:104BD00005E04FF46A71AFF20C60FBF759FB6DB161
:104BE000012D0BD0022D09D0032D07D0042D05D0A7
:104BF000052D03D0062D01D0072D00D105E040F290
:104C0000A931AFF23860FBF743FB092C13DDF768DD
:104C1000A4F10A0000EB4001072000FA01F827EA9E
:104C20000807A4F10A0000EB400005FA00F847EA83
:104C30000807F7600EE0376904EB4401072000FA2B
:104C400001F827EA080704EB440005FA00F847EAF0
:104C500008073761B76BC7F3015A09F103000AF17E
:104C60000101401A00EB80011F2000FA01F827EA39
:104C7000080709F103000AF10101401A00EB800066
:104C800004FA00F847EA0807B763BDE8F0872DE9A2
:104C9000F04104460D46002600276F48844205D0A7
:104CA0006E48844202D06E48844200D105E040F252
:104CB000E631AFF2E860FBF7EBFA012D02DB042DE1
:104CC00000DC05E040F2E731AFF20070FBF7E0FAFC
:104CD000A66B26F440166F1E46EA0756A663BDE88B
:104CE000F081F8B505460C461646002000905A485B
:104CF000854205D05948854202D05948854200D1A5
:104D000005E040F20641AFF23C70FBF7C1FA142C0B
:104D100005D0182C03D01C2C01D0202C00D105E08C
:104D200040F20741AFF25C70FBF7B2FAB6F5805F74
:104D300000DA05E04FF48161AFF27070FBF7A8FA7A
:104D4000009500982044009000980660F8BD38B5A2
:104D500005460C46002000903F48854205D03F485C
:104D6000854202D03E48854200D105E040F2214113
:104D7000AFF2A870FBF78CFA142C05D0182C03D0D6
:104D80001C2C01D0202C00D105E040F22241AFF2D2
:104D9000C470FBF77DFA009504F1280000990844DF
:104DA00000900098006880B238BD70B505460C468A
:104DB00000262948854205D02848854202D0284847
:104DC000854200D105E040F23E41AFF60000FBF71E
:104DD0005FFA244884420FD0234884420CD02348F1
:104DE000844209D0B4F5000F06D0B4F5800F03D08B
:104DF000B4F5400F00D004B905E040F23F41AFF6F2
:104E00003400FBF745FA6E681848C0430640264355
:104E10006E6070BD70B504460E4615460E4884425D
:104E200005D00E48844202D00D48844200D105E0EE
:104E300040F25741AFF66C00FBF72AFAB6F5805FF7
:104E400000DA05E04FF48B61AFF68000FBF720FA43
:104E5000B5F5805F0CDA11E0002401400028014024
:104E6000003C014000028000000240000002C0003F
:104E700040F25941AFF6AC00FBF70AFA6662A56250
:104E800070BD70B505460C4600268448854205D0A5
:104E90008348854202D08348854200D105E040F234
:104EA0007D41AFF6D800FBF7F3F90CB3012C1FD00E
:104EB000022C1DD0032C1BD0042C19D0052C17D08C
:104EC000062C15D0072C13D0082C11D0092C0FD08C
:104ED0000A2C0DD00B2C0BD00C2C09D00D2C07D08C
:104EE0000E2C05D00F2C03D0102C01D0112C00D18A
:104EF00005E040F27E41AFF62C10FBF7C9F96E6871
:104F000026F01F0626436E6070BD10B504460CB136
:104F1000012C00D105E040F29241AFF65010FBF7B2
:104F2000B7F944B15D480830006840F400005B49BF
:104F30000831086007E059480830006820F4000094
:104F400056490831086010BD70B505460C4600266C
:104F50005248854205D05248854202D05148854288
:104F600000D105E040F2AF41AFF6A010FBF790F999
:104F7000012C07D0022C05D0042C03D0082C01D022
:104F8000102C00D105E04FF49661AFF6C010FBF78E
:104F90007FF92868204201D0012600E00026304633
:104FA00070BD70B504460D463C48844205D03C486F
:104FB000844202D03B48844200D105E040F2CF4118
:104FC000AFF6F810FBF764F915F0E00F01D105B169
:104FD00005E04FF49A61AFF60C20FBF759F9E8436E
:104FE000206070BD2DE9F04104460D4600260027E3
:104FF000B0462A48844205D02948844202D0294834
:10500000844200D105E040F2E441AFF64020FBF7D6
:105010003FF9B5F5087F05D0B5F5A07F02D0B5F50D
:10502000906F00D105E040F2E541AFF66020FBF75C
:105030002FF92F126068E9B200EA010820683842AF
:1050400004D0B8F1000F01D0012600E00026304660
:10505000BDE8F08170B504460D4600260F48844235
:1050600005D00F48844202D00E48844200D105E0AA
:1050700040F20751AFF6AC20FBF70AF94FF61F00DC
:10508000054201D105B105E04FF4A161AFF6C4209E
:10509000FBF7FEF82E12F043206070BD00240140A3
:1050A00000280140003C014010B50446FA48844203
:1050B00005D0FA48844202D0F948844200D103E086
:1050C0007A21F8A0FBF7E4F8F348844208D10121E3
:1050D0008014FEF73AFE0021A014FEF736FE16E01B
:1050E000EE48844208D101210014FEF757FE00214A
:1050F0002014FEF753FE0AE0E948844207D101215B
:10510000C013FEF74BFE0021E013FEF747FE10BD73
:1051100070B505460C460026DF48854205D0DF48BD
:10512000854202D0DE48854200D103E0A321DDA004
:10513000FBF7AEF8208858B12088B0F5806F07D013
:105140002088B0F5004F03D02088B0F5404F00D143
:1051500003E0A621D3A0FBF79BF86088B0F5827F1F
:1051600001D0608800B903E0A721CEA0FBF790F83A
:10517000A088B0F5006F01D0A08800B903E0A82195
:10518000C8A0FBF785F8E08810B1E088022800D1BC
:1051900003E0A921C3A0FBF77BF8208910B1208987
:1051A000012800D103E0AA21BEA0FBF771F86089B5
:1051B000B0F5007F01D0608900B903E0AB21B9A050
:1051C000FBF766F8A089A0B1A089082811D0A089B2
:1051D00010280ED0A08918280BD0A089202808D02C
:1051E000A089282805D0A089302802D0A089382895
:1051F00000D103E0AC21ABA0FBF74AF8E08910B185
:10520000E089802800D103E0AD21A6A0FBF740F89B
:10521000208A012800DB03E0AE21A2A0FBF738F8CA
:105220002E8806F44156208861880843A1880843E7
:10523000E18808432189084361890843A18908431B
:10524000E189084306432E80A88B4FF2FF71084086
:10525000A883208A288270BD2DE9F04F85B00546CD
:105260000C464FF0000902274FF000084FF0010BE9
:105270000026B2468948854202D08948854200D13D
:1052800003E0E32187A0FBF703F8208858B12088CA
:10529000B0F5807F07D02088B0F5007F03D020884C
:1052A000B0F5407F00D103E0E4217EA0FAF7F0FFE3
:1052B000608858B16088102808D06088202805D000
:1052C0006088302802D06088B02800D103E0E52152
:1052D00074A0FAF7DDFFA08840B1A088012805D0AE
:1052E000A088032802D0A088052800D103E0E62189
:1052F0006CA0FAF7CDFFE088B0F5007F01D0E08820
:1053000000B903E0E72167A0FAF7C2FFA068B0F593
:10531000FA5F03D37249A068884202D9A0680228C4
:1053200000D103E0E8215FA0FAF7B2FFA08910B135
:10533000A089082800D103E0E9215AA0FAF7A8FFC4
:10534000A88B4FF240010840A88302202884B5F8BA
:105350001C90A068022803D14FF00008022738E013
:10536000A08810B94FF0010B01E04FF0020B4B4841
:10537000854200D100E000BF6846FEF701FCDDF881
:1053800000A0E088B0F5007F0AD14FEA1A2000EBB8
:1053900080004000A168B0FBF1F0401D86B20BE038
:1053A0004FEA4B10BAFBF0F000EB80004000A16820
:1053B000B0FBF1F0401D86B20A20B6FBF0F606F015
:1053C0000108A6EB0800C0F34F074FF6FF7000EA94
:1053D0000828022F01DBFF2F02DD02274FF0000813
:1053E000E08840EA080038432884A088A18908435F
:1053F000618808432188084340F4006040EA0909B5
:10540000A5F81C9005B0BDE8F08F00210180418017
:105410008180C180018141818181C1810721018217
:1054200070470021018041808180C180022181601C
:1054300000218181704770B504460D4616488442AC
:1054400005D01648844202D01548844200D104E0B9
:105450004FF4D77113A0FAF71BFF0DB1012D00D146
:1054600004E040F2AF110FA0FAF712FF25B1208837
:1054700040F04000208004E020884FF6BF710840D3
:10548000208070BD70B504460D460448844202D0A9
:105490000348844226D12BE0003001400038004010
:1054A000003C00404C69627261726965735C5354E0
:1054B0004D3332463130785F537464506572697091
:1054C000685F4472697665725C7372635C73746D55
:1054D0003332663130785F7370692E6300000000EC
:1054E00000EE02004FF4E371AFF24800FAF7D0FE8D
:1054F0000DB1012D00D105E040F2C711AFF25C0003
:10550000FAF7C6FE25B1A08B40F48060A08304E0CA
:10551000A08B4FF6FF310840A08370BD2DE9F0410C
:1055200004460D4616464FF000080027F648844210
:1055300005D0F648844202D0F548844200D105E007
:105540004FF4F371AFF2A400FAF7A2FE0EB1012EF0
:1055500000D105E040F2E711AFF2B800FAF798FE8B
:10556000712D03D0602D01D0502D00D105E04FF4F6
:10557000F471AFF2D000FAF78BFE4FEA2518012044
:1055800000FA08F087B21EB1A0883843A08002E07C
:10559000A088B843A080BDE8F08170B504460D46F0
:1055A0001646D948844205D0D848844202D0D8480B
:1055B000844200D105E04FF40371AFF21810FAF7FE
:1055C00067FE0EB1012E00D105E040F20D21AFF2D1
:1055D0002C10FAF75DFE4FF6FC70054201D105B1C3
:1055E00005E040F20E21AFF24410FAF751FE1EB171
:1055F000A0882843A08002E0A088A843A08070BDB6
:1056000070B504460D46C048844205D0BF48844268
:1056100002D0BF48844200D105E040F22621AFF21B
:105620007C10FAF735FEA58170BD10B50446B6486A
:10563000844205D0B548844202D0B548844200D1A6
:1056400005E040F23621AFF2A410FAF721FEA0895E
:1056500010BD70B504460D46AB48844205D0AB483A
:10566000844202D0AA48844200D105E04FF412716E
:10567000AFF2D010FAF70CFEB5F5807F03D0A5F598
:105680007E40FF3800D105E040F24921AFF2EC1036
:10569000FAF7FEFDA5F57E40FF3804D0208840F4DF
:1056A0008070208004E020884FF6FF610840208051
:1056B00070BD70B504460D469348844205D09348AA
:1056C000844202D09248844200D105E04FF4187120
:1056D000AFF23020FAF7DCFD0DB1012D00D105E06D
:1056E00040F26121AFF24420FAF7D2FD25B1A08843
:1056F00040F00400A08004E0A0884FF6FB71084051
:10570000A08070BD70B504460D467F48844205D028
:105710007E48844202D07E48844200D105E040F2B7
:105720007A21AFF28020FAF7B3FDB5F5006F00D013
:1057300005B905E040F27B21AFF29820FAF7A8FD09
:1057400020884FF2FF710840208020882843208065
:1057500070BD10B504466C48844205D06B48844245
:1057600002D06B48844200D105E040F28A21AFF2BA
:10577000CC20FAF78DFD208840F48050208010BDA9
:1057800070B504460D466048844205D05F488442A7
:1057900002D05F48844200D105E040F29A21AFF286
:1057A000FC20FAF775FD0DB1012D00D105E040F2A6
:1057B0009B21AFF21030FAF76BFD25B1208840F441
:1057C0000050208004E020884DF6FF7108402080C2
:1057D00070BD70B504460D4600264B48844205D086
:1057E0004A48844202D04A48844200D105E040F24F
:1057F000B521AFF25030FAF74BFD0DB1012D00D1BC
:1058000005E040F2B621AFF26430FAF741FD012D18
:1058100001D0268B00E0A68A304670BD10B5044644
:105820003948844205D03948844202D038488442FD
:1058300000D105E040F2CD21AFF29830FAF728FD13
:10584000208A10BD70B504460D462F48844205D00D
:105850002E48844202D02E48844200D105E040F216
:10586000DF21AFF2C030FAF713FDA5F53F40FF3856
:1058700002D0B5F5804F00D105E04FF43871AFF29A
:10588000DC30FAF705FDB5F5804F04D1208840F4EF
:105890008040208004E020884BF6FF710840208083
:1058A00070BD70B505460C4600261748854205D0E8
:1058B0001648854202D01648854200D105E040F2E4
:1058C0000231AFF22040FAF7E3FC802C0DD0402CDF
:1058D0000BD0202C09D0102C07D0082C05D0042C7C
:1058E00003D0022C01D0012C00D105E040F203319D
:1058F000AFF25040FAF7CCFC2889204201D00126B3
:1059000000E00026304670BD003001400038004005
:10591000003C004070B504460D464348844205D023
:105920004248844202D04248844200D105E040F21D
:105930002731AFF29040FAF7ABFC102D00D105E013
:105940004FF44A71AFF2A440FAF7A2FCE843208179
:1059500070BD2DE9F04705460C460027B8460026E5
:10596000B1463148854205D03048854202D03048A2
:10597000854200D105E040F24331AFF2D840FAF75A
:1059800087FC602C09D0712C07D0532C05D0542CE7
:1059900003D0552C01D0562C00D105E04FF45171A5
:1059A000AFF20050FAF774FC04F00F0101208840B8
:1059B0001FFA80F826110120B04086B2A88800EABC
:1059C0000609288910EA080F04D0B9F1000F01D0A8
:1059D000012700E000273846BDE8F08770B504468F
:1059E0000D4600261048844205D01048844202D05B
:1059F0000F48844200D105E040F27731AFF25C50AD
:105A0000FAF746FC542D00D105E04FF45E71AFF279
:105A10006C50FAF73DFC05F00F010120884086B27A
:105A2000F043208170BD000000300140003800408C
:105A3000003C004010B50446FC48844211D0FC48AC
:105A400084420ED0FB4884420BD0FB48844208D0ED
:105A5000FA48844205D0FA48844202D0F948844288
:105A600000D103E06F21F8A0FAF712FCEF4884425E
:105A700008D101210420FEF768F900210420FEF777
:105A800064F946E0EA48844208D101210820FEF783
:105A90005CF900210820FEF758F93AE0E548844215
:105AA00008D101211020FEF750F900211020FEF747
:105AB0004CF92EE0E048844208D101212020FEF775
:105AC00044F900212020FEF740F922E0DB4884421F
:105AD00008D101214020FEF738F900214020FEF7CF
