:020000040800F2
:10000000381F00207D430008B103000883890008E1
:10001000B3030008B7030008BB030008000000009A
:10002000000000000000000000000000BF03000806
:10003000C1030008000000000B8900082B03000822
:100040009743000897430008974300089743000828
:1000500097430008974300083D1200084F1200081C
:100060006112000873120008851200089743000807
:10007000974300085D0C000897430008BB0B00087D
:10008000DF0B00089743000897430008C5030008EA
:10009000C30300089743000897430008971200081D
:1000A00097430008974300089743000897430008C8
:1000B00097430008974300089743000897430008B8
:1000C00097430008974300089743000897430008A8
:1000D00097430008A90B0008CD0B0008F10B00089E
:1000E000ED12000897430008974300089743000863
:1000F0009743000897430008974300089743000878
:100100009743000897430008974300089743000867
:100110009743000897430008974300089743000857
:100120009743000897430008974300089743000847
:1001300000F002F800F063F80AA090E8000C824496
:100140008344AAF10107DA4501D100F058F8AFF273
:10015000090EBAE80F0013F0010F18BFFB1A43F0A5
:100160000103184744070100640701000A444FF0E7
:10017000000C10F8013B13F0070408BF10F8014B06
:100180001D1108BF10F8015B641E05D010F8016B4B
:10019000641E01F8016BF9D113F0080F1EBF10F8AF
:1001A000014BAD1C0C1B09D16D1E58BF01F801CBD2
:1001B000FAD505E014F8016B01F8016B6D1EF9D555
:1001C0009142D6D37047000000230024002500266A
:1001D000103A28BF78C1FBD8520728BF30C148BFAA
:1001E0000B6070471FB50FF0F9F8040000200021E4
:1001F0000FF014F9401C60601FBD10B510BD0FF06A
:10020000C8F81146FFF7EEFF00F055F80FF0F8F8C8
:1002100003B4FFF7F2FF03BC0FF0F8F8002804D096
:1002200090FAA0F0B0FA80F0401C704710B5044678
:1002300004F00CF910BD1CB500F00CF900F0A0FAA8
:10024000142008210B020022CDE90010AFF2230197
:1002500004A007F05EFC044614B1204607F003FC3E
:1002600000201CBD696E69740000000004460D4644
:1002700014A006F056FA21461CA006F052FA2946B0
:100280001FA006F04EFA00BFFEE710B500F055F8CB
:1002900006F077FA1F49204806F000FC07F086F9BF
:1002A00007F0E8FF07F0F2FFFFF7C5FF04F0D2FA0E
:1002B00007F098F910BD10B508F010FBFFF7E5FF47
:1002C000002010BD0A0D2057726F6E67207061729A
:1002D000616D657465722076616C75652064657406
:1002E0006563746564206F6E0D0A00002020202075
:1002F00020202066696C65202025730D0A0000000F
:10030000202020202020206C696E65202025640D8F
:100310000A00000000000120381F002010B5002155
:100320004FF0006003F0A1FF10BD10B505F006FE10
:1003300004F053F805F019FE10BD70B5FFF7EEFF9D
:10034000164800686422B0FBF2F1481EB0F1807FCD
:1003500000D319E0481E4FF0E022506150170F22E1
:10036000002806DA13010E4C00F00F052D1F63550F
:1003700002E013010B4C235400BF00204FF0E02299
:1003800090610720106100BF00F025FF00F0DDFC48
:1003900005A006F03BFA04F04FF870BD28010020DC
:1003A00018ED00E000E400E07561727431000000B7
:1003B000704700BFFEE700BFFEE700BFFEE77047E3
:1003C000704770477047000008B50121082001F010
:1003D000B0FB10208DF8030003208DF802004FF4CD
:1003E0008070ADF8000069463E4801F0B3FE4FF45E
:1003F00080713C4802F08BF808BD10B504462CB95A
:100400004FF48071374802F0ADF800E000BF00BF44
:1004100010BD10B504462CB94FF48071314802F07C
:1004200076F800E000BF00BF10BD3D24002120464B
:1004300008F08CFB0DE00021204608F09AFB3220EA
:1004400007F0BAFC0121204608F093FB322007F0A8
:10045000B3FCF0E71FB5022014210202224BCDE9C4
:100460000032CDE902100023204A21A1214807F0E3
:10047000A0FA04462CB91F4807F0F5FA002004B092
:1004800010BD1DA006F04DF94FF0FF30F7E770B535
:1004900005460C461F48007820B9FFF795FF01205C
:1004A0001C4908706DB914B1012C08D103E000207B
:1004B000FFF7AFFF04E00020FFF79FFF00E000BF61
:1004C00000BF012D0DD114B1012C08D103E0012092
:1004D000FFF79FFF04E00120FFF78FFF00E000BF60
:1004E00000BF70BD000C0140F40200202B04000886
:1004F0006C656400F40400206C65642074687265A7
:1005000061642073746172747570206661696C65D2
:100510006421000000000020704770B504464021AF
:10052000A64802F01FF80A20FFF7F6FF002519E0A1
:100530004021A24802F016F814F0010F04D08021E7
:100540009E4801F0E4FF03E080219C4802F00AF895
:100550000A20FFF7E1FF4021984801F0D8FF64101E
:10056000681CC5B2082DE3DB70BD70B505460C46AE
:100570002021924801F0F6FF4021904801F0F2FF5F
:100580000A20FFF7C9FF20218C4801F0C0FF0A2094
:10059000FFF7C2FF2846FFF7C0FF2046FFF7BDFF69
:1005A0002021864801F0DEFF4021844801F0DAFF77
:1005B0000A20FFF7B1FF70BD08B50121082001F046
:1005C000B8FA6020ADF8000003208DF8020010207A
:1005D0008DF803006946794801F0BCFD8020ADF834
:1005E000000014208DF803006946744801F0B2FD44
:1005F00080218E20FFF7B9FF08BD70B506460024A4
:1006000020216E4801F0AEFF40216C4801F0AAFFA6
:100610000A20FFF781FF2021684801F078FF0A20B7
:10062000FFF77AFF3046FFF778FF002511E0402101
:10063000624801F06CFF64104021604801F092FFB5
:1006400080215E4801F04BFE08B144F08004681C34
:10065000C5B2082DEBDB0A20FFF75EFF20215748CB
:1006600001F080FF204670BD7CB5064654A103C949
:10067000CDE9000100218E20FFF777FF002411E073
:100680005148005D0A2190FBF1F201FB1200C5B256
:100690004D48005D90FBF1F005EB00104A4908550C
:1006A000601CC4B2082CEBDB002407E0464A115D55
:1006B0001DF80400FFF759FF601CC4B2072CF5DBDE
:1006C00080218E20FFF751FF7CBD7FB58120FFF791
:1006D00094FF3E4908708320FFF78FFF3B49487025
:1006E0008520FFF78AFF394988708720FFF785FF4B
:1006F0003649C8708920FFF780FF344908718B2084
:10070000FFF77BFF314948718D20FFF776FF2F49B6
:100710008871002415E02D49085DC11700EB1171A7
:100720000D112A49085DC11700EB11710911A0EBE9
:10073000011105EB850201EB4201244A1155601CB1
:10074000C4B2072CE7DB21484079204909781F4AC9
:1007500052781E4B9B78CDE90032CDE902101B4840
:10076000C378027981791AA005F0DBFF7FBDFFF71E
:1007700023FF04E0642007F01FFBFFF7A6FFF9E763
:100780001FB5052012214FF40072184BCDE900323D
:10079000CDE902100023164A16A1184807F009F9FE
:1007A00004462CB9154807F05EF9002004B010BDCE
:1007B00013A005F0B6FF4FF0FF30F7E7000C014043
:1007C00080828486888A8C00010000200900002035
:1007D00025642D25642D25642025643A25643A2559
:1007E000647765656B25640D0A00000074050020C0
:1007F0006F07000864733133303200007407002043
:1008000064733133303220746872656164207374AC
:100810006172747570206661696C65642100000006
:100820007FB505460C4625B94A22F649F6A006F0E2
:1008300058F824B94B22F349F8A006F052F8EE6BB1
:1008400020680090207900F00F00082803D10020D4
:10085000ADF8040008E0207900F00F00092803D16A
:100860004FF48050ADF804002079C0F3011018B99E
:100870000020ADF8060007E02079C0F30110012840
:1008800002D14003ADF806002079C0F3811018B9F9
:100890000020ADF8080011E02079C0F38110012894
:1008A00004D14FF4C060ADF8080007E02079C0F330
:1008B0008110022802D14002ADF808000020ADF8F6
:1008C0000C000C20ADF80A006946306802F055F9BA
:1008D0000121306802F095FA002004B070BD70B5B7
:1008E0008CB00546EC6BEE6CA86CC0F38F21616197
:1008F000012240F22441206802F0B0FA01210846AA
:1009000001F0ECF80121022001F0E8F8A06802F003
:10091000BBFF2068001D019030680290002003900A
:10092000A86CC0F38F2004900020059080200690D2
:100930000020079008902020099000020A900020D3
:100940000B9001A9A06803F076F8E06803F01EFBA5
:1009500001220221A06803F0ABF9012240212068A6
:1009600002F025FB0121A06803F034F9207C8DF80A
:10097000000000208DF801008DF8020001208DF8A4
:100980000300684603F021FC0CB070BD2DE9F04176
:1009900005460E461746B84625B97422A3499AA0C3
:1009A00005F09FFFEC6B032E2AD0102E13D0112ED2
:1009B0002DD194F9040000F01F02012191409C4ABE
:1009C000430942F8231000BF002240F2255120685D
:1009D00002F044FA1BE094F9040000F01F02012128
:1009E000914042094FF0E02303EB8202C2F800116C
:1009F00000BF012240F22551206802F02FFA06E0E4
:100A0000B8F5007F02D12846FFF769FF00BF00BF9D
:100A10000020BDE8F08170B505460E4625B9952247
:100A2000844979A005F05DFFEC6B288B10F4806F92
:100A300016D02068008810F0800F08D1012240F203
:100A40002661206802F00AFA4FF0FF3070BD20687E
:100A50008680012240F22661206802F0FFF907E05B
:100A60002068868000BF2068008810F0400FFAD010
:100A70000120EBE770B5044624B9B0226E4962A0AC
:100A800005F02FFFE56B4FF0FF362868008810F067
:100A9000200F02D028688088C6B2304670BD2DE98C
:100AA000F0410546EC6B07F019FF8046A06803F0A3
:100AB00090F961690E1AA069371AA661404607F0DD
:100AC00011FF2FB1032040EA0721284608F003FD5B
:100AD000206802F0AEFBE06803F058FABDE8F08150
:100AE0002DE9F0410546EC6B07F0F8FE0746D4E926
:100AF00005100E1A0021A161384607F0F3FE2EB151
:100B0000032040EA0621284608F0E5FCE06803F0EF
:100B10003DFABDE8F08170B50546EC6B24B9F622CC
:100B2000464947A005F0DDFE40F22551206802F05D
:100B3000C8FD68B10121206802F034FD18B9012117
:100B4000284608F0C8FC40F22551206802F043FE18
:100B500040F22441206802F0B4FD10B12846FFF7AE
:100B60009EFF40F22661206802F0ABFD90B1288B19
:100B700010F4806F03D00221284608F0ACFC00225C
:100B800040F22661206802F069F940F2266120688F
:100B900002F021FE0821206802F004FD012802D1A4
:100BA0002846FFF767FF70BD10B505F0C7F9284864
:100BB000FFF7B1FF05F0D9F910BD10B505F0BEF98A
:100BC0002348FFF78DFF05F0D0F910BD10B505F0F3
:100BD000B5F92048FFF79FFF05F0C7F910BD10B524
:100BE00005F0ACF91B48FFF77BFF05F0BEF910BD1F
:100BF00010B505F0A3F91848FFF78DFF05F0B5F91A
:100C000010BD00005CF4000873657269616C2021FE
:100C10003D2052545F4E554C4C00000063666720E7
:100C2000213D2052545F4E554C4C00006CF400089E
:100C300080E100E07AF4000885F4000890F40008F0
:100C40007561727420213D2052545F4E554C4C000A
:100C5000F4070020480800209C08002010B505F08B
:100C60006DF96048FFF73CFF05F07FF910BD10B546
:100C70000121052000F05DFF0121880300F059FFEC
:100C80000121052000F055FF0121480400F07AFF02
:100C90000121092000F04DFF0121880400F072FFBE
:100CA00010BD08B502208DF8020004208DF8030065
:100CB0000002ADF8000069464B4801F04BFA1820DD
:100CC0008DF803004FF40070ADF800006946464807
:100CD00001F040FA04208DF803000820ADF8000070
:100CE0006946414801F036FA18208DF803000420C7
:100CF000ADF8000069463C4801F02CFA04208DF85C
:100D000003004002ADF800006946384801F022FABD
:100D100018208DF803004FF48060ADF8000069469C
:100D2000324801F017FA08BD38B5044620798DF82D
:100D3000000000208DF8010001208DF802008DF8E0
:100D40000300684603F041FA38BD1CB5284903C9C1
:100D5000CDE90001FFF78BFFFFF7A3FF254C4FF410
:100D6000E13000902448254908640846DDE9001276
:100D7000C0E911122046FFF7D7FF234640F2037265
:100D80001FA11E4808F07EFB1F4C4FF4E13000907D
:100D900019481E4908640846DDE90012C0E911122D
:100DA0002046FFF7C1FF234640F2037218A11748FF
:100DB00008F068FB184C4FF4E13000900E480949E8
:100DC00008640846DDE90012C0E911122046FFF769
:100DD000ABFF234640F2037210A1024808F052FB19
:100DE0001CBD00009C08002000080140000C0140D0
:100DF0009CF400081400002048F40008F4070020C8
:100E00007561727431000000300000204808002035
:100E100075617274320000004C00002075617274BC
:100E2000330000000146412907D2FE4A02EB0110BF
:100E30000268521C02D1002000E0002070472DE91A
:100E4000F04107460D461646E8B2FFF7EBFF0446B1
:100E50000CB9BDE8F0812EB9A28991B2A06801F069
:100E600081FB04E0A28991B2A06801F050FB00BFB1
:100E7000EFE72DE9F04107460D460026E8B2FFF7FF
:100E8000D1FF044614B93046BDE8F081A28991B281
:100E9000A06801F024FA08B9002600E001263046D7
:100EA000F2E7F8B507460E461446F0B2FFF7BAFF70
:100EB000054605B9F8BD0121686800F03AFEA88929
:100EC00080B2ADF8000010208DF8030003208DF8EB
:100ED00002001CB910208DF803000EE0012C03D194
:100EE00004208DF8030008E0022C03D148208DF87F
:100EF000030002E028208DF803006946A86801F08D
:100F000029F900BFD6E70246002106E0012088400B
:100F1000904201D108467047491C2029F6DB4FF06A
:100F2000FF30F8E72DE9F05F83460D4616461F4671
:100F3000DDF828804FF0FF34E8B2FFF773FF8146F9
:100F4000B9F1000F02D1601FBDE8F09FD9F80C0085
:100F5000FFF7D9FF0446002C01DB102C02D36FF001
:100F60000500F1E707F0BAFC824604EB4400AE4905
:100F700031F92000A84219D104EB440001EB8000B4
:100F80004068B84212D104EB440001EB8000408875
:100F9000B0420BD104EB440001EB80008068404577
:100FA00004D1504607F09EFC0020CDE704EB44003E
:100FB0009D4931F92000401C05D0504607F092FCB5
:100FC0006FF00600C0E728B204EB4401964A22F80D
:100FD000210004EB4400114601EB8000476004EB64
:100FE000440102EB81014E8004EB4400114601EB09
:100FF0008000C0F80880504607F074FC0020A3E78A
:101000002DE9F04180460D464FF0FF34E8B2FFF77E
:1010100009FF064616B9601FBDE8F081F068FFF7CA
:1010200072FF0446002C01DB102C02D36FF0050088
:10103000F2E707F053FC074604EB44007A4931F924
:101040002000401C04D1384607F04CFC0020E3E7A8
:101050004FF0FF3004EB4401734A22F821000020D6
:1010600004EB440102EB8101486004EB440102EB14
:101070008101488004EB440102EB8101886038461D
:1010800007F030FC0020C7E72DE9FF5F89461746CF
:101090004FF0FF3609F0FF00FFF7C4FE04461CB90D
:1010A000701F04B0BDE8F09F012F67D1E068FFF723
:1010B0002AFF0646002E01DB102E02D36FF005003A
:1010C000EFE707F00BFC834606EB4600564931F983
:1010D0002000401C05D1584607F004FC6FF00500C5
:1010E000DFE706EB4600514901EB8005012160680E
:1010F00000F01FFDA08980B2ADF80C0048208DF8EB
:101100000F0003208DF80E0003A9A06801F022F85B
:10111000287A8DF8080002208DF809008DF80A0061
:1011200001208DF80B0002A803F04FF868680090CA
:1011300000208DF8040006EB46003B4901EB8000DF
:10114000408820B1012806D002280CD107E00820F1
:101150008DF8050007E00C208DF8050003E0102055
:101160008DF8050000BF00BF01208DF8060068461D
:1011700000F012FE584607F0B5FB2AE037BBD4F862
:101180000CA05046FFF7BFFE8046B8F1000F02DB0F
:10119000B8F1100F01D3002004E008EB4800234908
:1011A00001EB8000054615B96FF0050079E7686826
:1011B000009000208DF8040008208DF80500002024
:1011C0008DF80600684600F0E7FD02E06FF00500CC
:1011D00067E7002065E710B50022154915A007F064
:1011E0004BFC0446204610BD10B5044604EB4401F8
:1011F0000E4A02EB810191F9080000F0FFFE04EBBA
:101200004400094901EB80004068B0B104EB44029E
:101210000B4603EB8202906804EB440203EB82026C
:10122000516809E0A4F4000868000020B4F8000840
:1012300074F9000870696E00884710BD10B504F09D
:101240007DFE0020FFF7D0FF04F08FFE10BD10B52B
:1012500004F074FE0120FFF7C7FF04F086FE10BD06
:1012600010B504F06BFE0220FFF7BEFF04F07DFE18
:1012700010BD10B504F062FE0320FFF7B5FF04F0C7
:1012800074FE10BD10B504F059FE0420FFF7ACFF4A
:1012900004F06BFE10BD10B504F050FE202000F0ED
:1012A00061FE10B10520FFF79FFF402000F05AFEBD
:1012B00010B10620FFF798FF802000F053FE10B118
:1012C0000720FFF791FF4FF4807000F04BFE10B144
:1012D0000820FFF789FF4FF4007000F043FE10B1C3
:1012E0000920FFF781FF04F040FE10BD10B504F0A7
:1012F00025FE4FF4806000F035FE10B10A20FFF7A4
:1013000073FF4FF4006000F02DFE10B10B20FFF7CB
:101310006BFF4FF4805000F025FE10B10C20FFF75A
:1013200063FF4FF4005000F01DFE10B10D20FFF7D9
:101330005BFF4FF4804000F015FE10B10E20FFF768
:1013400053FF4FF4004000F00DFE10B10F20FFF7E7
:101350004BFF04F00AFE10BD0CB500200190009078
:101360006B48006840F480306949086000BF6848F5
:10137000006800F4003000900198401C0190009833
:1013800018B90198B0F5A06FF1D16148006810F468
:10139000003F02D00120009001E000200090009862
:1013A000012842D15B48006840F0100059490860AC
:1013B0000846006820F0030008600846006840F016
:1013C0000200086052484068514948600846406839
:1013D00048600846406840F48060486008464068BD
:1013E00020F47C1048600846406840F4E8104860EB
:1013F0000846006840F08070086000BF44480068FC
:1014000010F0007FFAD04248406820F003004049C5
:1014100048600846406840F00200486000BF3C4811
:10142000406800F00C000828F9D10CBD10B5FFF79A
:1014300093FF10BD10B53648006840F001003449F4
:101440000860084640683449084031494860084609
:101450000068324908402E4908600846006820F4B8
:10146000802008600846406820F4FE0048604FF481
:101470001F008860FFF7DAFF4FF00060284908601E
:1014800010BD10B5002100200022214B5B6803F045
:101490000C0121B1042906D0082928D107E0214BED
:1014A000214C236027E01F4B1F4C236023E0184B87
:1014B0005B6803F47010164B5B6803F48032022300
:1014C00003EB904022B9194B4343174C23600DE0C6
:1014D0000F4B5B6813F4003F04D0144B4343124C92
:1014E000236003E00F4B43430F4C236003E00D4B9D
:1014F0000D4C236000BF00BF054B5B68C3F30313B3
:101500000B4CE15C084B1B68CB40074C236010BDC3
:1015100000100240002002400000FFF8FFFFF6FE2E
:1015200008ED00E000127A002801002000093D00CB
:101530002C010020FE48006840F00100FC490860D2
:1015400008464068FB490840F94948600846006879
:10155000F9490840F64908600846006820F48020F0
:1015600008600846406820F4FE0048604FF41F0001
:101570008860704710B504462CB1B4F5803F02D0A6
:10158000B4F5802F00D104E040F21111EBA0FEF77A
:101590006DFEE748006820F48030E54908600846A1
:1015A000006820F480200860B4F5803F03D0B4F5D3
:1015B000802F0ED106E0DE48006840F48030DC4920
:1015C000086007E0DA48006840F4A020D8490860C5
:1015D00000E000BF00BF10BD2DE9F041044600252A
:1015E00000260027212C13D0312C11D0392C0FD0FC
:1015F000412C0DD0612C0BD07A2C09D07B2C07D03C
:101600007C2C05D07D2C03D07E2C01D07F2C00D1EA
:1016100004E040F23451C9A0FEF728FE6511012D07
:1016200002D1C348066806E0022D02D1C048066A0E
:1016300001E0BF48466A04F01F050120A84030427F
:1016400001D0012700E000273846BDE8F08138B519
:10165000002000900024002500BF3120FFF7BCFFD0
:1016600005460098401C00900098B0F5A06F01D08E
:10167000002DF2D03120FFF7AFFF08B1012400E0C8
:101680000024204638BD70B5044600251F2C00DC20
:1016900004E04FF4A971A9A0FEF7E8FDA44805688D
:1016A00025F0F80545EAC405056070BD10B504468F
:1016B0000CB1012C00D104E040F265119FA0FEF7AF
:1016C000D5FDAD48046010BD70B505460C4600263A
:1016D0002DB1B5F5803F02D0B5F5403F00D104E013
:1016E00040F27F1195A0FEF7C1FD4CB3B4F5802FF9
:1016F00026D0B4F5002F23D0B4F5402F20D0B4F578
:10170000801F1DD0B4F5A01F1AD0B4F5C01F17D08C
:10171000B4F5E01F14D0B4F5001F11D0B4F5101FBC
:101720000ED0B4F5201F0BD0B4F5301F08D0B4F59F
:10173000401F05D0B4F5501F02D0B4F5601F00D192
:1017400004E04FF4C0717DA0FEF790FD7848466834
:1017500026F47C1645EA040006437548466070BDD1
:1017600010B504460CB1012C00D104E04FF4CA714D
:1017700072A0FEF77BFD8048046610BD70B504467C
:1017800000251CB1012C01D0022C00D104E04FF443
:101790000E716AA0FEF76AFD6548456825F00305ED
:1017A0002543456070BD6248406800F00C007047FA
:1017B00070B5044600257CB1802C0DD0902C0BD048
:1017C000A02C09D0B02C07D0C02C05D0D02C03D031
:1017D000E02C01D0F02C00D104E04FF4197157A097
:1017E000FEF744FD5248456825F0F0052543456065
:1017F00070BD70B5044600255CB1B4F5806F08D0AB
:10180000B4F5A06F05D0B4F5C06F02D0B4F5E06FA9
:1018100000D104E040F27E2148A0FEF727FD4448B5
:10182000456825F4E0652543456070BD70B5044604
:1018300000255CB1B4F5806F08D0B4F5A06F05D079
:10184000B4F5C06F02D0B4F5E06F00D104E04FF4FE
:1018500026713AA0FEF70AFD3548456825F4605523
:1018600045EAC405456070BD70B504460D4614F0E8
:10187000E00F01D104B104E040F2BF212FA0FEF738
:10188000F5FC0DB1012D00D104E04FF430712BA017
:10189000FEF7ECFC2DB12648407A204324494872DB
:1018A00004E02348407AA0432149487270BD10B536
:1018B00004460CB1012C00D104E040F2DB211FA052
:1018C000FEF7D4FC2D48046010BD70B50446002519
:1018D00044B1B4F5804F05D0B4F5004F02D0B4F553
:1018E000404F00D104E040F2023114A0FEF7BEFCEC
:1018F0000F48456825F440452543456070BD10B547
:1019000004461CB1012C01D0042C00D104E04FF49A
:1019100050710AA0FEF7AAFC00201949087004497A
:1019200081F82000012C2DD0042C33D12EE00000B2
:10193000001002400000FFF8FFFFF6FE4C696272E3
:1019400061726965735C53544D3332463130785F50
:101950005374645065726970685F44726976657229
:101960005C7372635C73746D3332663130785F72AE
:1019700063632E630000000000004242D800424230
:10198000201002400120F449087004E00520F249CB
:10199000087000E000BF00BF10BD10B504460CB1D8
:1019A000012C00D105E040F26131AFF27000FEF78A
:1019B0005DFCEA48046010BD10B50446B4F5807FB4
:1019C00005D0B4F5007F02D0B4F5407F00D105E02A
:1019D00040F27231AFF29C00FEF748FCDE4820383E
:1019E000006A2043DC492039086210BD10B5044666
:1019F0000CB1012C00D105E04FF46071AFF2C400CE
:101A0000FEF734FCD5484438046010BD30B50021E1
:101A1000002200240023D04D203D6D6805F00C010C
:101A200021B1042905D0082926D105E0CC4D056057
:101A300025E0CB4D056022E0C74D203D6D6805F4E3
:101A40007012C54D203D6D6805F48034022505EB0C
:101A500092421CB9C34D554305600CE0BE4D203D7C
:101A60006D6815F4003F03D0BE4D5543056002E09C
:101A7000BB4D5543056002E0B94D056000BF00BF96
:101A8000B54D203D6D6805F0F0010909B64D6B5C60
:101A90000568DD404560B04D203D6D6805F4E061AE
:101AA000090AB14D6B5C4568DD408560AA4D203D5B
:101AB0006D6805F46051C90AAB4D6B5C4568DD404B
:101AC000C560A54D203D6D6805F44041890BA74DCB
:101AD0006B5CC568B5FBF3F5056130BD70B50446B8
:101AE0000D4640F2575034EA000001D104B105E040
:101AF00040F22B41AFF2BC10FEF7B8FB0DB1012D47
:101B000000D105E040F22C41AFF2D010FEF7AEFB61
:101B10003DB191482038406920438F4920394861C0
:101B200006E08D4820384069A0438B492039486140
:101B300070BD70B504460D468D48044201D104B114
:101B400005E040F24A41AFF20C20FEF78FFB0DB1E9
:101B5000012D00D105E040F24B41AFF22020FEF70D
:101B600085FB3DB17C482038806920437A49203983
:101B7000886106E0784820388069A043764920399A
:101B8000886170BD70B504460D467A48044201D1A3
:101B900004B105E040F26941AFF26020FEF766FB58
:101BA0000DB1012D00D105E040F26A41AFF2742081
:101BB000FEF75CFB3DB168482038C06920436649A8
:101BC0002039C86106E064482038C069A0436249F2
:101BD0002039C86170BD70B504460D4664480442A2
:101BE00001D104B105E040F2A441AFF2B020FEF70C
:101BF0003DFB0DB1012D00D105E040F2A541AFF252
:101C0000C420FEF733FB3DB153482038C068204361
:101C100051492039C86006E04F482038C068A043C9
:101C20004D492039C86070BD70B504460D46514815
:101C3000044201D104B105E040F2C341AFF20430E7
:101C4000FEF714FB0DB1012D00D105E040F2C441B7
:101C5000AFF21830FEF70AFB3DB13F48203800696B
:101C600020433D492039086106E03B48203800699F
:101C7000A04339492039086170BD10B504460CB144
:101C8000012C00D105E04FF49B61AFF25030FEF71C
:101C9000EDFA32484038046010BD10B504460CB16E
:101CA000012C00D105E040F2E541AFF27030FEF7C3
:101CB000DDFA3148C46410BD10B504463CB1052CB2
:101CC00005D0042C03D0062C01D0072C00D105E050
:101CD00040F20551AFF29C30FEF7C8FA1E4820389A
:101CE000C47110BD1C482038406A40F080701A4909
:101CF00020394862704770B504460025012C09D090
:101D0000022C07D0042C05D0082C03D0102C01D0B5
:101D1000802C00D105E040F27E51AFF2E030FEF7BA
:101D2000A5FA0D4820388068204201D0012500E046
:101D30000025284670BD10B5044614F0600F01D18F
:101D400004B105E040F2AB51AFF21040FEF78EFA5D
:101D500001482038847210BD2010024080044242A5
:101D600000127A0000093D003C0100204C010020D7
:101D70000200C0FF00360181000042420020A74956
:101D80000860091D0860091D0860091D0860A44855
:101D9000A24914310860704770B5044600252079C7
:101DA00010B12079042800D103E06A219DA0FEF73C
:101DB0005DFA6079082805D060790C2802D0607936
:101DC000102800D103E06B2196A0FEF74FFA20689F
:101DD000000D000502D1206800B103E06C2191A044
:101DE000FEF744FAA07910B1A079012800D103E0F0
:101DF0006D218CA0FEF73AFA884DA07990B3284661
:101E000000682168884329460860081D0068216829
:101E10008843291D08602079054428682168084303
:101E200028607E4808300068216888437B49083173
:101E30000860081D00682168884378490C310860F3
:101E4000607910280FD1081F006821680843734982
:101E500008310860081D0068216808436F490C318B
:101E600008600EE007E06D4D607905442868216840
:101E70000843286005E020790544286821688843E4
:101E8000286070BD0021016001710C2141710021A9
:101E90008171704710B50446200D000501D104B1D1
:101EA00003E0AE215FA0FEF7E1F95C481030006866
:101EB00020435A491031086010BD70B50446002512
:101EC000012C31D0022C2FD0042C2DD0082C2BD05B
:101ED000102C29D0202C27D0402C25D0802C23D08A
:101EE000B4F5807F20D0B4F5007F1DD0B4F5806FAD
:101EF0001AD0B4F5006F17D0B4F5805F14D0B4F5E4
:101F0000005F11D0B4F5804F0ED0B4F5004F0BD068
:101F1000B4F5803F08D0B4F5003F05D0B4F5802F6C
:101F200002D0B4F5002F00D103E0BE213DA0FEF7A2
:101F30009DF93A4814300068204201D0012500E0A4
:101F40000025284670BD10B50446200D000501D1BE
:101F500004B103E0D42133A0FEF788F92F481430F0
:101F6000046010BD70B5044600250026012C31D058
:101F7000022C2FD0042C2DD0082C2BD0102C29D0A3
:101F8000202C27D0402C25D0802C23D0B4F5807F66
:101F900020D0B4F5007F1DD0B4F5806F1AD0B4F511
:101FA000006F17D0B4F5805F14D0B4F5005F11D086
:101FB000B4F5804F0ED0B4F5004F0BD0B4F5803F90
:101FC00008D0B4F5003F05D0B4F5802F02D0B4F5A9
:101FD000002F00D103E0E52112A0FEF747F90F48DA
:101FE000006800EA04060D4814300068204202D060
:101FF0000EB1012500E00025284670BD10B504464D
:10200000200D000501D104B103E0FC2105A0FEF77D
:102010002DF902481430046010BD00000004014096
:10202000FFFF0F004C69627261726965735C535403
:102030004D3332463130785F537464506572697045
:10204000685F4472697665725C7372635C73746D09
:102050003332663130785F657874692E6300000032
:1020600010B50446FC48844211D0FC4884420ED08E
:10207000FB4884420BD0FB48844208D0FA48844293
:1020800005D0FA48844202D0F948844200D103E0E6
:102090006F21F8A0FEF7EAF8EF48844208D1012149
:1020A0000420FFF798FD00210420FFF794FD46E08F
:1020B000EA48844208D101210820FFF78CFD002165
:1020C0000820FFF788FD3AE0E548844208D1012165
:1020D0001020FFF780FD00211020FFF77CFD2EE08F
:1020E000E048844208D101212020FFF774FD00213F
:1020F0002020FFF770FD22E0DB48844208D1012157
:102100004020FFF768FD00214020FFF764FD16E046
:10211000D648844208D101218020FFF75CFD0021D0
:102120008020FFF758FD0AE0D148844207D1012101
:102130008015FFF750FD0021A015FFF74CFD10BDE5
:1021400010B501210846FFF746FD00210120FFF7E9
:1021500042FD10BD2DE9F05F05460C464FF0000929
:10216000CA4600260027B046B346BB48854211D078
:10217000BA4885420ED0BA4885420BD0B94885424C
:1021800008D0B948854205D0B848854202D0B84841
:10219000854200D103E0B221B6A0FEF767F8E078EF
:1021A000A0B1E078042811D0E07828280ED0E0789B
:1021B00048280BD0E078142808D0E078102805D003
:1021C000E0781C2802D0E078182800D103E0B32181
:1021D000A8A0FEF74BF8002010B9208800B103E05A
:1021E000B421A4A0FEF742F8E07800F00F09E078EF
:1021F00010F0100F10D0A078012805D0A078022888
:1022000002D0A078032800D103E0BB2199A0FEF7FB
:102210002DF8A07840EA0909207838B3D5F8008075
:1022200000261FE0012000FA06F7208800EA070ACE
:10223000BA4516D1B7000F2000FA07FB28EA0B08B1
:1022400009FA07F040EA0808E078282803D10120BD
:10225000B040686105E0E078482802D10120B04034
:102260002861761C082EDDD3C5F800802088FF2861
:102270002BDDD5F80480002623E006F108000121BB
:1022800001FA00F7208800EA070ABA4518D1B7001A
:102290000F2000FA07FB28EA0B0809FA07F040EACA
:1022A0000808E078282803D106F108008140696118
:1022B000E078482804D106F1080001218140296115
:1022C000761C082ED9D3C5F80480BDE8F09F4FF6E0
:1022D000FF710180022181700421C170704770B5C7
:1022E00005460C4600265C48854211D05B48854275
:1022F0000ED05B4885420BD05A48854208D05A48D8
:10230000854205D05948854202D05948854200D1BE
:1023100004E04FF48F7157A0FDF7A8FF012C25D0E2
:10232000022C23D0042C21D0082C1FD0102C1DD01F
:10233000202C1BD0402C19D0802C17D0B4F5807FD6
:1023400014D0B4F5007F11D0B4F5806F0ED0B4F581
:10235000006F0BD0B4F5805F08D0B4F5005F05D0F6
:10236000B4F5804F02D0B4F5004F00D104E040F244
:102370001F1140A0FDF77AFFA868204201D0012676
:1023800000E00026304670BD10B504463248844255
:1023900011D0324884420ED0314884420BD03148AB
:1023A000844208D03048844205D03048844202D06C
:1023B0002F48844200D104E04FF49A712DA0FDF71C
:1023C00055FFA06880B210BD70B505460C460026CA
:1023D0002148854211D0214885420ED020488542AF
:1023E0000BD02048854208D01F48854205D01F48A1
:1023F000854202D01E48854200D104E04FF4A2710C
:102400001CA0FDF733FF012C25D0022C23D0042C77
:1024100021D0082C1FD0102C1DD0202C1BD0402CDC
:1024200019D0802C17D0B4F5807F14D0B4F5007F7C
:1024300011D0B4F5806F0ED0B4F5006F0BD0B4F5A9
:10244000805F08D0B4F5005F05D0B4F5804F02D0AE
:10245000B4F5004F2CD131E000080140000C0140E0
:10246000001001400014014000180140001C014010
:10247000002001404C69627261726965735C53545B
:102480004D3332463130785F5374645065726970F1
:10249000685F4472697665725C7372635C73746DB5
:1024A0003332663130785F6770696F2E63000000E9
:1024B00040F24511AFF24400FDF7D8FEE868204233
:1024C00001D0012600E00026304670BD10B504465C
:1024D000FE48844211D0FE4884420ED0FD4884421A
:1024E0000BD0FD48844208D0FC48844205D0FC480B
:1024F000844202D0FB48844200D105E04FF4AD7124
:10250000AFF29000FDF7B2FEE06880B210BD70B58A
:1025100004460D46ED48844211D0ED4884420ED069
:10252000EC4884420BD0EC48844208D0EB4884420B
:1025300005D0EB48844202D0EA48844200D105E04D
:1025400040F26911AFF2D400FDF790FE002008B907
:1025500005B105E04FF4B571AFF2E800FDF786FE76
:10256000256170BD70B504460D46D848844211D02F
:10257000D74884420ED0D74884420BD0D6488442F4
:1025800008D0D648844205D0D548844202D0D548E8
:10259000844200D105E040F27911AFF22810FDF736
:1025A00065FE002008B905B105E04FF4BD71AFF23A
:1025B0003C10FDF75BFE656170BD70B505460C46CD
:1025C0001646C248854211D0C14885420ED0C14846
:1025D00085420BD0C048854208D0C048854205D00E
:1025E000BF48854202D0BF48854200D105E040F295
:1025F0008D11AFF28010FDF739FE012C25D0022C91
:1026000023D0042C21D0082C1FD0102C1DD0202C1E
:102610001BD0402C19D0802C17D0B4F5807F14D05B
:10262000B4F5007F11D0B4F5806F0ED0B4F5006F13
:102630000BD0B4F5805F08D0B4F5005F05D0B4F5D9
:10264000804F02D0B4F5004F00D105E04FF4C771C0
:10265000AFF2E010FDF70AFE0EB1012E00D105E049
:1026600040F28F11AFF2F410FDF700FE0EB12C61B5
:1026700000E06C6170BD70B504460D46934884421D
:1026800011D0934884420ED0924884420BD0924895
:10269000844208D09148844205D09148844202D0B7
:1026A0009048844200D105E04FF4D271AFF23C2053
:1026B000FDF7DCFDE56070BD70B504460D464FF4D6
:1026C00080368248844211D0814884420ED08148AD
:1026D00084420BD08048844208D08048844205D090
:1026E0007F48844202D07F48844200D105E040F216
:1026F000B511AFF28020FDF7B9FD002008B905B192
:1027000005E04FF4DB71AFF29420FDF7AFFD2E43EF
:10271000A661A561A661A669A66970BD70B50546EA
:102720000C4600263DB1012D05D0022D03D0032D0E
:1027300001D0042D00D105E04FF4E971AFF2CC20B7
:10274000FDF794FDECB1012C1BD0022C19D0032C09
:1027500017D0042C15D0052C13D0062C11D0072C23
:102760000FD0082C0DD0092C0BD00A2C09D00B2C23
:1027700007D00C2C05D00D2C03D00E2C01D00F2C23
:1027800000D105E040F2D311AFF21830FDF76EFD35
:10279000554806684FF68070064046EA05162643FF
:1027A0005148066070BD10B504460CB1012C00D133
:1027B00005E04FF4F371AFF24430FDF757FD4B489D
:1027C000C46110BD2DE9F04704460E460027B84607
:1027D0000025A946012C77D0022C75D0042C73D08B
:1027E000082C71D0A4F5A01010386DD020386BD013
:1027F000A4F5B010403867D0803865D03C4884429A
:1028000062D03C4884425FD03B4884425CD03B4825
:10281000844259D03A48844256D0B4F5805F53D0B0
:10282000B4F5EA1F50D0B4F5EB1F4DD0B4F5004F0E
:102830004AD03448844247D0A4F50010801E7CD092
:10284000801E7AD0001F78D0083876D0B4F1201FCF
:1028500073D0303871D02C4884426ED02B488442DB
:102860006BD02B48844268D02A48844265D02A48DD
:10287000844262D0B4F5011F5FD0284884425CD006
:10288000401C844259D0801C844256D0001D844292
:1028900053D022480F3084424FD020481F3084420A
:1028A0004BD01E483F30844247D01C487F30844282
:1028B00043D01A48FF3084423FD0194884423CD06C
:1028C0001848844239D02FE037E00000000801406A
:1028D000000C0140001001400014014000180140AC
:1028E000001C014000200140000001400000204287
:1028F00000011800000218000003180000081A0068
:10290000000C1A000100200000013000000230001D
:102910000004300000112000002020000100008091
:1029200000020080000400806348844205D06348B0
:10293000844202D06248844200D105E040F22A215C
:10294000AFF2D040FDF792FC0EB1012E00D105E0B0
:1029500040F22B21AFF2E440FDF788FC04F0004088
:10296000B0F1004F02D15748C56901E055484568AC
:10297000C4F30349A7B204F44010B0F5401F08D1D6
:1029800025F070654F48406820F070604D49486000
:1029900013E004F48010B0F5801F07D1032000FA83
:1029A00009F825EA080545F0706506E0600D0001AC
:1029B00007FA00F0854345F0706526B1600D01010E
:1029C00007FA01F0054304F00040B0F1004F02D1D6
:1029D0003C48C56101E03B484560BDE8F08770B503
:1029E00005460C4600265DB1012D09D0022D07D009
:1029F000032D05D0042D03D0052D01D0062D00D1C7
:102A000005E040F26521AFF29450FDF72FFCECB1E8
:102A1000012C1BD0022C19D0032C17D0042C15D05C
:102A2000052C13D0062C11D0072C0FD0082C0DD05C
:102A3000092C0BD00A2C09D00B2C07D00C2C05D05C
:102A40000D2C03D00E2C01D00F2C00D105E040F24C
:102A50006621AFF2E050FDF709FCA007010F0F203F
:102A600000FA01F617480830A11050F82100B043D1
:102A700014490831A21041F822000846A11050F86C
:102A80002100A107090F05FA01F108430D4908319A
:102A9000A21041F8220070BD10B504460CB1012C03
:102AA00000D105E04FF41E71AFF23860FDF7DEFB98
:102AB0000548046010BD0000000800800010008080
:102AC0000020008000000140DC00204210B50446D8
:102AD000FE4884420BD0FE48844208D0FD48844220
:102AE00005D0FD48844202D0FC48844200D103E076
:102AF0008521FBA0FDF7BAFBF448844209D10121EE
:102B00008803FFF768F800214FF48040FFF763F86F
:102B100032E0EF48844209D101214804FFF784F8EC
:102B200000214FF40030FFF77FF825E0E9488442A8
:102B300009D101218804FFF777F800214FF48020A4
:102B4000FFF772F818E0E448844209D10121C80473
:102B5000FFF76AF800214FF40020FFF765F80BE05B
:102B6000DE48844208D101210805FFF75DF8002105
:102B70004FF48010FFF758F810BD2DE9F04786B0EC
:102B800005460C460026B24600BFB1460027CF4896
:102B900085420BD0CE48854208D0CE48854205D02C
:102BA000CD48854202D0CD48854200D103E0B8210E
:102BB000CBA0FDF75BFB206820B1D8492068884294
:102BC00000D203E0B921C6A0FDF750FBA08818B1E0
:102BD000A088B0F5805F00D103E0BA21C0A0FDF766
:102BE00045FBE08858B1E088B0F5805F07D0E08809
:102BF000B0F5005F03D0E088B0F5405F00D103E09E
:102C0000BB21B7A0FDF732FB208938B12089B0F590
:102C1000806F03D02089B0F5C06F00D103E0BC21E4
:102C2000AFA0FDF723FB60894FF6F371084202D194
:102C3000608900B103E0BD21A9A0FDF717FBA089C1
:102C400058B1A089B0F5807F07D0A089B0F5007F8A
:102C500003D0A089B0F5407F00D103E0BE21A0A041
:102C6000FDF704FBA08968B19848854205D09848D3
:102C7000854202D09748854200D103E0C22198A046
:102C8000FDF7F4FA2F462E8A4CF6FF700640E088D6
:102C900006432E82AE894EF6F3100640A0882189A5
:102CA0000843618908430643AE81AE8A4FF6FF4070
:102CB0000640A0890643AE8201A8FEF7A7FE83481E
:102CC000874202D1DDF810A001E0DDF80CA0A88950
:102CD00010F4004F08D00AEBCA0000EB0A1021687C
:102CE0004900B0FBF1F807E00AEBCA0000EB0A105C
:102CF00021688900B0FBF1F86420B8FBF0F0060110
:102D00003009642101FB1089A88910F4004F08D014
:102D1000322000EBC900B0FBF1F000F007000643E1
:102D200008E0322000EB09106421B0FBF1F000F064
:102D30000F0006432E8106B0BDE8F0874FF4165110
:102D4000016000218180C18001810C21418100212D
:102D50008181704770B505460C4600265B48854268
:102D600005D05B48854202D05A48854200D104E034
:102D70004FF499715AA0FDF779FA208818B120888C
:102D8000B0F5006F00D104E040F2331154A0FDF71C
:102D90006DFA608818B16088B0F5806F00D104E0EA
:102DA0004FF49A714EA0FDF761FAA08818B1A0887F
:102DB000B0F5007F00D104E040F2351148A0FDF7E6
:102DC00055FAE08818B1E088B0F5807F00D104E0C2
:102DD0004FF49B7142A0FDF749FA2E8A4FF2FF0093
:102DE0000640208861880843A1880843E188084399
:102DF00006432E8270BD0021018041808180C18008
:102E0000704770B504460D46304884420BD03048B8
:102E1000844208D02F48844205D02F48844202D0F3
:102E20002E48844200D104E04FF4B1712CA0FDF78C
:102E30001DFA0DB1012D00D104E040F2631128A06C
:102E4000FDF714FA25B1A08940F40050A08104E0F8
:102E5000A0894DF6FF710840A08170BD2DE9F047B3
:102E600005460C4617464FF00008C246C1460026EC
:102E7000164885420BD01648854208D01548854231
:102E800005D01548854202D01448854200D104E09F
:102E900040F2891112A0FDF7E9F9282C43D0A4F5DE
:102EA000E06027383FD0A4F5C06026383BD0A4F5B9
:102EB000A060253837D0A4F58060243833D0A4F53D
:102EC000006046382FD0B0F5927029E000380140FC
:102ED0000044004000480040004C004000500040CA
:102EE0004C69627261726965735C53544D3332464A
:102EF0003130785F5374645065726970685F4472F2
:102F0000697665725C7372635C73746D33326631BB
:102F100030785F75736172742E63000021AA4400DB
:102F200001D0602C00D105E04FF4C571AFF2500024
:102F3000FDF79CF90FB1012F00D105E040F28B1194
:102F4000AFF26400FDF792F9A4F510606A380FD172
:102F5000F948854205D0F948854202D0F8488542B3
:102F600000D105E040F28F11AFF28C00FDF77EF941
:102F70002E46C4F3421804F01F0A012000FA0AF991
:102F8000B8F1010F01D10C3605E0B8F1020F01D103
:102F9000103600E0143627B1306840EA090030608E
:102FA00003E0306820EA09003060BDE8F08770B5C2
:102FB00004460D461646E04884420BD0DF48844262
:102FC00008D0DF48844205D0DE48844202D0DE4883
:102FD000844200D105E040F2C311AFF2FC00FDF7DE
:102FE00045F94FF63F70054201D105B105E04FF4B8
:102FF000E271AFF21410FDF739F90EB1012E00D1D4
:1030000005E040F2C511AFF22810FDF72FF91EB10F
:10301000A08A2843A08202E0A08AA843A08270BDB3
:1030200070B504460D46C44884420BD0C348844260
:1030300008D0C348844205D0C248844202D0C24866
:10304000844200D105E040F2DF11AFF26C10FDF7D1
:103050000DF90F2D00DC05E04FF4F071AFF2801098
:10306000FDF704F9208A4FF6F07108402082208A8B
:103070002843208270BD70B504460D46AE48844298
:103080000BD0AE48844208D0AD48844205D0AD484C
:10309000844202D0AC48844200D105E04FF4FB7179
:1030A000AFF2C410FDF7E2F815B1B5F5006F00D12D
:1030B00005E040F2F711AFF2D810FDF7D7F8A0897C
:1030C0004FF2FF710840A081A0892843A08170BD04
:1030D00070B504460D46984884420BD09748844208
:1030E00008D09748844205D09648844202D096483A
:1030F000844200D105E040F20921AFF21C20FDF727
:10310000B5F80DB1012D00D105E040F20A21AFF272
:103110003020FDF7ABF825B1A08940F00200A08176
:1031200004E0A0894FF6FD710840A08170BD70B524
:1031300004460D46804884420BD08048844208D023
:103140007F48844205D07F48844202D07E48844232
:1031500000D105E040F22621AFF27C20FDF786F891
:103160000DB1202D00D105E040F22721AFF29020D3
:10317000FDF77CF8208A4FF6DF7108402082208A14
:103180002843208270BD70B504460D466A488442CB
:103190000BD06A48844208D06948844205D0694807
:1031A000844202D06848844200D105E040F23921CF
:1031B000AFF2D420FDF75AF80DB1012D00D105E092
:1031C00040F23A21AFF2E820FDF750F825B1208A0D
:1031D00040F48040208204E0208A4BF6FF710840D2
:1031E000208270BD70B504460D46534884420BD012
:1031F0005248844208D05248844205D05148844203
:1032000002D05148844200D105E040F25321AFF290
:103210003030FDF72BF8B5F5007F00DA05E04FF40C
:103220001571AFF24430FDF721F8C5F30800A08016
:1032300070BD10B50446404884420BD03F488442DC
:1032400008D03F48844205D03E48844202D03E48E0
:10325000844200D105E04FF41971AFF27C30FDF7E4
:1032600005F8A088C0F3080010BD10B50446324828
:1032700084420BD03148844208D03148844205D082
:103280003048844202D03048844200D105E04FF4F7
:103290001D71AFF2B430FCF7E9FFA08940F00100E6
:1032A000A08110BD70B504460D462348844205D068
:1032B0002248844202D02248844200D105E04FF4E3
:1032C0002171AFF2E430FCF7D1FF208BC0B2208334
:1032D000208B40EA0520208370BD70B504460D4662
:1032E000154884420BD01548844208D014488442C3
:1032F00005D01448844202D01348844200D105E02E
:103300004FF42671AFF22840FCF7B0FF208B00F499
:103310007F402083208B2843208370BD70B50446F6
:103320000D460548844205D00448844202D0044832
:1033300084420BD110E000000038014000440040FE
:1033400000480040004C00400050004040F2AB21DB
:10335000AFF27440FCF78AFF0DB1012D00D105E0FA
:103360004FF42B71AFF28840FCF780FF25B1A08AA3
:1033700040F02000A08204E0A08A4FF6DF710840F0
:10338000A08270BD70B504460D46F848844205D051
:10339000F748844202D0F748844200D105E04FF458
:1033A0003171AFF2C440FCF761FF0DB1012D00D1C6
:1033B00005E040F2C521AFF2D840FCF757FF25B138
:1033C000A08A40F01000A08204E0A08A4FF6EF71BE
:1033D0000840A08270BD70B504460D46E3488442A3
:1033E0000BD0E348844208D0E248844205D0E2484A
:1033F000844202D0E148844200D105E040F2DE215F
:10340000AFF22450FCF732FF0DB1012D00D105E0E1
:1034100040F2DF21AFF23850FCF728FF25B1A08A37
:1034200040F00800A08204E0A08A4FF6F77108403F
:10343000A08270BD70B504460D46CC4884420BD0C6
:10344000CB48844208D0CB48844205D0CA48844245
:1034500002D0CA48844200D105E040F2FD21AFF21B
:103460008050FCF703FF0DB1012D00D105E040F2C3
:10347000FE21AFF29450FCF7F9FE25B1A08940F48B
:103480000040A08103E0A089C0F30E00A08170BDC0
:1034900070B504460D46B54884420BD0B44884420A
:1034A00008D0B448844205D0B348844202D0B3481F
:1034B000844200D105E04FF44671AFF2DC50FCF7D6
:1034C000D5FE0DB1012D00D105E040F21931AFF26A
:1034D000F050FCF7CBFE25B1A08A40F40060A0823A
:1034E00004E0A08A4FF2FF710840A08270BD70B561
:1034F00004460D469D4884420BD09D48844208D026
:103500009C48844205D09C48844202D09B48844217
:1035100000D105E040F23531AFF23C60FCF7A6FE89
:10352000042D00D005B905E040F23631AFF250600D
:10353000FCF79CFEA08A4FF6FB710840A082A08A8F
:103540002843A08270BD70B504460D46874884426A
:103550000BD08748844208D08648844205D08648EC
:10356000844202D08548844200D105E04FF4527174
:10357000AFF29460FCF77AFE0DB1012D00D105E0A9
:1035800040F24931AFF2A860FCF770FE25B1A08A85
:1035900040F00200A08204E0A08A4FF6FD710840CE
:1035A000A08270BD70B505460C4600266F48854266
:1035B0000BD06F48854208D06E48854205D06E48D2
:1035C000854202D06D48854200D105E040F26E315F
:1035D000AFF2F460FCF74AFE012C13D0802C11D01E
:1035E000402C0FD0202C0DD0102C0BD0B4F5807FA8
:1035F00008D0B4F5007F05D0082C03D0042C01D0EE
:10360000022C00D105E040F26F31AFF22C70FCF7D4
:103610002DFEB4F5007F0FD15448854205D05448A3
:10362000854202D05348854200D105E040F2733113
:10363000AFF25470FCF71AFE2888204201D0012610
:1036400000E00026304670BD70B504460D46474880
:1036500084420BD04648844208D04648844205D074
:103660004548844202D04548844200D105E040F2FA
:103670009E31AFF29470FCF7F9FD4FF69F40054282
:1036800001D105B105E040F29F31AFF2AC70FCF71B
:10369000EDFD05F40070B0F5007F0FD13348844292
:1036A00005D03348844202D03248844200D105E03C
:1036B00040F2A331AFF2D870FCF7D8FDE843208088
:1036C00070BD2DE9F04705460C4600270026B046A0
:1036D000B146264885420BD02548854208D025486A
:1036E000854205D02448854202D02448854200D135
:1036F00005E040F2C131AFF61800FCF7B7FD282C09
:103700001FD0A4F5E06027381BD0A4F5C060263890
:1037100017D0A4F5A060253813D0A4F58060243814
:103720000FD0A4F5006046380BD0B0F5927008D0E9
:10373000B4F5587F05D0B4F5187F02D0B4F5B07F4A
:1037400000D105E040F2C231AFF66C00FCF78EFD0F
:10375000A4F510606A3819D10448854205D00448A0
:10376000854202D0034885420AD10FE0003801406B
:103770000044004000480040004C00400050004021
:1037800040F2C631AFF6A800FCF770FDC4F3421852
:1037900004F01F06012000FA06F6B8F1010F02D16D
:1037A000A889064007E0B8F1020F02D1288A064036
:1037B00001E0A88A06402712012000FA07F72888AE
:1037C00007401EB117B14FF0010901E04FF00009A9
:1037D0004846BDE8F0872DE9F04104460D46002635
:1037E0000027244884420BD02348844208D0234831
:1037F000844205D02248844202D02248844200D12B
:1038000005E040F20A41AFF62810FCF72FFDA5F5C0
:10381000C06026380AD0A5F5A060253806D0A5F5E9
:103820000060463802D0B0F5927000D105E040F259
:103830000B41AFF65410FCF719FDA5F510606A387E
:103840000FD10C48844205D00B48844202D00B486B
:10385000844200D105E040F20F41AFF67C10FCF746
:1038600005FD2E120120B04087B2F8432080BDE84C
:10387000F081000000380140004400400048004052
:10388000004C00400050004010B50446F748844208
:103890002AD0F6481430844226D0F4482830844296
:1038A00022D0F2483C3084421ED0F048503084424E
:1038B0001AD0EE486430844216D0EC487830844206
:1038C00012D0EB4884420FD0E948143084420BD028
:1038D000E7482830844207D0E5483C30844203D092
:1038E000E3485030844200D103E06F21E1A0FCF7AF
:1038F000BDFC20684FF6FE7108402060002020606B
:103900006060A060E060D948844208D1D748083898
:10391000406840F00F00D549083948608AE0D34834
:103920001430844208D1D1480838406840F0F00093
:10393000CE49083948607DE0CC482830844208D11F
:10394000CA480838406840F47060C849083948607F
:1039500070E0C6483C30844208D1C448083840680A
:1039600040F47040C1490839486063E0BF485030B6
:10397000844208D1BD480838406840F47020BB49F3
:103980000839486056E0B9486430844208D1B748E5
:103990000838406840F47000B4490839486049E08C
:1039A000B2487830844208D1B0480838406840F0C6
:1039B0007060AE49083948603CE0AD48844206D1A9
:1039C000001F006840F00F00211F086032E0A84887
:1039D0001430844208D1A648001F006840F0F0006F
:1039E000A349091F086025E0A1482830844208D176
:1039F0009F48001F006840F470609D49091F0860DF
:103A000018E09B483C30844208D19948001F006868
:103A100040F470409649091F08600BE0944850300C
:103A2000844207D19248001F006840F470209049FA
:103A3000091F086010BD70B505460C4600268B486E
:103A400085422AD089481430854226D087482830BC
:103A5000854222D085483C3085421ED08348503074
:103A600085421AD081486430854216D07F4878302C
:103A7000854212D07E4885420FD07D481430854261
:103A80000BD07B482830854207D079483C308542AE
:103A900003D077485030854200D103E0CF2175A094
:103AA000FCF7E4FBA068102801D0A06800B903E08F
:103AB000D02170A0FCF7DAFBE06820B1E068B0F537
:103AC000803F00D203E0D1216AA0FCF7CFFB206940
:103AD000402801D0206900B903E0D22165A0FCF79D
:103AE000C5FB6069802801D0606900B903E0D3217B
:103AF00060A0FCF7BBFBA06938B1A069B0F5807F7E
:103B000003D0A069B0F5007F00D103E0D42159A013
:103B1000FCF7ACFBE06938B1E069B0F5806F03D029
:103B2000E069B0F5006F00D103E0D52151A0FCF7AA
:103B30009DFB206A202801D0206A00B903E0D6212D
:103B40004CA0FCF793FB606AB0F5405F09D0606A57
:103B5000B0F5005F05D0606AB0F5805F01D0606AA3
:103B600000B903E0D72143A0FCF780FBA06AB0F5C1
:103B7000804F01D0A06A00B903E0D8213DA0FCF736
:103B800075FB2E6847F6F0708643216AA0680843EB
:103B90002169084361690843A1690843E169084351
:103BA000616A0843A16A084306432E60E0686860C2
:103BB0002068A8606068E86070BD00210160416015
:103BC0008160C160016141618161C16101624162E5
:103BD0008162704770B504460D46244884422AD05D
:103BE00022481430844226D020482830844222D0F3
:103BF0001E483C3084421ED01C48503084421AD0AB
:103C00001A486430844216D018487830844212D062
:103C1000174884420FD01648143084420BD0144801
:103C20002830844207D012483C30844203D01048E8
:103C30005030844200D104E040F229110DA0FCF77D
:103C400015FB0DB1012D00D104E04FF4957109A0D1
:103C5000FCF70CFB25B1206840F00100206004E077
:103C600020684FF6FE710840206070BD08000240D9
:103C7000080402404C69627261726965735C535456
:103C80004D3332463130785F5374645065726970D9
:103C9000685F4472697665725C7372635C73746D9D
:103CA0003332663130785F646D612E63000000004E
:103CB00070B504460D461646FE4884422AD0FD489B
:103CC0001430844226D0FB482830844222D0F94860
:103CD0003C3084421ED0F748503084421AD0F54818
:103CE0006430844216D0F3487830844212D0F248CF
:103CF00084420FD0F048143084420BD0EE48283074
:103D0000844207D0EC483C30844203D0EA4850302B
:103D1000844200D105E040F24911AFF2A800FCF75F
:103D2000A5FA35F00E0001D105B105E04FF4A571FB
:103D3000AFF2C000FCF79AFA0EB1012E00D105E0F7
:103D400040F24B11AFF2D400FCF790FA1EB120689C
:103D50002843206002E02068A843206070BD70B551
:103D600004460D46D34884422AD0D24814308442B7
:103D700026D0D0482830844222D0CE483C308442DD
:103D80001ED0CC48503084421AD0CA486430844295
:103D900016D0C8487830844212D0C74884420FD029
:103DA000C548143084420BD0C3482830844207D021
:103DB000C1483C30844203D0BF485030844200D1D7
:103DC00005E04FF4B271AFF25410FCF74FFA6560A2
:103DD00070BD10B50446B74884422AD0B5481430A7
:103DE000844226D0B3482830844222D0B1483C30A7
:103DF00084421ED0AF48503084421AD0AD4864305F
:103E0000844216D0AB487830844212D0AA4884420B
:103E10000FD0A948143084420BD0A74828308442E0
:103E200007D0A5483C30844203D0A3485030844298
:103E300000D105E04FF4BB71AFF2C810FCF716FAE1
:103E4000606880B210BD70B5044600250026012CC4
:103E50007ED0022C7CD0042C7AD0082C7ED0102C62
:103E60007CD0202C7AD0402C78D0802C76D0B4F521
:103E7000807F73D0B4F5007F70D0B4F5806F6DD0C3
:103E8000B4F5006F6AD0B4F5805F67D0B4F5005F19
:103E900064D0B4F5804F61D0B4F5004F5ED0B4F576
:103EA000803F5BD0B4F5003F58D0B4F5802F55D09B
:103EB000B4F5002F52D0B4F5801F4FD0B4F5001FD9
:103EC0004CD0B4F5800F49D0B4F5000F46D0B4F112
:103ED000807F43D0B4F1007F40D0B4F1806F3DD0FB
:103EE000B4F1006F3AD07548844237D0A4F18050C5
:103EF000801E33D0801E31D0001F2FD008382DD027
:103F000010382BD0203829D0403827D06B48FF30CC
:103F1000844223D06A48844220D06A4884421DD01B
:103F2000694884421AD0B4F1102F17D04FEAF0300C
:103F3000844213D06548844210D0654884420DD035
:103F4000644884420AD06448844207D0634800E051
:103F500004E0844202D06248844200D105E040F28D
:103F6000B711AFF2F020FCF781F914F0805F03D0B5
:103F700051480838066802E04E480838066826426C
:103F800001D0012500E00025284670BD10B504468B
:103F900014F0704F02D05348044201D104B105E03F
:103FA00040F20E21AFF23430FCF760F914F0805F7C
:103FB00003D04148001F046002E03E4808384460D6
:103FC00010BD70B5044600250026012C70D0022CCF
:103FD0006ED0042C6CD0082C6AD0102C68D0202C09
:103FE00066D0402C64D0802C62D0B4F5807F5FD046
:103FF000B4F5007F5CD0B4F5806F59D0B4F5006F94
:1040000056D0B4F5805F53D0B4F5005F7FD0B4F5DF
:10401000804F7CD0B4F5004F79D0B4F5803F76D096
:10402000B4F5003F73D0B4F5802F70D0B4F5002FF5
:104030006DD0B4F5801F6AD0B4F5001F67D0B4F519
:10404000800F64D0B4F5000F61D0B4F1807F5ED0F2
:10405000B4F1007F5BD0B4F1806F58D0B4F1006F41
:1040600055D01648844252D0A4F18050801E4ED0C4
:10407000801E4CD0001F4AD0083848D0103846D097
:10408000203844D0403842D00C48FF3084423ED0E3
:104090000B4884423BD00B48844238D00A488442C3
:1040A00035D0B4F1102F32D04FEAF03084421BE00B
:1040B0002DE000000800024008040240010000104A
:1040C0000002001000040010000800100040001062
:1040D0000080001000000110000002100000041019
:1040E000000008100000F0EF11D0214884420ED0EB
:1040F000204884420BD02048844208D01F48844284
:1041000005D01F48844202D01E48844200D105E0F9
:1041100040F25921AFF2A440FCF7A8F814F0805FF8
:1041200002D01948066801E018480668264201D006
:10413000012500E00025284670BD10B5044614F0A6
:10414000704F02D01248044201D104B105E040F2A0
:10415000AF21AFF2E040FCF789F814F0805F03D0A4
:104160000948001D046001E00848446010BD0000DB
:10417000004000100080001000000110000002103C
:10418000000004100000081000040240000002407B
:104190000000F0EF10B50446B4F5E06F0BD0B4F5B5
:1041A000C06F08D0B4F5A06F05D0B4F5806F02D011
:1041B000B4F5407F00D103E063215EA0FCF756F820
:1041C000684820436849086010BD2DE9F041044665
:1041D000002500270F26E07810B1E078012800D1F3
:1041E00003E0752153A0FCF741F86078102800DA4D
:1041F00003E076214FA0FCF739F8A078102800DA08
:1042000003E077214BA0FCF731F8E07808B356487B
:10421000006800F4E060C0F5E060050AC5F104073D
:10422000EE40607800FA07F5A078304005432D0194
:104230004E4822788554207800F01F0101208840E4
:10424000217849114FF0E02202EB8101C1F8000111
:1042500009E0207800F01F010120884044492278BD
:10426000521141F82200BDE8F08170B504460D46B8
:10427000B4F1005F02D0B4F1006F00D103E09F21E0
:104280002CA0FBF7F3FF3B48854200D203E0A021BE
:1042900028A0FBF7EBFF384905EA0100204332492B
:1042A000091F086070BD70B504460D46102C03D080
:1042B000042C01D0022C00D103E0B2211DA0FBF799
:1042C000D5FF0DB1012D00D103E0B32119A0FBF7FB
:1042D000CDFF3DB12448001D006820432249091D3F
:1042E000086006E02048001D0068A0431E49091D23
:1042F000086070BD10B50446042C01D0601D00D1CB
:1043000003E0CA210BA0FBF7B1FF042C08D14FF04A
:10431000E020006940F004004FF0E021086107E070
:104320004FF0E020006920F004004FF0E021086128
:1043300010BD00004C69627261726965735C535410
:104340004D3332463130785F537464506572697012
:10435000685F4472697665725C7372635C6D6973E1
:10436000632E63000000FA050CED00E000E400E0BD
:1043700080E100E0FFFF0F0080FFFF1F094880473A
:1043800009480047FEE7FEE7FEE7FEE7FEE7FEE737
:10439000FEE7FEE7FEE7FEE704480549054A064B4F
:1043A000704700003514000831010008381900205A
:1043B000381F0020381B0020381B00207047194888
:1043C0000068704770B5044604F088FA0546154841
:1043D0000460284604F086FA70BD10B511480068E4
:1043E000401C1049086003F009FB0446A06C401E05
:1043F000A064A06C18B9606CA06403F0D7FB03F054
:10440000EAFE10BD0146002902DA4FF0FF3007E056
:1044100064224A4302F2E7324FF47A7392FBF3F0DC
:1044200070470000500100200020704700207047B6
:10443000002070470020704710B5094C02E020684A
:104440008047241D07488442F9D310BD10B5054CA0
:1044500002E020688047241D03488442F9D310BD40
:10446000C8070108D0070108D80701082DE9F04165
:10447000064603F0C3FA08B103F06BF9A74D6C6868
:1044800010E0A4F10C0708223146384601F0ABFEDB
:1044900038B903F0B3FA08B103F069F93846BDE85A
:1044A000F0812468281D8442EBD103F0A7FA08B1FB
:1044B00003F05DF90020F2E770B504460D4616469C
:1044C00014B94FF0FF3070BD2846FFF7CFFF10B191
:1044D0004FF0FF30F7E72A460721204602F0EDFEB5
:1044E000E6820020A076208300BFECE710B50446EA
:1044F00024B94D228A498BA002F0F3F9204602F03C
:1045000002FF002010BD0020704770B50446002552
:1045100024B99A22874983A002F0E3F9606A90B136
:10452000A07D10F0100F0ED12046616A8847054625
:104530002DB12A46214680A002F0F3F803E0E08A7C
:1045400040F01000E082284670BD70B504460E466B
:10455000002524B9BD22864972A002F0C2F9A07DCF
:1045600010F0100F11D1606A58B12046616A884777
:10457000054635B12A4621466FA002F0D2F82846FA
:1045800070BDE08A40F01000E082A07D10F0080FBE
:1045900006D0207E10F0080F02D06FF00600EFE783
:1045A000A06A28B131462046A26A9047054603E03A
:1045B00040F60F70304020830DB1A81D0DD1208B27
:1045C00040F008002083A07E401CA076A07E20B989
:1045D000EB22674967A002F084F92846D0E770B55E
:1045E0000446002524B9FD2267494EA002F079F95E
:1045F000A07E10B94FF0FF3070BDA07E401EA076A7
:10460000A07E08B10020F7E7E06A18B12046E16A11
:10461000884705460DB1A81D01D1002020832846FA
:10462000EAE72DE9F04104460D4616461F462CB92F
:104630004FF4937255493BA002F053F9A07E30B974
:104640004FF0FF3001F0C2FC0020BDE8F081206B8C
:1046500038B13B46324629462046D4F830C0E047C0
:10466000F3E76FF0050001F0B1FC0020EDE72DE964
:10467000F04104460D4616461F462CB94FF4A6726B
:10468000434928A002F02DF9A07E30B94FF0FF3049
:1046900001F09CFC0020BDE8F081606B38B13B4626
:1046A000324629462046D4F834C0E047F3E76FF09D
:1046B000050001F08BFC0020EDE770B504460D46C7
:1046C00016462CB94FF4B672324916A002F009F919
:1046D000A06B28B1324629462046A36B984770BD8F
:1046E0006FF00500FBE770B504460D462CB940F2AB
:1046F000851229490BA002F0F4F8E561002070BD95
:1047000070B504460D462CB94FF4CD72234905A06F
:1047100002F0E7F82562002070BD000000020020D2
:104720008CF9000864657620213D2052545F4E5577
:104730004C4C0000A1F90008546F20696E6974693F
:10474000616C697A65206465766963653A257320D2
:104750006661696C65642E20546865206572726FAD
:104760007220636F64652069732025640A0000006D
:10477000B0F900086465762D3E7265665F636F75FB
:104780006E7420213D203000BFF90008CFF90008E9
:10479000DEF90008EEF9000800FA00081AFA00082D
:1047A0003B490860704770B544E000BF04F096F8DC
:1047B000064601F0F1FB40B1364937A001F0B1FFE8
:1047C000652234493DA002F08CF8304604F08AF8A6
:1047D00000BF04F083F8054600F051F8E0B1384816
:1047E0000068A0F1140404F11400D0E90021516024
:1047F000D0E9001211604060006000BFA06F10B1EE
:104800002046A16F8847204602F005FE012807D107
:10481000284604F067F870BD284604F063F8FAE70C
:10482000284604F05FF8A06A02F0A3FA204602F0DE
:10483000C8FD00BF00F023F80028B6D100BFEAE7AA
:1048400007E01348006810B1114800688047FFF77F
:10485000AAFFF6E71FB520201F21C200194BCDE9A2
:104860000032CDE902100023174A18A1194803F0BD
:10487000A0F8184803F0F7F81FBD16487047104914
:104880000868884201D0012070470020FCE7000042
:104890005401002034FA000846756E6374696F6E27
:1048A0005B25735D207368616C6C206E6F7420757E
:1048B00073656420696E204953520A00300000007D
:1048C0004402002070090020414800087469646CAB
:1048D00065000000F00800204268116042684A60EC
:1048E0004160086070472DE9F04105460C4690464E
:1048F000204603F089F9B8F1000F03D0B8F1010F99
:1049000023D105E004F114012846FFF7E5FF1CE080
:104910002E680FE0A6F1140794F8350097F83510CB
:10492000884206DA04F1140107F11400FFF7D4FFFE
:1049300002E03668AE42EDD100BFAE4204D104F1D0
:1049400014012846FFF7C8FF00BF00BF0020BDE8E4
:10495000F08170B505460EE003F0C0FF06462868FA
:10496000A0F114044FF0FF302063204603F049F813
:10497000304603F0B7FF284601F0B2FA0028EBD02A
:10498000002070BD2DE9F04104460D4616461F4635
:1049900024B9D822FD49FEA001F0A3FF2A46012137
:1049A000204602F08AFC204601F0A2FAA683677234
:1049B0000020BDE8F08110B5044624B9F522F8497D
:1049C000F3A001F08EFF04F11400FFF7C2FF2046B0
:1049D00002F099FC002010BD2DE9F04105460E467D
:1049E000174600BF03F07AFF804601F0D5FA48B1C0
:1049F000EC49EDA001F095FE40F21112E949F3A057
:104A000001F06FFF404603F06DFF00BF2946012013
:104A100002F095FC044614B92046BDE8F08120461A
:104A200001F066FAA68367722046F6E770B5044681
:104A300000BF03F053FF054601F0AEFA48B1E44968
:104A4000D9A001F06EFE4FF49872E149DFA001F0A9
:104A500048FF284603F046FF00BF2CB94FF4997277
:104A6000DB49CBA001F03DFF04F11400FFF771FF1B
:104A7000204602F0A6FC002070BD2DE9F34105465A
:104A80002DB940F24D12D349C1A001F02AFF00BF59
:104A9000D148006818B12846CF490968884700BF47
:104AA00003F01CFF064600BF00BFA88B002806DDF0
:104AB000A88B401EA883304603F014FF57E00198EE
:104AC00030B9304603F00EFF6FF00100BDE8FC8105
:104AD00000BF03F003FF074602F090FF48B9BD494D
:104AE000BEA001F01EFE40F26D12BA49B7A001F05F
:104AF000F8FE00BF03F0F2FE804601F04DFA48B127
:104B0000B449A9A001F00DFE40F26D12B149AFA069
:104B100001F0E7FE404603F0E5FE00BF384603F033
:104B2000E1FE00BF02F06AFF04460020206300BFE0
:104B300000BF6A7A214605F11400FFF7D4FE019800
:104B400000280BDD00BF00BF01AA002104F14C00CA
:104B500003F01BFB04F14C0003F05DFA304603F058
:104B6000C1FE02F051FD206B08B1206BAEE700BF23
:104B7000A848006818B12846A6490968884700BFB8
:104B80000020A3E710B5044600212046FFF775FF7B
:104B900010BD70B5044600BF9F48006818B120469C
:104BA0009D490968884700BF002503F097FE064627
:104BB00000BF00BF04F1140001F092F928B904F11C
:104BC000140001F09DF9012502E0A08B401CA08398
:104BD000304603F087FE012D01D102F015FD0020C3
:104BE00070BD2DE9F04104460E4615462CB94FF430
:104BF000F2728A4966A001F074FE012E10D12F4690
:104C000003F06CFE804604F11400FFF7A2FEA783B8
:104C1000404603F067FE02F0F7FC0020BDE8F0819B
:104C20004FF0FF30FAE770B504460D4616462CB932
:104C300040F20F227A497BA001F053FE2A4602215E
:104C4000204602F03AFB204601F052F90120A083F1
:104C500000202062FF20A0770020E077667270BD00
:104C600010B504462CB940F22E2273496DA001F014
:104C700038FE04F11400FFF76CFE204602F043FBFF
:104C8000002010BD2DE9F04105460E4600BF03F09F
:104C900025FE074601F080F948B1684942A001F0BD
:104CA00040FD40F24922654948A001F01AFE38460D
:104CB00003F018FE00BF2946022002F040FB044624
:104CC00014B92046BDE8F081204601F011F9012019
:104CD000A08300202062FF20A0770020E07766728A
:104CE0002046EFE770B5044600BF03F0F7FD054628
:104CF00001F052F948B152492BA001F012FD40F2E7
:104D00006A224F4931A001F0ECFD284603F0EAFD8C
:104D100000BF2CB94FF41B72494942A001F0E1FDDC
:104D200004F11400FFF715FE204602F04AFB0020B4
:104D300070BD2DE9F341044600BF03F0CFFD0746E7
:104D400002F05CFE48B93F4924A001F0EAFC4FF4B0
:104D500022723C491DA001F0C4FD00BF03F0BEFD5E
:104D6000804601F019F948B136490FA001F0D9FC8D
:104D70004FF42272334915A001F0B3FD404603F011
:104D8000B1FD00BF384603F0ADFD5DE04AFA000812
:104D900073656D20213D2052545F4E554C4C0000F0
:104DA00056FA000864FA000846756E6374696F6EFF
:104DB0005B25735D207368616C6C206E6F74207569
:104DC00073656420696E204953520A003000000068
:104DD00072FA000880FA00082802002046756E6307
:104DE00074696F6E5B25735D207368616C6C206EF7
:104DF0006F742062652075736564206265666F72EA
:104E000065207363686564756C6572207374617284
:104E1000740A00002C020020300200208CFA0008E6
:104E20009BFA00086D7574657820213D2052545F0F
:104E30004E554C4C00000000A9FA0008B9FA0008D1
:104E4000C9FA0008D9FA000800BF34B940F28A2232
:104E5000F749AFF2300001F044FD02F0CFFD054606
:104E600003F03CFD064600BFF248006818B120463A
:104E7000F0490968884700BF00BF00BF00202863D1
:104E8000206AA84203D1E07F401CE0774EE000BFDB
:104E9000A08B00280ADDA08B401EA083256295F818
:104EA0003500A077E07F401CE0773FE0019848B9EB
:104EB0006FF001002863304603F014FD6FF001002D
:104EC000BDE8FC8100BF00BF95F83500216A91F86C
:104ED0003510884205DA05F135020221206A02F018
:104EE00071FF627A294604F11400FFF7FCFC019877
:104EF00000280BDD00BF00BF01AA002105F14C0016
:104F000003F043F905F14C0003F085F8304603F057
:104F1000E9FC02F079FB286B28B1286B093000D13D
:104F2000B6E7286BCCE703F0D9FC0646304603F021
:104F3000D9FC00BFC048006818B12046BE490968C6
:104F4000884700BF0020BBE72DE9F0470446002654
:104F500000BF03F0C3FC804602F050FD58B9B749CA
:104F6000AFF2881001F0DDFB40F21132B349AFF22D
:104F7000A41001F0B6FC00BF03F0B0FC814601F0C4
:104F80000BF858B1AD49AFF2E01001F0CAFB40F2A6
:104F90001132AA49AFF2CC1001F0A3FC484603F04D
:104FA000A1FC00BF404603F09DFC00BF02F026FDBF
:104FB000054603F093FC074600BF00BF00BFA048B2
:104FC000006818B120469E490968884700BF206ADA
:104FD000A84209D04FF0FF302863384603F082FC26
:104FE0004FF0FF30BDE8F087E07F401EE077E07FC4
:104FF00008BBA07F216A91F83510884205D004F1E2
:105000001E020221206A02F0DDFE04F1140000F00D
:1050100067FF88B96069A0F1140500BF00BF256271
:1050200095F83500A077E07F401CE07704F114008C
:1050300000F066FF012606E0A08B401CA083002044
:105040002062FF20A077384603F04CFC012E01D1EE
:1050500002F0DAFA0020C5E703464FF0FF30704750
:1050600070B504460D4616462CB940F27F3275499C
:1050700075A001F036FC2A460321204602F01DF9F6
:105080006672204600F034FF0020E06170BD10B56C
:1050900004462CB940F29B3270496BA001F021FC10
:1050A00004F11400FFF755FC204602F02CF9002013
:1050B00010BD2DE9F04105460E4600BF03F00EFC81
:1050C000074600F069FF58B16549AFF2243001F09E
:1050D00028FB4FF46D726249AFF2103001F001FC11
:1050E000384603F0FFFB00BF2946032002F027F9F2
:1050F000044614B92046BDE8F0816672204600F0EF
:10510000F7FE0020E0612046F5E770B504462CB9B3
:1051100040F2D23253494CA001F0E3FB00BF03F050
:10512000DDFB054600F038FF58B14E49AFF288303C
:1051300001F0F7FA4FF475724A49AFF2703001F09E
:10514000D0FB284603F0CEFB00BF04F11400FFF7AC
:1051500000FC204602F035F9002070BD2DE9F04733
:1051600004460F462CB940F2F3323F4936A001F015
:10517000B8FB1FB94FF0FF30BDE8F0874FF00008D3
:1051800000BF2F48006818B120462D49096888479C
:1051900000BF03F0A3FB8246E0693843E06104F1FD
:1051A000140000F09DFEC0BB666932E0A6F1140554
:1051B0004FF0FF3995F8400010F0010F08D0E86B70
:1051C000E1690840E96B884211D14FF000090EE017
:1051D00095F8400010F0020F09D0E86BE169084231
:1051E00005D0E86BE1690840E8634FF000093668D4
:1051F000B9F1000F0DD195F8400010F0040F03D065
:10520000E069E96B8843E061284602F0FAFB4FF061
:10521000010804F114008642C8D1504603F062FB35
:10522000B8F1010F01D102F0EFF90020A4E700006E
:10523000D9FA0008280200202C020020E7FA000812
:1052400030020020F8FA00086576656E7420213D72
:105250002052545F4E554C4C0000000006FB0008E5
:1052600016FB000826FB000836FB00082DE9FF4F5F
:1052700081B005460E461746DDF8388000BF03F0C2
:105280002DFB009002F0BAFB58B9FE49AFF2B440D2
:1052900001F047FA40F25342FA49AFF2D04001F030
:1052A00020FB00BF03F01AFB834600F075FE58B1E7
:1052B000F449AFF20C5001F034FA40F25342F14994
:1052C000AFF2F84001F00DFB584603F00BFB00BFB6
:1052D000009803F007FB00BF35B940F25642E94998
:1052E000AFF29C0001F0FDFA26B94FF0FF3005B097
:1052F000BDE8F08F4FF0FF3902F080FB044600213B
:10530000216300BFE048006818B12846DE490968FB
:10531000884700BF03F0E2FA824617F0010F06D07B
:10532000E8693040B04212D14FF000090FE017F0A9
:10533000020F05D0E869304209D04FF0000906E0BD
:1053400040F27442CF49AFF27C5001F0CAFAB9F191
:10535000000F0DD1B8F1000F03D0E8693040C8F854
:10536000000017F0040F31D0E869B043E8612DE088
:10537000049818B96FF00100206327E0E66384F811
:1053800040706A7A214605F11400FFF7ACFA0498E0
:10539000002809DD04AA002104F14C0002F0F5FE0A
:1053A00004F14C0002F037FE504603F09BFA02F085
:1053B0002BF9206B08B1206B99E703F08FFA824636
:1053C000B8F1000F02D0E06BC8F80000504603F0BF
:1053D00089FA00BFAD48006818B12846AB49096892
:1053E000884700BF206B82E72DE9F04104460D4657
:1053F000174634B940F2C442A549AFF2B41001F0E7
:1054000070FA012D10D103F069FA064604F1140078
:10541000FFF79FFA0020E061304603F063FA02F0E4
:10542000F3F80020BDE8F0814FF0FF30FAE72DE9F6
:10543000F04104460D4616461F46DDF818802CB98B
:1054400040F2F142934994A001F04BFA2A4604211C
:10545000204601F032FF84F80980204600F048FD24
:10546000E661278400206084A084E08404F12800A1
:1054700000F033FD0020BDE8F08110B504462CB9E2
:1054800040F21452884984A001F02BFA04F1140070
:10549000FFF75FFA04F12800FFF75BFA204601F0FE
:1054A00032FF002010BD2DE9F04105460E4617469B
:1054B00000BF03F013FA804600F06EFD58B17B493F
:1054C000AFF21C7001F02DF94FF4A6627749AFF2EC
:1054D000047001F006FA404603F004FA00BF2946C2
:1054E000042001F02CFF044614B92046BDE8F081E9
:1054F0006772204600F0FCFC2684218C880001F0B5
:1055000033FBE061E06920B9204601F05AFF00203A
:10551000ECE700206084A084E08404F1280000F01F
:10552000DCFC2046E2E770B5044600BF03F0D6F984
:10553000054600F031FD58B15D49AFF2947001F0BD
:10554000F0F840F25B525A49AFF2807001F0C9F9AD
:10555000284603F0C7F900BF2CB940F25E52544907
:105560004DA001F0BEF904F11400FFF7F2F904F1C7
:105570002800FFF7EEF9E06901F0FBFB204601F09F
:1055800020FF002070BD2DE9F74F04460F462CB9CF
:1055900040F28B52474940A001F0A3F9002602F0E7
:1055A0002DFA054600BF4448006818B1204642491C
:1055B0000968884700BF03F091F98046608C218C10
:1055C000884208D1029830B9404603F08BF96FF059
:1055D0000200BDE8FE8F86E000202863029828B90B
:1055E000404603F07FF96FF00200F2E700BF03F0DE
:1055F00075F9814602F002FA58B92E49AFF6240037
:1056000001F08FF840F2AE522A49AFF6400001F0A7
:1056100068F900BF03F062F9824600F0BDFC58B1A2
:105620002449AFF67C0001F07CF840F2AE522149EB
:10563000AFF6680001F055F9504603F053F900BF8A
:10564000484603F04FF900BF627A294604F128006A
:10565000FFF749F9029800280EDDFEF7B0FE064676
:1056600000BF00BF02AA002105F14C0002F08DFD31
:1056700005F14C0002F0CFFC404603F033F901F095
:10568000C3FF1BE044FB0008280200202C0200207E
:1056900052FB000863FB00086D6220213D2052543C
:1056A0005F4E554C4C0000006EFB00087BFB000871
:1056B00088FB000895FB000830020020286B08B129
:1056C000286B86E703F00AF98046029800280ADD75
:1056D000FEF775FE861B0298801B02900298002838
:1056E00001DA00200290608C218C88423FF474AF74
:1056F000A18CE06940F82170A08C401CA084A08C93
:10570000218C884201DB0020A084608C401C6084D6
:1057100004F1140000F0E4FB50B904F1140000F0AF
:10572000EFFB404603F0DEF801F06EFF002050E78B
:10573000404603F0D7F800204BE770B504460D460D
:10574000002229462046FFF71EFF70BD2DE9F74FC6
:1057500004460F4634B940F21C62FA49AFF2C80061
:1057600001F0BFF8002602F049F9054600BFF648EF
:10577000006818B12046F4490968884700BF03F063
:10578000ADF88046608C40B9029830B9404603F0CD
:10579000A9F86FF00100BDE8FE8F6AE000202863E1
:1057A000029830B9404603F09DF86FF0010028637D
:1057B000F1E700BF03F092F8814602F01FF958B9F3
:1057C000E049AFF6E81000F0ACFF40F24162DD497D
:1057D000AFF6082001F085F800BF03F07FF882469D
:1057E00000F0DAFB58B1D749AFF6442000F099FF3A
:1057F00040F24162D349AFF62C2001F072F85046D6
:1058000003F070F800BF484603F06CF800BF627AFE
:10581000294604F11400FFF766F8029800280EDD0F
:10582000FEF7CDFD064600BF00BF02AA002105F12C
:105830004C0002F0AAFC05F14C0002F0ECFB4046E3
:1058400003F050F801F0E0FE286B08B1286BA2E7E6
:1058500003F044F88046029800280ADDFEF7AFFD09
:10586000861B0298801B02900298002801DA002013
:105870000290608C002891D0E18CE06950F8210002
:105880003860E08C401CE084E08C218C884201DB95
:105890000020E084608C401E608404F1280000F049
:1058A0001FFB98B904F1280000F02AFB404603F0E2
:1058B00019F800BFA548006818B12046A349096837
:1058C000884700BF01F0A0FE002064E7404603F0D7
:1058D00009F800BF9D48006818B120469B49096837
:1058E000884700BF002056E72DE9F04104460D46E9
:1058F000174634B940F29F629549AFF2642000F038
:10590000F0FF012D16D102F0E9FF064604F1140064
:10591000FFF71FF804F12800FFF71BF80020608450
:10592000A084E084304602F0DDFF01F06DFE00202F
:10593000BDE8F0814FF0FF30FAE72DE9F05F044653
:105940000F4690469946DDE90AAB2CB940F2DB627E
:10595000804981A000F0C5FF3A460521204601F0AC
:10596000ACFC84F809B0204600F0C2FAC4F81C80F0
:1059700009F1030020F003002084208C001DBAFBF5
:10598000F0F060840020A062E0622063002508E05F
:10599000208C001DE16905FB0016206B306026633A
:1059A0006D1C608CA842F3DC0020A084BDE8F09F51
:1059B00010B504462CB940F20C726B4966A000F099
:1059C00090FF04F11400FEF7C4FF204601F09BFC99
:1059D000002010BD70B5044600BF02F07FFF0546F1
:1059E00000F0DAFA58B16149AFF6444000F099FE90
:1059F00040F266725D49AFF62C4000F072FF284617
:105A000002F070FF00BF2CB940F26972574952A0F2
:105A100000F067FF04F11400FEF79BFFE06901F05E
:105A2000A8F9204601F0CDFC002070BD2DE9F05F03
:105A30000746884691469A4600BF02F04FFF8346CC
:105A400000F0AAFA58B14A49AFF6A44000F069FE46
:105A500040F22C724649AFF68C4000F042FF5846A7
:105A600002F040FF00BF3946052001F068FC044603
:105A700014B92046BDE8F09F84F809A0204600F044
:105A800037FA08F1030020F003002084A4F82290E4
:105A9000218C091D628C01FB02F001F065F8E061C8
:105AA000E06920B92046FFF795FF0020E2E70020DB
:105AB000A062E0622063002508E0208C001DE169FF
:105AC00005FB0016206B306026636D1C608CA842BD
:105AD000F3DC0020A0842046CCE72DE9F041044609
