:020000040800F2
:1000000088290020F57D000841040008FBC3000892
:1000100043040008470400084B04000800000000E7
:100020000000000000000000000000004F04000875
:10003000510400080000000083C30008BB0300084F
:100040000F7E00080F7E00080F7E00080F7E00085C
:100050000F7E00080F7E0008751900088719000838
:1000600099190008AB190008BD1900080F7E000897
:100070000F7E0008951300080F7E0008F312000899
:10008000171300080F7E00080F7E000855040008B3
:10009000530400080F7E00080F7E0008CF190008E7
:1000A0000F7E00080F7E00080F7E00080F7E0008FC
:1000B0000F7E00080F7E00080F7E00080F7E0008EC
:1000C0000F7E00080F7E00080F7E00080F7E0008DC
:1000D0000F7E0008E112000805130008291300082C
:1000E000251A00080F7E00080F7E00080F7E00080A
:1000F0000F7E00080F7E00080F7E00080F7E0008AC
:100100000F7E00080F7E00080F7E00080F7E00089B
:100110000F7E00080F7E00080F7E00080F7E00088B
:100120000F7E00080F7E00080F7E00080F7E00087B
:1001300000F002F800F06DF80AA090E8000C82448C
:100140008344AAF10107DA4501D100F062F8AFF269
:10015000090EBAE80F0013F0010F18BFFB1A43F0A5
:100160000103184754B7010074B701000A444FF067
:10017000000C10F8013B13F0070408BF10F8014B06
:100180001D1108BF10F8015B641E05D010F8016B4B
:10019000641E01F8016BF9D113F0080F1EBF10F8AF
:1001A000014BAD1C0C1B09D16D1E58BF01F801CBD2
:1001B000FAD505E014F8016B01F8016B6D1EF9D555
:1001C0009142D6D37047000000230024002500266A
:1001D000103A28BF78C1FBD8520728BF30C148BFAA
:1001E0000B607047662919F0DB86002070471FB549
:1001F00018F076FF04000020002119F0E9FC401CF3
:1002000060600020002119F0CDFCE0601FBD10B53A
:1002100010BD19F0B1F81146FFF7E9FF00F093F8AF
:1002200019F0DDF803B4FFF7F2FF03BC19F0DEF8B4
:10023000002804D090FAA0F0B0FA80F0401C70477B
:1002400038B5044607F03EFE01F013FE00200346D9
:1002500015A216A1009016A00DF0F3F818B915A07C
:1002600009F09BFF02E01AA009F097FF38BD1CB50A
:1002700000F038F900F0B9FA00F04DFD00F02EFE64
:1002800003F0B4F8142008210B020022CDE900107D
:10029000AFF2530117A00BF078F9044614B12046D1
:1002A0000BF01DF900201CBD656C6D002F000000D7
:1002B0007364300046696C652053797374656D20F2
:1002C000696E697469616C697A6564210A0000006D
:1002D00046696C652053797374656D20696E697425
:1002E00069616C7A6174696F6E206661696C6564BE
:1002F000210A0000696E69740000000004460D4682
:1003000014A009F04AFF21461CA009F046FF294627
:100310001FA009F042FF00BFFEE710B500F055F83E
:1003200009F06BFF1F4920480AF0F4F80AF07AFE42
:100330000BF0DCFC0BF0E6FCFFF799FF07F0C6FFC3
:100340000AF08CFE10BD10B50CF004F8FFF7E5FFC5
:10035000002010BD0A0D2057726F6E672070617209
:10036000616D657465722076616C75652064657475
:100370006563746564206F6E0D0A000020202020E4
:1003800020202066696C65202025730D0A0000007E
:10039000202020202020206C696E65202025640DFF
:1003A0000A000000000001208829002010B500216B
:1003B0004FF0006007F095FC10BD10B509F0FAFA97
:1003C00007F047FD09F00DFB10BD70B5FFF7EEFF1C
:1003D000164800686422B0FBF2F1481EB0F1807F3D
:1003E00000D319E0481E4FF0E022506150170F2251
:1003F000002806DA13010E4C00F00F052D1F63557F
:1004000002E013010B4C235400BF00204FF0E02208
:1004100090610720106100BF01F079FA01F031F816
:1004200005A009F02FFF07F043FD70BD400100203B
:1004300018ED00E000E400E0756172743100000026
:10044000704700BFFEE700BFFEE700BFFEE7704752
:10045000704770477047000008B50121082003F07D
:1004600074FC10208DF8030003208DF802004FF477
:100470008070ADF8000069463E4805F0A7FB4FF4D8
:1004800080713C4805F07FFD08BD10B504462CB9CD
:100490004FF48071374805F0A1FD00E000BF00BFB8
:1004A00010BD10B504462CB94FF48071314805F0E9
:1004B0006AFD00E000BF00BF10BD3D2400212046C2
:1004C00010F0ECFE0DE00021204610F0FAFE322084
:1004D0000BF0AEF90121204610F0F3FE32200BF0B4
:1004E000A7F9F0E71FB5022014210202224BCDE943
:1004F0000032CDE902100023204A21A121480AF050
:1005000094FF04462CB91F480AF0E9FF002004B00C
:1005100010BD1DA009F041FE4FF0FF30F7E770B5A8
:1005200005460C461F48007820B9FFF795FF0120CB
:100530001C4908706DB914B1012C08D103E00020EA
:10054000FFF7AFFF04E00020FFF79FFF00E000BFD0
:1005500000BF012D0DD114B1012C08D103E0012001
:10056000FFF79FFF04E00120FFF78FFF00E000BFCF
:1005700000BF70BD000C014028030020BB04000830
:100580006C656400280500206C65642074687265E1
:1005900061642073746172747570206661696C6542
:1005A0006421000000000020704770B5044640211F
:1005B0009D4805F013FD0A20FFF7F6FF002519E01E
:1005C0004021994805F00AFD14F0010F04D0802164
:1005D000954805F0D8FC03E08021934805F0FEFC27
:1005E0000A20FFF7E1FF40218F4805F0CCFC6410A2
:1005F000681CC5B2082DE3DB70BD70B505460C461E
:100600002021894805F0EAFC4021874805F0E6FCF6
:100610000A20FFF7C9FF2021834805F0B4FC0A2017
:10062000FFF7C2FF2846FFF7C0FF2046FFF7BDFFD8
:1006300020217D4805F0D2FC40217B4805F0CEFC0E
:100640000A20FFF7B1FF70BD08B50121082003F0B3
:100650007CFB6020ADF8000003208DF80200102024
:100660008DF803006946704805F0B0FA8020ADF8B7
:10067000000014208DF8030069466B4805F0A6FAC7
:1006800080218E20FFF7B9FF08BD70B50646002413
:100690002021654805F0A2FC4021634805F09EFC3E
:1006A0000A20FFF781FF20215F4805F06CFC0A203B
:1006B000FFF77AFF3046FFF778FF002511E0402171
:1006C000594805F060FC64104021574805F086FC4D
:1006D0008021554805F03FFB08B144F08004681CB8
:1006E000C5B2082DEBDB0A20FFF75EFF20214E4844
:1006F00005F074FC204670BD7CB506464BA103C9CD
:10070000CDE9000100218E20FFF777FF002411E0E2
:100710004848005D0A2190FBF1F201FB1200C5B2CE
:100720004448005D90FBF1F005EB0010414908558D
:10073000601CC4B2082CEBDB002407E03D4A115DCD
:100740001DF80400FFF759FF601CC4B2072CF5DB4D
:1007500080218E20FFF751FF7CBD70B58120FFF70F
:1007600094FF354908708320FFF78FFF32494870A6
:100770008520FFF78AFF304988708720FFF785FFC3
:100780002D49C8708920FFF780FF2B4908718B2005
:10079000FFF77BFF284948718D20FFF776FF264938
:1007A0008871002415E02449085DC11700EB117120
:1007B0000D112149085DC11700EB11710911A0EB62
:1007C000011105EB850201EB42011B4A1155601C2A
:1007D000C4B2072CE7DB70BDFFF736FF04E06420EE
:1007E0000BF026F8FFF7B9FFF9E71FB50520122136
:1007F0004FF40072114BCDE90032CDE90210002315
:100800000F4A10A111480AF010FE04462CB90F48F7
:100810000AF065FE002004B010BD0DA009F0BDFC7B
:100820004FF0FF30F7E70000000C01408082848623
:10083000888A8C000100002009000020A805002003
:10084000D90700086473313330320000A807002054
:10085000647331333032207468726561642073745C
:100860006172747570206661696C656421000000B6
:100870004FF0E022526942F21073B2FBF3F25043A0
:100880004FF0E022916900BF4FF0E02292698A1A8E
:100890008242F9D3704708B50121082003F055FAC8
:1008A0000220ADF8000010208DF8030003208DF821
:1008B00002006946FC4805F089F90221FA4805F072
:1008C00062FB08BD08B50220ADF8000048208DF895
:1008D00003006946F44805F079F908BD08B502201F
:1008E000ADF8000010208DF8030003208DF8020001
:1008F0006946ED4805F06AF908BD10B5FFF7EEFF4F
:100900000221E94805F06AFB40F2EE20FFF7B0FF54
:100910000221E54805F037FB0F20FFF7A9FF10BDC6
:1009200010B50024FFF7CEFF04E0601CC4B2012024
:10093000FFF79EFF0221DC4805F00DFA08B1C82C34
:10094000F3DBC82C01DB012010BD002404E0601C97
:10095000C4B20120FFF78CFF0221D34805F0FBF958
:1009600008B9F02CF3DBF02C01DB0120ECE70020D0
:10097000EAE710B5FFF7B2FF0221CB4805F02EFBE6
:100980000220FFF775FF0221C74805F0FCFAFFF7C8
:1009900099FF0C20FFF76CFF0221C34805F0DBF93B
:1009A00008B1012400E000243220FFF761FF204657
:1009B00010BD70B5002400251FE06006040EFFF78F
:1009C0008DFF0221B84805F009FB0220FFF750FF18
:1009D0000221B54805F0D7FAFFF774FF0C20FFF7A6
:1009E00047FF0221B04805F0B6F908B144F0010410
:1009F0003220FFF73DFF681CC5B2022DDDDB20462B
:100A000070BD70B50026002408E0FFF7B2FF054670
:100A100005FA04F03043C6B2601CC4B2082CF4DB03
:100A2000304670BD10B50446FFF758FF74B102217F
:100A30009D4805F0D3FA0220FFF71AFF02219A48D9
:100A400005F0A1FA3C20FFF713FF0DE002219648C4
:100A500005F0C4FA3C20FFF70BFF0221924805F095
:100A600092FA0220FFF704FF10BD70B50446FFF7AD
:100A700035FF002522E004F00106641076B1022162
:100A8000894805F0ABFA0220FFF7F2FE0221864802
:100A900005F079FA3C20FFF7EBFE0DE002218248D9
:100AA00005F09CFA3C20FFF7E3FE02217E4805F0AA
:100AB0006AFA0220FFF7DCFE681CC5B2082DDADBFB
:100AC00070BD10B5FFF7E7FEFFF717FFFFF728FF30
:100AD00010BD2DE9F84FFFF710FFFFF721FFCC20E5
:100AE000FFF7C3FF4420FFF7C0FFFFF706FFFFF744
:100AF00017FFCC20FFF7B9FFBE20FFF7B6FFFFF7C7
:100B000080FF8146FFF77DFF0446072C15DD09EBCA
:100B100004200FFA80FA6FEA0A0019F0CBF9834635
:100B2000584619F09BF907460022604B19F098F8D7
:100B3000054619F063F883460FE009EB042019F02D
:100B4000B9F9009019F08AF905460022584B19F0BE
:100B500087F8074619F052F883465846BDE8F88FE3
:100B60002DE9F04F93B00027BA46002600BFFFF7EB
:100B7000C4FE4FF4F070FFF77BFEF020FFF775FF27
:100B800000246DE0002600255FE0FFF712FF81469C
:100B900009F003097610B9F1010F08D10020FFF721
:100BA00041FF002005EBC40101AA50544BE0B9F10C
:100BB000020F0AD146F080060120FFF733FF012023
:100BC00005EBC40101AA50543DE0B9F1000F3AD140
:100BD00005EBC400401C00F0FF0811A8C05D4045B3
:100BE0000EDA0020FFF71EFF002005EBC40101AA6A
:100BF0005054781CC0B2074611A901F8008022E0C9
:100C000011A8C05D40450EDD05EBC40001A9085CDC
:100C100000F0010046EAC01605EBC40101AA505CD1
:100C2000FFF700FF0FE011A8C05D40450BD146F073
:100C300080060120FFF7F6FE012005EBC40101AAA2
:100C40005054781EC7B2681CC5B2082D9DDBB34650
:100C50005E46184800EBCA0000F804B0601CC4B23D
:100C6000082C8FDB0AF1010000F0FF0A9DF8450017
:100C700018B1BAF1080FFFF67AAF0F4880F800A05C
:100C800013B0BDE8F08F1CB5002404E00BA009F000
:100C900084FA601CC4B2FFF714FF08B1052CF5DB21
:100CA000052C1ADA16E00000000C01400000B0BF6D
:100CB0000000B03F280800201100002044533138C4
:100CC00042323020636865636B206661696C642121
:100CD0000D0A00001FA009F060FA1BE00020FFF7DA
:100CE000F8FE0746384619F0B9F805462A460B467D
:100CF0001EA1684617F0D0FB02211E4805F02BF814
:100D000010B101F07DF801E001F08AF84FF496701F
:100D10000AF08EFDE2E71FB50F2011214FF400729B
:100D2000154BCDE90032CDE902100023134A14A17E
:100D300015480AF07AFB04462CB913480AF0CFFB99
:100D4000002004B010BD11A009F027FA4FF0FF30C9
:100D5000F7E700004453313842323020636865635E
:100D60006B207265616479210D0A0000252E3266C0
:100D7000000000000008014068080020870C0008FF
:100D80006473313862323000680A0020647331388D
:100D900062323020746872656164207374617274A9
:100DA0007570206661696C656421000000B587B0CC
:100DB00001214FF4047002F0C8FF4FF4004002F02C
:100DC00090FE0420ADF8040000208DF8070001A972
:100DD000514804F0FBFE514803F04EFA0020029007
:100DE0008DF80C008DF80D004FF460200490002069
:100DF000059001208DF8180002A9484803F071FA07
:100E00000121464803F038FB444803F0B2FB00BF21
:100E1000424803F0C4FB0028FAD1404803F0DAFB53
:100E200000BF3E4803F0ECFB0028FAD107B000BD3C
:100E300010B50446072301222146384803F0B9FCC7
:100E40000121364803F0F7FB00BF0221334804F0CC
:100E5000CDF80028F9D0314803F0A1FD10BD2DE9EF
:100E6000F04107460C460025002608E03846FFF70B
:100E7000DFFF054400200AF0DBFC701CC6B2A6426E
:100E8000F4DBB5FBF4F080B2BDE8F0811CB50024C2
:100E9000FFF78CFF21E005210C20FFF7E0FF8246E1
:100EA00019F020F8814618F0D9FF07464FF0663256
:100EB0001B4B18F0D5FE054618F0A0FE0446204650
:100EC00018F0CCFF05462A460B4616A1684617F0D7
:100ED000E3FA4FF4FA700AF0ABFCDCE71FB50F2021
:100EE00010214A01114BCDE90032CDE90210002357
:100EF0000F4A10A110480AF098FA04462CB90E487F
:100F00000AF0EDFA002004B010BD0CA009F045F97C
:100F10004FF0FF30F7E700000010014000240140CF
:100F2000663E953F252E326600000000E80A00204C
:100F30008D0E000861646300E80C0020616463208A
:100F40007468726561642073746172747570206670
:100F500061696C65642100007FB505460C4625B9C2
:100F60004A22F649F6A009F0F8F924B94B22F349D0
:100F7000F8A009F0F2F9EE6B20680090207900F0FB
:100F80000F00082803D10020ADF8040008E0207904
:100F900000F00F00092803D14FF48050ADF8040091
:100FA0002079C0F3011018B90020ADF8060007E061
:100FB0002079C0F30110012802D14003ADF80600EA
:100FC0002079C0F3811018B90020ADF8080011E0B5
:100FD0002079C0F38110012804D14FF4C060ADF82E
:100FE000080007E02079C0F38110022802D14002F6
:100FF000ADF808000020ADF80C000C20ADF80A0098
:101000006946306805F0F5FA0121306805F035FCD5
:10101000002004B070BD70B58CB00546EC6BEE6C72
:10102000A86CC0F38F216161012240F22441206845
:1010300005F050FC0121084602F05CFE012102206F
:1010400002F058FEA06806F05BF92068001D0190D0
:101050003068029000200390A86CC0F38F200490A9
:101060000020059080200690002007900890202006
:10107000099000020A9000200B9001A9A06806F0D8
:1010800016FAE06806F0BEFC01220221A06806F014
:101090004BFB01224021206805F0C5FC0121A0681E
:1010A00006F0D4FA207C8DF8000000208DF80100B5
:1010B0008DF8020001208DF80300684606F0C1FD9E
:1010C0000CB070BD2DE9F04105460E461746B846F6
:1010D00025B97422A3499AA009F03FF9EC6B032EBD
:1010E0002AD0102E13D0112E2DD194F9040000F027
:1010F0001F02012191409C4A430942F8231000BF7E
:10110000002240F22551206805F0E4FB1BE094F931
:10111000040000F01F020121914042094FF0E0233A
:1011200003EB8202C2F8001100BF012240F22551F8
:10113000206805F0CFFB06E0B8F5007F02D1284615
:10114000FFF769FF00BF00BF0020BDE8F08170B568
:1011500005460E4625B99522844979A009F0FDF887
:10116000EC6B288B10F4806F16D02068008810F08C
:10117000800F08D1012240F22661206805F0AAFB09
:101180004FF0FF3070BD20688680012240F226615A
:10119000206805F09FFB07E02068868000BF20687C
:1011A000008810F0400FFAD00120EBE770B504463C
:1011B00024B9B0226E4962A009F0CFF8E56B4FF078
:1011C000FF362868008810F0200F02D02868808839
:1011D000C6B2304670BD2DE9F0410546EC6B0BF010
:1011E000B9F88046A06806F030FB61690E1AA06964
:1011F000371AA66140460BF0B1F82FB1032040EA40
:101200000721284610F00FFD206805F04EFDE0682C
:1012100006F0F8FBBDE8F0812DE9F0410546EC6BE6
:101220000BF098F80746D4E905100E1A0021A161C9
:1012300038460BF093F82EB1032040EA06212846E9
:1012400010F0F1FCE06806F0DDFBBDE8F08170B560
:101250000546EC6B24B9F622464947A009F07DF813
:1012600040F22551206805F068FF68B1012120682F
:1012700005F0D4FE18B90121284610F0D4FC40F244
:101280002551206805F0E3FF40F22441206805F075
:1012900054FF10B12846FFF79EFF40F226612068F8
:1012A00005F04BFF90B1288B10F4806F03D0022122
:1012B000284610F0B8FC002240F22661206805F0B4
:1012C00009FB40F22661206805F0C1FF0821206873
:1012D00005F0A4FE012802D12846FFF767FF70BD84
:1012E00010B508F067FB2848FFF7B1FF08F079FB5D
:1012F00010BD10B508F05EFB2348FFF78DFF08F026
:1013000070FB10BD10B508F055FB2048FFF79FFF9C
:1013100008F067FB10BD10B508F04CFB1B48FFF749
:101320007BFF08F05EFB10BD10B508F043FB1848CA
:10133000FFF78DFF08F055FB10BD0000B89F0108B6
:1013400073657269616C20213D2052545F4E554C8B
:101350004C00000063666720213D2052545F4E55CB
:101360004C4C0000C89F010880E100E0D69F0108B6
:10137000E19F0108EC9F01087561727420213D20F6
:1013800052545F4E554C4C00680D0020BC0D00209F
:10139000100E002010B508F00DFB6048FFF73CFF71
:1013A00008F01FFB10BD10B50121052002F0CDFC97
:1013B0000121880302F0C9FC0121052002F0C5FCCF
:1013C0000121480402F0EAFC0121092002F0BDFCE1
:1013D0000121880402F0E2FC10BD08B502208DF85E
:1013E000020004208DF803000002ADF800006946F9
:1013F0004B4804F0EBFB18208DF803004FF400700D
:10140000ADF800006946464804F0E0FB04208DF882
:1014100003000820ADF800006946414804F0D6FBFF
:1014200018208DF803000420ADF8000069463C4800
:1014300004F0CCFB04208DF803004002ADF800005E
:101440006946384804F0C2FB18208DF803004FF4B9
:101450008060ADF800006946324804F0B7FB08BD73
:1014600038B5044620798DF8000000208DF8010081
:1014700001208DF802008DF80300684606F0E1FBBC
:1014800038BD1CB5284903C9CDE90001FFF78BFF22
:10149000FFF7A3FF254C4FF4E13000902448254985
:1014A00008640846DDE90012C0E911122046FFF782
:1014B000D7FF234640F203721FA11E4810F08AFB9B
:1014C0001F4C4FF4E130009019481E49086408464B
:1014D000DDE90012C0E911122046FFF7C1FF2346E3
:1014E00040F2037218A1174810F074FB184C4FF427
:1014F000E13000900E48094908640846DDE9001211
:10150000C0E911122046FFF7ABFF234640F20372F9
:1015100010A1024810F05EFB1CBD0000100E002060
:1015200000080140000C0140F89F01081400002051
:10153000A49F0108680D00207561727431000000DD
:1015400030000020BC0D0020756172743200000074
:101550004C0000207561727433000000014641297F
:1015600007D2FE4A02EB01100268521C02D1002091
:1015700000E0002070472DE9F04107460D46164671
:10158000E8B2FFF7EBFF04460CB9BDE8F0812EB9D5
:10159000A28991B2A06804F021FD04E0A28991B271
:1015A000A06804F0F0FC00BFEFE72DE9F04107462A
:1015B0000D460026E8B2FFF7D1FF044614B93046C5
:1015C000BDE8F081A28991B2A06804F0C4FB08B91B
:1015D000002600E001263046F2E7F8B507460E4641
:1015E0001446F0B2FFF7BAFF054605B9F8BD012170
:1015F000686802F0AAFBA88980B2ADF8000010204C
:101600008DF8030003208DF802001CB910208DF81E
:1016100003000EE0012C03D104208DF8030008E044
:10162000022C03D148208DF8030002E028208DF819
:1016300003006946A86804F0C9FA00BFD6E702466D
:10164000002106E001208840904201D10846704701
:10165000491C2029F6DB4FF0FF30F8E72DE9F05F59
:1016600083460D4616461F46DDF828804FF0FF34AE
:10167000E8B2FFF773FF8146B9F1000F02D1601F96
:10168000BDE8F09FD9F80C00FFF7D9FF0446002C05
:1016900001DB102C02D36FF00500F1E70AF05AFECF
:1016A000824604EB4400AE4931F92000A84219D12A
:1016B00004EB440001EB80004068B84212D104EB17
:1016C000440001EB80004088B0420BD104EB4400A1
:1016D00001EB80008068404504D150460AF03EFE90
:1016E0000020CDE704EB44009D4931F92000401C67
:1016F00005D050460AF032FE6FF00600C0E728B26F
:1017000004EB4401964A22F8210004EB4400114600
:1017100001EB8000476004EB440102EB81014E8045
:1017200004EB4400114601EB8000C0F808805046ED
:101730000AF014FE0020A3E72DE9F04180460D4693
:101740004FF0FF34E8B2FFF709FF064616B9601FF5
:10175000BDE8F081F068FFF772FF0446002C01DB62
:10176000102C02D36FF00500F2E70AF0F3FD0746F4
:1017700004EB44007A4931F92000401C04D138467A
:101780000AF0ECFD0020E3E74FF0FF3004EB4401EA
:10179000734A22F82100002004EB440102EB81018E
:1017A000486004EB440102EB8101488004EB4401F2
:1017B00002EB8101886038460AF0D0FD0020C7E7BF
:1017C0002DE9FF5F894617464FF0FF3609F0FF000D
:1017D000FFF7C4FE04461CB9701F04B0BDE8F09FBB
:1017E000012F67D1E068FFF72AFF0646002E01DBD4
:1017F000102E02D36FF00500EFE70AF0ABFD834631
:1018000006EB4600564931F92000401C05D15846E8
:101810000AF0A4FD6FF00500DFE706EB4600514932
:1018200001EB80050121606802F08FFAA08980B287
:10183000ADF80C0048208DF80F0003208DF80E0045
:1018400003A9A06804F0C2F9287A8DF808000220E4
:101850008DF809008DF80A0001208DF80B0002A810
:1018600006F0EFF96868009000208DF8040006EBA0
:1018700046003B4901EB8000408820B1012806D09A
:1018800002280CD107E008208DF8050007E00C20A5
:101890008DF8050003E010208DF8050000BF00BFA3
:1018A00001208DF80600684602F082FB58460AF0D7
:1018B00055FD2AE037BBD4F80CA05046FFF7BFFE19
:1018C0008046B8F1000F02DBB8F1100F01D3002001
:1018D00004E008EB4800234901EB8000054615B9F8
:1018E0006FF0050079E76868009000208DF804002B
:1018F00008208DF8050000208DF80600684602F0EB
:1019000057FB02E06FF0050067E7002065E710B5C0
:101910000022154915A00FF057FC0446204610BDC3
:1019200010B5044604EB44010E4A02EB810191F923
:10193000080002F06FFC04EB4400094901EB800051
:101940004068B0B104EB44020B4603EB820290689E
:1019500004EB440203EB8202516809E000A0010895
:101960006800002010A40108D0A4010870696E006E
:10197000884710BD10B508F01DF80020FFF7D0FF14
:1019800008F02FF810BD10B508F014F80120FFF78B
:10199000C7FF08F026F810BD10B508F00BF80220BC
:1019A000FFF7BEFF08F01DF810BD10B508F002F8F3
:1019B0000320FFF7B5FF08F014F810BD10B507F0CD
:1019C000F9FF0420FFF7ACFF08F00BF810BD10B5CD
:1019D00007F0F0FF202002F0D1FB10B10520FFF747
:1019E0009FFF402002F0CAFB10B10620FFF798FFCE
:1019F000802002F0C3FB10B10720FFF791FF4FF4E6
:101A0000807002F0BBFB10B10820FFF789FF4FF494
:101A1000007002F0B3FB10B10920FFF781FF07F05F
:101A2000E0FF10BD10B507F0C5FF4FF4806002F075
:101A3000A5FB10B10A20FFF773FF4FF4006002F01E
:101A40009DFB10B10B20FFF76BFF4FF4805002F0AD
:101A500095FB10B10C20FFF763FF4FF4005002F02C
:101A60008DFB10B10D20FFF75BFF4FF4804002F0BB
:101A700085FB10B10E20FFF753FF4FF4004002F03A
:101A80007DFB10B10F20FFF74BFF07F0AAFF10BD41
:101A900070B586B006460C46356C01A803F007FD0C
:101AA0006078082803DC0020ADF808000AE06078C0
:101AB000102804DC4FF40060ADF8080002E00820B4
:101AC00006B070BD606800F0F6F8ADF81000207840
:101AD00010F0020F03D00220ADF80A0002E000204F
:101AE000ADF80A00207810F0010F03D00120ADF806
:101AF0000C0002E00020ADF80C00207810F0040F7C
:101B000003D00020ADF8120002E08020ADF81200F2
:101B10000020ADF804004FF48270ADF806004FF4D9
:101B20000070ADF80E00E86E03F010FB01A9E86E3E
:101B300003F040FB0121E86E03F0CFFC0021E86ECA
:101B400003F070FE0020BBE72DE9FC5F06460C4663
:101B5000306C019006F144090198C06E0090F56B5D
:101B6000D4F808A0207C10F0010F04D01DB1A98882
:101B7000286804F033FA99F8010008282BDC27685C
:101B8000D4F8048021E04FF0FF0B0FB117F801BB30
:101B900000BF0221009803F0D6FE0028F9D0594674
:101BA000009803F07FFD00BF0121009803F0CBFEF9
:101BB0000028F9D0009803F08AFD00F0FF0BB8F17F
:101BC000000F01D008F801BB00BF5FEA0A00AAF1CC
:101BD000010AD8D12EE099F8010010282ADC2768E4
:101BE000D4F8048020E04FF0FF0B0FB137F802BBB0
:101BF00000BF0221009803F0A6FE0028F9D0594644
:101C0000009803F04FFD00BF0121009803F09BFEF8
:101C10000028F9D0009803F05AFD8346B8F1000F70
:101C200001D028F802BB00BF5FEA0A00AAF1010A4E
:101C3000D9D100BF207CC0F3400020B11DB1A988DC
:101C4000286804F0A0F9A068BDE8FC9F2DE9F041E8
:101C500005460C4616460027B8460121084602F004
:101C600074F83248854205D1E0660121801402F003
:101C70006CF814E02E48854205D1E066012100147D
:101C800002F08CF80BE02B48854205D1E06601217B
:101C9000C01302F083F802E00620BDE8F081264A76
:101CA0003146204610F07AF90746E08A40EA0800FB
:101CB000E0823846F1E70146204A1268B1EB520F44
:101CC00007D31E4A12681E4BB3EB520F01D30020FC
:101CD0002AE01A4A1268B1EB920F01D3082023E0E0
:101CE000164A1268B1EBD20F01D310201CE0134A40
:101CF0001268B1EB121F01D3182015E00F4A1268C9
:101D0000B1EB521F01D320200EE00C4A1268B1EB58
:101D1000921F01D3282007E0084A1268B1EBD21FB6
:101D200001D3302000E0382070470000003001402F
:101D300000380040003C0040280100204001002005
:101D40000051250208B50121052001F0FEFFE02029
:101D5000ADF8000003208DF8020018208DF8030074
:101D60006946594803F032FF58A25A495A48FFF7CA
:101D70006DFF01208DF8020010208DF803005248FD
:101D800056490860102088800121042001F0DDFF01
:101D900052488088ADF80000504A9188106804F0DD
:101DA000F2F84E490868694603F010FF4B4B47A212
:101DB0004BA14D4810F00BF901208DF802001020C6
:101DC0008DF80300404849490860042088800121BB
:101DD00001F0BBFF45488088ADF80000434A918878
:101DE000106804F0D0F841490868694603F0EEFE37
:101DF0003E4B36A23EA1404810F0E9F8002008BD55
:101E000008B50121304804F0BEF8E420ADF8000028
:101E100004208DF8030069462B4803F0D7FE08BD67
:101E200008B50120ADF800008DF8020010208DF8F3
:101E300003006946244803F0C9FE0121224804F04A
:101E4000A2F8FFF77FFF08BD10B5002240212BA0AC
:101E50000BF00CFD0446002C03DA2AA008F09DF9D3
:101E600010BD20460BF031FD2EA008F096F900BF02
:101E7000F6E708B50121042001F067FF0120ADF865
:101E800000008DF8020010208DF8030069460E480E
:101E900003F09CFE01210C4804F075F80220ADF817
:101EA000000028208DF803006946074803F08EFEE5
:101EB0000BA121A010F0A9FD022009F0B9FC0CA192
:101EC0001FA001F046FA08BD000801407370693197
:101ED00000000000640E00200030014030010020AE
:101EE0007370693130000000D40E002038010020EA
:101EF0007370693131000000200F00202F612E74B3
:101F0000787400004F70656E2066696C6520666F9E
:101F100072207772697465206661696C65640D0A68
:101F200000000000726561642F7772697465206437
:101F30006F6E652E0D0A0000773235713634000061
:101F40007364300070B50446216C01F144004FF019
:101F5000FF3106F02AFC054675B9206C806EA04260
:101F60000AD0206C006C04F14401026820469047BE
:101F700005460DB9206C8466284670BD10B586B044
:101F800004460020019002900390059820F0010083
:101F9000401C0590059820F002000590206C006C14
:101FA00001A942682046904706B010BD10B586B022
:101FB00004460020019002900390059820F0010053
:101FC0000590059820F00200801C0590206C006CA4
:101FD00001A942682046904706B010BD2DE9F041A6
:101FE00004460F46E51905F026FF06464FF00008A7
:101FF000A54207D3AE4202D34FF001080BE04FF0E9
:10200000000808E0A64204D2AE4202D34FF0010815
:1020100001E04FF000084046BDE8F081F0B502460F
:102020000B460020002124E0555C00241BE0C0F397
:102030008016C5F3C01796EA070C08D080F004009C
:102040004FEA406C4FEA1C6040F0010003E04FEAA9
:10205000406C4FEA1C6004F1010C0CF0FF044FEAE5
:10206000456C4FEA1C65082CE1DB01F1010C0CF01A
:10207000FF019942D8DBF0BD70B588B0044605F089
:10208000DAFE0546FF20029002A8039001A8049002
:1020900001200590079820F00200C0F3400161F391
:1020A0000000079018E0206C006C03A942682046ED
:1020B00090479DF80400FF2802D1002008B070BDB1
:1020C0004FF47A7005F0DAFE064631462846FFF7EF
:1020D00085FF08B10220F1E7E5E72DE9F04F8BB06D
:1020E00004468A4615461F46DDE91468FF208DF830
:1020F00010004AF040008DF81100280E8DF81200F3
:10210000280C8DF81300280A8DF81400E8B28DF819
:1021100015004FB905210DF11100FFF77FFF0746AC
:10212000012000EB4700C7B28DF81670FF208DF834
:10213000170004A8069002A80790082008900A98A3
:1021400020F00200C0F3400161F300000A90204635
:10215000FFF792FF206C006C06A94268204690476A
:102160004FF001091DE0FF20019001A80690CDF875
:102170001C80012008900A9820F00200C0F3400162
:1021800061F300000A90206C006C06A942682046AA
:10219000904798F8000010F0800F00D104E009F19A
:1021A0000109B9F1090FDED300BFB9F1090F03D15D
:1021B00001200BB0BDE8F08F012E01D10020F8E71F
:1021C000022E2AD105F037FE834625E00020069036
:1021D00001A80790012008900A9820F00200C0F39F
:1021E000400161F300000A90206C006C06A942686F
:1021F000204690479DF80400FF2801D10020D8E731
:102200004FF4FA6005F03AFE014600905846FFF799
:10221000E5FE08B10220CCE7D8E7032E15D1002057
:10222000069008F101000790012008900A9820F01C
:102230000200C0F3400161F300000A90206C006CC2
:1022400006A94268204690471BE0042E01D0072EC5
:1022500015D10020069008F1010007900420089095
:102260000A9820F00200C0F3400161F300000A90D8
:10227000206C006C06A942682046904701E00120CE
:1022800097E7002095E7F0B587B004460D4605F0C6
:10229000D2FD0646FF20019001A80290CDF80CD097
:1022A00001200490069820F00200C0F3400161F381
:1022B0000000069018E0206C006C02A942682046DD
:1022C00090479DF80000A84202D1002007B0F0BD61
:1022D0004FF4487005F0D2FD074639463046FFF707
:1022E0007DFE08B10220F1E7E5E7F0B587B00446CE
:1022F0000D461646FE212046FFF7C5FF074617B1DB
:10230000384607B0F0BD0020029003950496069869
:1023100020F00200C0F3400161F300000690206C41
:10232000006C02A94268204690470020029001A854
:10233000039002200490069820F00200C0F34001B0
:1023400061F300000690206C006C02A942682046F0
:1023500090470020D5E72DE9F0418AB004460D46AC
:1023600016461F461022FF2101A807F08CFB8DF8AE
:10237000137001A80590002006901020079009987E
:1023800020F00200C0F3400161F300000990206CCE
:10239000006C05A9426820469047059500200690EC
:1023A0000796099820F00200C0F3400161F3000095
:1023B0000990206C006C05A942682046904701A84E
:1023C0000590CDF818D003200790099820F002005E
:1023D000C0F3400161F300000990206C006C05A976
:1023E0004268204690479DF8020000F01F08B8F1AF
:1023F000050F03D001200AB0BDE8F0812046FFF7A9
:102400003BFEF8E72DE9F0478CB0804689469246BE
:102410001E464446E06CFFF795FD054605B19FE07A
:1024200008208DF8210004208DF82000606D0990AF
:1024300008A9E06C0FF0F0FD012E20D1E06CFFF751
:102440009DFD0AA80121CDE90010616C01FB09F294
:1024500000231821E06CFFF740FE054615B99DF8F2
:10246000280008B100267BE0FE235146626CE06C38
:10247000FFF771FF0546002D71D000266FE0012E99
:102480006DD9E06CFFF77AFD94F85000012821D057
:102490000AA80121CDE9001000231A463721E06C7B
:1024A000FFF71BFE054615B99DF8280008B1002668
:1024B00056E00AA80121CDE9001000233246172179
:1024C000E06CFFF70AFE054615B99DF8280008B133
:1024D000002645E00AA80121CDE90010616C01FB4E
:1024E00009F200231921E06CFFF7F7FD054615B945
:1024F0009DF8280008B1002632E000270BE0626C4E
:1025000002FB07A1FC23E06CFFF725FF05460DB198
:102510003E4602E07F1CB742F1D300BF1222FF21EA
:10252000684607F0B0FAFD208DF81100CDF814D000
:102530000020069012200790099820F00200C0F3B6
:10254000400161F300000990E06C016C096C4A687D
:1025500005A99047E06CFFF78FFD054600BF00BF5F
:10256000E06CFFF723FDE16C096C01F1440006F01B
:1025700027FA30460CB0BDE8F0872DE9FF478046CA
:10258000894692461D4644460026E06CFFF7DAFC79
:10259000064606B162E008208DF8010004208DF89F
:1025A0000000606D01906946E06C0FF035FD012D73
:1025B0001FD1E06CFFF7E2FC02A80121CDE9001079
:1025C000616C01FB09F200231121E06CFFF785FD2E
:1025D000064616B99DF8080008B100253EE05146B0
:1025E000626CE06CFFF781FE0646002E35D00025B8
:1025F00033E0012D31D9E06CFFF7C0FC02A80121C6
:10260000CDE90010616C01FB09F200231221E06C9E
:10261000FFF763FD064616B99DF8080008B10025CE
:102620001CE000270AE0626C02FB07A1E06CFFF7E8
:102630005CFE06460EB13D4602E07F1CAF42F2D37F
:1026400000BF02A80221CDE9001000231A460C2188
:10265000E06CFFF742FD064600BF00BFE06CFFF7ED
:10266000A5FCE16C096C01F1440006F0A9F92846CB
:1026700004B0BDE8F0872DE9F0478CB080468A466B
:1026800091461E464446E06CFFF75CFC054605B1EA
:1026900097E008208DF8210004208DF82000606D5F
:1026A000099008A9E06C0FF0B7FC012E1ED1E06C78
:1026B000FFF764FC0AA80121CDE90010002352466F
:1026C0001821E06CFFF709FD054615B99DF82800B3
:1026D00008B1002675E0FE234946626CE06CFFF706
:1026E0003AFE0546002D6BD0002669E0012E67D921
:1026F000E06CFFF743FC0AA80121CDE9001000239C
:102700001A463721E06CFFF7E8FC054615B99DF83D
:10271000280008B1002654E00AA80121CDE90010E4
:10272000002332461721E06CFFF7D7FC054615B9A8
:102730009DF8280008B1002643E00AA80121CDE950
:102740000010002352461921E06CFFF7C6FC054635
:1027500015B99DF8280008B1002632E000270BE0EB
:10276000626C02FB0791FC23E06CFFF7F4FD054669
:102770000DB13E4602E07F1CB742F1D300BF1222EA
:10278000FF21684607F07FF9FD208DF81100CDF894
:1027900014D00020069012200790099820F0020023
:1027A000C0F3400161F300000990E06C016C096C1A
:1027B0004A6805A99047E06CFFF75EFC054600BF3C
:1027C00000BFE06CFFF7F2FBE16C096C01F1440023
:1027D00006F0F6F830460CB0BDE8F0872DE9FF476B
:1027E00080468A4691461D4644460026E06CFFF727
:1027F000A9FB064606B15EE008208DF80100042022
:102800008DF80000606D01906946E06C0FF004FCEB
:10281000012D1DD1E06CFFF7B1FB02A80121CDE92C
:102820000010002352461121E06CFFF756FC0646CB
:1028300016B99DF8080008B100253CE04946626CD5
:10284000E06CFFF752FD0646002E33D0002531E044
:10285000012D2FD9E06CFFF791FB02A80121CDE9F2
:102860000010002352461221E06CFFF736FC0646AA
:1028700016B99DF8080008B100251CE000270AE001
:10288000626C02FB0791E06CFFF72FFD06460EB16C
:102890003D4602E07F1CAF42F2D300BF02A80221F6
:1028A000CDE9001000231A460C21E06CFFF715FC5F
:1028B000064600BF00BFE06CFFF778FBE16C096CD7
:1028C00001F1440006F07CF8284604B0BDE8F0872A
:1028D00001B5AAB02A982990002026902998C06CAA
:1028E00010B908202BB000BD08208DF88900042005
:1028F0008DF88800F74823902998C06C22A9219070
:102900000FF08AFB2998C06C1E90FFF71BFB2690E6
:10291000269800B10FE22998C06C1E90FFF746FB85
:10292000FF22642106A815F077FF06A81F9000205B
:10293000209064202190239820F00200C0F34001F1
:1029400061F3000023902998C06C05902998C06C11
:10295000006C006C40681FA90490DDE904209047DA
:1029600005F069FA25902AE02998C06C1E90FFF7BF
:1029700005FB27A80121CDE900102998C06C9523FB
:10298000002211461E90FFF7A8FB26902998C06CE4
:102990001E90FFF70BFB269820B99DF89C0001289C
:1029A00000D10DE040F6B83005F068FA01461E90FF
:1029B0002598FFF713FB10B102202690AAE7D3E772
:1029C00000BF05F038FA259000BF2998C06C1E9012
:1029D000FFF7D4FA27A80721CDE900102998C06C89
:1029E00087234FF4D57208211E90FFF776FB2690BF
:1029F0002998C06C1E90FFF7D9FA2698B8B99DF8AF
:102A00009C0010F0040F04D00221299880F8501087
:102A10001DE00321299880F850109DF8A000AA28F5
:102A200011D19DF89F0070B90120269072E7C8204F
:102A300005F024FA01461E902598FFF7CFFA10B151
:102A40000220269066E79DF8A000AA28BDD100BF0D
:102A5000299890F85000022876D100201E90AEE010
:102A60002998C06C1C90FFF789FA27A80421CDE9AA
:102A700000102998C06C00231A463A211C90FFF7D9
:102A80002CFB2690269828B12998C06C1C90FFF743
:102A90008DFA3FE79DF89C0010F0FE0F05D02998B5
:102AA000C06C1C90FFF782FA8AE02998C06C1C90D9
:102AB000FFF77CFA9DF89D0024909DF89E102498C5
:102AC00001EB002024909DF89F10249801EB00203A
:102AD00024909DF8A010249801EB002024902498C5
:102AE00010F4004F02D101202690EBE305F0A3F98A
:102AF0001D9061E04FF4487005F0C0F901461C904C
:102B00001D98FFF76BFA28B12998C06C1C90FFF74D
:102B10004DFA52E02998C06C1C90FFF72FFA27A8B5
:102B20000121CDE900102998C06C00231A463721F5
:102B30001C90FFF7D2FA2690269830B12998C06CE5
:102B40001C90FFF733FA37E0D7E09DF89C0010F0B7
:102B5000FE0F05D02998C06C1C90FFF727FA2CE0D7
:102B600027A80121CDE900102998C06C00231A463E
:102B700029211C90FFF7B1FA2690269828B12998B0
:102B8000C06C1C90FFF712FA16E09DF89C0010F044
:102B9000FE0F05D02998C06C1C90FFF707FA0CE0D7
:102BA0009DF89C0038B92998C06C1C90FFF7FEF97D
:102BB00001201E9001E000BF9CE700BF00E04FE74E
:102BC00000BF1E9801287DD02998C06C1B90FFF78C
:102BD000EDF9FF22642103A815F01EFE03A81F9043
:102BE0000020209064202190239820F00200C0F360
:102BF000400161F30000239000201C900FE0299811
:102C0000C06C02902998C06C006C006C40681FA9D1
:102C10000190DDE9012090471C98401C1C901C98F5
:102C20000A28ECD305F007F91D902AE02998C06C1A
:102C30001B90FFF7A3F927A90120CDE900012998EE
:102C4000C06C9523002211461B90FFF746FA269090
:102C50002998C06C1B90FFF7A9F9269820B99DF818
:102C60009C00012800D10DE040F6B83005F006F9CF
:102C700001461B901D98FFF7B1F910B10220269074
:102C800020E3D3E700BF05F0D6F81D9031E0299886
:102C9000C06C1B90FFF772F927A80121CDE9001045
:102CA0002998C06C00231A461B90FFF716FA26904D
:102CB0002998C06C1B90FFF779F9269860B99DF8A8
:102CC0009C0000E018E038B90121299880F85010E4
:102CD00010E00000801A060040F6B83005F0CEF88B
:102CE00001461B901D98FFF779F910B1022026903C
:102CF000E8E2CCE700BF00BF02E1299890F850005D
:102D0000032877D12998C06C1E90FFF737F927A8C0
:102D10000421CDE900102998C06C00231A463A21FD
:102D20001E90FFF7DAF92690269828B12998C06CF2
:102D30001E90FFF73BF9C5E29DF89C0010F0FE0FD6
:102D400007D02998C06C1E90FFF730F9012026901B
:102D5000B8E22998C06C1E90FFF728F99DF89D00F5
:102D600024909DF89E10249801EB002024909DF85B
:102D70009F10249801EB002024909DF8A010249827
:102D800001EB00202490249810F4004F02D1012080
:102D9000269097E205F04FF8259000BF2998C06C67
:102DA0001E90FFF7EBF84FF4487005F067F8014606
:102DB0001E902598FFF712F938B12998C06C1E9023
:102DC000FFF7F4F8012026907CE227A80121CDE945
:102DD00000102998C06C6523002237211E90FFF750
:102DE0007CF92690269830B12998C06C1E90FFF788
:102DF000DDF82FE081E09DF89C0010F0FE0F07D079
:102E00002998C06C1E90FFF7D1F80120269059E256
:102E100027A80121CDE900102998C06C77238A07E3
:102E200029211E90FFF759F92690269838B1299844
:102E3000C06C1E90FFF7BAF80120269042E29DF880
:102E40009C0010F0FE0F04D02998C06C1E90FFF774
:102E5000ADF800BF9DF89C0000289FD12998C06C58
:102E60001E90FFF7A3F82998C06C1E90FFF786F814
:102E700027A80421CDE900102998C06C00231A4628
:102E80003A211E90FFF729F92690269828B1299813
:102E9000C06C1E90FFF78AF814E29DF89C0010F0B9
:102EA000FE0F07D02998C06C1E90FFF77FF8012015
:102EB000269007E22998C06C1E90FFF777F89DF8DE
:102EC0009D0024909DF89E10249801EB00202490F2
:102ED0009DF89F10249801EB002024909DF8A010ED
:102EE000249801EB00202490249810F0804F07D004
:102EF0000421299880F8501002E001202690E1E199
:102F0000299890F85000042806D1F7492A980163BF
:102F1000F6492A98416305E0F5492A980163F54985
:102F20002A9841632998C06C2390FFF73FF82998AD
:102F3000C06C2390FFF722F827A80121CDE90010EB
:102F40002998C06C912300223B212390FFF7C5F8FC
:102F500026902998C06C2390FFF728F8269810B97E
:102F60009DF89C0010B101202690ABE12998C06C1F
:102F70002390FFF71BF82998C06C2390FEF7FEFF03
:102F800027A80121CDE900102998C06C00234A022E
:102F900010212390FFF7A1F826902998C06C239068
:102FA000FFF704F8269810B99DF89C0010B1012095
:102FB000269087E14FF40071299881642998416433
:102FC0002998C06C1F90FEF7D9FF27A80121CDE9F1
:102FD00000102998C06C00231A4609211F90FFF7A2
:102FE0007CF82690269828B12998C06C1F90FEF78F
:102FF000DDFF67E1269810B99DF89C0038B129984B
:10300000C06C1F90FEF7D2FF012026905AE129984C
:10301000C06C102220A91F90FFF767F9269029980D
:10302000C06C1F90FEF7C2FF269800B14AE19DF8E0
:10303000800000F0C0001C901C9880111F902998FF
:1030400090F8500001287DD11F98022802DD012050
:10305000269037E11F9818B11F98012800D000BFB3
:103060009DF883001C901C9800F003001C901C9895
:1030700018B9A1492998416513E01C98012803D18A
:103080009E49299841650CE01C98022803D19C496F
:103090002998416505E01C98032802D1994929988F
:1030A00041659DF8850000F00F001C901C98189059
:1030B0009DF8860000F003001B904FF6FF711B98EF
:1030C00001EA00201B909DF887101B9808441B9074
:1030D0004FF6FF711B9801EA80001B909DF8880055
:1030E00000F0C0001C901C9880111C90DDE91B01B1
:1030F00008441B901B981E909DF8890000F0030067
:103100001C901C9840001C909DF88A101C9800EBA5
:10311000D1101C901C981990012118988140199881
:10312000801C012282401E98401C424301FB02F099
:103130001D902998416C1D98B0FBF1F1299801640C
:10314000B0E0FFE71F98E8BB9DF883001C901C9837
:10315000322803D16A492998416509E01C985A2808
:1031600003D169492998416502E06449299841657C
:103170009DF8850000F00F001C901C9818909DF899
:10318000860000F003001B904FF6FF711B9801EAC8
:1031900000201B909DF887101B9808441B904FF649
:1031A000FF711B9801EA80001B909DF8880000F0D9
:1031B000C0001C901C9880111C90DDE91B01084484
:1031C0001B9000E026E01B981E909DF8890000F0FF
:1031D00003001C901C9840001C909DF88A101C98BD
:1031E00000EBD1101C901C98199001211898814077
:1031F0001998801C012282401E98401C424301FB0A
:1032000002F01D902998416C1D98B0FBF1F12998AE
:10321000016447E01F98012841D19DF883001C906C
:103220001C98322803D136492998416517E01C982B
:103230005A2803D134492998416510E01C980B287D
:1032400003D130492998416509E01C982B2803D106
:103250002E492998416502E02849299841659DF841
:10326000870000F03F001A901A9800021A909DF80B
:1032700088101A9808441A901A9800021A909DF81B
:1032800089101A9808441A901A981E901E98401C8B
:1032900040081D901D9881022998016402E00120D8
:1032A00026900FE008208DF8890004208DF8880012
:1032B0002998406D23902998C06C22A921900EF086
:1032C000ABFE00BF2998C06C2390FEF76FFE2998D3
:1032D000C06C006C4430239005F072FB2698FFF719
:1032E00001BB024600207047DD2700087726000852
:1032F0007B25000805240008A086010040420F003D
:103300008096980000E1F50580F0FA0200C2EB0B10
:103310000146002070472DE9F04105460F4616464C
:103320002C462DB940F26562264927A007F015F812
:10333000102F0CD1314619B94FF0FF30BDE8F081A4
:10334000606C4860A06C8860206C086000BF002042
:10335000F4E72DE9F04104460D460027284604F025
:10336000C1FD064616B9B81FBDE8F08158220021FC
:10337000194806F088FB1848C664012016490875EC
:1033800000211548416400201349086400211248B7
:103390008164124810494862114888621148C86225
:1033A000002008634863104888630020C863C86130
:1033B00008620F222146084804F0BAFD0746384645
:1033C000D2E70000E8A4010864657620213D205280
:1033D000545F4E554C4C00005C100020D128000872
:1033E000E3320008113300081733000808B5012143
:1033F000102000F0AAFC10208DF8030001208DF8A9
:1034000002000002ADF800006946584802F0DEFBF9
:103410004021564802F0B7FD8020ADF80000694613
:10342000524802F0D3FB4021504802F0ACFD40204E
:10343000ADF8000069464D4802F0C8FB40214B48FA
:1034400002F0A1FD4FF40070ADF800006946474856
:1034500002F0BCFB4021454802F095FD08BD10B5C7
:103460000446092C6ED2DFE804F06D05121F2C39DA
:103470004653600040213D4802F085FD40213B4815
:1034800002F081FD4021394802F07DFD5BE04021E2
:10349000364802F0A3FD4021344802F074FD40217B
:1034A000324802F070FD4EE04021304802F06BFDE2
:1034B00040212E4802F092FD40212C4802F063FD8D
:1034C00041E04021294802F089FD4021274802F0CF
:1034D00085FD4021254802F056FD34E04021234877
:1034E00002F051FD4021214802F04DFD40211F48CE
:1034F00002F074FD27E040211C4802F06FFD4021DE
:103500001A4802F040FD4021184802F067FD1AE019
:103510004021164802F037FD4021144802F05EFDBC
:103520004021124802F05AFD0DE040210F4802F000
:1035300055FD40210D4802F051FD40210B4802F09D
:103540004DFD00E000BF00BF012008F071F94021EF
:10355000064802F043FD10BD10B54021034802F0BB
:1035600012FD642008F064F910BD00000010014055
:103570000CB50020019000906B48006840F480304A
:103580006949086000BF6848006800F40030009096
:103590000198401C0190009818B90198B0F5A06FEF
:1035A000F1D16148006810F4003F02D00120009082
:1035B00001E0002000900098012842D15B4800689B
:1035C00040F01000594908600846006820F00300E8
:1035D00008600846006840F00200086052484068F1
:1035E000514948600846406848600846406840F4D1
:1035F000806048600846406820F47C1048600846B7
:10360000406840F4E81048600846006840F0807068
:10361000086000BF4448006810F0007FFAD04248BC
:10362000406820F00300404948600846406840F088
:103630000200486000BF3C48406800F00C000828C9
:10364000F9D10CBD10B5FFF793FF10BD10B536488A
:10365000006840F001003449086008464068344979
:1036600008403149486008460068324908402E4900
:1036700008600846006820F480200860084640681A
:1036800020F4FE0048604FF41F008860FFF7DAFF67
:103690004FF000602849086010BD10B500210020DF
:1036A0000022214B5B6803F00C0121B1042906D0F4
:1036B000082928D107E0214B214C236027E01F4B2C
:1036C0001F4C236023E0184B5B6803F47010164B0B
:1036D0005B6803F48032022303EB904022B9194B5C
:1036E0004343174C23600DE00F4B5B6813F4003F1E
:1036F00004D0144B4343124C236003E00F4B43436D
:103700000F4C236003E00D4B0D4C236000BF00BF46
:10371000054B5B68C3F303130B4CE15C084B1B6860
:10372000CB40074C236010BD001002400020024037
:103730000000FFF8FFFFF6FE08ED00E000127A003F
:103740004001002000093D0044010020FE480068BF
:1037500040F00100FC49086008464068FB49084009
:10376000F949486008460068F9490840F649086088
:103770000846006820F4802008600846406820F46D
:10378000FE0048604FF41F008860704710B5044683
:103790002CB1B4F5803F02D0B4F5802F00D104E005
:1037A00040F21111EBA0FCF7A9FDE748006820F4F6
:1037B0008030E54908600846006820F480200860F1
:1037C000B4F5803F03D0B4F5802F0ED106E0DE487B
:1037D000006840F48030DC49086007E0DA4800689F
:1037E00040F4A020D849086000E000BF00BF10BD31
:1037F0002DE9F0410446002500260027212C13D096
:10380000312C11D0392C0FD0412C0DD0612C0BD084
:103810007A2C09D07B2C07D07C2C05D07D2C03D0B2
:103820007E2C01D07F2C00D104E040F23451C9A09D
:10383000FCF764FD6511012D02D1C348066806E05E
:10384000022D02D1C048066A01E0BF48466A04F072
:103850001F050120A840304201D0012700E00027C9
:103860003846BDE8F08138B50020009000240025DE
:1038700000BF3120FFF7BCFF05460098401C0090B8
:103880000098B0F5A06F01D0002DF2D03120FFF7E5
:10389000AFFF08B1012400E00024204638BD70B518
:1038A000044600251F2C00DC04E04FF4A971A9A0F8
:1038B000FCF724FDA448056825F0F80545EAC40591
:1038C000056070BD10B504460CB1012C00D104E0B8
:1038D00040F265119FA0FCF711FDAD48046010BDDA
:1038E00070B505460C4600262DB1B5F5803F02D0D7
:1038F000B5F5403F00D104E040F27F1195A0FCF700
:10390000FDFC4CB3B4F5802F26D0B4F5002F23D0A6
:10391000B4F5402F20D0B4F5801F1DD0B4F5A01F02
:103920001AD0B4F5C01F17D0B4F5E01F14D0B4F509
:10393000001F11D0B4F5101F0ED0B4F5201F0BD00E
:10394000B4F5301F08D0B4F5401F05D0B4F5501FB2
:1039500002D0B4F5601F00D104E04FF4C0717DA027
:10396000FCF7CCFC7848466826F47C1645EA04004F
:1039700006437548466070BD10B504460CB1012C75
:1039800000D104E04FF4CA7172A0FCF7B7FC804884
:10399000046610BD70B5044600251CB1012C01D091
:1039A000022C00D104E04FF40E716AA0FCF7A6FCD3
:1039B0006548456825F003052543456070BD6248AC
:1039C000406800F00C00704770B5044600257CB1DB
:1039D000802C0DD0902C0BD0A02C09D0B02C07D06F
:1039E000C02C05D0D02C03D0E02C01D0F02C00D17D
:1039F00004E04FF4197157A0FCF780FC5248456869
:103A000025F0F0052543456070BD70B504460025DE
:103A10005CB1B4F5806F08D0B4F5A06F05D0B4F5F3
:103A2000C06F02D0B4F5E06F00D104E040F27E2117
:103A300048A0FCF763FC4448456825F4E06525434D
:103A4000456070BD70B5044600255CB1B4F5806F6B
:103A500008D0B4F5A06F05D0B4F5C06F02D0B4F5AE
:103A6000E06F00D104E04FF426713AA0FCF746FC69
:103A70003548456825F4605545EAC405456070BD84
:103A800070B504460D4614F0E00F01D104B104E016
:103A900040F2BF212FA0FCF731FC0DB1012D00D168
:103AA00004E04FF430712BA0FCF728FC2DB1264820
:103AB000407A20432449487204E02348407AA043D6
:103AC0002149487270BD10B504460CB1012C00D1DB
:103AD00004E040F2DB211FA0FCF710FC2D4804603D
:103AE00010BD70B50446002544B1B4F5804F05D033
:103AF000B4F5004F02D0B4F5404F00D104E040F2DD
:103B0000023114A0FCF7FAFB0F48456825F4404544
:103B10002543456070BD10B504461CB1012C01D091
:103B2000042C00D104E04FF450710AA0FCF7E6FB2E
:103B3000002019490870044981F82000012C2DD07B
:103B4000042C33D12EE00000001002400000FFF8EA
:103B5000FFFFF6FE4C69627261726965735C5354D3
:103B60004D3332463130785F5374645065726970FA
:103B7000685F4472697665725C7372635C73746DBE
:103B80003332663130785F7263632E630000000069
:103B900000004242D8004242201002400120F44975
:103BA000087004E00520F249087000E000BF00BF83
:103BB00010BD10B504460CB1012C00D105E040F257
:103BC0006131AFF27000FCF799FBEA48046010BD68
:103BD00010B50446B4F5807F05D0B4F5007F02D05F
:103BE000B4F5407F00D105E040F27231AFF29C00A5
:103BF000FCF784FBDE482038006A2043DC4920398A
:103C0000086210BD10B504460CB1012C00D105E0CE
:103C10004FF46071AFF2C400FCF770FBD548443834
:103C2000046010BD30B50021002200240023D04DD7
:103C3000203D6D6805F00C0121B1042905D008294B
:103C400026D105E0CC4D056025E0CB4D056022E096
:103C5000C74D203D6D6805F47012C54D203D6D685F
:103C600005F48034022505EB92421CB9C34D55433F
:103C700005600CE0BE4D203D6D6815F4003F03D09B
:103C8000BE4D5543056002E0BB4D5543056002E063
:103C9000B94D056000BF00BFB54D203D6D6805F012
:103CA000F0010909B64D6B5C0568DD404560B04D1B
:103CB000203D6D6805F4E061090AB14D6B5C456813
:103CC000DD408560AA4D203D6D6805F46051C90A4C
:103CD000AB4D6B5C4568DD40C560A54D203D6D6812
:103CE00005F44041890BA74D6B5CC568B5FBF3F546
:103CF000056130BD70B504460D4640F2575034EAB8
:103D0000000001D104B105E040F22B41AFF2BC103C
:103D1000FCF7F4FA0DB1012D00D105E040F22C4181
:103D2000AFF2D010FCF7EAFA3DB191482038406973
:103D300020438F492039486106E08D48203840698A
:103D4000A0438B492039486170BD70B504460D46CB
:103D50008D48044201D104B105E040F24A41AFF27E
:103D60000C20FCF7CBFA0DB1012D00D105E040F29B
:103D70004B41AFF22020FCF7C1FA3DB17C4820381E
:103D8000806920437A492039886106E078482038E4
:103D90008069A04376492039886170BD70B50446BA
:103DA0000D467A48044201D104B105E040F2694170
:103DB000AFF26020FCF7A2FA0DB1012D00D105E0B1
:103DC00040F26A41AFF27420FCF798FA3DB16848BE
:103DD0002038C069204366492039C86106E064483C
:103DE0002038C069A04362492039C86170BD70B5F0
:103DF00004460D466448044201D104B105E040F296
:103E0000A441AFF2B020FCF779FA0DB1012D00D139
:103E100005E040F2A541AFF2C420FCF76FFA3DB1D6
:103E200053482038C068204351492039C86006E013
:103E30004F482038C068A0434D492039C86070BD44
:103E400070B504460D465148044201D104B105E065
:103E500040F2C341AFF20430FCF750FA0DB1012D2E
:103E600000D105E040F2C441AFF21830FCF746FA49
:103E70003DB13F482038006920433D492039086161
:103E800006E03B4820380069A043394920390861E1
:103E900070BD10B504460CB1012C00D105E04FF403
:103EA0009B61AFF25030FCF729FA32484038046089
:103EB00010BD10B504460CB1012C00D105E040F254
:103EC000E541AFF27030FCF719FA3148C46410BD17
:103ED00010B504463CB1052C05D0042C03D0062CAB
:103EE00001D0072C00D105E040F20551AFF29C3023
:103EF000FCF704FA1E482038C47110BD1C48203855
:103F0000406A40F080701A4920394862704770B5A5
:103F100004460025012C09D0022C07D0042C05D022
:103F2000082C03D0102C01D0802C00D105E040F2E9
:103F30007E51AFF2E030FCF7E1F90D48203880689F
:103F4000204201D0012500E00025284670BD10B5B3
:103F5000044614F0600F01D104B105E040F2AB510A
:103F6000AFF21040FCF7CAF901482038847210BD46
:103F7000201002408004424200127A0000093D00F5
:103F800054010020640100200200C0FF00360181BE
:103F9000000042420020A7490860091D0860091D71
:103FA0000860091D0860A448A249143108607047E0
:103FB00070B504460025207910B12079042800D17D
:103FC00003E06A219DA0FCF799F96079082805D0E3
:103FD00060790C2802D06079102800D103E06B21B1
:103FE00096A0FCF78BF92068000D000502D120682F
:103FF00000B103E06C2191A0FCF780F9A07910B129
:10400000A079012800D103E06D218CA0FCF776F99E
:10401000884DA07990B328460068216888432946D6
:104020000860081D006821688843291D0860207900
:10403000054428682168084328607E4808300068E5
:10404000216888437B4908310860081D00682168A1
:10405000884378490C310860607910280FD1081F17
:10406000006821680843734908310860081D00682A
:10407000216808436F490C3108600EE007E06D4D80
:1040800060790544286821680843286005E02079A4
:104090000544286821688843286070BD00210160BC
:1040A00001710C21417100218171704710B50446E6
:1040B000200D000501D104B103E0AE215FA0FCF7A3
:1040C0001DF95C481030006820435A4910310860DF
:1040D00010BD70B504460025012C31D0022C2FD024
:1040E000042C2DD0082C2BD0102C29D0202C27D0FC
:1040F000402C25D0802C23D0B4F5807F20D0B4F57F
:10410000007F1DD0B4F5806F1AD0B4F5006F17D0C2
:10411000B4F5805F14D0B4F5005F11D0B4F5804FD2
:104120000ED0B4F5004F0BD0B4F5803F08D0B4F5F5
:10413000003F05D0B4F5802F02D0B4F5002F00D198
:1041400003E0BE213DA0FCF7D9F83A4814300068DE
:10415000204201D0012500E00025284670BD10B5A1
:104160000446200D000501D104B103E0D42133A0A1
:10417000FCF7C4F82F481430046010BD70B5044635
:1041800000250026012C31D0022C2FD0042C2DD05C
:10419000082C2BD0102C29D0202C27D0402C25D017
:1041A000802C23D0B4F5807F20D0B4F5007F1DD0C3
:1041B000B4F5806F1AD0B4F5006F17D0B4F5805FF6
:1041C00014D0B4F5005F11D0B4F5804F0ED0B4F523
:1041D000004F0BD0B4F5803F08D0B4F5003F05D0B8
:1041E000B4F5802F02D0B4F5002F00D103E0E52113
:1041F00012A0FCF783F80F48006800EA04060D4897
:1042000014300068204202D00EB1012500E00025E4
:10421000284670BD10B50446200D000501D104B13B
:1042200003E0FC2105A0FCF769F8024814300460A3
:1042300010BD000000040140FFFF0F004C696272D6
:1042400061726965735C53544D3332463130785F27
:104250005374645065726970685F44726976657200
:104260005C7372635C73746D3332663130785F6592
:104270007874692E6300000010B50446F948844242
:1042800005D0F948844202D0F848844200D103E0C6
:10429000B621F7A0FCF732F8F248844208D1012198
:1042A0004015FFF7A4FD00216015FFF7A0FD17E002
:1042B000ED48844208D101210015FFF798FD002147
:1042C0002015FFF794FD0BE0E848844208D1012156
:1042D000C803FFF78CFD00214FF40040FFF787FD76
:1042E00010BD2DE9F04105460C4600260027DD48AB
:1042F000854205D0DC48854202D0DC48854200D1A9
:1043000003E0DF21DAA0FBF7F9FF206818B320688B
:10431000B0F5803F1FD02068B0F5003F1BD020686B
:10432000B0F5403F17D02068B0F5802F13D020683B
:10433000B0F5A02F0FD02068B0F5C02F0BD02068AB
:10434000B0F5E02F07D02068B0F5002F03D020682B
:10435000B0F5102F00D103E0E021C5A0FBF7CEFFA0
:10436000207910B12079012800D103E0E121C0A01B
:10437000FBF7C4FF607910B16079012800D103E038
:10438000E221BBA0FBF7BAFFA06888B3A068B0F534
:10439000003F2DD0A068B0F5802F29D0A068B0F5DF
:1043A000C02F25D0A068B0F5002F21D0A068B0F5AF
:1043B000202F1DD0A068B0F5402F19D0A068B0F50F
:1043C000602F15D0A06898B1A068B0F5003F0FD05D
:1043D000A068B0F5C02F0BD0A068B0F5002F07D0B3
:1043E000A068B0F5202F03D0A068B0F5402F00D111
:1043F00003E0E3219EA0FBF781FFE06818B1E068CD
:10440000B0F5006F00D103E0E42199A0FBF776FF3F
:10441000207C012803DB207C102800DC03E0E52160
:1044200093A0FBF76BFF6E68A048064021792068D7
:1044300040EA012006436E60AE689D480640D4E91C
:1044400002100843617940EA41000643AE60EE6A1B
:1044500026F47006207C401EC0B2074346EA075689
:10446000EE62BDE8F081002101600171417181605F
:10447000C16001210174704770B504460D4679484A
:10448000844205D07848844202D07848844200D1E2
:1044900004E04FF4977176A0FBF730FF0DB1012DCA
:1044A00000D104E040F22F1171A0FBF727FF25B1E6
:1044B000A06840F00100A06003E0A06820F00100C7
:1044C000A06070BD70B504460D466648844202D0B7
:1044D0006648844200D104E040F2471164A0FBF733
:1044E0000DFF0DB1012D00D104E04FF4A47160A0C7
:1044F000FBF704FF25B1A06840F48070A06003E0E2
:10450000A06820F48070A06070BD2DE9F0410446E1
:104510000D46164600275348844205D0524884422F
:1045200002D05248844200D104E040F2651150A00C
:10453000FBF7E4FE0EB1012E00D104E04FF4B3719D
:104540004BA0FBF7DBFE4FF61F00054201D105B182
:1045500004E040F2671146A0FBF7D0FEEFB21EB1B7
:1045600060683843606002E06068B8436060BDE83E
:10457000F08110B504463B48844205D03A48844255
:1045800002D03A48844200D104E04FF4BF7138A011
:10459000FBF7B4FEA06840F00800A06010BD70B545
:1045A000044600252F48844205D02F48844202D07B
:1045B0002E48844200D104E04FF4C6712CA0FBF7D2
:1045C0009DFEA06810F0080F01D0012500E0002535
:1045D000284670BD10B504462248844205D02248C2
:1045E000844202D02148844200D104E04FF4D271C9
:1045F0001FA0FBF783FEA06840F00400A06010BD80
:1046000070B5044600251748844205D016488442F8
:1046100002D01648844200D104E04FF4D97114A0AE
:10462000FBF76CFEA06810F0040F01D0012500E03C
:104630000025284670BD70B504460D4609488442E1
:1046400005D00948844202D00848844200D104E0E1
:104650004FF4E67106A0FBF751FE0DB1012D29D1F3
:104660002EE000000024014000280140003C0140F1
:104670004C69627261726965735C53544D333246A2
:104680003130785F5374645065726970685F44724A
:10469000697665725C7372635C73746D3332663114
:1046A00030785F6164632E6300000000FFFEF0FF5E
:1046B000FDF7F1FF40F2CD11AFF24C00FBF71EFE0B
:1046C00025B1A06840F4A000A06003E0A06820F439
:1046D000A000A06070BD70B504460025FE4884426D
:1046E00005D0FE48844202D0FD48844200D105E056
:1046F00040F2E511AFF28800FBF700FEA06810F46D
:10470000800F01D0012500E00025284670BD2DE96D
:10471000F04104460D4600260027EF48844205D0AC
:10472000EE48844202D0EE48844200D105E040F2D7
:104730000221AFF2C400FBF7E1FD012D02DB082DE1
:1047400000DC05E040F20321AFF2DC00FBF7D6FD10
:10475000666826F460466F1E46EA47366660BDE826
:10476000F08170B504460D46DB48844205D0DB4835
:10477000844202D0DA48844200D105E040F21B2195
:10478000AFF21410FBF7BAFD0DB1012D00D105E019
:104790004FF40771AFF22810FBF7B0FD25B1606848
:1047A00040F40060606003E0606820F400606060D6
:1047B00070BD2DE9F04706460C4617469846002581
:1047C000A946C548864205D0C448864202D0C4489E
:1047D000864200D105E040F25221AFF26C10FBF7A7
:1047E0008DFD0CB3012C1FD0022C1DD0032C1BD02F
:1047F000042C19D0052C17D0062C15D0072C13D05B
:10480000082C11D0092C0FD00A2C0DD00B2C0BD05A
:104810000C2C09D00D2C07D00E2C05D00F2C03D05A
:10482000102C01D0112C00D105E040F25321AFF241
:10483000C010FBF763FD012F02DB102F00DC05E049
:104840004FF41571AFF2D810FBF758FDB8F1000F17
:1048500014D0B8F1010F11D0B8F1020F0ED0B8F199
:10486000030F0BD0B8F1040F08D0B8F1050F05D035
:10487000B8F1060F02D0B8F1070F00D105E040F201
:104880005521AFF21420FBF739FD092C13DDF56833
:10489000A4F10A0000EB4001072000FA01F925EA23
:1048A0000905A4F10A0000EB400008FA00F945EA06
:1048B0000905F5600EE0356904EB4401072000FAB4
:1048C00001F925EA090504EB440008FA00F945EA74
:1048D00009053561072F11DA756B781E00EB800131
:1048E0001F2000FA01F925EA0905781E00EB800077
:1048F00004FA00F945EA0905756326E00D2F11DA7F
:10490000356BF81F00EB80011F2000FA01F925EA42
:104910000905F81F00EB800004FA00F945EA0905D3
:10492000356312E0F56AA7F10D0000EB80011F204E
:1049300000FA01F925EA0905A7F10D0000EB800056
:1049400004FA00F945EA0905F562BDE8F08770B59B
:1049500004460D466048844205D06048844202D037
:104960005F48844200D105E040F2B121AFF200304F
:10497000FBF7C4FC0DB1012D00D105E040F2B221DE
:10498000AFF21430FBF7BAFC25B1A06840F48010F8
:10499000A06003E0A06820F48010A06070BD10B596
:1049A00004464D48844205D04C48844202D04C48CD
:1049B000844200D105E040F2C721AFF24C30FBF752
:1049C0009DFCE06C80B210BD43484C3000687047DD
:1049D00070B504460D464048844205D03F488442A5
:1049E00002D03F48844200D105E040F2E121AFF21D
:1049F0008030FBF783FC0DB1012D00D105E040F2C2
:104A0000E221AFF29430FBF779FC25B1606840F405
:104A10008060606003E0606820F48060606070BD6A
:104A200070B504460D462C48844205D02B4884427C
:104A300002D02B48844200D105E040F2FB21AFF2C6
:104A4000D030FBF75BFC0DB1012D00D105E04FF438
:104A50003F71AFF2E430FBF751FC25B1606840F4E0
:104A60008050606003E0606820F48050606070BD3A
:104A700070B505460C4600261748854205D01748F4
:104A8000854202D01648854200D105E040F223312C
:104A9000AFF22440FBF732FC54B3B4F5805F27D06B
:104AA000B4F5005F24D0B4F5405F21D0B4F5804F59
:104AB0001ED0B4F5A04F1BD0B4F5C04F18D0B4F53C
:104AC000E04F15D0B4F5005F12D0B4F5405F0FD0C1
:104AD000B4F5804F0CD005E00024014000280140CF
:104AE000003C0140B4F5A04F02D0B4F5C04F00D156
:104AF00005E04FF44971AFF28840FBF7FFFBAE6869
:104B000026F4E0462643AE6070BD70B504460D46FF
:104B1000FA48844205D0FA48844202D0F9488442D7
:104B200000D105E040F23B31AFF2BC40FBF7E6FBC1
:104B30000DB1012D00D105E04FF44F71AFF2D0401F
:104B4000FBF7DCFB25B1A06840F40040A06003E067
:104B5000A06820F40040A06070BD70B504460D460A
:104B6000E648844205D0E648844202D0E5488442C3
:104B700000D105E04FF45571AFF20C50FBF7BEFBCE
:104B80000DB1012D00D105E040F25531AFF22050BA
:104B9000FBF7B4FB25B1A06840F40210A06003E06D
:104BA000A06820F40210A06070BD70B50446002516
:104BB000D248844205D0D248844202D0D1488442AF
:104BC00000D105E040F26D31AFF25C50FBF796FB8F
:104BD000A06810F4001F01D0012500E00025284640
:104BE00070BD2DE9F04706460C4691461D4600274C
:104BF000B846BA46C148864205D0C148864202D06E
:104C0000C048864200D105E040F2A631AFF2A05084
:104C1000FBF774FB0CB3012C1FD0022C1DD0032C0E
:104C20001BD0042C19D0052C17D0062C15D0072C1E
:104C300013D0082C11D0092C0FD00A2C0DD00B2C1E
:104C40000BD00C2C09D00D2C07D00E2C05D00F2C1E
:104C500003D0102C01D0112C00D105E040F2A73177
:104C6000AFF2F450FBF74AFBB9F1010F03DBB9F1E6
:104C7000040F00DC05E04FF46A71AFF20C60FBF743
:104C80003DFB6DB1012D0BD0022D09D0032D07D0B6
:104C9000042D05D0052D03D0062D01D0072D00D100
:104CA00005E040F2A931AFF23860FBF727FB092C91
:104CB00013DDF768A4F10A0000EB4001072000FAB9
:104CC00001F827EA0807A4F10A0000EB400005FA02
:104CD00000F847EA0807F7600EE0376904EB440183
:104CE000072000FA01F827EA080704EB440005FA58
:104CF00000F847EA08073761B76BC7F3015A09F1B3
:104D000003000AF10101401A00EB80011F2000FAA4
:104D100001F827EA080709F103000AF10101401A26
:104D200000EB800004FA00F847EA0807B763BDE823
:104D3000F0872DE9F04104460D46002600276F4814
:104D4000844205D06E48844202D06E48844200D12D
:104D500005E040F2E631AFF2E860FBF7CFFA012D53
:104D600002DB042D00DC05E040F2E731AFF2007019
:104D7000FBF7C4FAA66B26F440166F1E46EA0756E8
:104D8000A663BDE8F081F8B505460C46164600203E
:104D900000905A48854205D05948854202D059486A
:104DA000854200D105E040F20641AFF23C70FBF7CE
:104DB000A5FA142C05D0182C03D01C2C01D0202CC3
:104DC00000D105E040F20741AFF25C70FBF796FAC4
:104DD000B6F5805F00DA05E04FF48161AFF27070E4
:104DE000FBF78CFA0095009820440090009806602C
:104DF000F8BD38B505460C46002000903F48854276
:104E000005D03F48854202D03E48854200D105E0AA
:104E100040F22141AFF2A870FBF770FA142C05D0D4
:104E2000182C03D01C2C01D0202C00D105E040F21E
:104E30002241AFF2C470FBF761FA009504F128003B
:104E40000099084400900098006880B238BD70B5A1
:104E500005460C4600262948854205D0284885424B
:104E600002D02848854200D105E040F23E41AFF62D
:104E70000000FBF743FA244884420FD023488442C1
:104E80000CD02348844209D0B4F5000F06D0B4F505
:104E9000800F03D0B4F5400F00D004B905E040F214
:104EA0003F41AFF63400FBF729FA6E681848C0435B
:104EB000064026436E6070BD70B504460E4615462A
:104EC0000E48844205D00E48844202D00D488442E8
:104ED00000D105E040F25741AFF66C00FBF70EFA47
:104EE000B6F5805F00DA05E04FF48B61AFF6800025
:104EF000FBF704FAB5F5805F0CDA11E000240140FD
:104F000000280140003C01400002800000024000F7
:104F10000002C00040F25941AFF6AC00FBF7EEF9D9
:104F20006662A56270BD70B505460C4600268448D1
:104F3000854205D08348854202D08348854200D10E
:104F400005E040F27D41AFF6D800FBF7D7F90CB38E
:104F5000012C1FD0022C1DD0032C1BD0042C19D0E7
:104F6000052C17D0062C15D0072C13D0082C11D0E7
:104F7000092C0FD00A2C0DD00B2C0BD00C2C09D0E7
:104F80000D2C07D00E2C05D00F2C03D0102C01D0E7
:104F9000112C00D105E040F27E41AFF62C10FBF75A
:104FA000ADF96E6826F01F0626436E6070BD10B521
:104FB00004460CB1012C00D105E040F29241AFF65D
:104FC0005010FBF79BF944B15D480830006840F48D
:104FD00000005B490831086007E059480830006864
:104FE00020F4000056490831086010BD70B5054630
:104FF0000C4600265248854205D05248854202D0D0
:105000005148854200D105E040F2AF41AFF6A01013
:10501000FBF774F9012C07D0022C05D0042C03D027
:10502000082C01D0102C00D105E04FF49661AFF6AA
:10503000C010FBF763F92868204201D0012600E088
:105040000026304670BD70B504460D463C4884428B
:1050500005D03C48844202D03B48844200D105E060
:1050600040F2CF41AFF6F810FBF748F915F0E00F2A
:1050700001D105B105E04FF49A61AFF60C20FBF7C2
:105080003DF9E843206070BD2DE9F04104460D462E
:1050900000260027B0462A48844205D02948844289
:1050A00002D02948844200D105E040F2E441AFF645
:1050B0004020FBF723F9B5F5087F05D0B5F5A07FB3
:1050C00002D0B5F5906F00D105E040F2E541AFF6B2
:1050D0006020FBF713F92F126068E9B200EA0108BB
:1050E0002068384204D0B8F1000F01D0012600E05A
:1050F00000263046BDE8F08170B504460D46002616
:105100000F48844205D00F48844202D00E488442A2
:1051100000D105E040F20751AFF6AC20FBF7EEF806
:105120004FF61F00054201D105B105E04FF4A16122
:10513000AFF6C420FBF7E2F82E12F043206070BDFA
:105140000024014000280140003C014010B5044605
:10515000FA48844205D0FA48844202D0F948844291
:1051600000D103E07A21F8A0FBF7C8F8F3488442A5
:1051700008D101218014FEF73AFE0021A014FEF7A9
:1051800036FE16E0EE48844208D101210014FEF7F5
:1051900057FE00212014FEF753FE0AE0E94884423E
:1051A00007D10121C013FEF74BFE0021E013FEF7EB
:1051B00047FE10BD70B505460C460026DF48854207
:1051C00005D0DF48854202D0DE48854200D103E0A9
:1051D000A321DDA0FBF792F8208858B12088B0F514
:1051E000806F07D02088B0F5004F03D02088B0F53D
:1051F000404F00D103E0A621D3A0FBF77FF86088E1
:10520000B0F5827F01D0608800B903E0A721CEA06D
:10521000FBF774F8A088B0F5006F01D0A08800B942
:1052200003E0A821C8A0FBF769F8E08810B1E08886
:10523000022800D103E0A921C3A0FBF75FF8208971
:1052400010B12089012800D103E0AA21BEA0FBF7FC
:1052500055F86089B0F5007F01D0608900B903E09E
:10526000AB21B9A0FBF74AF8A089A0B1A089082812
:1052700011D0A08910280ED0A08918280BD0A089A1
:10528000202808D0A089282805D0A089302802D05D
:10529000A089382800D103E0AC21ABA0FBF72EF8A1
:1052A000E08910B1E089802800D103E0AD21A6A0FB
:1052B000FBF724F8208A012800DB03E0AE21A2A03E
:1052C000FBF71CF82E8806F44156208861880843B5
:1052D000A1880843E188084321890843618908437C
:1052E000A1890843E189084306432E80A88B4FF229
:1052F000FF710840A883208A288270BD2DE9F04FF5
:1053000085B005460C464FF0000902274FF0000813
:105310004FF0010B0026B2468948854202D08948E9
:10532000854200D103E0E32187A0FAF7E7FF208858
:1053300058B12088B0F5807F07D02088B0F5007F75
:1053400003D02088B0F5407F00D103E0E4217EA0A7
:10535000FAF7D4FF608858B16088102808D06088B8
:10536000202805D06088302802D06088B02800D17D
:1053700003E0E52174A0FAF7C1FFA08840B1A0883E
:10538000012805D0A088032802D0A088052800D1D4
:1053900003E0E6216CA0FAF7B1FFE088B0F5007FEA
:1053A00001D0E08800B903E0E72167A0FAF7A6FF83
:1053B000A068B0F5FA5F03D37249A068884202D9A9
:1053C000A068022800D103E0E8215FA0FAF796FF69
:1053D000A08910B1A089082800D103E0E9215AA0D2
:1053E000FAF78CFFA88B4FF240010840A8830220F7
:1053F0002884B5F81C90A068022803D14FF000085B
:10540000022738E0A08810B94FF0010B01E04FF0FF
:10541000020B4B48854200D100E000BF6846FEF712
:1054200001FCDDF800A0E088B0F5007F0AD14FEA6A
:105430001A2000EB80004000A168B0FBF1F0401D95
:1054400086B20BE04FEA4B10BAFBF0F000EB8000A5
:105450004000A168B0FBF1F0401D86B20A20B6FB07
:10546000F0F606F00108A6EB0800C0F34F074FF670
:10547000FF7000EA0828022F01DBFF2F02DD022760
:105480004FF00008E08840EA080038432884A088EC
:10549000A1890843618808432188084340F40060DB
:1054A00040EA0909A5F81C9005B0BDE8F08F00217D
:1054B000018041808180C180018141818181C181E0
:1054C0000721018270470021018041808180C180D5
:1054D0000221816000218181704770B504460D462C
:1054E0001648844205D01648844202D015488442AA
:1054F00000D104E04FF4D77113A0FAF7FFFE0DB10D
:10550000012D00D104E040F2AF110FA0FAF7F6FE32
:1055100025B1208840F04000208004E020884FF62C
:10552000BF710840208070BD70B504460D46044828
:10553000844202D00348844226D12BE0003001404F
:1055400000380040003C00404C696272617269653D
:10555000735C53544D3332463130785F537464502A
:1055600065726970685F4472697665725C737263B4
:105570005C73746D3332663130785F7370692E639B
:105580000000000000EE02004FF4E371AFF24800AB
:10559000FAF7B4FE0DB1012D00D105E040F2C711BC
:1055A000AFF25C00FAF7AAFE25B1A08B40F4806050
:1055B000A08304E0A08B4FF6FF310840A08370BDAC
:1055C0002DE9F04104460D4616464FF0000800272D
:1055D000F648844205D0F648844202D0F548844219
:1055E00000D105E04FF4F371AFF2A400FAF786FEA4
:1055F0000EB1012E00D105E040F2E711AFF2B80084
:10560000FAF77CFE712D03D0602D01D0502D00D112
:1056100005E04FF4F471AFF2D000FAF76FFE4FEAF5
:105620002518012000FA08F087B21EB1A08838437F
:10563000A08002E0A088B843A080BDE8F08170B5EA
:1056400004460D461646D948844205D0D8488442BF
:1056500002D0D848844200D105E04FF40371AFF284
:105660001810FAF74BFE0EB1012E00D105E040F202
:105670000D21AFF22C10FAF741FE4FF6FC700542F7
:1056800001D105B105E040F20E21AFF24410FAF766
:1056900035FE1EB1A0882843A08002E0A088A84360
:1056A000A08070BD70B504460D46C048844205D048
:1056B000BF48844202D0BF48844200D105E040F296
:1056C0002621AFF27C10FAF719FEA58170BD10B546
:1056D0000446B648844205D0B548844202D0B54855
:1056E000844200D105E040F23621AFF2A410FAF76F
:1056F00005FEA08910BD70B504460D46AB48844236
:1057000005D0AB48844202D0AA48844200D105E0CB
:105710004FF41271AFF2D010FAF7F0FDB5F5807FBB
:1057200003D0A5F57E40FF3800D105E040F24921C5
:10573000AFF2EC10FAF7E2FDA5F57E40FF3804D099
:10574000208840F48070208004E020884FF6FF61BC
:105750000840208070BD70B504460D4693488442D1
:1057600005D09348844202D09248844200D105E09B
:105770004FF41871AFF23020FAF7C0FD0DB1012DD2
:1057800000D105E040F26121AFF24420FAF7B6FD06
:1057900025B1A08840F00400A08004E0A0884FF666
:1057A000FB710840A08070BD70B504460D467F486F
:1057B000844205D07E48844202D07E48844200D193
:1057C00005E040F27A21AFF28020FAF797FDB5F5B7
:1057D000006F00D005B905E040F27B21AFF29820C0
:1057E000FAF78CFD20884FF2FF7108402080208856
:1057F0002843208070BD10B504466C48844205D013
:105800006B48844202D06B48844200D105E040F2EC
:105810008A21AFF2CC20FAF771FD208840F4805045
:10582000208010BD70B504460D466048844205D006
:105830005F48844202D05F48844200D105E040F2D4
:105840009A21AFF2FC20FAF759FD0DB1012D00D1DC
:1058500005E040F29B21AFF21030FAF74FFD25B181
:10586000208840F40050208004E020884DF6FF712D
:105870000840208070BD70B504460D4600264B4898
:10588000844205D04A48844202D04A48844200D12A
:1058900005E040F2B521AFF25030FAF72FFD0DB11F
:1058A000012D00D105E040F2B621AFF26430FAF7E5
:1058B00025FD012D01D0268B00E0A68A304670BD63
:1058C00010B504463948844205D03948844202D094
:1058D0003848844200D105E040F2CD21AFF2983043
:1058E000FAF70CFD208A10BD70B504460D462F480E
:1058F000844205D02E48844202D02E48844200D1F2
:1059000005E040F2DF21AFF2C030FAF7F7FCA5F571
:105910003F40FF3802D0B5F5804F00D105E04FF48D
:105920003871AFF2DC30FAF7E9FCB5F5804F04D1FD
:10593000208840F48040208004E020884BF6FF71EE
:105940000840208070BD70B505460C4600261748FB
:10595000854205D01648854202D01648854200D1BE
:1059600005E040F20231AFF22040FAF7C7FC802C8C
:105970000DD0402C0BD0202C09D0102C07D0082C97
:1059800005D0042C03D0022C01D0012C00D105E05D
:1059900040F20331AFF25040FAF7B0FC28892042C0
:1059A00001D0012600E00026304670BD00300140E5
:1059B00000380040003C004070B504460D464348A6
:1059C000844205D04248844202D04248844200D1F9
:1059D00005E040F22731AFF29040FAF78FFC102D2E
:1059E00000D105E04FF44A71AFF2A440FAF786FC0B
:1059F000E843208170BD2DE9F04705460C4600279D
:105A0000B8460026B1463148854205D03048854227
:105A100002D03048854200D105E040F24331AFF278
:105A2000D840FAF76BFC602C09D0712C07D0532CAE
:105A300005D0542C03D0552C01D0562C00D105E0B4
:105A40004FF45171AFF20050FAF758FC04F00F0117
:105A5000012088401FFA80F826110120B04086B24C
:105A6000A88800EA0609288910EA080F04D0B9F1CD
:105A7000000F01D0012700E000273846BDE8F0877D
:105A800070B504460D4600261048844205D01048E3
:105A9000844202D00F48844200D105E040F27731C1
:105AA000AFF25C50FAF72AFC542D00D105E04FF418
:105AB0005E71AFF26C50FAF721FC05F00F01012086
:105AC000884086B2F043208170BD00000030014064
:105AD00000380040003C004010B50446FC488442B9
