:020000040800F2
:10000000B825002085670008D50300088BAD0008DF
:10001000D7030008DB030008DF030008000000002E
:10002000000000000000000000000000E3030008E2
:10003000E50300080000000013AD00084F030008AE
:100040009F6700089F6700089F6700089F67000878
:100050009F6700089F670008A9190008BB190008DE
:10006000CD190008DF190008F11900089F67000882
:100070009F670008C91300089F670008271300083E
:100080004B1300089F6700089F670008E9030008FA
:10009000E70300089F6700089F670008031A00082D
:1000A0009F6700089F6700089F6700089F67000818
:1000B0009F6700089F6700089F6700089F67000808
:1000C0009F6700089F6700089F6700089F670008F8
:1000D0009F67000815130008391300085D13000816
:1000E000591A00089F6700089F6700089F6700086B
:1000F0009F6700089F6700089F6700089F670008C8
:100100009F6700089F6700089F6700089F670008B7
:100110009F6700089F6700089F6700089F670008A7
:100120009F6700089F6700089F6700089F67000897
:1001300000F002F800F06DF80AA090E8000C82448C
:100140008344AAF10107DA4501D100F062F8AFF269
:10015000090EBAE80F0013F0010F18BFFB1A43F0A5
:1001600001031847604E0100804E01000A444FF021
:10017000000C10F8013B13F0070408BF10F8014B06
:100180001D1108BF10F8015B641E05D010F8016B4B
:10019000641E01F8016BF9D113F0080F1EBF10F8AF
:1001A000014BAD1C0C1B09D16D1E58BF01F801CBD2
:1001B000FAD505E014F8016B01F8016B6D1EF9D555
:1001C0009142D6D37047000000230024002500266A
:1001D000103A28BF78C1FBD8520728BF30C148BFAA
:1001E0000B607047662913F0C983002070471FB564
:1001F00012F062FC04000020002113F0D7F9401C2B
:1002000060600020002113F0BBF9E0601FBD10B555
:1002100010BD12F09DFD1146FFF7E9FF00F05DF8FB
:1002200012F0C9FD03B4FFF7F2FF03BC12F0CAFDE0
:10023000002804D090FAA0F0B0FA80F0401C70477B
:1002400010B5044606F006FB01F0D2FD01F0F0FD0A
:1002500010BD1CB500F010F900F0A4FA00F053FD39
:1002600000F050FE142008210B020022CDE90010FE
:10027000AFF2330104A009F050FE044614B1204649
:1002800009F0F5FD00201CBD696E697400000000D6
:1002900004460D4614A008F048FC21461CA008F0B6
:1002A00044FC29461FA008F040FC00BFFEE710B543
:1002B00000F055F808F069FC1F49204808F0F2FDED
:1002C00009F078FB0AF0DAF90AF0E4F9FFF7C1FF68
:1002D00006F0C4FC09F08AFB10BD10B50AF002FD5F
:1002E000FFF7E5FF002010BD0A0D2057726F6E6703
:1002F00020706172616D657465722076616C7565E0
:10030000206465746563746564206F6E0D0A000077
:100310002020202020202066696C65202025730D78
:100320000A000000202020202020206C696E65201B
:100330002025640D0A00000000000120B8250020DF
:1003400010B500214FF0006006F093F910BD10B514
:1003500007F0F8FF06F045FA08F00BF810BD70B58D
:10036000FFF7EEFF164800686422B0FBF2F1481E6A
:10037000B0F1807F00D319E0481E4FF0E0225061B9
:1003800050170F22002806DA13010E4C00F00F055B
:100390002D1F635502E013010B4C235400BF0020B6
:1003A0004FF0E02290610720106100BF01F0C9FA10
:1003B00001F081F805A008F02DFC06F041FA70BDAF
:1003C0003801002018ED00E000E400E0756172746F
:1003D00031000000704700BFFEE700BFFEE700BF2E
:1003E000FEE77047704770477047000008B501216D
:1003F000082002F072F910208DF8030003208DF818
:1004000002004FF48070ADF8000069463E4804F0E9
:10041000A5F84FF480713C4804F07DFA08BD10B592
:1004200004462CB94FF48071374804F09FFA00E07D
:1004300000BF00BF10BD10B504462CB94FF4807149
:10044000314804F068FA00E000BF00BF10BD3D2451
:10045000002120460AF07EFD0DE0002120460AF032
:100460008CFD322009F0ACFE012120460AF085FD0A
:10047000322009F0A5FEF0E71FB502201421020288
:10048000224BCDE90032CDE902100023204A21A100
:10049000214809F092FC04462CB91F4809F0E7FCFA
:1004A000002004B010BD1DA008F03FFB4FF0FF304E
:1004B000F7E770B505460C461F48007820B9FFF7EE
:1004C00095FF01201C4908706DB914B1012C08D1A9
:1004D00003E00020FFF7AFFF04E00020FFF79FFFDD
:1004E00000E000BF00BF012D0DD114B1012C08D1D7
:1004F00003E00120FFF79FFF04E00120FFF78FFFDB
:1005000000E000BF00BF70BD000C014004030020EC
:100510004F0400086C656400040500206C656420CD
:10052000746872656164207374617274757020669A
:1005300061696C656421000000000020704770B59F
:1005400004464021A64804F011FA0A20FFF7F6FFFE
:10055000002519E04021A24804F008FA14F0010F28
:1005600004D080219E4804F0D6F903E080219C4805
:1005700004F0FCF90A20FFF7E1FF4021984804F05D
:10058000CAF96410681CC5B2082DE3DB70BD70B5F4
:1005900005460C462021924804F0E8F94021904895
:1005A00004F0E4F90A20FFF7C9FF20218C4804F089
:1005B000B2F90A20FFF7C2FF2846FFF7C0FF204626
:1005C000FFF7BDFF2021864804F0D0F94021844880
:1005D00004F0CCF90A20FFF7B1FF70BD08B5012186
:1005E000082002F07AF86020ADF8000003208DF8B2
:1005F000020010208DF803006946794803F0AEFF31
:100600008020ADF8000014208DF80300694674487E
:1006100003F0A4FF80218E20FFF7B9FF08BD70B55D
:100620000646002420216E4804F0A0F940216C48C1
:1006300004F09CF90A20FFF781FF2021684804F0AC
:100640006AF90A20FFF77AFF3046FFF778FF0025A6
:1006500011E04021624804F05EF9641040216048D6
:1006600004F084F980215E4804F03DF808B144F0BC
:100670008004681CC5B2082DEBDB0A20FFF75EFF83
:100680002021574804F072F9204670BD7CB506461B
:1006900054A103C9CDE9000100218E20FFF777FFA7
:1006A000002411E05148005D0A2190FBF1F201FBAA
:1006B0001200C5B24D48005D90FBF1F005EB001053
:1006C0004A490855601CC4B2082CEBDB002407E043
:1006D000464A115D1DF80400FFF759FF601CC4B2C3
:1006E000072CF5DB80218E20FFF751FF7CBD7FB505
:1006F0008120FFF794FF3E4908708320FFF78FFFAA
:100700003B4948708520FFF78AFF39498870872068
:10071000FFF785FF3649C8708920FFF780FF34490D
:1007200008718B20FFF77BFF314948718D20FFF75F
:1007300076FF2F498871002415E02D49085DC11707
:1007400000EB11710D112A49085DC11700EB117101
:100750000911A0EB011105EB850201EB4201244ACE
:100760001155601CC4B2072CE7DB214840792049B1
:1007700009781F4A52781E4B9B78CDE90032CDE9AB
:1007800002101B48C378027981791AA008F0CDF9CC
:100790007FBDFFF723FF04E0642009F011FDFFF7A0
:1007A000A6FFF9E71FB5052012214FF40072184B80
:1007B000CDE90032CDE902100023164A16A11848EF
:1007C00009F0FBFA04462CB9154809F050FB00204B
:1007D00004B010BD13A008F0A8F94FF0FF30F7E700
:1007E000000C014080828486888A8C0001000020F1
:1007F0000900002025642D25642D25642025643AF8
:1008000025643A25647765656B25640D0A00000050
:1008100084050020930700086473313330320000F0
:10082000840700206473313330322074687265614C
:10083000642073746172747570206661696C65649C
:10084000210000004FF0E022526942F21073B2FB27
:10085000F3F250434FF0E022916900BF4FF0E022E5
:1008600092698A1A8242F9D3704708B5012108209B
:1008700001F033FF0220ADF8000010208DF80300D6
:1008800003208DF802006946FC4803F067FE022150
:10089000FA4804F040F808BD08B50220ADF80000A1
:1008A00048208DF803006946F44803F057FE08BD60
:1008B00008B50220ADF8000010208DF803000320D9
:1008C0008DF802006946ED4803F048FE08BD10B5FA
:1008D000FFF7EEFF0221E94804F048F840F2EE206D
:1008E000FFF7B0FF0221E54804F015F80F20FFF7ED
:1008F000A9FF10BD10B50024FFF7CEFF04E0601C77
:10090000C4B20120FFF79EFF0221DC4803F0EBFE9A
:1009100008B1C82CF3DBC82C01DB012010BD00247A
:1009200004E0601CC4B20120FFF78CFF0221D34811
:1009300003F0D9FE08B9F02CF3DBF02C01DB012029
:10094000ECE70020EAE710B5FFF7B2FF0221CB4841
:1009500004F00CF80220FFF775FF0221C74803F0EE
:10096000DAFFFFF799FF0C20FFF76CFF0221C34865
:1009700003F0B9FE08B1012400E000243220FFF7A3
:1009800061FF204610BD70B5002400251FE0600601
:10099000040EFFF78DFF0221B84803F0E7FF0220A5
:1009A000FFF750FF0221B54803F0B5FFFFF774FFD2
:1009B0000C20FFF747FF0221B04803F094FE08B176
:1009C00044F001043220FFF73DFF681CC5B2022D40
:1009D000DDDB204670BD70B50026002408E0FFF77F
:1009E000B2FF054605FA04F03043C6B2601CC4B23B
:1009F000082CF4DB304670BD10B50446FFF758FFF5
:100A000074B102219D4803F0B1FF0220FFF71AFFE5
:100A100002219A4803F07FFF3C20FFF713FF0DE00F
:100A20000221964803F0A2FF3C20FFF70BFF0221B2
:100A3000924803F070FF0220FFF704FF10BD70B56D
:100A40000446FFF735FF002522E004F0010664109C
:100A500076B10221894803F089FF0220FFF7F2FEF8
:100A60000221864803F057FF3C20FFF7EBFE0DE024
:100A70000221824803F07AFF3C20FFF7E3FE0221C7
:100A80007E4803F048FF0220FFF7DCFE681CC5B279
:100A9000082DDADB70BD10B5FFF7E7FEFFF717FF93
:100AA000FFF728FF10BD2DE9F84FFFF710FFFFF704
:100AB00021FFCC20FFF7C3FF4420FFF7C0FFFFF763
:100AC00006FFFFF717FFCC20FFF7B9FFBE20FFF7A7
:100AD000B6FFFFF780FF8146FFF77DFF0446072C36
:100AE00015DD09EB04200FFA80FA6FEA0A0012F014
:100AF000CFFE8346584612F09FFE07460022604B09
:100B000012F09CFD054612F067FD83460FE009EBED
:100B1000042012F0BDFE009012F08EFE0546002269
:100B2000584B12F08BFD074612F056FD834658468F
:100B3000BDE8F88F2DE9F04F93B00027BA460026A4
:100B400000BFFFF7C4FE4FF4F070FFF77BFEF0200C
:100B5000FFF775FF00246DE0002600255FE0FFF73A
:100B600012FF814609F003097610B9F1010F08D18F
:100B70000020FFF741FF002005EBC40101AA5054FB
:100B80004BE0B9F1020F0AD146F080060120FFF7D1
:100B900033FF012005EBC40101AA50543DE0B9F137
:100BA000000F3AD105EBC400401C00F0FF0811A86B
:100BB000C05D40450EDA0020FFF71EFF002005EB68
:100BC000C40101AA5054781CC0B2074611A901F80B
:100BD000008022E011A8C05D40450EDD05EBC40099
:100BE00001A9085C00F0010046EAC01605EBC4014B
:100BF00001AA505CFFF700FF0FE011A8C05D40455F
:100C00000BD146F080060120FFF7F6FE012005EB30
:100C1000C40101AA5054781EC7B2681CC5B2082D81
:100C20009DDBB3465E46184800EBCA0000F804B0EE
:100C3000601CC4B2082C8FDB0AF1010000F0FF0A2F
:100C40009DF8450018B1BAF1080FFFF67AAF0F48CA
:100C500080F800A013B0BDE8F08F88B0002404E055
:100C60000BA007F062FF601CC4B2FFF714FF08B1CD
:100C7000052CF5DB052C1ADA16E00000000C01400B
:100C80000000B0BF0000B03F0408002011000020A9
:100C90004453313842323020636865636B206661AB
:100CA000696C64210D0A000026A007F03EFF29E0D0
:100CB0000020FFF7F8FE0746384612F0BDFD054656
:100CC0002A460B4625A106A811F012FA06AB2548C4
:100CD000C07924498979234A5279CDE90403CDE9C1
:100CE0000221204800791F49C978CDE900101D482C
:100CF0008378427801781CA007F017FF4FF49670B4
:100D000009F05EFAD4E71FB50F2011214FF40072ED
:100D1000214BCDE90032CDE9021000231F4A20A16A
:100D2000214809F04AF804462CB91F4809F09FF8F9
:100D3000002004B010BD1DA007F0F7FE4FF0FF30FB
:100D4000F7E700004453313842323020636865636E
:100D50006B207265616479210D0A0000252E3266D0
:100D6000000000000408002049443A25303278256C
:100D70003032782530327825303278253032782577
:100D800030327825303278253032782074656D70B5
:100D90003A25730D0A000000440800205B0C00088F
:100DA0006473313862323000440A00206473313891
:100DB0006232302074687265616420737461727489
:100DC0007570206661696C656421000000B587B0AC
:100DD00001214FF4047001F080FC4FF4004001F059
:100DE00048FB0420ADF8040000208DF8070001A99D
:100DF000534803F0B3FB534801F006FF0020029074
:100E00008DF80C008DF80D004FF460200490002048
:100E1000059001208DF8180002A94A4801F029FF29
:100E20000121484801F0F0FF464802F06AF800BF8F
:100E3000444802F07CF80028FAD1424802F092F8C7
:100E400000BF404802F0A4F80028FAD107B000BD66
:100E500010B504460723012221463A4802F071F9F1
:100E60000121384802F0AFF800BF0221354802F0F6
:100E700085FD0028F9D0334802F059FA10BD2DE95C
:100E8000F04107460C460025002608E03846FFF7EB
:100E9000DFFF0544002009F093F9701CC6B2A6429A
:100EA000F4DBB5FBF4F080B2BDE8F0811CB50024A2
:100EB000FFF78CFF25E005210C20FFF7E0FF8246BD
:100EC00012F0FEFC814612F0B7FC07464FF0663286
:100ED0001D4B12F0B3FB054612F07EFB0446204684
:100EE00012F0AAFC05462A460B4618A1684611F0E6
:100EF000FFF8694617A007F018FE4FF4FA7009F0E2
:100F00005FF9D8E71FB50F2010214A01144BCDE936
:100F10000032CDE902100023124A13A1134808F051
:100F20004CFF04462CB9114808F0A1FF002004B082
:100F300010BD0FA007F0F9FD4FF0FF30F7E70000FC
:100F40000010014000240140663E953F252E326688
:100F500000000000566261743A25730D0A0000001B
:100F6000C40A0020AD0E000861646300C40C0020B8
:100F70006164632074687265616420737461727463
:100F80007570206661696C65642100007FB5054657
:100F90000C4625B94A22F649F6A007F0A6FE24B968
:100FA0004B22F349F8A007F0A0FEEE6B20680090FA
:100FB000207900F00F00082803D10020ADF80400CC
:100FC00008E0207900F00F00092803D14FF4805089
:100FD000ADF804002079C0F3011018B90020ADF875
:100FE000060007E02079C0F30110012802D1400378
:100FF000ADF806002079C0F3811018B90020ADF8D3
:10100000080011E02079C0F38110012804D14FF4C9
:10101000C060ADF8080007E02079C0F38110022815
:1010200002D14002ADF808000020ADF80C000C2001
:10103000ADF80A006946306803F0A3FF012130686B
:1010400004F0E3F8002004B070BD70B58CB0054624
:10105000EC6BEE6CA86CC0F38F216161012240F251
:101060002441206804F0FEF80121084601F00AFB43
:101070000121022001F006FBA06804F009FE2068AF
:10108000001D01903068029000200390A86CC0F30E
:101090008F2004900020059080200690002007906B
:1010A00008902020099000020A9000200B9001A9CE
:1010B000A06804F0C4FEE06805F06CF9012202218A
:1010C000A06804F0F9FF01224021206804F073F9C0
:1010D0000121A06804F082FF207C8DF80000002030
:1010E0008DF801008DF8020001208DF8030068469C
:1010F00005F06FFA0CB070BD2DE9F04105460E46C3
:101100001746B84625B97422A3499AA007F0EDFD09
:10111000EC6B032E2AD0102E13D0112E2DD194F962
:10112000040000F01F02012191409C4A430942F84B
:10113000231000BF002240F22551206804F092F8ED
:101140001BE094F9040000F01F02012191404209C4
:101150004FF0E02303EB8202C2F8001100BF01222E
:1011600040F22551206804F07DF806E0B8F5007FD4
:1011700002D12846FFF769FF00BF00BF0020BDE88D
:10118000F08170B505460E4625B99522844979A0AF
:1011900007F0ABFDEC6B288B10F4806F16D0206845
:1011A000008810F0800F08D1012240F226612068EB
:1011B00004F058F84FF0FF3070BD2068868001229F
:1011C00040F22661206804F04DF807E02068868030
:1011D00000BF2068008810F0400FFAD00120EBE734
:1011E00070B5044624B9B0226E4962A007F07DFDB7
:1011F000E56B4FF0FF362868008810F0200F02D012
:1012000028688088C6B2304670BD2DE9F041054699
:10121000EC6B09F067FD8046A06804F0DEFF6169B1
:101220000E1AA069371AA661404609F05FFD2FB17A
:10123000032040EA072128460AF051FB206804F009
:10124000FCF9E06805F0A6F8BDE8F0812DE9F04171
:101250000546EC6B09F046FD0746D4E905100E1A69
:101260000021A161384609F041FD2EB1032040EA7A
:10127000062128460AF033FBE06805F08BF8BDE84C
:10128000F08170B50546EC6B24B9F622464947A0BB
:1012900007F02BFD40F22551206804F016FC68B1E0
:1012A0000121206804F082FB18B9012128460AF0C8
:1012B00016FB40F22551206804F091FC40F22441D5
:1012C000206804F002FC10B12846FFF79EFF40F2B0
:1012D0002661206804F0F9FB90B1288B10F4806F30
:1012E00003D0022128460AF0FAFA002240F22661D1
:1012F000206803F0B7FF40F22661206804F06FFC1D
:101300000821206804F052FB012802D12846FFF78B
:1013100067FF70BD10B507F015F82848FFF7B1FF5B
:1013200007F027F810BD10B507F00CF82348FFF7B9
:101330008DFF07F01EF810BD10B507F003F8204828
:10134000FFF79FFF07F015F810BD10B506F0FAFF84
:101350001B48FFF77BFF07F00CF810BD10B506F037
:10136000F1FF1848FFF78DFF07F003F810BD0000EC
:101370009439010873657269616C20213D205254D3
:101380005F4E554C4C00000063666720213D2052A3
:10139000545F4E554C4C0000A439010880E100E038
:1013A000B2390108BD390108C83901087561727484
:1013B00020213D2052545F4E554C4C00440D0020DE
:1013C000980D0020EC0D002010B506F0BBFF604822
:1013D000FFF73CFF06F0CDFF10BD10B50121052041
:1013E00001F07BF90121880301F077F90121052043
:1013F00001F073F90121480401F098F90121092055
:1014000001F06BF90121880401F090F910BD08B5D5
:1014100002208DF8020004208DF803000002ADF8D0
:10142000000069464B4803F099F818208DF8030036
:101430004FF40070ADF800006946464803F08EF89E
:1014400004208DF803000820ADF8000069464148EB
:1014500003F084F818208DF803000420ADF8000094
:1014600069463C4803F07AF804208DF803004002F6
:10147000ADF800006946384803F070F818208DF880
:1014800003004FF48060ADF800006946324803F075
:1014900065F808BD38B5044620798DF800000020B5
:1014A0008DF8010001208DF802008DF803006846D8
:1014B00005F08FF838BD1CB5284903C9CDE90001F6
:1014C000FFF78BFFFFF7A3FF254C4FF4E1300090AF
:1014D0002448254908640846DDE90012C0E91112D4
:1014E0002046FFF7D7FF234640F203721FA11E4894
:1014F0000AF0CCF91F4C4FF4E130009019481E4916
:1015000008640846DDE90012C0E911122046FFF721
:10151000C1FF234640F2037218A117480AF0B6F93A
:10152000184C4FF4E13000900E4809490864084611
:10153000DDE90012C0E911122046FFF7ABFF234698
:1015400040F2037210A102480AF0A0F91CBD00008D
:10155000EC0D002000080140000C0140D4390108C6
:101560001400002080390108440D00207561727458
:101570003100000030000020980D00207561727469
:10158000320000004C0000207561727433000000CE
:101590000146412907D2FE4A02EB01100268521CA3
:1015A00002D1002000E0002070472DE9F0410746FD
:1015B0000D461646E8B2FFF7EBFF04460CB9BDE84E
:1015C000F0812EB9A28991B2A06803F0CFF904E0AE
:1015D000A28991B2A06803F09EF900BFEFE72DE960
:1015E000F04107460D460026E8B2FFF7D1FF04465A
:1015F00014B93046BDE8F081A28991B2A06803F029
:1016000072F808B9002600E001263046F2E7F8B586
:1016100007460E461446F0B2FFF7BAFF054605B975
:10162000F8BD0121686801F058F8A88980B2ADF8CA
:10163000000010208DF8030003208DF802001CB973
:1016400010208DF803000EE0012C03D104208DF84A
:10165000030008E0022C03D148208DF8030002E0CB
:1016600028208DF803006946A86802F077FF00BFC4
:10167000D6E70246002106E001208840904201D1D1
:1016800008467047491C2029F6DB4FF0FF30F8E789
:101690002DE9F05F83460D4616461F46DDF828808B
:1016A0004FF0FF34E8B2FFF773FF8146B9F1000F46
:1016B00002D1601FBDE8F09FD9F80C00FFF7D9FFF9
:1016C0000446002C01DB102C02D36FF00500F1E77B
:1016D00009F008FB824604EB4400AE4931F92000D2
:1016E000A84219D104EB440001EB80004068B842E5
:1016F00012D104EB440001EB80004088B0420BD1D2
:1017000004EB440001EB80008068404504D1504662
:1017100009F0ECFA0020CDE704EB44009D4931F9D3
:101720002000401C05D0504609F0E0FA6FF006009A
:10173000C0E728B204EB4401964A22F8210004EBEA
:101740004400114601EB8000476004EB440102EBCA
:1017500081014E8004EB4400114601EB8000C0F88B
:101760000880504609F0C2FA0020A3E72DE9F041B5
:1017700080460D464FF0FF34E8B2FFF709FF0646FA
:1017800016B9601FBDE8F081F068FFF772FF0446EC
:10179000002C01DB102C02D36FF00500F2E709F0FA
:1017A000A1FA074604EB44007A4931F92000401CB5
:1017B00004D1384609F09AFA0020E3E74FF0FF30F1
:1017C00004EB4401734A22F82100002004EB440199
:1017D00002EB8101486004EB440102EB8101488087
:1017E00004EB440102EB81018860384609F07EFA7F
:1017F0000020C7E72DE9FF5F894617464FF0FF3607
:1018000009F0FF00FFF7C4FE04461CB9701F04B0C6
:10181000BDE8F09F012F67D1E068FFF72AFF064679
:10182000002E01DB102E02D36FF00500EFE709F068
:1018300059FA834606EB4600564931F92000401C10
:1018400005D1584609F052FA6FF00500DFE706EBC4
:101850004600514901EB80050121606800F03DFF21
:10186000A08980B2ADF80C0048208DF80F0003204D
:101870008DF80E0003A9A06802F070FE287A8DF89A
:10188000080002208DF809008DF80A0001208DF86B
:101890000B0002A804F09DFE6868009000208DF8FF
:1018A000040006EB46003B4901EB8000408820B174
:1018B000012806D002280CD107E008208DF8050089
:1018C00007E00C208DF8050003E010208DF80500DE
:1018D00000BF00BF01208DF80600684601F030F817
:1018E000584609F003FA2AE037BBD4F80CA050465A
:1018F000FFF7BFFE8046B8F1000F02DBB8F1100F12
:1019000001D3002004E008EB4800234901EB8000EC
:10191000054615B96FF0050079E76868009000206A
:101920008DF8040008208DF8050000208DF80600D1
:10193000684601F005F802E06FF0050067E7002057
:1019400065E710B50022154915A009F099FA04467B
:10195000204610BD10B5044604EB44010E4A02EBCC
:10196000810191F9080001F01DF904EB44000949D7
:1019700001EB80004068B0B104EB44020B4603EB7E
:101980008202906804EB440203EB8202516809E092
:10199000DC39010868000020EC3D0108AC3E01087C
:1019A00070696E00884710BD10B506F0CBFC0020B2
:1019B000FFF7D0FF06F0DDFC10BD10B506F0C2FC4D
:1019C0000120FFF7C7FF06F0D4FC10BD10B506F0EC
:1019D000B9FC0220FFF7BEFF06F0CBFC10BD10B52E
:1019E00006F0B0FC0320FFF7B5FF06F0C2FC10BD07
:1019F00010B506F0A7FC0420FFF7ACFF06F0B9FC19
:101A000010BD10B506F09EFC202001F07FF810B14B
:101A10000520FFF79FFF402001F078F810B1062065
:101A2000FFF798FF802001F071F810B10720FFF751
:101A300091FF4FF4807001F069F810B10820FFF7B2
:101A400089FF4FF4007001F061F810B10920FFF731
:101A500081FF06F08EFC10BD10B506F073FC4FF44C
:101A6000806001F053F810B10A20FFF773FF4FF4C4
:101A7000006001F04BF810B10B20FFF76BFF4FF443
:101A8000805001F043F810B10C20FFF763FF4FF4D2
:101A9000005001F03BF810B10D20FFF75BFF4FF451
:101AA000804001F033F810B10E20FFF753FF4FF4E0
:101AB000004001F02BF810B10F20FFF74BFF06F0AC
:101AC00058FC10BD70B586B006460C46356C01A8B2
:101AD00002F0B5F96078082803DC0020ADF80800B2
:101AE0000AE06078102804DC4FF40060ADF80800CC
:101AF00002E0082006B070BD606800F0F6F8ADF8AE
:101B00001000207810F0020F03D00220ADF80A0078
:101B100002E00020ADF80A00207810F0010F03D099
:101B20000120ADF80C0002E00020ADF80C00207898
:101B300010F0040F03D00020ADF8120002E0802066
:101B4000ADF812000020ADF804004FF48270ADF83B
:101B500006004FF40070ADF80E00E86E01F0BEFF15
:101B600001A9E86E01F0EEFF0121E86E02F07DF9B7
:101B70000021E86E02F01EFB0020BBE72DE9FC5FB0
:101B800006460C46306C019006F144090198C06E7F
:101B90000090F56BD4F808A0207C10F0010F04D061
:101BA0001DB1A988286802F0E1FE99F80100082813
:101BB0002BDC2768D4F8048021E04FF0FF0B0FB135
:101BC00017F801BB00BF0221009802F084FB002837
:101BD000F9D05946009802F02DFA00BF0121009873
:101BE00002F079FB0028F9D0009802F038FA00F0F2
:101BF000FF0BB8F1000F01D008F801BB00BF5FEA8E
:101C00000A00AAF1010AD8D12EE099F801001028A3
:101C10002ADC2768D4F8048020E04FF0FF0B0FB1D6
:101C200037F802BB00BF0221009802F054FB0028E5
:101C3000F9D05946009802F0FDF900BF0121009843
:101C400002F049FB0028F9D0009802F008FA834618
:101C5000B8F1000F01D028F802BB00BF5FEA0A000C
:101C6000AAF1010AD9D100BF207CC0F3400020B105
:101C70001DB1A988286802F04EFEA068BDE8FC9F4F
:101C80002DE9F04105460C4616460027B8460121CD
:101C9000084600F022FD3248854205D1E066012168
:101CA000801400F01AFD14E02E48854205D1E0664C
:101CB0000121001400F03AFD0BE02B48854205D1CC
:101CC000E0660121C01300F031FD02E00620BDE80E
:101CD000F081264A3146204609F0BCFF0746E08ADB
:101CE00040EA0800E0823846F1E70146204A1268DF
:101CF000B1EB520F07D31E4A12681E4BB3EB520FC3
:101D000001D300202AE01A4A1268B1EB920F01D3E6
:101D1000082023E0164A1268B1EBD20F01D310203D
:101D20001CE0134A1268B1EB121F01D3182015E012
:101D30000F4A1268B1EB521F01D320200EE00C4A6B
:101D40001268B1EB921F01D3282007E0084A1268FD
:101D5000B1EBD21F01D3302000E0382070470000E3
:101D60000030014000380040003C004028010020C5
:101D7000380100200051250208B50121052000F09E
:101D8000ACFCE020ADF8000003208DF80200182024
:101D90008DF8030069461B4802F0E0FB1AA21C49BB
:101DA0001C48FFF76DFF01208DF8020010208DF810
:101DB000030014481849086010208880012104207D
:101DC00000F08BFC14488088ADF80000124A91881E
:101DD000106802F0A0FD10490868694602F0BEFBD9
:101DE0000D4B09A20DA10F4809F04DFF002008BDC1
:101DF00010B50AA10CA00AF064FC10BD10B5FFF7E5
:101E0000BBFF10BD00080140737069310000000085
:101E1000400E002000300140300100207370693115
:101E200030000000B00E00207732357136340000EB
:101E300030B585B017A207CA02AB07C37320019063
:101E400017A004F017FD044617A006F06EFE14B9A3
:101E500019A006F06AFE03212046A26A90471CA042
:101E600006F063FE0A2301AA00212046656BA847FD
:101E70001AA006F05AFE01236A4600212046256B6F
:101E8000A84719A006F051FE1AA006F04EFE05B0B4
:101E900030BD00006162636465666768696A00005E
:101EA0007732357136340000666F756E6420773294
:101EB00035713634210D0A0063616E206E6F742017
:101EC000666F756E6420773235713634210D0A00E5
:101ED000313131313131310D0A00000032323232CC
:101EE00032320D0A000000003333333333330D0A2E
:101EF00000000000343434343434340D0A0000005F
:101F00000CB50020019000906B48006840F48030D0
:101F10006949086000BF6848006800F4003000901C
:101F20000198401C0190009818B90198B0F5A06F75
:101F3000F1D16148006810F4003F02D00120009008
:101F400001E0002000900098012842D15B48006821
:101F500040F01000594908600846006820F003006E
:101F600008600846006840F0020008605248406877
:101F7000514948600846406848600846406840F457
:101F8000806048600846406820F47C10486008463D
:101F9000406840F4E81048600846006840F08070EF
:101FA000086000BF4448006810F0007FFAD0424843
:101FB000406820F00300404948600846406840F00F
:101FC0000200486000BF3C48406800F00C00082850
:101FD000F9D10CBD10B5FFF793FF10BD10B5364811
:101FE000006840F001003449086008464068344900
:101FF00008403149486008460068324908402E4987
:1020000008600846006820F48020086008464068A0
:1020100020F4FE0048604FF41F008860FFF7DAFFED
:102020004FF000602849086010BD10B50021002065
:102030000022214B5B6803F00C0121B1042906D07A
:10204000082928D107E0214B214C236027E01F4BB2
:102050001F4C236023E0184B5B6803F47010164B91
:102060005B6803F48032022303EB904022B9194BE2
:102070004343174C23600DE00F4B5B6813F4003FA4
:1020800004D0144B4343124C236003E00F4B4343F3
:102090000F4C236003E00D4B0D4C236000BF00BFCD
:1020A000054B5B68C3F303130B4CE15C084B1B68E7
:1020B000CB40074C236010BD0010024000200240BE
:1020C0000000FFF8FFFFF6FE08ED00E000127A00C6
:1020D0003801002000093D003C010020FE48006856
:1020E00040F00100FC49086008464068FB49084090
:1020F000F949486008460068F9490840F64908600F
:102100000846006820F4802008600846406820F4F3
:10211000FE0048604FF41F008860704710B5044609
:102120002CB1B4F5803F02D0B4F5802F00D104E08B
:1021300040F21111EBA0FEF7ABF8E748006820F47D
:102140008030E54908600846006820F48020086077
:10215000B4F5803F03D0B4F5802F0ED106E0DE4801
:10216000006840F48030DC49086007E0DA48006825
:1021700040F4A020D849086000E000BF00BF10BDB7
:102180002DE9F0410446002500260027212C13D01C
:10219000312C11D0392C0FD0412C0DD0612C0BD00B
:1021A0007A2C09D07B2C07D07C2C05D07D2C03D039
:1021B0007E2C01D07F2C00D104E040F23451C9A024
:1021C000FEF766F86511012D02D1C348066806E0E6
:1021D000022D02D1C048066A01E0BF48466A04F0F9
:1021E0001F050120A840304201D0012700E0002750
:1021F0003846BDE8F08138B5002000900024002565
:1022000000BF3120FFF7BCFF05460098401C00903E
:102210000098B0F5A06F01D0002DF2D03120FFF76B
:10222000AFFF08B1012400E00024204638BD70B59E
:10223000044600251F2C00DC04E04FF4A971A9A07E
:10224000FEF726F8A448056825F0F80545EAC40518
:10225000056070BD10B504460CB1012C00D104E03E
:1022600040F265119FA0FEF713F8AD48046010BD61
:1022700070B505460C4600262DB1B5F5803F02D05D
:10228000B5F5403F00D104E040F27F1195A0FDF785
:10229000FFFF4CB3B4F5802F26D0B4F5002F23D028
:1022A000B4F5402F20D0B4F5801F1DD0B4F5A01F89
:1022B0001AD0B4F5C01F17D0B4F5E01F14D0B4F590
:1022C000001F11D0B4F5101F0ED0B4F5201F0BD095
:1022D000B4F5301F08D0B4F5401F05D0B4F5501F39
:1022E00002D0B4F5601F00D104E04FF4C0717DA0AE
:1022F000FDF7CEFF7848466826F47C1645EA0400D0
:1023000006437548466070BD10B504460CB1012CFB
:1023100000D104E04FF4CA7172A0FDF7B9FF804804
:10232000046610BD70B5044600251CB1012C01D017
:10233000022C00D104E04FF40E716AA0FDF7A8FF53
:102340006548456825F003052543456070BD624832
:10235000406800F00C00704770B5044600257CB161
:10236000802C0DD0902C0BD0A02C09D0B02C07D0F5
:10237000C02C05D0D02C03D0E02C01D0F02C00D103
:1023800004E04FF4197157A0FDF782FF52484568E9
:1023900025F0F0052543456070BD70B50446002565
:1023A0005CB1B4F5806F08D0B4F5A06F05D0B4F57A
:1023B000C06F02D0B4F5E06F00D104E040F27E219E
:1023C00048A0FDF765FF4448456825F4E0652543CE
:1023D000456070BD70B5044600255CB1B4F5806FF2
:1023E00008D0B4F5A06F05D0B4F5C06F02D0B4F535
:1023F000E06F00D104E04FF426713AA0FDF748FFEA
:102400003548456825F4605545EAC405456070BD0A
:1024100070B504460D4614F0E00F01D104B104E09C
:1024200040F2BF212FA0FDF733FF0DB1012D00D1E8
:1024300004E04FF430712BA0FDF72AFF2DB12648A0
:10244000407A20432449487204E02348407AA0435C
:102450002149487270BD10B504460CB1012C00D161
:1024600004E040F2DB211FA0FDF712FF2D480460BD
:1024700010BD70B50446002544B1B4F5804F05D0B9
:10248000B4F5004F02D0B4F5404F00D104E040F263
:10249000023114A0FDF7FCFE0F48456825F44045C5
:1024A0002543456070BD10B504461CB1012C01D018
:1024B000042C00D104E04FF450710AA0FDF7E8FEAF
:1024C000002019490870044981F82000012C2DD002
:1024D000042C33D12EE00000001002400000FFF871
:1024E000FFFFF6FE4C69627261726965735C53545A
:1024F0004D3332463130785F537464506572697081
:10250000685F4472697665725C7372635C73746D44
:102510003332663130785F7263632E6300000000EF
:1025200000004242D8004242201002400120F449FB
:10253000087004E00520F249087000E000BF00BF09
:1025400010BD10B504460CB1012C00D105E040F2DD
:102550006131AFF27000FDF79BFEEA48046010BDE8
:1025600010B50446B4F5807F05D0B4F5007F02D0E5
:10257000B4F5407F00D105E040F27231AFF29C002B
:10258000FDF786FEDE482038006A2043DC4920390A
:10259000086210BD10B504460CB1012C00D105E055
:1025A0004FF46071AFF2C400FDF772FED5484438B5
:1025B000046010BD30B50021002200240023D04D5E
:1025C000203D6D6805F00C0121B1042905D00829D2
:1025D00026D105E0CC4D056025E0CB4D056022E01D
:1025E000C74D203D6D6805F47012C54D203D6D68E6
:1025F00005F48034022505EB92421CB9C34D5543C6
:1026000005600CE0BE4D203D6D6815F4003F03D021
:10261000BE4D5543056002E0BB4D5543056002E0E9
:10262000B94D056000BF00BFB54D203D6D6805F098
:10263000F0010909B64D6B5C0568DD404560B04DA1
:10264000203D6D6805F4E061090AB14D6B5C456899
:10265000DD408560AA4D203D6D6805F46051C90AD2
:10266000AB4D6B5C4568DD40C560A54D203D6D6898
:1026700005F44041890BA74D6B5CC568B5FBF3F5CC
:10268000056130BD70B504460D4640F2575034EA3E
:10269000000001D104B105E040F22B41AFF2BC10C3
:1026A000FDF7F6FD0DB1012D00D105E040F22C4102
:1026B000AFF2D010FDF7ECFD3DB1914820384069F4
:1026C00020438F492039486106E08D482038406911
:1026D000A0438B492039486170BD70B504460D4652
:1026E0008D48044201D104B105E040F24A41AFF205
:1026F0000C20FDF7CDFD0DB1012D00D105E040F21C
:102700004B41AFF22020FDF7C3FD3DB17C4820389E
:10271000806920437A492039886106E0784820386A
:102720008069A04376492039886170BD70B5044640
:102730000D467A48044201D104B105E040F26941F6
:10274000AFF26020FDF7A4FD0DB1012D00D105E031
:1027500040F26A41AFF27420FDF79AFD3DB168483E
:102760002038C069204366492039C86106E06448C2
:102770002038C069A04362492039C86170BD70B576
:1027800004460D466448044201D104B105E040F21C
:10279000A441AFF2B020FDF77BFD0DB1012D00D1BA
:1027A00005E040F2A541AFF2C420FDF771FD3DB157
:1027B00053482038C068204351492039C86006E09A
:1027C0004F482038C068A0434D492039C86070BDCB
:1027D00070B504460D465148044201D104B105E0EC
:1027E00040F2C341AFF20430FDF752FD0DB1012DAF
:1027F00000D105E040F2C441AFF21830FDF748FDCA
:102800003DB13F482038006920433D4920390861E7
:1028100006E03B4820380069A04339492039086167
:1028200070BD10B504460CB1012C00D105E04FF489
:102830009B61AFF25030FDF72BFD32484038046009
:1028400010BD10B504460CB1012C00D105E040F2DA
:10285000E541AFF27030FDF71BFD3148C46410BD97
:1028600010B504463CB1052C05D0042C03D0062C31
:1028700001D0072C00D105E040F20551AFF29C30A9
:10288000FDF706FD1E482038C47110BD1C482038D5
:10289000406A40F080701A4920394862704770B52C
:1028A00004460025012C09D0022C07D0042C05D0A9
:1028B000082C03D0102C01D0802C00D105E040F270
:1028C0007E51AFF2E030FDF7E3FC0D482038806820
:1028D000204201D0012500E00025284670BD10B53A
:1028E000044614F0600F01D104B105E040F2AB5191
:1028F000AFF21040FDF7CCFC01482038847210BDC7
:10290000201002408004424200127A0000093D007B
:102910004C0100205C0100200200C0FF0036018154
:10292000000042420020A7490860091D0860091DF7
:102930000860091D0860A448A24914310860704766
:1029400070B504460025207910B12079042800D103
:1029500003E06A219DA0FDF79BFC6079082805D063
:1029600060790C2802D06079102800D103E06B2137
:1029700096A0FDF78DFC2068000D000502D12068AF
:1029800000B103E06C2191A0FDF782FCA07910B1A9
:10299000A079012800D103E06D218CA0FDF778FC1F
:1029A000884DA07990B3284600682168884329465D
:1029B0000860081D006821688843291D0860207987
:1029C000054428682168084328607E48083000686C
:1029D000216888437B4908310860081D0068216828
:1029E000884378490C310860607910280FD1081F9E
:1029F000006821680843734908310860081D0068B1
:102A0000216808436F490C3108600EE007E06D4D06
:102A100060790544286821680843286005E020792A
:102A20000544286821688843286070BD0021016042
:102A300001710C21417100218171704710B504466C
:102A4000200D000501D104B103E0AE215FA0FDF728
:102A50001FFC5C481030006820435A491031086060
:102A600010BD70B504460025012C31D0022C2FD0AA
:102A7000042C2DD0082C2BD0102C29D0202C27D082
:102A8000402C25D0802C23D0B4F5807F20D0B4F505
:102A9000007F1DD0B4F5806F1AD0B4F5006F17D049
:102AA000B4F5805F14D0B4F5005F11D0B4F5804F59
:102AB0000ED0B4F5004F0BD0B4F5803F08D0B4F57C
:102AC000003F05D0B4F5802F02D0B4F5002F00D11F
:102AD00003E0BE213DA0FDF7DBFB3A48143000685F
:102AE000204201D0012500E00025284670BD10B528
:102AF0000446200D000501D104B103E0D42133A028
:102B0000FDF7C6FB2F481430046010BD70B50446B5
:102B100000250026012C31D0022C2FD0042C2DD0E2
:102B2000082C2BD0102C29D0202C27D0402C25D09D
:102B3000802C23D0B4F5807F20D0B4F5007F1DD049
:102B4000B4F5806F1AD0B4F5006F17D0B4F5805F7C
:102B500014D0B4F5005F11D0B4F5804F0ED0B4F5A9
:102B6000004F0BD0B4F5803F08D0B4F5003F05D03E
:102B7000B4F5802F02D0B4F5002F00D103E0E52199
:102B800012A0FDF785FB0F48006800EA04060D4817
:102B900014300068204202D00EB1012500E000256B
:102BA000284670BD10B50446200D000501D104B1C2
:102BB00003E0FC2105A0FDF76BFB02481430046024
:102BC00010BD000000040140FFFF0F004C6962725D
:102BD00061726965735C53544D3332463130785FAE
:102BE0005374645065726970685F44726976657287
:102BF0005C7372635C73746D3332663130785F6519
:102C00007874692E6300000010B50446F9488442C8
:102C100005D0F948844202D0F848844200D103E04C
:102C2000B621F7A0FDF734FBF248844208D1012118
:102C30004015FFF7A4FD00216015FFF7A0FD17E088
:102C4000ED48844208D101210015FFF798FD0021CD
:102C50002015FFF794FD0BE0E848844208D10121DC
:102C6000C803FFF78CFD00214FF40040FFF787FDFC
:102C700010BD2DE9F04105460C4600260027DD4831
:102C8000854205D0DC48854202D0DC48854200D12F
:102C900003E0DF21DAA0FDF7FBFA206818B3206813
:102CA000B0F5803F1FD02068B0F5003F1BD02068F2
:102CB000B0F5403F17D02068B0F5802F13D02068C2
:102CC000B0F5A02F0FD02068B0F5C02F0BD0206832
:102CD000B0F5E02F07D02068B0F5002F03D02068B2
:102CE000B0F5102F00D103E0E021C5A0FDF7D0FA28
:102CF000207910B12079012800D103E0E121C0A0A2
:102D0000FDF7C6FA607910B16079012800D103E0BF
:102D1000E221BBA0FDF7BCFAA06888B3A068B0F5BB
:102D2000003F2DD0A068B0F5802F29D0A068B0F565
:102D3000C02F25D0A068B0F5002F21D0A068B0F535
:102D4000202F1DD0A068B0F5402F19D0A068B0F595
:102D5000602F15D0A06898B1A068B0F5003F0FD0E3
:102D6000A068B0F5C02F0BD0A068B0F5002F07D039
:102D7000A068B0F5202F03D0A068B0F5402F00D197
:102D800003E0E3219EA0FDF783FAE06818B1E06854
:102D9000B0F5006F00D103E0E42199A0FDF778FAC7
:102DA000207C012803DB207C102800DC03E0E521E7
:102DB00093A0FDF76DFA6E68A0480640217920685F
:102DC00040EA012006436E60AE689D480640D4E9A3
:102DD00002100843617940EA41000643AE60EE6AA2
:102DE00026F47006207C401EC0B2074346EA075610
:102DF000EE62BDE8F08100210160017141718160E6
:102E0000C16001210174704770B504460D467948D0
:102E1000844205D07848844202D07848844200D168
:102E200004E04FF4977176A0FDF732FA0DB1012D51
:102E300000D104E040F22F1171A0FDF729FA25B16D
:102E4000A06840F00100A06003E0A06820F001004D
:102E5000A06070BD70B504460D466648844202D03D
:102E60006648844200D104E040F2471164A0FDF7B7
:102E70000FFA0DB1012D00D104E04FF4A47160A050
:102E8000FDF706FA25B1A06840F48070A06003E069
:102E9000A06820F48070A06070BD2DE9F041044668
:102EA0000D46164600275348844205D052488442B6
:102EB00002D05248844200D104E040F2651150A093
:102EC000FDF7E6F90EB1012E00D104E04FF4B37125
:102ED0004BA0FDF7DDF94FF61F00054201D105B10A
:102EE00004E040F2671146A0FDF7D2F9EFB21EB13F
:102EF00060683843606002E06068B8436060BDE8C5
:102F0000F08110B504463B48844205D03A488442DB
:102F100002D03A48844200D104E04FF4BF7138A097
:102F2000FDF7B6F9A06840F00800A06010BD70B5CC
:102F3000044600252F48844205D02F48844202D001
:102F40002E48844200D104E04FF4C6712CA0FDF756
:102F50009FF9A06810F0080F01D0012500E00025BE
:102F6000284670BD10B504462248844205D0224848
:102F7000844202D02148844200D104E04FF4D2714F
:102F80001FA0FDF785F9A06840F00400A06010BD07
:102F900070B5044600251748844205D0164884427F
:102FA00002D01648844200D104E04FF4D97114A035
:102FB000FDF76EF9A06810F0040F01D0012500E0C4
:102FC0000025284670BD70B504460D460948844268
:102FD00005D00948844202D00848844200D104E068
:102FE0004FF4E67106A0FDF753F90DB1012D29D17B
:102FF0002EE000000024014000280140003C014078
:103000004C69627261726965735C53544D33324628
:103010003130785F5374645065726970685F4472D0
:10302000697665725C7372635C73746D333266319A
:1030300030785F6164632E6300000000FFFEF0FFE4
:10304000FDF7F1FF40F2CD11AFF24C00FDF720F992
:1030500025B1A06840F4A000A06003E0A06820F4BF
:10306000A000A06070BD70B504460025FE488442F3
:1030700005D0FE48844202D0FD48844200D105E0DC
:1030800040F2E511AFF28800FDF702F9A06810F4F4
:10309000800F01D0012500E00025284670BD2DE9F4
:1030A000F04104460D4600260027EF48844205D033
:1030B000EE48844202D0EE48844200D105E040F25E
:1030C0000221AFF2C400FDF7E3F8012D02DB082D69
:1030D00000DC05E040F20321AFF2DC00FDF7D8F898
:1030E000666826F460466F1E46EA47366660BDE8AD
:1030F000F08170B504460D46DB48844205D0DB48BC
:10310000844202D0DA48844200D105E040F21B211B
:10311000AFF21410FDF7BCF80DB1012D00D105E0A0
:103120004FF40771AFF22810FDF7B2F825B16068CF
:1031300040F40060606003E0606820F4006060605C
:1031400070BD2DE9F04706460C4617469846002507
:10315000A946C548864205D0C448864202D0C44824
:10316000864200D105E040F25221AFF26C10FDF72B
:103170008FF80CB3012C1FD0022C1DD0032C1BD0B8
:10318000042C19D0052C17D0062C15D0072C13D0E1
:10319000082C11D0092C0FD00A2C0DD00B2C0BD0E1
:1031A0000C2C09D00D2C07D00E2C05D00F2C03D0E1
:1031B000102C01D0112C00D105E040F25321AFF2C8
:1031C000C010FDF765F8012F02DB102F00DC05E0D1
:1031D0004FF41571AFF2D810FDF75AF8B8F1000F9F
:1031E00014D0B8F1010F11D0B8F1020F0ED0B8F120
:1031F000030F0BD0B8F1040F08D0B8F1050F05D0BC
:10320000B8F1060F02D0B8F1070F00D105E040F287
:103210005521AFF21420FDF73BF8092C13DDF568BA
:10322000A4F10A0000EB4001072000FA01F925EAA9
:103230000905A4F10A0000EB400008FA00F945EA8C
:103240000905F5600EE0356904EB4401072000FA3A
:1032500001F925EA090504EB440008FA00F945EAFA
:1032600009053561072F11DA756B781E00EB8001B7
:103270001F2000FA01F925EA0905781E00EB8000FD
:1032800004FA00F945EA0905756326E00D2F11DA05
:10329000356BF81F00EB80011F2000FA01F925EAC9
:1032A0000905F81F00EB800004FA00F945EA09055A
:1032B000356312E0F56AA7F10D0000EB80011F20D5
:1032C00000FA01F925EA0905A7F10D0000EB8000DD
:1032D00004FA00F945EA0905F562BDE8F08770B522
:1032E00004460D466048844205D06048844202D0BE
:1032F0005F48844200D105E040F2B121AFF20030D6
:10330000FCF7C6FF0DB1012D00D105E040F2B2215E
:10331000AFF21430FCF7BCFF25B1A06840F4801078
:10332000A06003E0A06820F48010A06070BD10B51C
:1033300004464D48844205D04C48844202D04C4853
:10334000844200D105E040F2C721AFF24C30FCF7D7
:103350009FFFE06C80B210BD43484C30006870475E
:1033600070B504460D464048844205D03F4884422B
:1033700002D03F48844200D105E040F2E121AFF2A3
:103380008030FCF785FF0DB1012D00D105E040F242
:10339000E221AFF29430FCF77BFF25B1606840F486
:1033A0008060606003E0606820F48060606070BDF1
:1033B00070B504460D462C48844205D02B48844203
:1033C00002D02B48844200D105E040F2FB21AFF24D
:1033D000D030FCF75DFF0DB1012D00D105E04FF4B9
:1033E0003F71AFF2E430FCF753FF25B1606840F461
:1033F0008050606003E0606820F48050606070BDC1
:1034000070B505460C4600261748854205D017487A
:10341000854202D01648854200D105E040F22331B2
:10342000AFF22440FCF734FF54B3B4F5805F27D0EB
:10343000B4F5005F24D0B4F5405F21D0B4F5804FDF
:103440001ED0B4F5A04F1BD0B4F5C04F18D0B4F5C2
:10345000E04F15D0B4F5005F12D0B4F5405F0FD047
:10346000B4F5804F0CD005E0002401400028014055
:10347000003C0140B4F5A04F02D0B4F5C04F00D1DC
:1034800005E04FF44971AFF28840FCF701FFAE68E8
:1034900026F4E0462643AE6070BD70B504460D4686
:1034A000FA48844205D0FA48844202D0F94884425E
:1034B00000D105E040F23B31AFF2BC40FCF7E8FE42
:1034C0000DB1012D00D105E04FF44F71AFF2D040A6
:1034D000FCF7DEFE25B1A06840F40040A06003E0E8
:1034E000A06820F40040A06070BD70B504460D4691
:1034F000E648844205D0E648844202D0E54884424A
:1035000000D105E04FF45571AFF20C50FCF7C0FE4E
:103510000DB1012D00D105E040F25531AFF2205040
:10352000FCF7B6FE25B1A06840F40210A06003E0ED
:10353000A06820F40210A06070BD70B5044600259C
:10354000D248844205D0D248844202D0D148844235
:1035500000D105E040F26D31AFF25C50FCF798FE0F
:10356000A06810F4001F01D0012500E000252846C6
:1035700070BD2DE9F04706460C4691461D460027D2
:10358000B846BA46C148864205D0C148864202D0F4
:10359000C048864200D105E040F2A631AFF2A0500B
:1035A000FCF776FE0CB3012C1FD0022C1DD0032C8F
:1035B0001BD0042C19D0052C17D0062C15D0072CA5
:1035C00013D0082C11D0092C0FD00A2C0DD00B2CA5
:1035D0000BD00C2C09D00D2C07D00E2C05D00F2CA5
:1035E00003D0102C01D0112C00D105E040F2A731FE
:1035F000AFF2F450FCF74CFEB9F1010F03DBB9F167
:10360000040F00DC05E04FF46A71AFF20C60FCF7C8
:103610003FFE6DB1012D0BD0022D09D0032D07D037
:10362000042D05D0052D03D0062D01D0072D00D186
:1036300005E040F2A931AFF23860FCF729FE092C11
:1036400013DDF768A4F10A0000EB4001072000FA3F
:1036500001F827EA0807A4F10A0000EB400005FA88
:1036600000F847EA0807F7600EE0376904EB440109
:10367000072000FA01F827EA080704EB440005FADE
:1036800000F847EA08073761B76BC7F3015A09F139
:1036900003000AF10101401A00EB80011F2000FA2B
:1036A00001F827EA080709F103000AF10101401AAD
:1036B00000EB800004FA00F847EA0807B763BDE8AA
:1036C000F0872DE9F04104460D46002600276F489B
:1036D000844205D06E48844202D06E48844200D1B4
:1036E00005E040F2E631AFF2E860FCF7D1FD012DD4
:1036F00002DB042D00DC05E040F2E731AFF20070A0
:10370000FCF7C6FDA66B26F440166F1E46EA075668
:10371000A663BDE8F081F8B505460C4616460020C4
:1037200000905A48854205D05948854202D05948F0
:10373000854200D105E040F20641AFF23C70FCF753
:10374000A7FD142C05D0182C03D01C2C01D0202C44
:1037500000D105E040F20741AFF25C70FCF798FD44
:10376000B6F5805F00DA05E04FF48161AFF270706A
:10377000FCF78EFD009500982044009000980660AC
:10378000F8BD38B505460C46002000903F488542FC
:1037900005D03F48854202D03E48854200D105E031
:1037A00040F22141AFF2A870FCF772FD142C05D055
:1037B000182C03D01C2C01D0202C00D105E040F2A5
:1037C0002241AFF2C470FCF763FD009504F12800BC
:1037D0000099084400900098006880B238BD70B528
:1037E00005460C4600262948854205D028488542D2
:1037F00002D02848854200D105E040F23E41AFF6B4
:103800000000FCF745FD244884420FD02348844241
:103810000CD02348844209D0B4F5000F06D0B4F58B
:10382000800F03D0B4F5400F00D004B905E040F29A
:103830003F41AFF63400FCF72BFD6E681848C043DB
:10384000064026436E6070BD70B504460E461546B0
:103850000E48844205D00E48844202D00D4884426E
:1038600000D105E040F25741AFF66C00FCF710FDC7
:10387000B6F5805F00DA05E04FF48B61AFF68000AB
:10388000FCF706FDB5F5805F0CDA11E0002401407D
:1038900000280140003C014000028000000240007E
:1038A0000002C00040F25941AFF6AC00FCF7F0FC5A
:1038B0006662A56270BD70B505460C460026844858
:1038C000854205D08348854202D08348854200D195
:1038D00005E040F27D41AFF6D800FCF7D9FC0CB30F
:1038E000012C1FD0022C1DD0032C1BD0042C19D06E
:1038F000052C17D0062C15D0072C13D0082C11D06E
:10390000092C0FD00A2C0DD00B2C0BD00C2C09D06D
:103910000D2C07D00E2C05D00F2C03D0102C01D06D
:10392000112C00D105E040F27E41AFF62C10FCF7DF
:10393000AFFC6E6826F01F0626436E6070BD10B5A2
:1039400004460CB1012C00D105E040F29241AFF6E3
:103950005010FCF79DFC44B15D480830006840F40D
:1039600000005B490831086007E0594808300068EA
:1039700020F4000056490831086010BD70B50546B6
:103980000C4600265248854205D05248854202D056
:103990005148854200D105E040F2AF41AFF6A0109A
:1039A000FCF776FC012C07D0022C05D0042C03D0A8
:1039B000082C01D0102C00D105E04FF49661AFF631
:1039C000C010FCF765FC2868204201D0012600E009
:1039D0000026304670BD70B504460D463C48844212
:1039E00005D03C48844202D03B48844200D105E0E7
:1039F00040F2CF41AFF6F810FCF74AFC15F0E00FAB
:103A000001D105B105E04FF49A61AFF60C20FCF747
:103A10003FFCE843206070BD2DE9F04104460D46AF
:103A200000260027B0462A48844205D0294884420F
:103A300002D02948844200D105E040F2E441AFF6CB
:103A40004020FCF725FCB5F5087F05D0B5F5A07F33
:103A500002D0B5F5906F00D105E040F2E541AFF638
:103A60006020FCF715FC2F126068E9B200EA01083B
:103A70002068384204D0B8F1000F01D0012600E0E0
:103A800000263046BDE8F08170B504460D4600269C
:103A90000F48844205D00F48844202D00E48844229
:103AA00000D105E040F20751AFF6AC20FCF7F0FB87
:103AB0004FF61F00054201D105B105E04FF4A161A9
:103AC000AFF6C420FCF7E4FB2E12F043206070BD7B
:103AD0000024014000280140003C014010B504468C
:103AE000FA48844205D0FA48844202D0F948844218
:103AF00000D103E07A21F8A0FCF7CAFBF348844226
:103B000008D101218014FEF73AFE0021A014FEF72F
:103B100036FE16E0EE48844208D101210014FEF77B
:103B200057FE00212014FEF753FE0AE0E9488442C4
:103B300007D10121C013FEF74BFE0021E013FEF771
:103B400047FE10BD70B505460C460026DF4885428D
:103B500005D0DF48854202D0DE48854200D103E02F
:103B6000A321DDA0FCF794FB208858B12088B0F594
:103B7000806F07D02088B0F5004F03D02088B0F5C3
:103B8000404F00D103E0A621D3A0FCF781FB608861
:103B9000B0F5827F01D0608800B903E0A721CEA0F4
:103BA000FCF776FBA088B0F5006F01D0A08800B9C3
:103BB00003E0A821C8A0FCF76BFBE08810B1E08807
:103BC000022800D103E0A921C3A0FCF761FB2089F2
:103BD00010B12089012800D103E0AA21BEA0FCF782
:103BE00057FB6089B0F5007F01D0608900B903E020
:103BF000AB21B9A0FCF74CFBA089A0B1A089082893
:103C000011D0A08910280ED0A08918280BD0A08927
:103C1000202808D0A089282805D0A089302802D0E3
:103C2000A089382800D103E0AC21ABA0FCF730FB21
:103C3000E08910B1E089802800D103E0AD21A6A081
:103C4000FCF726FB208A012800DB03E0AE21A2A0BE
:103C5000FCF71EFB2E8806F4415620886188084335
:103C6000A1880843E1880843218908436189084302
:103C7000A1890843E189084306432E80A88B4FF2AF
:103C8000FF710840A883208A288270BD2DE9F04F7B
:103C900085B005460C464FF0000902274FF000089A
:103CA0004FF0010B0026B2468948854202D0894870
:103CB000854200D103E0E32187A0FCF7E9FA2088E0
:103CC00058B12088B0F5807F07D02088B0F5007FFC
:103CD00003D02088B0F5407F00D103E0E4217EA02E
:103CE000FCF7D6FA608858B16088102808D0608840
:103CF000202805D06088302802D06088B02800D104
:103D000003E0E52174A0FCF7C3FAA08840B1A088C5
:103D1000012805D0A088032802D0A088052800D15A
:103D200003E0E6216CA0FCF7B3FAE088B0F5007F71
:103D300001D0E08800B903E0E72167A0FCF7A8FA0A
:103D4000A068B0F5FA5F03D37249A068884202D92F
:103D5000A068022800D103E0E8215FA0FCF798FAF0
:103D6000A08910B1A089082800D103E0E9215AA058
:103D7000FCF78EFAA88B4FF240010840A88302207E
:103D80002884B5F81C90A068022803D14FF00008E1
:103D9000022738E0A08810B94FF0010B01E04FF086
:103DA000020B4B48854200D100E000BF6846FEF799
:103DB00001FCDDF800A0E088B0F5007F0AD14FEAF1
:103DC0001A2000EB80004000A168B0FBF1F0401D1C
:103DD00086B20BE04FEA4B10BAFBF0F000EB80002C
:103DE0004000A168B0FBF1F0401D86B20A20B6FB8E
:103DF000F0F606F00108A6EB0800C0F34F074FF6F7
:103E0000FF7000EA0828022F01DBFF2F02DD0227E6
:103E10004FF00008E08840EA080038432884A08872
:103E2000A1890843618808432188084340F4006061
:103E300040EA0909A5F81C9005B0BDE8F08F002103
:103E4000018041808180C180018141818181C18166
:103E50000721018270470021018041808180C1805B
:103E60000221816000218181704770B504460D46B2
:103E70001648844205D01648844202D01548844230
:103E800000D104E04FF4D77113A0FCF701FA0DB193
:103E9000012D00D104E040F2AF110FA0FCF7F8F9BA
:103EA00025B1208840F04000208004E020884FF6B3
:103EB000BF710840208070BD70B504460D460448AF
:103EC000844202D00348844226D12BE000300140D6
:103ED00000380040003C00404C69627261726965C4
:103EE000735C53544D3332463130785F53746450B1
:103EF00065726970685F4472697665725C7372633B
:103F00005C73746D3332663130785F7370692E6321
:103F10000000000000EE02004FF4E371AFF2480031
:103F2000FCF7B6F90DB1012D00D105E040F2C71143
:103F3000AFF25C00FCF7ACF925B1A08B40F48060D7
:103F4000A08304E0A08B4FF6FF310840A08370BD32
:103F50002DE9F04104460D4616464FF000080027B3
:103F6000F648844205D0F648844202D0F54884429F
:103F700000D105E04FF4F371AFF2A400FCF788F92B
:103F80000EB1012E00D105E040F2E711AFF2B8000A
:103F9000FCF77EF9712D03D0602D01D0502D00D19A
:103FA00005E04FF4F471AFF2D000FCF771F94FEA7D
:103FB0002518012000FA08F087B21EB1A088384306
:103FC000A08002E0A088B843A080BDE8F08170B571
:103FD00004460D461646D948844205D0D848844246
:103FE00002D0D848844200D105E04FF40371AFF20B
:103FF0001810FCF74DF90EB1012E00D105E040F28A
:104000000D21AFF22C10FCF743F94FF6FC7005427E
:1040100001D105B105E040F20E21AFF24410FCF7EA
:1040200037F91EB1A0882843A08002E0A088A843E9
:10403000A08070BD70B504460D46C048844205D0CE
:10404000BF48844202D0BF48844200D105E040F21C
:104050002621AFF27C10FCF71BF9A58170BD10B5CD
:104060000446B648844205D0B548844202D0B548DB
:10407000844200D105E040F23621AFF2A410FCF7F3
:1040800007F9A08910BD70B504460D46AB488442BF
:1040900005D0AB48844202D0AA48844200D105E052
:1040A0004FF41271AFF2D010FCF7F2F8B5F5807F43
:1040B00003D0A5F57E40FF3800D105E040F249214C
:1040C000AFF2EC10FCF7E4F8A5F57E40FF3804D021
:1040D000208840F48070208004E020884FF6FF6143
:1040E0000840208070BD70B504460D469348844258
:1040F00005D09348844202D09248844200D105E022
:104100004FF41871AFF23020FCF7C2F80DB1012D59
:1041100000D105E040F26121AFF24420FCF7B8F88D
:1041200025B1A08840F00400A08004E0A0884FF6EC
:10413000FB710840A08070BD70B504460D467F48F5
:10414000844205D07E48844202D07E48844200D119
:1041500005E040F27A21AFF28020FCF799F8B5F53E
:10416000006F00D005B905E040F27B21AFF2982046
:10417000FCF78EF820884FF2FF71084020802088DD
:104180002843208070BD10B504466C48844205D099
:104190006B48844202D06B48844200D105E040F273
:1041A0008A21AFF2CC20FCF773F8208840F48050CD
:1041B000208010BD70B504460D466048844205D08D
:1041C0005F48844202D05F48844200D105E040F25B
:1041D0009A21AFF2FC20FCF75BF80DB1012D00D164
:1041E00005E040F29B21AFF21030FCF751F825B109
:1041F000208840F40050208004E020884DF6FF71B4
:104200000840208070BD70B504460D4600264B481E
:10421000844205D04A48844202D04A48844200D1B0
:1042200005E040F2B521AFF25030FCF731F80DB1A6
:10423000012D00D105E040F2B621AFF26430FCF769
:1042400027F8012D01D0268B00E0A68A304670BDEC
:1042500010B504463948844205D03948844202D01A
:104260003848844200D105E040F2CD21AFF29830C9
:10427000FCF70EF8208A10BD70B504460D462F4895
:10428000844205D02E48844202D02E48844200D178
:1042900005E040F2DF21AFF2C030FBF7F9FFA5F5F2
:1042A0003F40FF3802D0B5F5804F00D105E04FF414
:1042B0003871AFF2DC30FBF7EBFFB5F5804F04D17E
:1042C000208840F48040208004E020884BF6FF7175
:1042D0000840208070BD70B505460C460026174882
:1042E000854205D01648854202D01648854200D145
:1042F00005E040F20231AFF22040FBF7C9FF802C0D
:104300000DD0402C0BD0202C09D0102C07D0082C1D
:1043100005D0042C03D0022C01D0012C00D105E0E3
:1043200040F20331AFF25040FBF7B2FF2889204240
:1043300001D0012600E00026304670BD003001406B
:1043400000380040003C004070B504460D4643482C
:10435000844205D04248844202D04248844200D17F
:1043600005E040F22731AFF29040FBF791FF102DAE
:1043700000D105E04FF44A71AFF2A440FBF788FF8B
:10438000E843208170BD2DE9F04705460C46002723
:10439000B8460026B1463148854205D030488542AE
:1043A00002D03048854200D105E040F24331AFF2FF
:1043B000D840FBF76DFF602C09D0712C07D0532C2F
:1043C00005D0542C03D0552C01D0562C00D105E03B
:1043D0004FF45171AFF20050FBF75AFF04F00F0198
:1043E000012088401FFA80F826110120B04086B2D3
:1043F000A88800EA0609288910EA080F04D0B9F154
:10440000000F01D0012700E000273846BDE8F08703
:1044100070B504460D4600261048844205D0104869
:10442000844202D00F48844200D105E040F2773147
:10443000AFF25C50FBF72CFF542D00D105E04FF498
:104440005E71AFF26C50FBF723FF05F00F01012006
:10445000884086B2F043208170BD000000300140EA
:1044600000380040003C004010B50446FC4884423F
:1044700011D0FC4884420ED0FB4884420BD0FB484C
:10448000844208D0FA48844205D0FA48844202D0D7
:10449000F948844200D103E06F21F8A0FBF7F8FE51
:1044A000EF48844208D101210420FEF768F9002179
:1044B0000420FEF764F946E0EA48844208D101216D
:1044C0000820FEF75CF900210820FEF758F93AE0D1
:1044D000E548844208D101211020FEF750F900215F
:1044E0001020FEF74CF92EE0E048844208D101216B
:1044F0002020FEF744F900212020FEF740F922E0B9
:10450000DB48844208D101214020FEF738F9002120
:104510004020FEF734F916E0D648844208D1012144
:104520008020FEF72CF900218020FEF728F90AE010
:10453000D148844207D101218015FEF720F90021DE
:10454000A015FEF71CF910BD10B501210846FEF7B5
:1045500016F900210120FEF712F910BD2DE9F05FD8
:1045600005460C464FF00009CA4600260027B04613
:10457000B346BB48854211D0BA4885420ED0BA48EE
:1045800085420BD0B948854208D0B948854205D04C
:10459000B848854202D0B848854200D103E0B22134
:1045A000B6A0FBF775FEE078A0B1E078042811D042
:1045B000E07828280ED0E07848280BD0E07814283E
:1045C00008D0E078102805D0E0781C2802D0E078E8
:1045D000182800D103E0B321A8A0FBF759FE002062
:1045E00010B9208800B103E0B421A4A0FBF750FE6D
:1045F000E07800F00F09E07810F0100F10D0A078EC
:10460000012805D0A078022802D0A078032800D184
:1046100003E0BB2199A0FBF73BFEA07840EA090923
:10462000207838B3D5F8008000261FE0012000FA7A
:1046300006F7208800EA070ABA4516D1B7000F200E
:1046400000FA07FB28EA0B0809FA07F040EA080815
:10465000E078282803D10120B040686105E0E078C7
:10466000482802D10120B0402861761C082EDDD3F5
:10467000C5F800802088FF282BDDD5F804800026AF
:1046800023E006F10800012101FA00F7208800EA82
:10469000070ABA4518D1B7000F2000FA07FB28EA2D
:1046A0000B0809FA07F040EA0808E078282803D147
:1046B00006F1080081406961E078482804D106F1DC
:1046C0000800012181402961761C082ED9D3C5F844
:1046D0000480BDE8F09F4FF6FF71018002218170D8
:1046E0000421C170704770B505460C4600265C4831
:1046F000854211D05B4885420ED05B4885420BD085
:104700005A48854208D05A48854205D059488542C2
:1047100002D05948854200D104E04FF48F7157A070
:10472000FBF7B6FD012C25D0022C23D0042C21D080
:10473000082C1FD0102C1DD0202C1BD0402C19D0A1
:10474000802C17D0B4F5807F14D0B4F5007F11D041
:10475000B4F5806F0ED0B4F5006F0BD0B4F5805F68
:1047600008D0B4F5005F05D0B4F5804F02D0B4F5A1
:10477000004F00D104E040F21F1140A0FBF788FD7C
:10478000A868204201D0012600E00026304670BD16
:1047900010B504463248844211D0324884420ED0CB
:1047A000314884420BD03148844208D0304884429A
:1047B00005D03048844202D02F48844200D104E022
:1047C0004FF49A712DA0FBF763FDA06880B210BD75
:1047D00070B505460C4600262148854211D0214877
:1047E00085420ED0204885420BD02048854208D013
:1047F0001F48854205D01F48854202D01E48854289
:1048000000D104E04FF4A2711CA0FBF741FD012C84
:1048100025D0022C23D0042C21D0082C1FD0102C02
:104820001DD0202C1BD0402C19D0802C17D0B4F5D3
:10483000807F14D0B4F5007F11D0B4F5806F0ED016
:10484000B4F5006F0BD0B4F5805F08D0B4F5005F0D
:1048500005D0B4F5804F02D0B4F5004F2CD131E033
:1048600000080140000C014000100140001401400C
:1048700000180140001C0140002001404C69627298
:1048800061726965735C53544D3332463130785FE1
:104890005374645065726970685F447269766572BA
:1048A0005C7372635C73746D3332663130785F674A
:1048B00070696F2E6300000040F24511AFF24400B2
:1048C000FBF7E6FCE868204201D0012600E0002664
:1048D000304670BD10B50446FE48844211D0FE48F3
:1048E00084420ED0FD4884420BD0FD48844208D05B
:1048F000FC48844205D0FC48844202D0FB488442F4
:1049000000D105E04FF4AD71AFF29000FBF7C0FCB1
:10491000E06880B210BD70B504460D46ED48844293
:1049200011D0ED4884420ED0EC4884420BD0EC48C4
:10493000844208D0EB48844205D0EB48844202D040
:10494000EA48844200D105E040F26911AFF2D40098
:10495000FBF79EFC002008B905B105E04FF4B571E6
:10496000AFF2E800FBF794FC256170BD70B504461A
:104970000D46D848844211D0D74884420ED0D7483B
:1049800084420BD0D648844208D0D648844205D011
:10499000D548844202D0D548844200D105E040F297
:1049A0007911AFF22810FBF773FC002008B905B1AC
:1049B00005E04FF4BD71AFF23C10FBF769FC656197
:1049C00070BD70B505460C461646C248854211D0EA
:1049D000C14885420ED0C14885420BD0C0488542AF
:1049E00008D0C048854205D0BF48854202D0BF48A4
:1049F000854200D105E040F28D11AFF28010FBF747
:104A000047FC012C25D0022C23D0042C21D0082CCB
:104A10001FD0102C1DD0202C1BD0402C19D0802C46
:104A200017D0B4F5807F14D0B4F5007F11D0B4F561
:104A3000806F0ED0B4F5006F0BD0B4F5805F08D056
:104A4000B4F5005F05D0B4F5804F02D0B4F5004F47
:104A500000D105E04FF4C771AFF2E010FBF718FC8E
:104A60000EB1012E00D105E040F28F11AFF2F4102B
:104A7000FBF70EFC0EB12C6100E06C6170BD70B5EF
:104A800004460D469348844211D0934884420ED088
:104A9000924884420BD09248844208D09148844284
:104AA00005D09148844202D09048844200D105E06C
:104AB0004FF4D271AFF23C20FBF7EAFBE56070BD2A
:104AC00070B504460D464FF480368248844211D0BA
:104AD000814884420ED0814884420BD08048844271
:104AE00008D08048844205D07F48844202D07F4865
:104AF000844200D105E040F2B511AFF28020FBF70F
:104B0000C7FB002008B905B105E04FF4DB71AFF237
:104B10009420FBF7BDFB2E43A661A561A661A669A3
:104B2000A66970BD70B505460C4600263DB1012D45
:104B300005D0022D03D0032D01D0042D00D105E0B6
:104B40004FF4E971AFF2CC20FBF7A2FBECB1012CE2
:104B50001BD0022C19D0032C17D0042C15D0052CF7
:104B600013D0062C11D0072C0FD0082C0DD0092CF7
:104B70000BD00A2C09D00B2C07D00C2C05D00D2CF7
:104B800003D00E2C01D00F2C00D105E040F2D31140
:104B9000AFF21830FBF77CFB554806684FF6807083
:104BA000064046EA051626435148066070BD10B51A
:104BB00004460CB1012C00D105E04FF4F371AFF2C3
:104BC0004430FBF765FB4B48C46110BD2DE9F0474D
:104BD00004460E460027B8460025A946012C77D08A
:104BE000022C75D0042C73D0082C71D0A4F5A01021
:104BF00010386DD020386BD0A4F5B010403867D095
:104C0000803865D03C48844262D03C4884425FD0C2
:104C10003B4884425CD03B48844259D03A48844265
:104C200056D0B4F5805F53D0B4F5EA1F50D0B4F538
:104C3000EB1F4DD0B4F5004F4AD03448844247D0E2
:104C4000A4F50010801E7CD0801E7AD0001F78D082
:104C5000083876D0B4F1201F73D0303871D02C488A
:104C600084426ED02B4884426BD02B48844268D05B
:104C70002A48844265D02A48844262D0B4F5011F94
:104C80005FD0284884425CD0401C844259D0801CAC
:104C9000844256D0001D844253D022480F308442B3
:104CA0004FD020481F3084424BD01E483F308442B2
:104CB00047D01C487F30844243D01A48FF3084429A
:104CC0003FD0194884423CD01848844239D02FE064
:104CD00037E0000000080140000C014000100140D6
:104CE0000014014000180140001C01400020014058
:104CF00000000140000020420001180000021800DE
:104D00000003180000081A00000C1A00010020001F
:104D100000013000000230000004300000112000CB
:104D200000202000010000800002008000040080BC
:104D30006348844205D06348844202D0624884427A
:104D400000D105E040F22A21AFF2D040FBF7A0FAF3
:104D50000EB1012E00D105E040F22B21AFF2E4406C
:104D6000FBF796FA04F00040B0F1004F02D157482B
:104D7000C56901E055484568C4F30349A7B204F486
:104D80004010B0F5401F08D125F070654F484068CD
:104D900020F070604D49486013E004F48010B0F5D5
:104DA000801F07D1032000FA09F825EA080545F01D
:104DB000706506E0600D000107FA00F0854345F0DC
:104DC000706526B1600D010107FA01F0054304F09A
:104DD0000040B0F1004F02D13C48C56101E03B48C2
:104DE0004560BDE8F08770B505460C4600265DB10C
:104DF000012D09D0022D07D0032D05D0042D03D09D
:104E0000052D01D0062D00D105E040F26521AFF25D
:104E10009450FBF73DFAECB1012C1BD0022C19D0B9
:104E2000032C17D0042C15D0052C13D0062C11D030
:104E3000072C0FD0082C0DD0092C0BD00A2C09D030
:104E40000B2C07D00C2C05D00D2C03D00E2C01D030
:104E50000F2C00D105E040F26621AFF2E050FBF7E5
:104E600017FAA007010F0F2000FA01F617480830C3
:104E7000A11050F82100B04314490831A21041F8A4
:104E800022000846A11050F82100A107090F05FAD9
:104E900001F108430D490831A21041F8220070BD0C
:104EA00010B504460CB1012C00D105E04FF41E7181
:104EB000AFF23860FBF7ECF90548046010BD000064
:104EC00000080080001000800020008000000140E9
:104ED000DC00204210B50446FE4884420BD0FE4858
:104EE000844208D0FD48844205D0FD48844202D067
:104EF000FC48844200D103E08521FBA0FBF7C8F900
:104F0000F448844209D101218803FDF738FC0021CF
:104F10004FF48040FDF733FC32E0EF48844209D182
:104F200001214804FDF754FC00214FF40030FDF747
:104F30004FFC25E0E948844209D101218804FDF7AE
:104F400047FC00214FF48020FDF742FC18E0E448C4
:104F5000844209D10121C804FDF73AFC00214FF435
:104F60000020FDF735FC0BE0DE48844208D101212A
:104F70000805FDF72DFC00214FF48010FDF728FCFB
:104F800010BD2DE9F04786B005460C460026B24616
:104F900000BFB1460027CF4885420BD0CE4885429E
:104FA00008D0CE48854205D0CD48854202D0CD48B4
:104FB000854200D103E0B821CBA0FBF769F9206856
:104FC00020B1D8492068884200D203E0B921C6A0A8
:104FD000FBF75EF9A08818B1A088B0F5805F00D11A
:104FE00003E0BA21C0A0FBF753F9E08858B1E0888C
:104FF000B0F5805F07D0E088B0F5005F03D0E088AF
:10500000B0F5405F00D103E0BB21B7A0FBF740F94A
:10501000208938B12089B0F5806F03D02089B0F5A0
:10502000C06F00D103E0BC21AFA0FBF731F960896C
:105030004FF6F371084202D1608900B103E0BD214F
:10504000A9A0FBF725F9A08958B1A089B0F5807F08
:1050500007D0A089B0F5007F03D0A089B0F5407FCC
:1050600000D103E0BE21A0A0FBF712F9A08968B12E
:105070009848854205D09848854202D09748854295
:1050800000D103E0C22198A0FBF702F92F462E8A37
:105090004CF6FF700640E08806432E82AE894EF63D
:1050A000F3100640A088218908436189084306431C
:1050B000AE81AE8A4FF6FF400640A0890643AE821D
:1050C00001A8FDF777FA8348874202D1DDF810A0E6
:1050D00001E0DDF80CA0A88910F4004F08D00AEB1D
:1050E000CA0000EB0A1021684900B0FBF1F807E0A4
:1050F0000AEBCA0000EB0A1021688900B0FBF1F846
:105100006420B8FBF0F006013009642101FB10892E
:10511000A88910F4004F08D0322000EBC900B0FB82
:10512000F1F000F00700064308E0322000EB091020
:105130006421B0FBF1F000F00F0006432E8106B0B1
:10514000BDE8F0874FF41651016000218180C180D5
:1051500001810C21418100218181704770B5054694
:105160000C4600265B48854205D05B48854202D04C
:105170005A48854200D104E04FF499715AA0FBF7D8
:1051800087F8208818B12088B0F5006F00D104E0BE
:1051900040F2331154A0FBF77BF8608818B16088A7
:1051A000B0F5806F00D104E04FF49A714EA0FBF788
:1051B0006FF8A08818B1A088B0F5007F00D104E096
:1051C00040F2351148A0FBF763F8E08818B1E08899
:1051D000B0F5807F00D104E04FF49B7142A0FBF753
:1051E00057F82E8A4FF2FF00064020886188084356
:1051F000A1880843E188084306432E8270BD002140
:10520000018041808180C180704770B504460D46A1
:10521000304884420BD03048844208D02F48844222
:1052200005D02F48844202D02E48844200D104E0A9
:105230004FF4B1712CA0FBF72BF80DB1012D00D16B
:1052400004E040F2631128A0FBF722F825B1A08901
:1052500040F40050A08104E0A0894DF6FF710840A1
:10526000A08170BD2DE9F04705460C4617464FF06A
:105270000008C246C1460026164885420BD0164893
:10528000854208D01548854205D01548854202D090
:105290001448854200D104E040F2891112A0FAF7C7
:1052A000F7FF282C43D0A4F5E06027383FD0A4F5C1
:1052B000C06026383BD0A4F5A060253837D0A4F5CF
:1052C0008060243833D0A4F5006046382FD0B0F584
:1052D000927029E00038014000440040004800403E
:1052E000004C0040005000404C6962726172696578
:1052F000735C53544D3332463130785F537464508D
:1053000065726970685F4472697665725C73726316
:105310005C73746D3332663130785F7573617274AB
:105320002E63000021AA440001D0602C00D105E0CA
:105330004FF4C571AFF25000FAF7AAFF0FB1012F79
:1053400000D105E040F28B11AFF26400FAF7A0FF44
:10535000A4F510606A380FD1F948854205D0F948A4
:10536000854202D0F848854200D105E040F28F1115
:10537000AFF28C00FAF78CFF2E46C4F3421804F00B
:105380001F0A012000FA0AF9B8F1010F01D10C3609
:1053900005E0B8F1020F01D1103600E0143627B154
:1053A000306840EA0900306003E0306820EA090014
:1053B0003060BDE8F08770B504460D461646E048FB
:1053C00084420BD0DF48844208D0DF48844205D0B5
:1053D000DE48844202D0DE48844200D105E040F23B
:1053E000C311AFF2FC00FAF753FF4FF63F700542CE
:1053F00001D105B105E04FF4E271AFF21410FAF7F4
:1054000047FF0EB1012E00D105E040F2C511AFF209
:105410002810FAF73DFF1EB1A08A2843A08202E0BF
:10542000A08AA843A08270BD70B504460D46C4484A
:1054300084420BD0C348844208D0C348844205D07C
:10544000C248844202D0C248844200D105E040F202
:10545000DF11AFF26C10FAF71BFF0F2D00DC05E037
:105460004FF4F071AFF28010FAF712FF208A4FF676
:10547000F07108402082208A2843208270BD70B5D8
:1054800004460D46AE4884420BD0AE48844208D054
:10549000AD48844205D0AD48844202D0AC48844235
:1054A00000D105E04FF4FB71AFF2C410FAF7F0FE43
:1054B00015B1B5F5006F00D105E040F2F711AFF27C
:1054C000D810FAF7E5FEA0894FF2FF710840A081DD
:1054D000A0892843A08170BD70B504460D46984848
:1054E00084420BD09748844208D09748844205D024
:1054F0009648844202D09648844200D105E040F2AA
:105500000921AFF21C20FAF7C3FE0DB1012D00D125
:1055100005E040F20A21AFF23020FAF7B9FE25B1DA
:10552000A08940F00200A08104E0A0894FF6FD713F
:105530000840A08170BD70B504460D468048844285
:105540000BD08048844208D07F48844205D07F48F1
:10555000844202D07E48844200D105E040F22621F8
:10556000AFF27C20FAF794FE0DB1202D00D105E0BA
:1055700040F22721AFF29020FAF78AFE208A4FF6F8
:10558000DF7108402082208A2843208270BD70B5D8
:1055900004460D466A4884420BD06A48844208D0CB
:1055A0006948844205D06948844202D068488442F0
:1055B00000D105E040F23921AFF2D420FAF768FEBD
:1055C0000DB1012D00D105E040F23A21AFF2E82003
:1055D000FAF75EFE25B1208A40F48040208204E084
:1055E000208A4BF6FF710840208270BD70B50446DA
:1055F0000D46534884420BD05248844208D052484A
:10560000844205D05148844202D05148844200D19E
:1056100005E040F25321AFF23030FAF739FEB5F52C
:10562000007F00DA05E04FF41571AFF24430FAF76D
:105630002FFEC5F30800A08070BD10B50446404899
:1056400084420BD03F48844208D03F48844205D072
:105650003E48844202D03E48844200D105E04FF4E7
:105660001971AFF27C30FAF713FEA088C0F308007E
:1056700010BD10B50446324884420BD031488442F4
:1056800008D03148844205D03048844202D03048A6
:10569000844200D105E04FF41D71AFF2B430FAF747
:1056A000F7FDA08940F00100A08110BD70B504464F
:1056B0000D462348844205D02248844202D0224825
:1056C000844200D105E04FF42171AFF2E430FAF7E3
:1056D000DFFD208BC0B22083208B40EA0520208391
:1056E00070BD70B504460D46154884420BD0154870
:1056F000844208D01448844205D01448844202D021
:105700001348844200D105E04FF42671AFF22840DF
:10571000FAF7BEFD208B00F47F402083208B2843C6
:10572000208370BD70B504460D460548844205D0FF
:105730000448844202D0044884420BD110E00000A7
:10574000003801400044004000480040004C004048
:105750000050004040F2AB21AFF27440FAF798FDE0
:105760000DB1012D00D105E04FF42B71AFF288404F
:10577000FAF78EFD25B1A08A40F02000A08204E057
:10578000A08A4FF6DF710840A08270BD70B5044654
:105790000D46F848844205D0F748844202D0F748C5
:1057A000844200D105E04FF43171AFF2C440FAF702
:1057B0006FFD0DB1012D00D105E040F2C521AFF222
:1057C000D840FAF765FD25B1A08A40F01000A0820C
:1057D00004E0A08A4FF6EF710840A08270BD70B55A
:1057E00004460D46E34884420BD0E348844208D087
:1057F000E248844205D0E248844202D0E148844233
:1058000000D105E040F2DE21AFF22450FAF740FD6E
:105810000DB1012D00D105E040F2DF21AFF238508B
:10582000FAF736FD25B1A08A40F00800A08204E016
:10583000A08A4FF6F7710840A08270BD70B504468B
:105840000D46CC4884420BD0CB48844208D0CB488C
:10585000844205D0CA48844202D0CA48844200D15A
:1058600005E040F2FD21AFF28050FAF711FD0DB1D5
:10587000012D00D105E040F2FE21AFF29450FAF77D
:1058800007FD25B1A08940F40040A08103E0A08974
:10589000C0F30E00A08170BD70B504460D46B5483A
:1058A00084420BD0B448844208D0B448844205D026
:1058B000B348844202D0B348844200D105E04FF49B
:1058C0004671AFF2DC50FAF7E3FC0DB1012D00D1C7
:1058D00005E040F21931AFF2F050FAF7D9FC25B1EA
:1058E000A08A40F40060A08204E0A08A4FF2FF7119
:1058F0000840A08270BD70B504460D469D488442A4
:105900000BD09D48844208D09C48844205D09C48D6
:10591000844202D09B48844200D105E040F23531F8
:10592000AFF23C60FAF7B4FC042D00D005B905E0F5
:1059300040F23631AFF25060FAF7AAFCA08A4FF677
:10594000FB710840A082A08A2843A08270BD70B578
:1059500004460D46874884420BD08748844208D0CD
:105960008648844205D08648844202D085488442D5
:1059700000D105E04FF45271AFF29460FAF788FC61
:105980000DB1012D00D105E040F24931AFF2A86020
:10599000FAF77EFC25B1A08A40F00200A08204E064
:1059A000A08A4FF6FD710840A08270BD70B5054613
:1059B0000C4600266F4885420BD06F48854208D0C0
:1059C0006E48854205D06E48854202D06D488542BA
:1059D00000D105E040F26E31AFF2F460FAF758FC06
:1059E000012C13D0802C11D0402C0FD0202C0DD0A6
:1059F000102C0BD0B4F5807F08D0B4F5007F05D013
:105A0000082C03D0042C01D0022C00D105E040F278
:105A10006F31AFF22C70FAF73BFCB4F5007F0FD179
:105A20005448854205D05448854202D053488542A7
:105A300000D105E040F27331AFF25470FAF728FC60
:105A40002888204201D0012600E00026304670BDA3
:105A500070B504460D46474884420BD04648844200
:105A600008D04648844205D04548844202D0454883
:105A7000844200D105E040F29E31AFF29470FAF713
:105A800007FC4FF69F40054201D105B105E040F209
:105A90009F31AFF2AC70FAF7FBFB05F40070B0F584
:105AA000007F0FD13348844205D03348844202D06E
:105AB0003248844200D105E040F2A331AFF2D87001
:105AC000FAF7E6FBE843208070BD2DE9F047054674
:105AD0000C4600270026B046B146264885420BD02A
